{
  "address": "0x00cB56753f72245730190C30c9b8f1ee34FE7440",
  "abi": [
    {
      "anonymous": false,
      "inputs": [
        {
          "indexed": true,
          "internalType": "address",
          "name": "owner",
          "type": "address"
        },
        {
          "indexed": true,
          "internalType": "address",
          "name": "approved",
          "type": "address"
        },
        {
          "indexed": true,
          "internalType": "uint256",
          "name": "tokenId",
          "type": "uint256"
        }
      ],
      "name": "Approval",
      "type": "event"
    },
    {
      "anonymous": false,
      "inputs": [
        {
          "indexed": true,
          "internalType": "address",
          "name": "owner",
          "type": "address"
        },
        {
          "indexed": true,
          "internalType": "address",
          "name": "operator",
          "type": "address"
        },
        {
          "indexed": false,
          "internalType": "bool",
          "name": "approved",
          "type": "bool"
        }
      ],
      "name": "ApprovalForAll",
      "type": "event"
    },
    {
      "anonymous": false,
      "inputs": [
        {
          "indexed": true,
          "internalType": "bytes32",
          "name": "role",
          "type": "bytes32"
        },
        {
          "indexed": true,
          "internalType": "bytes32",
          "name": "previousAdminRole",
          "type": "bytes32"
        },
        {
          "indexed": true,
          "internalType": "bytes32",
          "name": "newAdminRole",
          "type": "bytes32"
        }
      ],
      "name": "RoleAdminChanged",
      "type": "event"
    },
    {
      "anonymous": false,
      "inputs": [
        {
          "indexed": true,
          "internalType": "bytes32",
          "name": "role",
          "type": "bytes32"
        },
        {
          "indexed": true,
          "internalType": "address",
          "name": "account",
          "type": "address"
        },
        {
          "indexed": true,
          "internalType": "address",
          "name": "sender",
          "type": "address"
        }
      ],
      "name": "RoleGranted",
      "type": "event"
    },
    {
      "anonymous": false,
      "inputs": [
        {
          "indexed": true,
          "internalType": "bytes32",
          "name": "role",
          "type": "bytes32"
        },
        {
          "indexed": true,
          "internalType": "address",
          "name": "account",
          "type": "address"
        },
        {
          "indexed": true,
          "internalType": "address",
          "name": "sender",
          "type": "address"
        }
      ],
      "name": "RoleRevoked",
      "type": "event"
    },
    {
      "anonymous": false,
      "inputs": [
        {
          "indexed": false,
          "internalType": "uint256",
          "name": "tokenId",
          "type": "uint256"
        },
        {
          "components": [
            {
              "internalType": "address payable",
              "name": "account",
              "type": "address"
            },
            {
              "internalType": "uint96",
              "name": "value",
              "type": "uint96"
            }
          ],
          "indexed": false,
          "internalType": "struct LibPart.Part[]",
          "name": "royalties",
          "type": "tuple[]"
        }
      ],
      "name": "RoyaltiesSet",
      "type": "event"
    },
    {
      "anonymous": false,
      "inputs": [
        {
          "indexed": true,
          "internalType": "address",
          "name": "from",
          "type": "address"
        },
        {
          "indexed": true,
          "internalType": "address",
          "name": "to",
          "type": "address"
        },
        {
          "indexed": true,
          "internalType": "uint256",
          "name": "tokenId",
          "type": "uint256"
        }
      ],
      "name": "Transfer",
      "type": "event"
    },
    {
      "inputs": [],
      "name": "DEFAULT_ADMIN_ROLE",
      "outputs": [
        {
          "internalType": "bytes32",
          "name": "",
          "type": "bytes32"
        }
      ],
      "stateMutability": "view",
      "type": "function"
    },
    {
      "inputs": [
        {
          "internalType": "address",
          "name": "to",
          "type": "address"
        },
        {
          "internalType": "uint256",
          "name": "tokenId",
          "type": "uint256"
        }
      ],
      "name": "approve",
      "outputs": [],
      "stateMutability": "nonpayable",
      "type": "function"
    },
    {
      "inputs": [
        {
          "internalType": "address",
          "name": "owner",
          "type": "address"
        }
      ],
      "name": "balanceOf",
      "outputs": [
        {
          "internalType": "uint256",
          "name": "",
          "type": "uint256"
        }
      ],
      "stateMutability": "view",
      "type": "function"
    },
    {
      "inputs": [],
      "name": "contractURI",
      "outputs": [
        {
          "internalType": "string",
          "name": "",
          "type": "string"
        }
      ],
      "stateMutability": "view",
      "type": "function"
    },
    {
      "inputs": [
        {
          "internalType": "uint256",
          "name": "tokenId",
          "type": "uint256"
        }
      ],
      "name": "getApproved",
      "outputs": [
        {
          "internalType": "address",
          "name": "",
          "type": "address"
        }
      ],
      "stateMutability": "view",
      "type": "function"
    },
    {
      "inputs": [
        {
          "internalType": "uint256",
          "name": "id",
          "type": "uint256"
        }
      ],
      "name": "getRaribleV2Royalties",
      "outputs": [
        {
          "components": [
            {
              "internalType": "address payable",
              "name": "account",
              "type": "address"
            },
            {
              "internalType": "uint96",
              "name": "value",
              "type": "uint96"
            }
          ],
          "internalType": "struct LibPart.Part[]",
          "name": "",
          "type": "tuple[]"
        }
      ],
      "stateMutability": "view",
      "type": "function"
    },
    {
      "inputs": [
        {
          "internalType": "bytes32",
          "name": "role",
          "type": "bytes32"
        }
      ],
      "name": "getRoleAdmin",
      "outputs": [
        {
          "internalType": "bytes32",
          "name": "",
          "type": "bytes32"
        }
      ],
      "stateMutability": "view",
      "type": "function"
    },
    {
      "inputs": [
        {
          "internalType": "bytes32",
          "name": "role",
          "type": "bytes32"
        },
        {
          "internalType": "uint256",
          "name": "index",
          "type": "uint256"
        }
      ],
      "name": "getRoleMember",
      "outputs": [
        {
          "internalType": "address",
          "name": "",
          "type": "address"
        }
      ],
      "stateMutability": "view",
      "type": "function"
    },
    {
      "inputs": [
        {
          "internalType": "bytes32",
          "name": "role",
          "type": "bytes32"
        }
      ],
      "name": "getRoleMemberCount",
      "outputs": [
        {
          "internalType": "uint256",
          "name": "",
          "type": "uint256"
        }
      ],
      "stateMutability": "view",
      "type": "function"
    },
    {
      "inputs": [
        {
          "internalType": "bytes32",
          "name": "role",
          "type": "bytes32"
        },
        {
          "internalType": "address",
          "name": "account",
          "type": "address"
        }
      ],
      "name": "grantRole",
      "outputs": [],
      "stateMutability": "nonpayable",
      "type": "function"
    },
    {
      "inputs": [
        {
          "internalType": "bytes32",
          "name": "role",
          "type": "bytes32"
        },
        {
          "internalType": "address",
          "name": "account",
          "type": "address"
        }
      ],
      "name": "hasRole",
      "outputs": [
        {
          "internalType": "bool",
          "name": "",
          "type": "bool"
        }
      ],
      "stateMutability": "view",
      "type": "function"
    },
    {
      "inputs": [],
      "name": "init",
      "outputs": [],
      "stateMutability": "nonpayable",
      "type": "function"
    },
    {
      "inputs": [
        {
          "internalType": "address",
          "name": "owner",
          "type": "address"
        },
        {
          "internalType": "address",
          "name": "operator",
          "type": "address"
        }
      ],
      "name": "isApprovedForAll",
      "outputs": [
        {
          "internalType": "bool",
          "name": "",
          "type": "bool"
        }
      ],
      "stateMutability": "view",
      "type": "function"
    },
    {
      "inputs": [
        {
          "internalType": "address",
          "name": "to",
          "type": "address"
        },
        {
          "internalType": "address",
          "name": "cloneContract",
          "type": "address"
        },
        {
          "internalType": "uint256",
          "name": "cloneId",
          "type": "uint256"
        }
      ],
      "name": "mint",
      "outputs": [],
      "stateMutability": "nonpayable",
      "type": "function"
    },
    {
      "inputs": [],
      "name": "name",
      "outputs": [
        {
          "internalType": "string",
          "name": "",
          "type": "string"
        }
      ],
      "stateMutability": "view",
      "type": "function"
    },
    {
      "inputs": [
        {
          "internalType": "uint256",
          "name": "tokenId",
          "type": "uint256"
        }
      ],
      "name": "ownerOf",
      "outputs": [
        {
          "internalType": "address",
          "name": "",
          "type": "address"
        }
      ],
      "stateMutability": "view",
      "type": "function"
    },
    {
      "inputs": [
        {
          "internalType": "bytes32",
          "name": "role",
          "type": "bytes32"
        },
        {
          "internalType": "address",
          "name": "account",
          "type": "address"
        }
      ],
      "name": "renounceRole",
      "outputs": [],
      "stateMutability": "nonpayable",
      "type": "function"
    },
    {
      "inputs": [
        {
          "internalType": "bytes32",
          "name": "role",
          "type": "bytes32"
        },
        {
          "internalType": "address",
          "name": "account",
          "type": "address"
        }
      ],
      "name": "revokeRole",
      "outputs": [],
      "stateMutability": "nonpayable",
      "type": "function"
    },
    {
      "inputs": [
        {
          "internalType": "address",
          "name": "from",
          "type": "address"
        },
        {
          "internalType": "address",
          "name": "to",
          "type": "address"
        },
        {
          "internalType": "uint256",
          "name": "tokenId",
          "type": "uint256"
        }
      ],
      "name": "safeTransferFrom",
      "outputs": [],
      "stateMutability": "nonpayable",
      "type": "function"
    },
    {
      "inputs": [
        {
          "internalType": "address",
          "name": "from",
          "type": "address"
        },
        {
          "internalType": "address",
          "name": "to",
          "type": "address"
        },
        {
          "internalType": "uint256",
          "name": "tokenId",
          "type": "uint256"
        },
        {
          "internalType": "bytes",
          "name": "_data",
          "type": "bytes"
        }
      ],
      "name": "safeTransferFrom",
      "outputs": [],
      "stateMutability": "nonpayable",
      "type": "function"
    },
    {
      "inputs": [
        {
          "internalType": "address",
          "name": "operator",
          "type": "address"
        },
        {
          "internalType": "bool",
          "name": "approved",
          "type": "bool"
        }
      ],
      "name": "setApprovalForAll",
      "outputs": [],
      "stateMutability": "nonpayable",
      "type": "function"
    },
    {
      "inputs": [
        {
          "components": [
            {
              "internalType": "string",
              "name": "imageURL",
              "type": "string"
            },
            {
              "internalType": "string",
              "name": "description",
              "type": "string"
            },
            {
              "internalType": "string",
              "name": "externalURL",
              "type": "string"
            },
            {
              "internalType": "address",
              "name": "royaltiesRecipient",
              "type": "address"
            },
            {
              "internalType": "uint256",
              "name": "royaltiesFeeBasisPoints",
              "type": "uint256"
            }
          ],
          "internalType": "struct NFTDescriptor.ConstructContractURIParams",
          "name": "params",
          "type": "tuple"
        }
      ],
      "name": "setContractURI",
      "outputs": [],
      "stateMutability": "nonpayable",
      "type": "function"
    },
    {
      "inputs": [
        {
          "internalType": "uint256",
          "name": "_tokenId",
          "type": "uint256"
        },
        {
          "internalType": "address payable",
          "name": "_royaltiesReceipientAddress",
          "type": "address"
        },
        {
          "internalType": "uint96",
          "name": "_percentageBasisPoints",
          "type": "uint96"
        }
      ],
      "name": "setRoyalties",
      "outputs": [],
      "stateMutability": "nonpayable",
      "type": "function"
    },
    {
      "inputs": [
        {
          "internalType": "bytes4",
          "name": "interfaceId",
          "type": "bytes4"
        }
      ],
      "name": "supportsInterface",
      "outputs": [
        {
          "internalType": "bool",
          "name": "",
          "type": "bool"
        }
      ],
      "stateMutability": "view",
      "type": "function"
    },
    {
      "inputs": [],
      "name": "symbol",
      "outputs": [
        {
          "internalType": "string",
          "name": "",
          "type": "string"
        }
      ],
      "stateMutability": "view",
      "type": "function"
    },
    {
      "inputs": [
        {
          "internalType": "uint256",
          "name": "index",
          "type": "uint256"
        }
      ],
      "name": "tokenByIndex",
      "outputs": [
        {
          "internalType": "uint256",
          "name": "",
          "type": "uint256"
        }
      ],
      "stateMutability": "view",
      "type": "function"
    },
    {
      "inputs": [
        {
          "internalType": "address",
          "name": "owner",
          "type": "address"
        },
        {
          "internalType": "uint256",
          "name": "index",
          "type": "uint256"
        }
      ],
      "name": "tokenOfOwnerByIndex",
      "outputs": [
        {
          "internalType": "uint256",
          "name": "",
          "type": "uint256"
        }
      ],
      "stateMutability": "view",
      "type": "function"
    },
    {
      "inputs": [
        {
          "internalType": "uint256",
          "name": "tokenId",
          "type": "uint256"
        }
      ],
      "name": "tokenURI",
      "outputs": [
        {
          "internalType": "string",
          "name": "",
          "type": "string"
        }
      ],
      "stateMutability": "view",
      "type": "function"
    },
    {
      "inputs": [],
      "name": "totalSupply",
      "outputs": [
        {
          "internalType": "uint256",
          "name": "",
          "type": "uint256"
        }
      ],
      "stateMutability": "view",
      "type": "function"
    },
    {
      "inputs": [
        {
          "internalType": "address",
          "name": "from",
          "type": "address"
        },
        {
          "internalType": "address",
          "name": "to",
          "type": "address"
        },
        {
          "internalType": "uint256",
          "name": "tokenId",
          "type": "uint256"
        }
      ],
      "name": "transferFrom",
      "outputs": [],
      "stateMutability": "nonpayable",
      "type": "function"
    },
    {
      "inputs": [
        {
          "internalType": "uint256",
          "name": "tokenId",
          "type": "uint256"
        },
        {
          "internalType": "address",
          "name": "_cloneContract",
          "type": "address"
        },
        {
          "internalType": "uint256",
          "name": "cloneId",
          "type": "uint256"
        }
      ],
      "name": "updateClone",
      "outputs": [],
      "stateMutability": "nonpayable",
      "type": "function"
    },
    {
      "inputs": [],
      "name": "version",
      "outputs": [
        {
          "internalType": "uint256",
          "name": "",
          "type": "uint256"
        }
      ],
      "stateMutability": "view",
      "type": "function"
    }
  ],
  "transactionHash": "0xe2054d2545b7a6f630c262c63a5a4b8bd39bf89e7492a072e374214e9a8370b5",
  "args": [],
  "numDeployments": 1,
  "solcInputHash": "efd4d2f25b5c4191cfaa472a1618023b",
  "bytecode": "0x608060405234801561001057600080fd5b50613071806100206000396000f3fe608060405234801561001057600080fd5b50600436106101ef5760003560e01c80636352211e1161010f578063c6c3bbe6116100a2578063d547741f11610071578063d547741f1461041d578063e1c7392a14610430578063e8a3d48514610438578063e985e9c514610440576101ef565b8063c6c3bbe6146103c4578063c87b56dd146103d7578063ca15c873146103ea578063cad96cca146103fd576101ef565b806395d89b41116100de57806395d89b411461038e578063a217fddf14610396578063a22cb4651461039e578063b88d4fde146103b1576101ef565b80636352211e1461034257806370a08231146103555780639010d07c1461036857806391d148541461037b576101ef565b806323b872dd1161018757806336568abe1161015657806336568abe1461030157806342842e0e146103145780634f6ccce71461032757806354fd4d501461033a576101ef565b806323b872dd146102b5578063248a9ca3146102c85780632f2ff15d146102db5780632f745c59146102ee576101ef565b8063095ea7b3116101c3578063095ea7b3146102675780630f8973dd1461027a578063143094db1461028d57806318160ddd146102a0576101ef565b8062817455146101f457806301ffc9a71461020957806306fdde0314610232578063081812fc14610247575b600080fd5b61020761020236600461265a565b610453565b005b61021c610217366004612494565b61059a565b60405161022991906127dc565b60405180910390f35b61023a6105ce565b60405161022991906127f0565b61025a610255366004612437565b610660565b6040516102299190612778565b61020761027536600461240c565b6106ac565b61020761028836600461253f565b610744565b61020761029b36600461260e565b6107de565b6102a86108b1565b60405161022991906127e7565b6102076102c336600461231e565b6108b7565b6102a86102d6366004612437565b6108ef565b6102076102e936600461244f565b610904565b6102a86102fc36600461240c565b610923565b61020761030f36600461244f565b610978565b61020761032236600461231e565b6109be565b6102a8610335366004612437565b6109d9565b6102a8610a34565b61025a610350366004612437565b610a3b565b6102a86103633660046122ca565b610a70565b61025a610376366004612473565b610ab4565b61021c61038936600461244f565b610ad3565b61023a610afe565b6102a8610b0d565b6102076103ac3660046123db565b610b12565b6102076103bf36600461235e565b610b24565b6102076103d236600461231e565b610b63565b61023a6103e5366004612437565b610bf8565b6102a86103f8366004612437565b610c98565b61041061040b366004612437565b610caf565b60405161022991906127c9565b61020761042b36600461244f565b610d3e565b610207610d5d565b61023a610e4e565b61021c61044e3660046122e6565b6110cc565b61045b6110fa565b6001600160a01b031661046d84610a3b565b6001600160a01b0316148061048a575061048a60006103896110fa565b61049357600080fd5b60008381526101306020526040902054600181116104b057600080fd5b6104bb600182612f34565b6000858152610130602090815260408083209390935561012e80825283832080546001600160a01b0319166001600160a01b0389811691909117825561012f8452858520889055919092529054925163c87b56dd60e01b815286939091169063c87b56dd9061052e9087906004016127e7565b60006040518083038186803b15801561054657600080fd5b505afa15801561055a573d6000803e3d6000fd5b505050506040513d6000823e601f3d908101601f1916820160405261058291908101906124cc565b9050600081511161059257600080fd5b505050505050565b60006001600160e01b0319821663656cb66560e11b14156105bd575060016105c9565b6105c6826110fe565b90505b919050565b6060606580546105dd90612f8e565b80601f016020809104026020016040519081016040528092919081815260200182805461060990612f8e565b80156106565780601f1061062b57610100808354040283529160200191610656565b820191906000526020600020905b81548152906001019060200180831161063957829003601f168201915b5050505050905090565b600061066b82611123565b6106905760405162461bcd60e51b815260040161068790612bc0565b60405180910390fd5b506000908152606960205260409020546001600160a01b031690565b60006106b782610a3b565b9050806001600160a01b0316836001600160a01b031614156106eb5760405162461bcd60e51b815260040161068790612c0c565b806001600160a01b03166106fd6110fa565b6001600160a01b0316148061071957506107198161044e6110fa565b6107355760405162461bcd60e51b815260040161068790612a4d565b61073f8383611140565b505050565b6000610757816107526110fa565b6111ae565b815180518391610132916107729183916020909101906121b2565b50602082810151805161078b92600185019201906121b2565b50604082015180516107a79160028401916020909101906121b2565b5060608201516003820180546001600160a01b0319166001600160a01b039092169190911790556080909101516004909101555050565b60006107ec816107526110fa565b604080516001808252818301909252600091816020015b61080b612236565b815260200190600190039081610803579050509050828160008151811061084257634e487b7160e01b600052603260045260246000fd5b6020026020010151602001906001600160601b031690816001600160601b031681525050838160008151811061088857634e487b7160e01b600052603260045260246000fd5b60209081029190910101516001600160a01b0390911690526108aa8582611212565b5050505050565b60995490565b6108c86108c26110fa565b826113e0565b6108e45760405162461bcd60e51b815260040161068790612c4d565b61073f838383611465565b600090815260ca602052604090206001015490565b61090d826108ef565b610919816107526110fa565b61073f8383611598565b600061092e83610a70565b821061094c5760405162461bcd60e51b815260040161068790612838565b506001600160a01b03821660009081526097602090815260408083208484529091529020545b92915050565b6109806110fa565b6001600160a01b0316816001600160a01b0316146109b05760405162461bcd60e51b815260040161068790612db1565b6109ba82826115ba565b5050565b61073f83838360405180602001604052806000815250610b24565b60006109e36108b1565b8210610a015760405162461bcd60e51b815260040161068790612c9e565b60998281548110610a2257634e487b7160e01b600052603260045260246000fd5b90600052602060002001549050919050565b6101375481565b6000818152606760205260408120546001600160a01b0316806105c65760405162461bcd60e51b815260040161068790612af4565b60006001600160a01b038216610a985760405162461bcd60e51b815260040161068790612aaa565b506001600160a01b031660009081526068602052604090205490565b600082815260fc60205260408120610acc90836115dc565b9392505050565b600091825260ca602090815260408084206001600160a01b0393909316845291905290205460ff1690565b6060606680546105dd90612f8e565b600081565b6109ba610b1d6110fa565b83836115e8565b610b35610b2f6110fa565b836113e0565b610b515760405162461bcd60e51b815260040161068790612c4d565b610b5d8484848461168b565b50505050565b6000610b71816107526110fa565b61013154610b8090602a612f34565b6101318054600090815261013060209081526040808320949094558254825261012e815283822080546001600160a01b0319166001600160a01b0389161790558254825261012f90529190912083905554610bdc9085906116be565b6101318054906000610bed83612fc9565b919050555050505050565b600081815261012e602090815260408083205461012f9092529182902054915163c87b56dd60e01b81526060926001600160a01b039092169163c87b56dd91610c4491906004016127e7565b60006040518083038186803b158015610c5c57600080fd5b505afa158015610c70573d6000803e3d6000fd5b505050506040513d6000823e601f3d908101601f191682016040526105c691908101906124cc565b600081815260fc602052604081206105c6906117a5565b606060c96000838152602001908152602001600020805480602002602001604051908101604052809291908181526020016000905b82821015610d3357600084815260209081902060408051808201909152908401546001600160a01b0381168252600160a01b90046001600160601b031681830152825260019092019101610ce4565b505050509050919050565b610d47826108ef565b610d53816107526110fa565b61073f83836115ba565b600054610100900460ff16610d785760005460ff1615610d80565b610d806117b0565b610d9c5760405162461bcd60e51b815260040161068790612b3d565b600054610100900460ff16158015610dc7576000805460ff1961ff0019909116610100171660011790555b610e0b604051806040016040528060048152602001634d49524560e01b815250604051806040016040528060068152602001654de280a0524560d01b8152506117c1565b610e136117f2565b610e1b6117f2565b610e2d6000610e286110fa565b61181b565b6000610131819055610137558015610e4b576000805461ff00191690555b50565b60606101326040518060a0016040529081600082018054610e6e90612f8e565b80601f0160208091040260200160405190810160405280929190818152602001828054610e9a90612f8e565b8015610ee75780601f10610ebc57610100808354040283529160200191610ee7565b820191906000526020600020905b815481529060010190602001808311610eca57829003601f168201915b50505050508152602001600182018054610f0090612f8e565b80601f0160208091040260200160405190810160405280929190818152602001828054610f2c90612f8e565b8015610f795780601f10610f4e57610100808354040283529160200191610f79565b820191906000526020600020905b815481529060010190602001808311610f5c57829003601f168201915b50505050508152602001600282018054610f9290612f8e565b80601f0160208091040260200160405190810160405280929190818152602001828054610fbe90612f8e565b801561100b5780601f10610fe05761010080835404028352916020019161100b565b820191906000526020600020905b815481529060010190602001808311610fee57829003601f168201915b505050918352505060038201546001600160a01b0316602082015260049091015460409091015273D01587bE8e3f94A416adA7007b824fBe65bDF874906329e72aaa906110566105ce565b6040518363ffffffff1660e01b8152600401611073929190612e00565b60006040518083038186803b15801561108b57600080fd5b505af415801561109f573d6000803e3d6000fd5b505050506040513d6000823e601f3d908101601f191682016040526110c791908101906124cc565b905090565b6001600160a01b039182166000908152606a6020908152604080832093909416825291909152205460ff1690565b3390565b60006001600160e01b03198216635a05180f60e01b14806105c657506105c682611825565b6000908152606760205260409020546001600160a01b0316151590565b600081815260696020526040902080546001600160a01b0319166001600160a01b038416908117909155819061117582610a3b565b6001600160a01b03167f8c5be1e5ebec7d5bd14f71427d1e84f3dd0314c0f7b2291e5b200ac8c7c3b92560405160405180910390a45050565b6111b88282610ad3565b6109ba576111d0816001600160a01b0316601461184a565b6111db83602061184a565b6040516020016111ec929190612703565b60408051601f198184030181529082905262461bcd60e51b8252610687916004016127f0565b6000805b82518110156113b45760006001600160a01b031683828151811061124a57634e487b7160e01b600052603260045260246000fd5b6020026020010151600001516001600160a01b0316141561127d5760405162461bcd60e51b815260040161068790612d7a565b82818151811061129d57634e487b7160e01b600052603260045260246000fd5b6020026020010151602001516001600160601b0316600014156112d25760405162461bcd60e51b815260040161068790612a18565b8281815181106112f257634e487b7160e01b600052603260045260246000fd5b6020026020010151602001516001600160601b0316826113129190612efd565b915060c9600085815260200190815260200160002083828151811061134757634e487b7160e01b600052603260045260246000fd5b602090810291909101810151825460018101845560009384529282902081519301805491909201516001600160601b0316600160a01b026001600160a01b039384166001600160a01b031990921691909117909216919091179055806113ac81612fc9565b915050611216565b5061271081106113d65760405162461bcd60e51b815260040161068790612cea565b61073f83836119fc565b60006113eb82611123565b6114075760405162461bcd60e51b8152600401610687906129cc565b600061141283610a3b565b9050806001600160a01b0316846001600160a01b0316148061144d5750836001600160a01b031661144284610660565b6001600160a01b0316145b8061145d575061145d81856110cc565b949350505050565b826001600160a01b031661147882610a3b565b6001600160a01b03161461149e5760405162461bcd60e51b8152600401610687906128d5565b6001600160a01b0382166114c45760405162461bcd60e51b815260040161068790612951565b6114cf838383611a39565b6114da600082611140565b6001600160a01b0383166000908152606860205260408120805460019290611503908490612f34565b90915550506001600160a01b0382166000908152606860205260408120805460019290611531908490612efd565b909155505060008181526067602052604080822080546001600160a01b0319166001600160a01b0386811691821790925591518493918716917fddf252ad1be2c89b69c2b068fc378daa952ba7f163c4a11628f55a4df523b3ef91a461073f83838361073f565b6115a28282611a44565b600082815260fc6020526040902061073f9082611acb565b6115c48282611ae0565b600082815260fc6020526040902061073f9082611b65565b6000610acc8383611b7a565b816001600160a01b0316836001600160a01b0316141561161a5760405162461bcd60e51b815260040161068790612995565b6001600160a01b038381166000818152606a602090815260408083209487168084529490915290819020805460ff1916851515179055517f17307eab39ab6107e8899845ad3d59bd9653f200f220920489ca2b5937696c319061167e9085906127dc565b60405180910390a3505050565b611696848484611465565b6116a284848484611bb2565b610b5d5760405162461bcd60e51b815260040161068790612883565b6001600160a01b0382166116e45760405162461bcd60e51b815260040161068790612b8b565b6116ed81611123565b1561170a5760405162461bcd60e51b81526004016106879061291a565b61171660008383611a39565b6001600160a01b038216600090815260686020526040812080546001929061173f908490612efd565b909155505060008181526067602052604080822080546001600160a01b0319166001600160a01b03861690811790915590518392907fddf252ad1be2c89b69c2b068fc378daa952ba7f163c4a11628f55a4df523b3ef908290a46109ba6000838361073f565b60006105c682611ccd565b60006117bb30611cd1565b15905090565b600054610100900460ff166117e85760405162461bcd60e51b815260040161068790612d2f565b6109ba8282611ce0565b600054610100900460ff166118195760405162461bcd60e51b815260040161068790612d2f565b565b6109ba8282611598565b60006001600160e01b03198216637965db0b60e01b14806105c657506105c682611d2e565b60606000611859836002612f15565b611864906002612efd565b67ffffffffffffffff81111561188a57634e487b7160e01b600052604160045260246000fd5b6040519080825280601f01601f1916602001820160405280156118b4576020820181803683370190505b509050600360fc1b816000815181106118dd57634e487b7160e01b600052603260045260246000fd5b60200101906001600160f81b031916908160001a905350600f60fb1b8160018151811061191a57634e487b7160e01b600052603260045260246000fd5b60200101906001600160f81b031916908160001a905350600061193e846002612f15565b611949906001612efd565b90505b60018111156119dd576f181899199a1a9b1b9c1cb0b131b232b360811b85600f166010811061198b57634e487b7160e01b600052603260045260246000fd5b1a60f81b8282815181106119af57634e487b7160e01b600052603260045260246000fd5b60200101906001600160f81b031916908160001a90535060049490941c936119d681612f77565b905061194c565b508315610acc5760405162461bcd60e51b815260040161068790612803565b7f3fa96d7b6bcbfe71ef171666d84db3cf52fa2d1c8afdb1cc8e486177f208b7df8282604051611a2d929190612e8b565b60405180910390a15050565b61073f838383611d53565b611a4e8282610ad3565b6109ba57600082815260ca602090815260408083206001600160a01b03851684529091529020805460ff19166001179055611a876110fa565b6001600160a01b0316816001600160a01b0316837f2f8788117e7eff1d82e926ec794901d17c78024a50270940304540a733656f0d60405160405180910390a45050565b6000610acc836001600160a01b038416611ddc565b611aea8282610ad3565b156109ba57600082815260ca602090815260408083206001600160a01b03851684529091529020805460ff19169055611b216110fa565b6001600160a01b0316816001600160a01b0316837ff6391f5c32d9c69d2a47ea670b442974b53935d1edc7fd64eb21e047a839171b60405160405180910390a45050565b6000610acc836001600160a01b038416611e26565b6000826000018281548110611b9f57634e487b7160e01b600052603260045260246000fd5b9060005260206000200154905092915050565b6000611bc6846001600160a01b0316611cd1565b15611cc257836001600160a01b031663150b7a02611be26110fa565b8786866040518563ffffffff1660e01b8152600401611c04949392919061278c565b602060405180830381600087803b158015611c1e57600080fd5b505af1925050508015611c4e575060408051601f3d908101601f19168201909252611c4b918101906124b0565b60015b611ca8573d808015611c7c576040519150601f19603f3d011682016040523d82523d6000602084013e611c81565b606091505b508051611ca05760405162461bcd60e51b815260040161068790612883565b805181602001fd5b6001600160e01b031916630a85bd0160e11b14905061145d565b506001949350505050565b5490565b6001600160a01b03163b151590565b600054610100900460ff16611d075760405162461bcd60e51b815260040161068790612d2f565b8151611d1a9060659060208501906121b2565b50805161073f9060669060208401906121b2565b60006001600160e01b0319821663780e9d6360e01b14806105c657506105c682611f43565b611d5e83838361073f565b6001600160a01b038316611d7a57611d7581611f83565b611d9d565b816001600160a01b0316836001600160a01b031614611d9d57611d9d8382611fc7565b6001600160a01b038216611db957611db481612064565b61073f565b826001600160a01b0316826001600160a01b03161461073f5761073f828261213d565b6000611de88383612181565b611e1e57508154600181810184556000848152602080822090930184905584548482528286019093526040902091909155610972565b506000610972565b60008181526001830160205260408120548015611f39576000611e4a600183612f34565b8554909150600090611e5e90600190612f34565b9050818114611edf576000866000018281548110611e8c57634e487b7160e01b600052603260045260246000fd5b9060005260206000200154905080876000018481548110611ebd57634e487b7160e01b600052603260045260246000fd5b6000918252602080832090910192909255918252600188019052604090208390555b8554869080611efe57634e487b7160e01b600052603160045260246000fd5b600190038181906000526020600020016000905590558560010160008681526020019081526020016000206000905560019350505050610972565b6000915050610972565b60006001600160e01b031982166380ac58cd60e01b1480611f7457506001600160e01b03198216635b5e139f60e01b145b806105c657506105c682612199565b609980546000838152609a60205260408120829055600182018355919091527f72a152ddfb8e864297c917af52ea6c1c68aead0fee1a62673fcc7e0c94979d000155565b60006001611fd484610a70565b611fde9190612f34565b600083815260986020526040902054909150808214612031576001600160a01b03841660009081526097602090815260408083208584528252808320548484528184208190558352609890915290208190555b5060009182526098602090815260408084208490556001600160a01b039094168352609781528383209183525290812055565b60995460009061207690600190612f34565b6000838152609a6020526040812054609980549394509092849081106120ac57634e487b7160e01b600052603260045260246000fd5b9060005260206000200154905080609983815481106120db57634e487b7160e01b600052603260045260246000fd5b6000918252602080832090910192909255828152609a9091526040808220849055858252812055609980548061212157634e487b7160e01b600052603160045260246000fd5b6001900381819060005260206000200160009055905550505050565b600061214883610a70565b6001600160a01b039093166000908152609760209081526040808320868452825280832085905593825260989052919091209190915550565b60009081526001919091016020526040902054151590565b6001600160e01b031981166301ffc9a760e01b14919050565b8280546121be90612f8e565b90600052602060002090601f0160209004810192826121e05760008555612226565b82601f106121f957805160ff1916838001178555612226565b82800160010185558215612226579182015b8281111561222657825182559160200191906001019061220b565b5061223292915061224d565b5090565b604080518082019091526000808252602082015290565b5b80821115612232576000815560010161224e565b600061227561227084612ed5565b612ea4565b905082815283838301111561228957600080fd5b828260208301376000602084830101529392505050565b80356105c981613010565b600082601f8301126122bb578081fd5b610acc83833560208501612262565b6000602082840312156122db578081fd5b8135610acc81613010565b600080604083850312156122f8578081fd5b823561230381613010565b9150602083013561231381613010565b809150509250929050565b600080600060608486031215612332578081fd5b833561233d81613010565b9250602084013561234d81613010565b929592945050506040919091013590565b60008060008060808587031215612373578081fd5b843561237e81613010565b9350602085013561238e81613010565b925060408501359150606085013567ffffffffffffffff8111156123b0578182fd5b8501601f810187136123c0578182fd5b6123cf87823560208401612262565b91505092959194509250565b600080604083850312156123ed578182fd5b82356123f881613010565b915060208301358015158114612313578182fd5b6000806040838503121561241e578182fd5b823561242981613010565b946020939093013593505050565b600060208284031215612448578081fd5b5035919050565b60008060408385031215612461578182fd5b82359150602083013561231381613010565b60008060408385031215612485578081fd5b50508035926020909101359150565b6000602082840312156124a5578081fd5b8135610acc81613025565b6000602082840312156124c1578081fd5b8151610acc81613025565b6000602082840312156124dd578081fd5b815167ffffffffffffffff8111156124f3578182fd5b8201601f81018413612503578182fd5b805161251161227082612ed5565b818152856020838501011115612525578384fd5b612536826020830160208601612f4b565b95945050505050565b600060208284031215612550578081fd5b813567ffffffffffffffff80821115612567578283fd5b9083019060a0828603121561257a578283fd5b61258460a0612ea4565b823582811115612592578485fd5b61259e878286016122ab565b8252506020830135828111156125b2578485fd5b6125be878286016122ab565b6020830152506040830135828111156125d5578485fd5b6125e1878286016122ab565b6040830152506125f3606084016122a0565b60608201526080830135608082015280935050505092915050565b600080600060608486031215612622578081fd5b83359250602084013561263481613010565b915060408401356001600160601b038116811461264f578182fd5b809150509250925092565b60008060006060848603121561266e578081fd5b83359250602084013561234d81613010565b6000815180845260208085019450808401835b838110156126cc57815180516001600160a01b031688528301516001600160601b03168388015260409096019590820190600101612693565b509495945050505050565b600081518084526126ef816020860160208601612f4b565b601f01601f19169290920160200192915050565b60007f416363657373436f6e74726f6c3a206163636f756e74200000000000000000008252835161273b816017850160208801612f4b565b7001034b99036b4b9b9b4b733903937b6329607d1b601791840191820152835161276c816028840160208801612f4b565b01602801949350505050565b6001600160a01b0391909116815260200190565b6001600160a01b03858116825284166020820152604081018390526080606082018190526000906127bf908301846126d7565b9695505050505050565b600060208252610acc6020830184612680565b901515815260200190565b90815260200190565b600060208252610acc60208301846126d7565b6020808252818101527f537472696e67733a20686578206c656e67746820696e73756666696369656e74604082015260600190565b6020808252602b908201527f455243373231456e756d657261626c653a206f776e657220696e646578206f7560408201526a74206f6620626f756e647360a81b606082015260800190565b60208082526032908201527f4552433732313a207472616e7366657220746f206e6f6e20455243373231526560408201527131b2b4bb32b91034b6b83632b6b2b73a32b960711b606082015260800190565b60208082526025908201527f4552433732313a207472616e736665722066726f6d20696e636f72726563742060408201526437bbb732b960d91b606082015260800190565b6020808252601c908201527f4552433732313a20746f6b656e20616c7265616479206d696e74656400000000604082015260600190565b60208082526024908201527f4552433732313a207472616e7366657220746f20746865207a65726f206164646040820152637265737360e01b606082015260800190565b60208082526019908201527f4552433732313a20617070726f766520746f2063616c6c657200000000000000604082015260600190565b6020808252602c908201527f4552433732313a206f70657261746f7220717565727920666f72206e6f6e657860408201526b34b9ba32b73a103a37b5b2b760a11b606082015260800190565b6020808252818101527f526f79616c74792076616c75652073686f756c6420626520706f736974697665604082015260600190565b60208082526038908201527f4552433732313a20617070726f76652063616c6c6572206973206e6f74206f7760408201527f6e6572206e6f7220617070726f76656420666f7220616c6c0000000000000000606082015260800190565b6020808252602a908201527f4552433732313a2062616c616e636520717565727920666f7220746865207a65604082015269726f206164647265737360b01b606082015260800190565b60208082526029908201527f4552433732313a206f776e657220717565727920666f72206e6f6e657869737460408201526832b73a103a37b5b2b760b91b606082015260800190565b6020808252602e908201527f496e697469616c697a61626c653a20636f6e747261637420697320616c72656160408201526d191e481a5b9a5d1a585b1a5e995960921b606082015260800190565b6020808252818101527f4552433732313a206d696e7420746f20746865207a65726f2061646472657373604082015260600190565b6020808252602c908201527f4552433732313a20617070726f76656420717565727920666f72206e6f6e657860408201526b34b9ba32b73a103a37b5b2b760a11b606082015260800190565b60208082526021908201527f4552433732313a20617070726f76616c20746f2063757272656e74206f776e656040820152603960f91b606082015260800190565b60208082526031908201527f4552433732313a207472616e736665722063616c6c6572206973206e6f74206f6040820152701ddb995c881b9bdc88185c1c1c9bdd9959607a1b606082015260800190565b6020808252602c908201527f455243373231456e756d657261626c653a20676c6f62616c20696e646578206f60408201526b7574206f6620626f756e647360a01b606082015260800190565b60208082526025908201527f526f79616c747920746f74616c2076616c75652073686f756c64206265203c20604082015264031303030360dc1b606082015260800190565b6020808252602b908201527f496e697469616c697a61626c653a20636f6e7472616374206973206e6f74206960408201526a6e697469616c697a696e6760a81b606082015260800190565b6020808252601b908201527f526563697069656e742073686f756c642062652070726573656e740000000000604082015260600190565b6020808252602f908201527f416363657373436f6e74726f6c3a2063616e206f6e6c792072656e6f756e636560408201526e103937b632b9903337b91039b2b63360891b606082015260800190565b600060408252835160a06040840152612e1c60e08401826126d7565b90506020850151603f1980858403016060860152612e3a83836126d7565b9250604087015191508085840301608086015250612e5882826126d7565b60608701516001600160a01b031660a0860152608087015160c086015284810360208601529150612536905081856126d7565b60008382526040602083015261145d6040830184612680565b604051601f8201601f1916810167ffffffffffffffff81118282101715612ecd57612ecd612ffa565b604052919050565b600067ffffffffffffffff821115612eef57612eef612ffa565b50601f01601f191660200190565b60008219821115612f1057612f10612fe4565b500190565b6000816000190483118215151615612f2f57612f2f612fe4565b500290565b600082821015612f4657612f46612fe4565b500390565b60005b83811015612f66578181015183820152602001612f4e565b83811115610b5d5750506000910152565b600081612f8657612f86612fe4565b506000190190565b600281046001821680612fa257607f821691505b60208210811415612fc357634e487b7160e01b600052602260045260246000fd5b50919050565b6000600019821415612fdd57612fdd612fe4565b5060010190565b634e487b7160e01b600052601160045260246000fd5b634e487b7160e01b600052604160045260246000fd5b6001600160a01b0381168114610e4b57600080fd5b6001600160e01b031981168114610e4b57600080fdfea2646970667358221220eadac86b7ac5d4834c689b066d3b182b77585e7ac6b276fa41850e6f78fbee2b64736f6c63430008010033",
  "deployedBytecode": "0x608060405234801561001057600080fd5b50600436106101ef5760003560e01c80636352211e1161010f578063c6c3bbe6116100a2578063d547741f11610071578063d547741f1461041d578063e1c7392a14610430578063e8a3d48514610438578063e985e9c514610440576101ef565b8063c6c3bbe6146103c4578063c87b56dd146103d7578063ca15c873146103ea578063cad96cca146103fd576101ef565b806395d89b41116100de57806395d89b411461038e578063a217fddf14610396578063a22cb4651461039e578063b88d4fde146103b1576101ef565b80636352211e1461034257806370a08231146103555780639010d07c1461036857806391d148541461037b576101ef565b806323b872dd1161018757806336568abe1161015657806336568abe1461030157806342842e0e146103145780634f6ccce71461032757806354fd4d501461033a576101ef565b806323b872dd146102b5578063248a9ca3146102c85780632f2ff15d146102db5780632f745c59146102ee576101ef565b8063095ea7b3116101c3578063095ea7b3146102675780630f8973dd1461027a578063143094db1461028d57806318160ddd146102a0576101ef565b8062817455146101f457806301ffc9a71461020957806306fdde0314610232578063081812fc14610247575b600080fd5b61020761020236600461265a565b610453565b005b61021c610217366004612494565b61059a565b60405161022991906127dc565b60405180910390f35b61023a6105ce565b60405161022991906127f0565b61025a610255366004612437565b610660565b6040516102299190612778565b61020761027536600461240c565b6106ac565b61020761028836600461253f565b610744565b61020761029b36600461260e565b6107de565b6102a86108b1565b60405161022991906127e7565b6102076102c336600461231e565b6108b7565b6102a86102d6366004612437565b6108ef565b6102076102e936600461244f565b610904565b6102a86102fc36600461240c565b610923565b61020761030f36600461244f565b610978565b61020761032236600461231e565b6109be565b6102a8610335366004612437565b6109d9565b6102a8610a34565b61025a610350366004612437565b610a3b565b6102a86103633660046122ca565b610a70565b61025a610376366004612473565b610ab4565b61021c61038936600461244f565b610ad3565b61023a610afe565b6102a8610b0d565b6102076103ac3660046123db565b610b12565b6102076103bf36600461235e565b610b24565b6102076103d236600461231e565b610b63565b61023a6103e5366004612437565b610bf8565b6102a86103f8366004612437565b610c98565b61041061040b366004612437565b610caf565b60405161022991906127c9565b61020761042b36600461244f565b610d3e565b610207610d5d565b61023a610e4e565b61021c61044e3660046122e6565b6110cc565b61045b6110fa565b6001600160a01b031661046d84610a3b565b6001600160a01b0316148061048a575061048a60006103896110fa565b61049357600080fd5b60008381526101306020526040902054600181116104b057600080fd5b6104bb600182612f34565b6000858152610130602090815260408083209390935561012e80825283832080546001600160a01b0319166001600160a01b0389811691909117825561012f8452858520889055919092529054925163c87b56dd60e01b815286939091169063c87b56dd9061052e9087906004016127e7565b60006040518083038186803b15801561054657600080fd5b505afa15801561055a573d6000803e3d6000fd5b505050506040513d6000823e601f3d908101601f1916820160405261058291908101906124cc565b9050600081511161059257600080fd5b505050505050565b60006001600160e01b0319821663656cb66560e11b14156105bd575060016105c9565b6105c6826110fe565b90505b919050565b6060606580546105dd90612f8e565b80601f016020809104026020016040519081016040528092919081815260200182805461060990612f8e565b80156106565780601f1061062b57610100808354040283529160200191610656565b820191906000526020600020905b81548152906001019060200180831161063957829003601f168201915b5050505050905090565b600061066b82611123565b6106905760405162461bcd60e51b815260040161068790612bc0565b60405180910390fd5b506000908152606960205260409020546001600160a01b031690565b60006106b782610a3b565b9050806001600160a01b0316836001600160a01b031614156106eb5760405162461bcd60e51b815260040161068790612c0c565b806001600160a01b03166106fd6110fa565b6001600160a01b0316148061071957506107198161044e6110fa565b6107355760405162461bcd60e51b815260040161068790612a4d565b61073f8383611140565b505050565b6000610757816107526110fa565b6111ae565b815180518391610132916107729183916020909101906121b2565b50602082810151805161078b92600185019201906121b2565b50604082015180516107a79160028401916020909101906121b2565b5060608201516003820180546001600160a01b0319166001600160a01b039092169190911790556080909101516004909101555050565b60006107ec816107526110fa565b604080516001808252818301909252600091816020015b61080b612236565b815260200190600190039081610803579050509050828160008151811061084257634e487b7160e01b600052603260045260246000fd5b6020026020010151602001906001600160601b031690816001600160601b031681525050838160008151811061088857634e487b7160e01b600052603260045260246000fd5b60209081029190910101516001600160a01b0390911690526108aa8582611212565b5050505050565b60995490565b6108c86108c26110fa565b826113e0565b6108e45760405162461bcd60e51b815260040161068790612c4d565b61073f838383611465565b600090815260ca602052604090206001015490565b61090d826108ef565b610919816107526110fa565b61073f8383611598565b600061092e83610a70565b821061094c5760405162461bcd60e51b815260040161068790612838565b506001600160a01b03821660009081526097602090815260408083208484529091529020545b92915050565b6109806110fa565b6001600160a01b0316816001600160a01b0316146109b05760405162461bcd60e51b815260040161068790612db1565b6109ba82826115ba565b5050565b61073f83838360405180602001604052806000815250610b24565b60006109e36108b1565b8210610a015760405162461bcd60e51b815260040161068790612c9e565b60998281548110610a2257634e487b7160e01b600052603260045260246000fd5b90600052602060002001549050919050565b6101375481565b6000818152606760205260408120546001600160a01b0316806105c65760405162461bcd60e51b815260040161068790612af4565b60006001600160a01b038216610a985760405162461bcd60e51b815260040161068790612aaa565b506001600160a01b031660009081526068602052604090205490565b600082815260fc60205260408120610acc90836115dc565b9392505050565b600091825260ca602090815260408084206001600160a01b0393909316845291905290205460ff1690565b6060606680546105dd90612f8e565b600081565b6109ba610b1d6110fa565b83836115e8565b610b35610b2f6110fa565b836113e0565b610b515760405162461bcd60e51b815260040161068790612c4d565b610b5d8484848461168b565b50505050565b6000610b71816107526110fa565b61013154610b8090602a612f34565b6101318054600090815261013060209081526040808320949094558254825261012e815283822080546001600160a01b0319166001600160a01b0389161790558254825261012f90529190912083905554610bdc9085906116be565b6101318054906000610bed83612fc9565b919050555050505050565b600081815261012e602090815260408083205461012f9092529182902054915163c87b56dd60e01b81526060926001600160a01b039092169163c87b56dd91610c4491906004016127e7565b60006040518083038186803b158015610c5c57600080fd5b505afa158015610c70573d6000803e3d6000fd5b505050506040513d6000823e601f3d908101601f191682016040526105c691908101906124cc565b600081815260fc602052604081206105c6906117a5565b606060c96000838152602001908152602001600020805480602002602001604051908101604052809291908181526020016000905b82821015610d3357600084815260209081902060408051808201909152908401546001600160a01b0381168252600160a01b90046001600160601b031681830152825260019092019101610ce4565b505050509050919050565b610d47826108ef565b610d53816107526110fa565b61073f83836115ba565b600054610100900460ff16610d785760005460ff1615610d80565b610d806117b0565b610d9c5760405162461bcd60e51b815260040161068790612b3d565b600054610100900460ff16158015610dc7576000805460ff1961ff0019909116610100171660011790555b610e0b604051806040016040528060048152602001634d49524560e01b815250604051806040016040528060068152602001654de280a0524560d01b8152506117c1565b610e136117f2565b610e1b6117f2565b610e2d6000610e286110fa565b61181b565b6000610131819055610137558015610e4b576000805461ff00191690555b50565b60606101326040518060a0016040529081600082018054610e6e90612f8e565b80601f0160208091040260200160405190810160405280929190818152602001828054610e9a90612f8e565b8015610ee75780601f10610ebc57610100808354040283529160200191610ee7565b820191906000526020600020905b815481529060010190602001808311610eca57829003601f168201915b50505050508152602001600182018054610f0090612f8e565b80601f0160208091040260200160405190810160405280929190818152602001828054610f2c90612f8e565b8015610f795780601f10610f4e57610100808354040283529160200191610f79565b820191906000526020600020905b815481529060010190602001808311610f5c57829003601f168201915b50505050508152602001600282018054610f9290612f8e565b80601f0160208091040260200160405190810160405280929190818152602001828054610fbe90612f8e565b801561100b5780601f10610fe05761010080835404028352916020019161100b565b820191906000526020600020905b815481529060010190602001808311610fee57829003601f168201915b505050918352505060038201546001600160a01b0316602082015260049091015460409091015273__$9185f4f4d5ccf565a43404fb3be44cd50b$__906329e72aaa906110566105ce565b6040518363ffffffff1660e01b8152600401611073929190612e00565b60006040518083038186803b15801561108b57600080fd5b505af415801561109f573d6000803e3d6000fd5b505050506040513d6000823e601f3d908101601f191682016040526110c791908101906124cc565b905090565b6001600160a01b039182166000908152606a6020908152604080832093909416825291909152205460ff1690565b3390565b60006001600160e01b03198216635a05180f60e01b14806105c657506105c682611825565b6000908152606760205260409020546001600160a01b0316151590565b600081815260696020526040902080546001600160a01b0319166001600160a01b038416908117909155819061117582610a3b565b6001600160a01b03167f8c5be1e5ebec7d5bd14f71427d1e84f3dd0314c0f7b2291e5b200ac8c7c3b92560405160405180910390a45050565b6111b88282610ad3565b6109ba576111d0816001600160a01b0316601461184a565b6111db83602061184a565b6040516020016111ec929190612703565b60408051601f198184030181529082905262461bcd60e51b8252610687916004016127f0565b6000805b82518110156113b45760006001600160a01b031683828151811061124a57634e487b7160e01b600052603260045260246000fd5b6020026020010151600001516001600160a01b0316141561127d5760405162461bcd60e51b815260040161068790612d7a565b82818151811061129d57634e487b7160e01b600052603260045260246000fd5b6020026020010151602001516001600160601b0316600014156112d25760405162461bcd60e51b815260040161068790612a18565b8281815181106112f257634e487b7160e01b600052603260045260246000fd5b6020026020010151602001516001600160601b0316826113129190612efd565b915060c9600085815260200190815260200160002083828151811061134757634e487b7160e01b600052603260045260246000fd5b602090810291909101810151825460018101845560009384529282902081519301805491909201516001600160601b0316600160a01b026001600160a01b039384166001600160a01b031990921691909117909216919091179055806113ac81612fc9565b915050611216565b5061271081106113d65760405162461bcd60e51b815260040161068790612cea565b61073f83836119fc565b60006113eb82611123565b6114075760405162461bcd60e51b8152600401610687906129cc565b600061141283610a3b565b9050806001600160a01b0316846001600160a01b0316148061144d5750836001600160a01b031661144284610660565b6001600160a01b0316145b8061145d575061145d81856110cc565b949350505050565b826001600160a01b031661147882610a3b565b6001600160a01b03161461149e5760405162461bcd60e51b8152600401610687906128d5565b6001600160a01b0382166114c45760405162461bcd60e51b815260040161068790612951565b6114cf838383611a39565b6114da600082611140565b6001600160a01b0383166000908152606860205260408120805460019290611503908490612f34565b90915550506001600160a01b0382166000908152606860205260408120805460019290611531908490612efd565b909155505060008181526067602052604080822080546001600160a01b0319166001600160a01b0386811691821790925591518493918716917fddf252ad1be2c89b69c2b068fc378daa952ba7f163c4a11628f55a4df523b3ef91a461073f83838361073f565b6115a28282611a44565b600082815260fc6020526040902061073f9082611acb565b6115c48282611ae0565b600082815260fc6020526040902061073f9082611b65565b6000610acc8383611b7a565b816001600160a01b0316836001600160a01b0316141561161a5760405162461bcd60e51b815260040161068790612995565b6001600160a01b038381166000818152606a602090815260408083209487168084529490915290819020805460ff1916851515179055517f17307eab39ab6107e8899845ad3d59bd9653f200f220920489ca2b5937696c319061167e9085906127dc565b60405180910390a3505050565b611696848484611465565b6116a284848484611bb2565b610b5d5760405162461bcd60e51b815260040161068790612883565b6001600160a01b0382166116e45760405162461bcd60e51b815260040161068790612b8b565b6116ed81611123565b1561170a5760405162461bcd60e51b81526004016106879061291a565b61171660008383611a39565b6001600160a01b038216600090815260686020526040812080546001929061173f908490612efd565b909155505060008181526067602052604080822080546001600160a01b0319166001600160a01b03861690811790915590518392907fddf252ad1be2c89b69c2b068fc378daa952ba7f163c4a11628f55a4df523b3ef908290a46109ba6000838361073f565b60006105c682611ccd565b60006117bb30611cd1565b15905090565b600054610100900460ff166117e85760405162461bcd60e51b815260040161068790612d2f565b6109ba8282611ce0565b600054610100900460ff166118195760405162461bcd60e51b815260040161068790612d2f565b565b6109ba8282611598565b60006001600160e01b03198216637965db0b60e01b14806105c657506105c682611d2e565b60606000611859836002612f15565b611864906002612efd565b67ffffffffffffffff81111561188a57634e487b7160e01b600052604160045260246000fd5b6040519080825280601f01601f1916602001820160405280156118b4576020820181803683370190505b509050600360fc1b816000815181106118dd57634e487b7160e01b600052603260045260246000fd5b60200101906001600160f81b031916908160001a905350600f60fb1b8160018151811061191a57634e487b7160e01b600052603260045260246000fd5b60200101906001600160f81b031916908160001a905350600061193e846002612f15565b611949906001612efd565b90505b60018111156119dd576f181899199a1a9b1b9c1cb0b131b232b360811b85600f166010811061198b57634e487b7160e01b600052603260045260246000fd5b1a60f81b8282815181106119af57634e487b7160e01b600052603260045260246000fd5b60200101906001600160f81b031916908160001a90535060049490941c936119d681612f77565b905061194c565b508315610acc5760405162461bcd60e51b815260040161068790612803565b7f3fa96d7b6bcbfe71ef171666d84db3cf52fa2d1c8afdb1cc8e486177f208b7df8282604051611a2d929190612e8b565b60405180910390a15050565b61073f838383611d53565b611a4e8282610ad3565b6109ba57600082815260ca602090815260408083206001600160a01b03851684529091529020805460ff19166001179055611a876110fa565b6001600160a01b0316816001600160a01b0316837f2f8788117e7eff1d82e926ec794901d17c78024a50270940304540a733656f0d60405160405180910390a45050565b6000610acc836001600160a01b038416611ddc565b611aea8282610ad3565b156109ba57600082815260ca602090815260408083206001600160a01b03851684529091529020805460ff19169055611b216110fa565b6001600160a01b0316816001600160a01b0316837ff6391f5c32d9c69d2a47ea670b442974b53935d1edc7fd64eb21e047a839171b60405160405180910390a45050565b6000610acc836001600160a01b038416611e26565b6000826000018281548110611b9f57634e487b7160e01b600052603260045260246000fd5b9060005260206000200154905092915050565b6000611bc6846001600160a01b0316611cd1565b15611cc257836001600160a01b031663150b7a02611be26110fa565b8786866040518563ffffffff1660e01b8152600401611c04949392919061278c565b602060405180830381600087803b158015611c1e57600080fd5b505af1925050508015611c4e575060408051601f3d908101601f19168201909252611c4b918101906124b0565b60015b611ca8573d808015611c7c576040519150601f19603f3d011682016040523d82523d6000602084013e611c81565b606091505b508051611ca05760405162461bcd60e51b815260040161068790612883565b805181602001fd5b6001600160e01b031916630a85bd0160e11b14905061145d565b506001949350505050565b5490565b6001600160a01b03163b151590565b600054610100900460ff16611d075760405162461bcd60e51b815260040161068790612d2f565b8151611d1a9060659060208501906121b2565b50805161073f9060669060208401906121b2565b60006001600160e01b0319821663780e9d6360e01b14806105c657506105c682611f43565b611d5e83838361073f565b6001600160a01b038316611d7a57611d7581611f83565b611d9d565b816001600160a01b0316836001600160a01b031614611d9d57611d9d8382611fc7565b6001600160a01b038216611db957611db481612064565b61073f565b826001600160a01b0316826001600160a01b03161461073f5761073f828261213d565b6000611de88383612181565b611e1e57508154600181810184556000848152602080822090930184905584548482528286019093526040902091909155610972565b506000610972565b60008181526001830160205260408120548015611f39576000611e4a600183612f34565b8554909150600090611e5e90600190612f34565b9050818114611edf576000866000018281548110611e8c57634e487b7160e01b600052603260045260246000fd5b9060005260206000200154905080876000018481548110611ebd57634e487b7160e01b600052603260045260246000fd5b6000918252602080832090910192909255918252600188019052604090208390555b8554869080611efe57634e487b7160e01b600052603160045260246000fd5b600190038181906000526020600020016000905590558560010160008681526020019081526020016000206000905560019350505050610972565b6000915050610972565b60006001600160e01b031982166380ac58cd60e01b1480611f7457506001600160e01b03198216635b5e139f60e01b145b806105c657506105c682612199565b609980546000838152609a60205260408120829055600182018355919091527f72a152ddfb8e864297c917af52ea6c1c68aead0fee1a62673fcc7e0c94979d000155565b60006001611fd484610a70565b611fde9190612f34565b600083815260986020526040902054909150808214612031576001600160a01b03841660009081526097602090815260408083208584528252808320548484528184208190558352609890915290208190555b5060009182526098602090815260408084208490556001600160a01b039094168352609781528383209183525290812055565b60995460009061207690600190612f34565b6000838152609a6020526040812054609980549394509092849081106120ac57634e487b7160e01b600052603260045260246000fd5b9060005260206000200154905080609983815481106120db57634e487b7160e01b600052603260045260246000fd5b6000918252602080832090910192909255828152609a9091526040808220849055858252812055609980548061212157634e487b7160e01b600052603160045260246000fd5b6001900381819060005260206000200160009055905550505050565b600061214883610a70565b6001600160a01b039093166000908152609760209081526040808320868452825280832085905593825260989052919091209190915550565b60009081526001919091016020526040902054151590565b6001600160e01b031981166301ffc9a760e01b14919050565b8280546121be90612f8e565b90600052602060002090601f0160209004810192826121e05760008555612226565b82601f106121f957805160ff1916838001178555612226565b82800160010185558215612226579182015b8281111561222657825182559160200191906001019061220b565b5061223292915061224d565b5090565b604080518082019091526000808252602082015290565b5b80821115612232576000815560010161224e565b600061227561227084612ed5565b612ea4565b905082815283838301111561228957600080fd5b828260208301376000602084830101529392505050565b80356105c981613010565b600082601f8301126122bb578081fd5b610acc83833560208501612262565b6000602082840312156122db578081fd5b8135610acc81613010565b600080604083850312156122f8578081fd5b823561230381613010565b9150602083013561231381613010565b809150509250929050565b600080600060608486031215612332578081fd5b833561233d81613010565b9250602084013561234d81613010565b929592945050506040919091013590565b60008060008060808587031215612373578081fd5b843561237e81613010565b9350602085013561238e81613010565b925060408501359150606085013567ffffffffffffffff8111156123b0578182fd5b8501601f810187136123c0578182fd5b6123cf87823560208401612262565b91505092959194509250565b600080604083850312156123ed578182fd5b82356123f881613010565b915060208301358015158114612313578182fd5b6000806040838503121561241e578182fd5b823561242981613010565b946020939093013593505050565b600060208284031215612448578081fd5b5035919050565b60008060408385031215612461578182fd5b82359150602083013561231381613010565b60008060408385031215612485578081fd5b50508035926020909101359150565b6000602082840312156124a5578081fd5b8135610acc81613025565b6000602082840312156124c1578081fd5b8151610acc81613025565b6000602082840312156124dd578081fd5b815167ffffffffffffffff8111156124f3578182fd5b8201601f81018413612503578182fd5b805161251161227082612ed5565b818152856020838501011115612525578384fd5b612536826020830160208601612f4b565b95945050505050565b600060208284031215612550578081fd5b813567ffffffffffffffff80821115612567578283fd5b9083019060a0828603121561257a578283fd5b61258460a0612ea4565b823582811115612592578485fd5b61259e878286016122ab565b8252506020830135828111156125b2578485fd5b6125be878286016122ab565b6020830152506040830135828111156125d5578485fd5b6125e1878286016122ab565b6040830152506125f3606084016122a0565b60608201526080830135608082015280935050505092915050565b600080600060608486031215612622578081fd5b83359250602084013561263481613010565b915060408401356001600160601b038116811461264f578182fd5b809150509250925092565b60008060006060848603121561266e578081fd5b83359250602084013561234d81613010565b6000815180845260208085019450808401835b838110156126cc57815180516001600160a01b031688528301516001600160601b03168388015260409096019590820190600101612693565b509495945050505050565b600081518084526126ef816020860160208601612f4b565b601f01601f19169290920160200192915050565b60007f416363657373436f6e74726f6c3a206163636f756e74200000000000000000008252835161273b816017850160208801612f4b565b7001034b99036b4b9b9b4b733903937b6329607d1b601791840191820152835161276c816028840160208801612f4b565b01602801949350505050565b6001600160a01b0391909116815260200190565b6001600160a01b03858116825284166020820152604081018390526080606082018190526000906127bf908301846126d7565b9695505050505050565b600060208252610acc6020830184612680565b901515815260200190565b90815260200190565b600060208252610acc60208301846126d7565b6020808252818101527f537472696e67733a20686578206c656e67746820696e73756666696369656e74604082015260600190565b6020808252602b908201527f455243373231456e756d657261626c653a206f776e657220696e646578206f7560408201526a74206f6620626f756e647360a81b606082015260800190565b60208082526032908201527f4552433732313a207472616e7366657220746f206e6f6e20455243373231526560408201527131b2b4bb32b91034b6b83632b6b2b73a32b960711b606082015260800190565b60208082526025908201527f4552433732313a207472616e736665722066726f6d20696e636f72726563742060408201526437bbb732b960d91b606082015260800190565b6020808252601c908201527f4552433732313a20746f6b656e20616c7265616479206d696e74656400000000604082015260600190565b60208082526024908201527f4552433732313a207472616e7366657220746f20746865207a65726f206164646040820152637265737360e01b606082015260800190565b60208082526019908201527f4552433732313a20617070726f766520746f2063616c6c657200000000000000604082015260600190565b6020808252602c908201527f4552433732313a206f70657261746f7220717565727920666f72206e6f6e657860408201526b34b9ba32b73a103a37b5b2b760a11b606082015260800190565b6020808252818101527f526f79616c74792076616c75652073686f756c6420626520706f736974697665604082015260600190565b60208082526038908201527f4552433732313a20617070726f76652063616c6c6572206973206e6f74206f7760408201527f6e6572206e6f7220617070726f76656420666f7220616c6c0000000000000000606082015260800190565b6020808252602a908201527f4552433732313a2062616c616e636520717565727920666f7220746865207a65604082015269726f206164647265737360b01b606082015260800190565b60208082526029908201527f4552433732313a206f776e657220717565727920666f72206e6f6e657869737460408201526832b73a103a37b5b2b760b91b606082015260800190565b6020808252602e908201527f496e697469616c697a61626c653a20636f6e747261637420697320616c72656160408201526d191e481a5b9a5d1a585b1a5e995960921b606082015260800190565b6020808252818101527f4552433732313a206d696e7420746f20746865207a65726f2061646472657373604082015260600190565b6020808252602c908201527f4552433732313a20617070726f76656420717565727920666f72206e6f6e657860408201526b34b9ba32b73a103a37b5b2b760a11b606082015260800190565b60208082526021908201527f4552433732313a20617070726f76616c20746f2063757272656e74206f776e656040820152603960f91b606082015260800190565b60208082526031908201527f4552433732313a207472616e736665722063616c6c6572206973206e6f74206f6040820152701ddb995c881b9bdc88185c1c1c9bdd9959607a1b606082015260800190565b6020808252602c908201527f455243373231456e756d657261626c653a20676c6f62616c20696e646578206f60408201526b7574206f6620626f756e647360a01b606082015260800190565b60208082526025908201527f526f79616c747920746f74616c2076616c75652073686f756c64206265203c20604082015264031303030360dc1b606082015260800190565b6020808252602b908201527f496e697469616c697a61626c653a20636f6e7472616374206973206e6f74206960408201526a6e697469616c697a696e6760a81b606082015260800190565b6020808252601b908201527f526563697069656e742073686f756c642062652070726573656e740000000000604082015260600190565b6020808252602f908201527f416363657373436f6e74726f6c3a2063616e206f6e6c792072656e6f756e636560408201526e103937b632b9903337b91039b2b63360891b606082015260800190565b600060408252835160a06040840152612e1c60e08401826126d7565b90506020850151603f1980858403016060860152612e3a83836126d7565b9250604087015191508085840301608086015250612e5882826126d7565b60608701516001600160a01b031660a0860152608087015160c086015284810360208601529150612536905081856126d7565b60008382526040602083015261145d6040830184612680565b604051601f8201601f1916810167ffffffffffffffff81118282101715612ecd57612ecd612ffa565b604052919050565b600067ffffffffffffffff821115612eef57612eef612ffa565b50601f01601f191660200190565b60008219821115612f1057612f10612fe4565b500190565b6000816000190483118215151615612f2f57612f2f612fe4565b500290565b600082821015612f4657612f46612fe4565b500390565b60005b83811015612f66578181015183820152602001612f4e565b83811115610b5d5750506000910152565b600081612f8657612f86612fe4565b506000190190565b600281046001821680612fa257607f821691505b60208210811415612fc357634e487b7160e01b600052602260045260246000fd5b50919050565b6000600019821415612fdd57612fdd612fe4565b5060010190565b634e487b7160e01b600052601160045260246000fd5b634e487b7160e01b600052604160045260246000fd5b6001600160a01b0381168114610e4b57600080fd5b6001600160e01b031981168114610e4b57600080fdfea2646970667358221220eadac86b7ac5d4834c689b066d3b182b77585e7ac6b276fa41850e6f78fbee2b64736f6c63430008010033",
  "libraries": {
    "NFTDescriptor": "0xD01587bE8e3f94A416adA7007b824fBe65bDF874"
  },
  "devdoc": {
    "kind": "dev",
    "methods": {
      "approve(address,uint256)": {
        "details": "See {IERC721-approve}."
      },
      "balanceOf(address)": {
        "details": "See {IERC721-balanceOf}."
      },
      "getApproved(uint256)": {
        "details": "See {IERC721-getApproved}."
      },
      "getRoleAdmin(bytes32)": {
        "details": "Returns the admin role that controls `role`. See {grantRole} and {revokeRole}. To change a role's admin, use {_setRoleAdmin}."
      },
      "getRoleMember(bytes32,uint256)": {
        "details": "Returns one of the accounts that have `role`. `index` must be a value between 0 and {getRoleMemberCount}, non-inclusive. Role bearers are not sorted in any particular way, and their ordering may change at any point. WARNING: When using {getRoleMember} and {getRoleMemberCount}, make sure you perform all queries on the same block. See the following https://forum.openzeppelin.com/t/iterating-over-elements-on-enumerableset-in-openzeppelin-contracts/2296[forum post] for more information."
      },
      "getRoleMemberCount(bytes32)": {
        "details": "Returns the number of accounts that have `role`. Can be used together with {getRoleMember} to enumerate all bearers of a role."
      },
      "grantRole(bytes32,address)": {
        "details": "Grants `role` to `account`. If `account` had not been already granted `role`, emits a {RoleGranted} event. Requirements: - the caller must have ``role``'s admin role."
      },
      "hasRole(bytes32,address)": {
        "details": "Returns `true` if `account` has been granted `role`."
      },
      "isApprovedForAll(address,address)": {
        "details": "See {IERC721-isApprovedForAll}."
      },
      "name()": {
        "details": "See {IERC721Metadata-name}."
      },
      "ownerOf(uint256)": {
        "details": "See {IERC721-ownerOf}."
      },
      "renounceRole(bytes32,address)": {
        "details": "Revokes `role` from the calling account. Roles are often managed via {grantRole} and {revokeRole}: this function's purpose is to provide a mechanism for accounts to lose their privileges if they are compromised (such as when a trusted device is misplaced). If the calling account had been revoked `role`, emits a {RoleRevoked} event. Requirements: - the caller must be `account`."
      },
      "revokeRole(bytes32,address)": {
        "details": "Revokes `role` from `account`. If `account` had been granted `role`, emits a {RoleRevoked} event. Requirements: - the caller must have ``role``'s admin role."
      },
      "safeTransferFrom(address,address,uint256)": {
        "details": "See {IERC721-safeTransferFrom}."
      },
      "safeTransferFrom(address,address,uint256,bytes)": {
        "details": "See {IERC721-safeTransferFrom}."
      },
      "setApprovalForAll(address,bool)": {
        "details": "See {IERC721-setApprovalForAll}."
      },
      "symbol()": {
        "details": "See {IERC721Metadata-symbol}."
      },
      "tokenByIndex(uint256)": {
        "details": "See {IERC721Enumerable-tokenByIndex}."
      },
      "tokenOfOwnerByIndex(address,uint256)": {
        "details": "See {IERC721Enumerable-tokenOfOwnerByIndex}."
      },
      "tokenURI(uint256)": {
        "details": "See {IERC721Metadata-tokenURI}."
      },
      "totalSupply()": {
        "details": "See {IERC721Enumerable-totalSupply}."
      },
      "transferFrom(address,address,uint256)": {
        "details": "See {IERC721-transferFrom}."
      }
    },
    "version": 1
  },
  "userdoc": {
    "kind": "user",
    "methods": {},
    "version": 1
  },
  "storageLayout": {
    "storage": [
      {
        "astId": 578,
        "contract": "src/sl.sol:MIRE",
        "label": "_initialized",
        "offset": 0,
        "slot": "0",
        "type": "t_bool"
      },
      {
        "astId": 581,
        "contract": "src/sl.sol:MIRE",
        "label": "_initializing",
        "offset": 1,
        "slot": "0",
        "type": "t_bool"
      },
      {
        "astId": 2370,
        "contract": "src/sl.sol:MIRE",
        "label": "__gap",
        "offset": 0,
        "slot": "1",
        "type": "t_array(t_uint256)50_storage"
      },
      {
        "astId": 2617,
        "contract": "src/sl.sol:MIRE",
        "label": "__gap",
        "offset": 0,
        "slot": "51",
        "type": "t_array(t_uint256)50_storage"
      },
      {
        "astId": 674,
        "contract": "src/sl.sol:MIRE",
        "label": "_name",
        "offset": 0,
        "slot": "101",
        "type": "t_string_storage"
      },
      {
        "astId": 676,
        "contract": "src/sl.sol:MIRE",
        "label": "_symbol",
        "offset": 0,
        "slot": "102",
        "type": "t_string_storage"
      },
      {
        "astId": 680,
        "contract": "src/sl.sol:MIRE",
        "label": "_owners",
        "offset": 0,
        "slot": "103",
        "type": "t_mapping(t_uint256,t_address)"
      },
      {
        "astId": 684,
        "contract": "src/sl.sol:MIRE",
        "label": "_balances",
        "offset": 0,
        "slot": "104",
        "type": "t_mapping(t_address,t_uint256)"
      },
      {
        "astId": 688,
        "contract": "src/sl.sol:MIRE",
        "label": "_tokenApprovals",
        "offset": 0,
        "slot": "105",
        "type": "t_mapping(t_uint256,t_address)"
      },
      {
        "astId": 694,
        "contract": "src/sl.sol:MIRE",
        "label": "_operatorApprovals",
        "offset": 0,
        "slot": "106",
        "type": "t_mapping(t_address,t_mapping(t_address,t_bool))"
      },
      {
        "astId": 1535,
        "contract": "src/sl.sol:MIRE",
        "label": "__gap",
        "offset": 0,
        "slot": "107",
        "type": "t_array(t_uint256)44_storage"
      },
      {
        "astId": 1700,
        "contract": "src/sl.sol:MIRE",
        "label": "_ownedTokens",
        "offset": 0,
        "slot": "151",
        "type": "t_mapping(t_address,t_mapping(t_uint256,t_uint256))"
      },
      {
        "astId": 1704,
        "contract": "src/sl.sol:MIRE",
        "label": "_ownedTokensIndex",
        "offset": 0,
        "slot": "152",
        "type": "t_mapping(t_uint256,t_uint256)"
      },
      {
        "astId": 1707,
        "contract": "src/sl.sol:MIRE",
        "label": "_allTokens",
        "offset": 0,
        "slot": "153",
        "type": "t_array(t_uint256)dyn_storage"
      },
      {
        "astId": 1711,
        "contract": "src/sl.sol:MIRE",
        "label": "_allTokensIndex",
        "offset": 0,
        "slot": "154",
        "type": "t_mapping(t_uint256,t_uint256)"
      },
      {
        "astId": 2027,
        "contract": "src/sl.sol:MIRE",
        "label": "__gap",
        "offset": 0,
        "slot": "155",
        "type": "t_array(t_uint256)46_storage"
      },
      {
        "astId": 3617,
        "contract": "src/sl.sol:MIRE",
        "label": "royalties",
        "offset": 0,
        "slot": "201",
        "type": "t_mapping(t_uint256,t_array(t_struct(Part)3559_storage)dyn_storage)"
      },
      {
        "astId": 184,
        "contract": "src/sl.sol:MIRE",
        "label": "_roles",
        "offset": 0,
        "slot": "202",
        "type": "t_mapping(t_bytes32,t_struct(RoleData)179_storage)"
      },
      {
        "astId": 472,
        "contract": "src/sl.sol:MIRE",
        "label": "__gap",
        "offset": 0,
        "slot": "203",
        "type": "t_array(t_uint256)49_storage"
      },
      {
        "astId": 33,
        "contract": "src/sl.sol:MIRE",
        "label": "_roleMembers",
        "offset": 0,
        "slot": "252",
        "type": "t_mapping(t_bytes32,t_struct(AddressSet)2942_storage)"
      },
      {
        "astId": 143,
        "contract": "src/sl.sol:MIRE",
        "label": "__gap",
        "offset": 0,
        "slot": "253",
        "type": "t_array(t_uint256)49_storage"
      },
      {
        "astId": 4299,
        "contract": "src/sl.sol:MIRE",
        "label": "cloneMappingAddress",
        "offset": 0,
        "slot": "302",
        "type": "t_mapping(t_uint256,t_contract(IERC721MetadataTokenURI)4280)"
      },
      {
        "astId": 4303,
        "contract": "src/sl.sol:MIRE",
        "label": "cloneMappingId",
        "offset": 0,
        "slot": "303",
        "type": "t_mapping(t_uint256,t_uint256)"
      },
      {
        "astId": 4307,
        "contract": "src/sl.sol:MIRE",
        "label": "cloneMappingValue",
        "offset": 0,
        "slot": "304",
        "type": "t_mapping(t_uint256,t_uint256)"
      },
      {
        "astId": 4309,
        "contract": "src/sl.sol:MIRE",
        "label": "mTokenId",
        "offset": 0,
        "slot": "305",
        "type": "t_uint256"
      },
      {
        "astId": 4312,
        "contract": "src/sl.sol:MIRE",
        "label": "contractMetadata",
        "offset": 0,
        "slot": "306",
        "type": "t_struct(ConstructContractURIParams)3829_storage"
      },
      {
        "astId": 4314,
        "contract": "src/sl.sol:MIRE",
        "label": "version",
        "offset": 0,
        "slot": "311",
        "type": "t_uint256"
      }
    ],
    "types": {
      "t_address": {
        "encoding": "inplace",
        "label": "address",
        "numberOfBytes": "20"
      },
      "t_address_payable": {
        "encoding": "inplace",
        "label": "address payable",
        "numberOfBytes": "20"
      },
      "t_array(t_bytes32)dyn_storage": {
        "base": "t_bytes32",
        "encoding": "dynamic_array",
        "label": "bytes32[]",
        "numberOfBytes": "32"
      },
      "t_array(t_struct(Part)3559_storage)dyn_storage": {
        "base": "t_struct(Part)3559_storage",
        "encoding": "dynamic_array",
        "label": "struct LibPart.Part[]",
        "numberOfBytes": "32"
      },
      "t_array(t_uint256)44_storage": {
        "base": "t_uint256",
        "encoding": "inplace",
        "label": "uint256[44]",
        "numberOfBytes": "1408"
      },
      "t_array(t_uint256)46_storage": {
        "base": "t_uint256",
        "encoding": "inplace",
        "label": "uint256[46]",
        "numberOfBytes": "1472"
      },
      "t_array(t_uint256)49_storage": {
        "base": "t_uint256",
        "encoding": "inplace",
        "label": "uint256[49]",
        "numberOfBytes": "1568"
      },
      "t_array(t_uint256)50_storage": {
        "base": "t_uint256",
        "encoding": "inplace",
        "label": "uint256[50]",
        "numberOfBytes": "1600"
      },
      "t_array(t_uint256)dyn_storage": {
        "base": "t_uint256",
        "encoding": "dynamic_array",
        "label": "uint256[]",
        "numberOfBytes": "32"
      },
      "t_bool": {
        "encoding": "inplace",
        "label": "bool",
        "numberOfBytes": "1"
      },
      "t_bytes32": {
        "encoding": "inplace",
        "label": "bytes32",
        "numberOfBytes": "32"
      },
      "t_contract(IERC721MetadataTokenURI)4280": {
        "encoding": "inplace",
        "label": "contract IERC721MetadataTokenURI",
        "numberOfBytes": "20"
      },
      "t_mapping(t_address,t_bool)": {
        "encoding": "mapping",
        "key": "t_address",
        "label": "mapping(address => bool)",
        "numberOfBytes": "32",
        "value": "t_bool"
      },
      "t_mapping(t_address,t_mapping(t_address,t_bool))": {
        "encoding": "mapping",
        "key": "t_address",
        "label": "mapping(address => mapping(address => bool))",
        "numberOfBytes": "32",
        "value": "t_mapping(t_address,t_bool)"
      },
      "t_mapping(t_address,t_mapping(t_uint256,t_uint256))": {
        "encoding": "mapping",
        "key": "t_address",
        "label": "mapping(address => mapping(uint256 => uint256))",
        "numberOfBytes": "32",
        "value": "t_mapping(t_uint256,t_uint256)"
      },
      "t_mapping(t_address,t_uint256)": {
        "encoding": "mapping",
        "key": "t_address",
        "label": "mapping(address => uint256)",
        "numberOfBytes": "32",
        "value": "t_uint256"
      },
      "t_mapping(t_bytes32,t_struct(AddressSet)2942_storage)": {
        "encoding": "mapping",
        "key": "t_bytes32",
        "label": "mapping(bytes32 => struct EnumerableSetUpgradeable.AddressSet)",
        "numberOfBytes": "32",
        "value": "t_struct(AddressSet)2942_storage"
      },
      "t_mapping(t_bytes32,t_struct(RoleData)179_storage)": {
        "encoding": "mapping",
        "key": "t_bytes32",
        "label": "mapping(bytes32 => struct AccessControlUpgradeable.RoleData)",
        "numberOfBytes": "32",
        "value": "t_struct(RoleData)179_storage"
      },
      "t_mapping(t_bytes32,t_uint256)": {
        "encoding": "mapping",
        "key": "t_bytes32",
        "label": "mapping(bytes32 => uint256)",
        "numberOfBytes": "32",
        "value": "t_uint256"
      },
      "t_mapping(t_uint256,t_address)": {
        "encoding": "mapping",
        "key": "t_uint256",
        "label": "mapping(uint256 => address)",
        "numberOfBytes": "32",
        "value": "t_address"
      },
      "t_mapping(t_uint256,t_array(t_struct(Part)3559_storage)dyn_storage)": {
        "encoding": "mapping",
        "key": "t_uint256",
        "label": "mapping(uint256 => struct LibPart.Part[])",
        "numberOfBytes": "32",
        "value": "t_array(t_struct(Part)3559_storage)dyn_storage"
      },
      "t_mapping(t_uint256,t_contract(IERC721MetadataTokenURI)4280)": {
        "encoding": "mapping",
        "key": "t_uint256",
        "label": "mapping(uint256 => contract IERC721MetadataTokenURI)",
        "numberOfBytes": "32",
        "value": "t_contract(IERC721MetadataTokenURI)4280"
      },
      "t_mapping(t_uint256,t_uint256)": {
        "encoding": "mapping",
        "key": "t_uint256",
        "label": "mapping(uint256 => uint256)",
        "numberOfBytes": "32",
        "value": "t_uint256"
      },
      "t_string_storage": {
        "encoding": "bytes",
        "label": "string",
        "numberOfBytes": "32"
      },
      "t_struct(AddressSet)2942_storage": {
        "encoding": "inplace",
        "label": "struct EnumerableSetUpgradeable.AddressSet",
        "members": [
          {
            "astId": 2941,
            "contract": "src/sl.sol:MIRE",
            "label": "_inner",
            "offset": 0,
            "slot": "0",
            "type": "t_struct(Set)2641_storage"
          }
        ],
        "numberOfBytes": "64"
      },
      "t_struct(ConstructContractURIParams)3829_storage": {
        "encoding": "inplace",
        "label": "struct NFTDescriptor.ConstructContractURIParams",
        "members": [
          {
            "astId": 3820,
            "contract": "src/sl.sol:MIRE",
            "label": "imageURL",
            "offset": 0,
            "slot": "0",
            "type": "t_string_storage"
          },
          {
            "astId": 3822,
            "contract": "src/sl.sol:MIRE",
            "label": "description",
            "offset": 0,
            "slot": "1",
            "type": "t_string_storage"
          },
          {
            "astId": 3824,
            "contract": "src/sl.sol:MIRE",
            "label": "externalURL",
            "offset": 0,
            "slot": "2",
            "type": "t_string_storage"
          },
          {
            "astId": 3826,
            "contract": "src/sl.sol:MIRE",
            "label": "royaltiesRecipient",
            "offset": 0,
            "slot": "3",
            "type": "t_address"
          },
          {
            "astId": 3828,
            "contract": "src/sl.sol:MIRE",
            "label": "royaltiesFeeBasisPoints",
            "offset": 0,
            "slot": "4",
            "type": "t_uint256"
          }
        ],
        "numberOfBytes": "160"
      },
      "t_struct(Part)3559_storage": {
        "encoding": "inplace",
        "label": "struct LibPart.Part",
        "members": [
          {
            "astId": 3556,
            "contract": "src/sl.sol:MIRE",
            "label": "account",
            "offset": 0,
            "slot": "0",
            "type": "t_address_payable"
          },
          {
            "astId": 3558,
            "contract": "src/sl.sol:MIRE",
            "label": "value",
            "offset": 20,
            "slot": "0",
            "type": "t_uint96"
          }
        ],
        "numberOfBytes": "32"
      },
      "t_struct(RoleData)179_storage": {
        "encoding": "inplace",
        "label": "struct AccessControlUpgradeable.RoleData",
        "members": [
          {
            "astId": 176,
            "contract": "src/sl.sol:MIRE",
            "label": "members",
            "offset": 0,
            "slot": "0",
            "type": "t_mapping(t_address,t_bool)"
          },
          {
            "astId": 178,
            "contract": "src/sl.sol:MIRE",
            "label": "adminRole",
            "offset": 0,
            "slot": "1",
            "type": "t_bytes32"
          }
        ],
        "numberOfBytes": "64"
      },
      "t_struct(Set)2641_storage": {
        "encoding": "inplace",
        "label": "struct EnumerableSetUpgradeable.Set",
        "members": [
          {
            "astId": 2636,
            "contract": "src/sl.sol:MIRE",
            "label": "_values",
            "offset": 0,
            "slot": "0",
            "type": "t_array(t_bytes32)dyn_storage"
          },
          {
            "astId": 2640,
            "contract": "src/sl.sol:MIRE",
            "label": "_indexes",
            "offset": 0,
            "slot": "1",
            "type": "t_mapping(t_bytes32,t_uint256)"
          }
        ],
        "numberOfBytes": "64"
      },
      "t_uint256": {
        "encoding": "inplace",
        "label": "uint256",
        "numberOfBytes": "32"
      },
      "t_uint96": {
        "encoding": "inplace",
        "label": "uint96",
        "numberOfBytes": "12"
      }
    }
  }
}