{
  "address": "0x7b3760c31001E9ac3b2294cB2Ec1D688f042b318",
  "abi": [
    {
      "anonymous": false,
      "inputs": [
        {
          "indexed": true,
          "internalType": "address",
          "name": "owner",
          "type": "address"
        },
        {
          "indexed": true,
          "internalType": "address",
          "name": "approved",
          "type": "address"
        },
        {
          "indexed": true,
          "internalType": "uint256",
          "name": "tokenId",
          "type": "uint256"
        }
      ],
      "name": "Approval",
      "type": "event"
    },
    {
      "anonymous": false,
      "inputs": [
        {
          "indexed": true,
          "internalType": "address",
          "name": "owner",
          "type": "address"
        },
        {
          "indexed": true,
          "internalType": "address",
          "name": "operator",
          "type": "address"
        },
        {
          "indexed": false,
          "internalType": "bool",
          "name": "approved",
          "type": "bool"
        }
      ],
      "name": "ApprovalForAll",
      "type": "event"
    },
    {
      "anonymous": false,
      "inputs": [
        {
          "indexed": true,
          "internalType": "bytes32",
          "name": "role",
          "type": "bytes32"
        },
        {
          "indexed": true,
          "internalType": "bytes32",
          "name": "previousAdminRole",
          "type": "bytes32"
        },
        {
          "indexed": true,
          "internalType": "bytes32",
          "name": "newAdminRole",
          "type": "bytes32"
        }
      ],
      "name": "RoleAdminChanged",
      "type": "event"
    },
    {
      "anonymous": false,
      "inputs": [
        {
          "indexed": true,
          "internalType": "bytes32",
          "name": "role",
          "type": "bytes32"
        },
        {
          "indexed": true,
          "internalType": "address",
          "name": "account",
          "type": "address"
        },
        {
          "indexed": true,
          "internalType": "address",
          "name": "sender",
          "type": "address"
        }
      ],
      "name": "RoleGranted",
      "type": "event"
    },
    {
      "anonymous": false,
      "inputs": [
        {
          "indexed": true,
          "internalType": "bytes32",
          "name": "role",
          "type": "bytes32"
        },
        {
          "indexed": true,
          "internalType": "address",
          "name": "account",
          "type": "address"
        },
        {
          "indexed": true,
          "internalType": "address",
          "name": "sender",
          "type": "address"
        }
      ],
      "name": "RoleRevoked",
      "type": "event"
    },
    {
      "anonymous": false,
      "inputs": [
        {
          "indexed": false,
          "internalType": "uint256",
          "name": "tokenId",
          "type": "uint256"
        },
        {
          "components": [
            {
              "internalType": "address payable",
              "name": "account",
              "type": "address"
            },
            {
              "internalType": "uint96",
              "name": "value",
              "type": "uint96"
            }
          ],
          "indexed": false,
          "internalType": "struct LibPart.Part[]",
          "name": "royalties",
          "type": "tuple[]"
        }
      ],
      "name": "RoyaltiesSet",
      "type": "event"
    },
    {
      "anonymous": false,
      "inputs": [
        {
          "indexed": true,
          "internalType": "address",
          "name": "from",
          "type": "address"
        },
        {
          "indexed": true,
          "internalType": "address",
          "name": "to",
          "type": "address"
        },
        {
          "indexed": true,
          "internalType": "uint256",
          "name": "tokenId",
          "type": "uint256"
        }
      ],
      "name": "Transfer",
      "type": "event"
    },
    {
      "inputs": [],
      "name": "DEFAULT_ADMIN_ROLE",
      "outputs": [
        {
          "internalType": "bytes32",
          "name": "",
          "type": "bytes32"
        }
      ],
      "stateMutability": "view",
      "type": "function"
    },
    {
      "inputs": [
        {
          "internalType": "address",
          "name": "to",
          "type": "address"
        },
        {
          "internalType": "uint256",
          "name": "tokenId",
          "type": "uint256"
        }
      ],
      "name": "approve",
      "outputs": [],
      "stateMutability": "nonpayable",
      "type": "function"
    },
    {
      "inputs": [
        {
          "internalType": "address",
          "name": "owner",
          "type": "address"
        }
      ],
      "name": "balanceOf",
      "outputs": [
        {
          "internalType": "uint256",
          "name": "",
          "type": "uint256"
        }
      ],
      "stateMutability": "view",
      "type": "function"
    },
    {
      "inputs": [],
      "name": "contractURI",
      "outputs": [
        {
          "internalType": "string",
          "name": "",
          "type": "string"
        }
      ],
      "stateMutability": "view",
      "type": "function"
    },
    {
      "inputs": [
        {
          "internalType": "uint256",
          "name": "tokenId",
          "type": "uint256"
        }
      ],
      "name": "getApproved",
      "outputs": [
        {
          "internalType": "address",
          "name": "",
          "type": "address"
        }
      ],
      "stateMutability": "view",
      "type": "function"
    },
    {
      "inputs": [
        {
          "internalType": "uint256",
          "name": "id",
          "type": "uint256"
        }
      ],
      "name": "getRaribleV2Royalties",
      "outputs": [
        {
          "components": [
            {
              "internalType": "address payable",
              "name": "account",
              "type": "address"
            },
            {
              "internalType": "uint96",
              "name": "value",
              "type": "uint96"
            }
          ],
          "internalType": "struct LibPart.Part[]",
          "name": "",
          "type": "tuple[]"
        }
      ],
      "stateMutability": "view",
      "type": "function"
    },
    {
      "inputs": [
        {
          "internalType": "bytes32",
          "name": "role",
          "type": "bytes32"
        }
      ],
      "name": "getRoleAdmin",
      "outputs": [
        {
          "internalType": "bytes32",
          "name": "",
          "type": "bytes32"
        }
      ],
      "stateMutability": "view",
      "type": "function"
    },
    {
      "inputs": [
        {
          "internalType": "bytes32",
          "name": "role",
          "type": "bytes32"
        },
        {
          "internalType": "address",
          "name": "account",
          "type": "address"
        }
      ],
      "name": "grantRole",
      "outputs": [],
      "stateMutability": "nonpayable",
      "type": "function"
    },
    {
      "inputs": [
        {
          "internalType": "bytes32",
          "name": "role",
          "type": "bytes32"
        },
        {
          "internalType": "address",
          "name": "account",
          "type": "address"
        }
      ],
      "name": "hasRole",
      "outputs": [
        {
          "internalType": "bool",
          "name": "",
          "type": "bool"
        }
      ],
      "stateMutability": "view",
      "type": "function"
    },
    {
      "inputs": [
        {
          "internalType": "string",
          "name": "name",
          "type": "string"
        },
        {
          "internalType": "string",
          "name": "symbol",
          "type": "string"
        }
      ],
      "name": "init",
      "outputs": [],
      "stateMutability": "nonpayable",
      "type": "function"
    },
    {
      "inputs": [
        {
          "internalType": "address",
          "name": "owner",
          "type": "address"
        },
        {
          "internalType": "address",
          "name": "operator",
          "type": "address"
        }
      ],
      "name": "isApprovedForAll",
      "outputs": [
        {
          "internalType": "bool",
          "name": "",
          "type": "bool"
        }
      ],
      "stateMutability": "view",
      "type": "function"
    },
    {
      "inputs": [
        {
          "internalType": "address",
          "name": "to",
          "type": "address"
        },
        {
          "internalType": "address",
          "name": "cloneContract",
          "type": "address"
        },
        {
          "internalType": "uint256",
          "name": "cloneId",
          "type": "uint256"
        }
      ],
      "name": "mint",
      "outputs": [],
      "stateMutability": "nonpayable",
      "type": "function"
    },
    {
      "inputs": [],
      "name": "name",
      "outputs": [
        {
          "internalType": "string",
          "name": "",
          "type": "string"
        }
      ],
      "stateMutability": "view",
      "type": "function"
    },
    {
      "inputs": [
        {
          "internalType": "uint256",
          "name": "tokenId",
          "type": "uint256"
        }
      ],
      "name": "ownerOf",
      "outputs": [
        {
          "internalType": "address",
          "name": "",
          "type": "address"
        }
      ],
      "stateMutability": "view",
      "type": "function"
    },
    {
      "inputs": [
        {
          "internalType": "bytes32",
          "name": "role",
          "type": "bytes32"
        },
        {
          "internalType": "address",
          "name": "account",
          "type": "address"
        }
      ],
      "name": "renounceRole",
      "outputs": [],
      "stateMutability": "nonpayable",
      "type": "function"
    },
    {
      "inputs": [
        {
          "internalType": "bytes32",
          "name": "role",
          "type": "bytes32"
        },
        {
          "internalType": "address",
          "name": "account",
          "type": "address"
        }
      ],
      "name": "revokeRole",
      "outputs": [],
      "stateMutability": "nonpayable",
      "type": "function"
    },
    {
      "inputs": [
        {
          "internalType": "address",
          "name": "from",
          "type": "address"
        },
        {
          "internalType": "address",
          "name": "to",
          "type": "address"
        },
        {
          "internalType": "uint256",
          "name": "tokenId",
          "type": "uint256"
        }
      ],
      "name": "safeTransferFrom",
      "outputs": [],
      "stateMutability": "nonpayable",
      "type": "function"
    },
    {
      "inputs": [
        {
          "internalType": "address",
          "name": "from",
          "type": "address"
        },
        {
          "internalType": "address",
          "name": "to",
          "type": "address"
        },
        {
          "internalType": "uint256",
          "name": "tokenId",
          "type": "uint256"
        },
        {
          "internalType": "bytes",
          "name": "_data",
          "type": "bytes"
        }
      ],
      "name": "safeTransferFrom",
      "outputs": [],
      "stateMutability": "nonpayable",
      "type": "function"
    },
    {
      "inputs": [
        {
          "internalType": "address",
          "name": "operator",
          "type": "address"
        },
        {
          "internalType": "bool",
          "name": "approved",
          "type": "bool"
        }
      ],
      "name": "setApprovalForAll",
      "outputs": [],
      "stateMutability": "nonpayable",
      "type": "function"
    },
    {
      "inputs": [
        {
          "components": [
            {
              "internalType": "string",
              "name": "imageURL",
              "type": "string"
            },
            {
              "internalType": "string",
              "name": "description",
              "type": "string"
            },
            {
              "internalType": "string",
              "name": "externalURL",
              "type": "string"
            },
            {
              "internalType": "address payable",
              "name": "royaltiesRecipient",
              "type": "address"
            },
            {
              "internalType": "uint256",
              "name": "royaltiesFeeBasisPoints",
              "type": "uint256"
            }
          ],
          "internalType": "struct NFTDescriptor.ConstructContractURIParams",
          "name": "params",
          "type": "tuple"
        }
      ],
      "name": "setContractURI",
      "outputs": [],
      "stateMutability": "nonpayable",
      "type": "function"
    },
    {
      "inputs": [
        {
          "internalType": "uint256",
          "name": "_tokenId",
          "type": "uint256"
        },
        {
          "internalType": "address payable",
          "name": "_royaltiesReceipientAddress",
          "type": "address"
        },
        {
          "internalType": "uint96",
          "name": "_percentageBasisPoints",
          "type": "uint96"
        }
      ],
      "name": "setRoyalties",
      "outputs": [],
      "stateMutability": "nonpayable",
      "type": "function"
    },
    {
      "inputs": [
        {
          "internalType": "bytes4",
          "name": "interfaceId",
          "type": "bytes4"
        }
      ],
      "name": "supportsInterface",
      "outputs": [
        {
          "internalType": "bool",
          "name": "",
          "type": "bool"
        }
      ],
      "stateMutability": "view",
      "type": "function"
    },
    {
      "inputs": [],
      "name": "symbol",
      "outputs": [
        {
          "internalType": "string",
          "name": "",
          "type": "string"
        }
      ],
      "stateMutability": "view",
      "type": "function"
    },
    {
      "inputs": [
        {
          "internalType": "uint256",
          "name": "tokenId",
          "type": "uint256"
        }
      ],
      "name": "tokenURI",
      "outputs": [
        {
          "internalType": "string",
          "name": "",
          "type": "string"
        }
      ],
      "stateMutability": "view",
      "type": "function"
    },
    {
      "inputs": [
        {
          "internalType": "address",
          "name": "from",
          "type": "address"
        },
        {
          "internalType": "address",
          "name": "to",
          "type": "address"
        },
        {
          "internalType": "uint256",
          "name": "tokenId",
          "type": "uint256"
        }
      ],
      "name": "transferFrom",
      "outputs": [],
      "stateMutability": "nonpayable",
      "type": "function"
    },
    {
      "inputs": [
        {
          "internalType": "uint256",
          "name": "tokenId",
          "type": "uint256"
        },
        {
          "internalType": "address",
          "name": "_cloneContract",
          "type": "address"
        },
        {
          "internalType": "uint256",
          "name": "cloneId",
          "type": "uint256"
        }
      ],
      "name": "updateClone",
      "outputs": [],
      "stateMutability": "nonpayable",
      "type": "function"
    },
    {
      "inputs": [],
      "name": "version",
      "outputs": [
        {
          "internalType": "uint256",
          "name": "",
          "type": "uint256"
        }
      ],
      "stateMutability": "view",
      "type": "function"
    }
  ],
  "transactionHash": "0xb8487f18fbfa66a95478de3f4e675695ad0ec5b8596d23ff9a085baa08353669",
  "args": [],
  "numDeployments": 2,
  "solcInputHash": "1fa2d1a4a10276b0169558ee81194c51",
  "bytecode": "0x608060405234801561001057600080fd5b506128f2806100206000396000f3fe608060405234801561001057600080fd5b50600436106101a85760003560e01c80636352211e116100f9578063b88d4fde11610097578063cad96cca11610071578063cad96cca14610375578063d547741f14610395578063e8a3d485146103a8578063e985e9c5146103b0576101a8565b8063b88d4fde1461033c578063c6c3bbe61461034f578063c87b56dd14610362576101a8565b806391d14854116100d357806391d148541461030657806395d89b4114610319578063a217fddf14610321578063a22cb46514610329576101a8565b80636352211e146102cd5780637029144c146102e057806370a08231146102f3576101a8565b8063143094db116101665780632f2ff15d116101405780632f2ff15d1461028c57806336568abe1461029f57806342842e0e146102b257806354fd4d50146102c5576101a8565b8063143094db1461024657806323b872dd14610259578063248a9ca31461026c576101a8565b8062817455146101ad57806301ffc9a7146101c257806306fdde03146101eb578063081812fc14610200578063095ea7b3146102205780630f8973dd14610233575b600080fd5b6101c06101bb366004611f6f565b6103c3565b005b6101d56101d0366004611d48565b6104aa565b6040516101e291906120f1565b60405180910390f35b6101f36104de565b6040516101e29190612105565b61021361020e366004611d0c565b610570565b6040516101e2919061208d565b6101c061022e366004611ce1565b6105bc565b6101c0610241366004611e54565b610654565b6101c0610254366004611f23565b6106ed565b6101c0610267366004611bf3565b6107b9565b61027f61027a366004611d0c565b6107f1565b6040516101e291906120fc565b6101c061029a366004611d24565b610806565b6101c06102ad366004611d24565b610825565b6101c06102c0366004611bf3565b61086b565b61027f610886565b6102136102db366004611d0c565b61088c565b6101c06102ee366004611df3565b6108c1565b61027f610301366004611b9f565b61096f565b6101d5610314366004611d24565b6109b3565b6101f36109de565b61027f6109ed565b6101c0610337366004611cb0565b6109f2565b6101c061034a366004611c33565b610a04565b6101c061035d366004611bf3565b610a43565b6101f3610370366004611d0c565b610ae2565b610388610383366004611d0c565b610b80565b6040516101e291906120de565b6101c06103a3366004611d24565b610c0f565b6101f3610c2e565b6101d56103be366004611bbb565b610eab565b6103d06000610314610ed9565b6103d957600080fd5b600083815260ca6020818152604080842080546001600160a01b0319166001600160a01b0388811691909117825560cb8452828620879055939092529054905163c87b56dd60e01b8152859392919091169063c87b56dd9061043f9086906004016120fc565b60006040518083038186803b15801561045757600080fd5b505afa15801561046b573d6000803e3d6000fd5b505050506040513d6000823e601f3d908101601f191682016040526104939190810190611d80565b905060008151116104a357600080fd5b5050505050565b60006001600160e01b0319821663656cb66560e11b14156104cd575060016104d9565b6104d682610edd565b90505b919050565b6060606580546104ed9061280c565b80601f01602080910402602001604051908101604052809291908181526020018280546105199061280c565b80156105665780601f1061053b57610100808354040283529160200191610566565b820191906000526020600020905b81548152906001019060200180831161054957829003601f168201915b5050505050905090565b600061057b82610f02565b6105a05760405162461bcd60e51b81526004016105979061248a565b60405180910390fd5b506000908152606960205260409020546001600160a01b031690565b60006105c78261088c565b9050806001600160a01b0316836001600160a01b031614156105fb5760405162461bcd60e51b8152600401610597906124d6565b806001600160a01b031661060d610ed9565b6001600160a01b031614806106295750610629816103be610ed9565b6106455760405162461bcd60e51b815260040161059790612317565b61064f8383610f1f565b505050565b600061066781610662610ed9565b610f8d565b81518051839160ce91610681918391602090910190611a87565b50602082810151805161069a9260018501920190611a87565b50604082015180516106b6916002840191602090910190611a87565b5060608201516003820180546001600160a01b0319166001600160a01b039092169190911790556080909101516004909101555050565b60006106fb81610662610ed9565b604080516001808252818301909252600091816020015b61071a611b0b565b815260200190600190039081610712579050509050828160008151811061075157634e487b7160e01b600052603260045260246000fd5b6020026020010151602001906001600160601b031690816001600160601b031681525050838160008151811061079757634e487b7160e01b600052603260045260246000fd5b60209081029190910101516001600160a01b0390911690526104a38582610ff1565b6107ca6107c4610ed9565b826111bf565b6107e65760405162461bcd60e51b815260040161059790612517565b61064f838383611244565b60009081526098602052604090206001015490565b61080f826107f1565b61081b81610662610ed9565b61064f8383611377565b61082d610ed9565b6001600160a01b0316816001600160a01b03161461085d5760405162461bcd60e51b81526004016105979061262f565b61086782826113fe565b5050565b61064f83838360405180602001604052806000815250610a04565b60d35481565b6000818152606760205260408120546001600160a01b0316806104d65760405162461bcd60e51b8152600401610597906123be565b600054610100900460ff166108dc5760005460ff16156108e4565b6108e4611483565b6109005760405162461bcd60e51b815260040161059790612407565b600054610100900460ff1615801561092b576000805460ff1961ff0019909116610100171660011790555b6109358383611494565b61093d6114c5565b61094f600061094a610ed9565b6114ee565b600060cd81905560d355801561064f576000805461ff0019169055505050565b60006001600160a01b0382166109975760405162461bcd60e51b815260040161059790612374565b506001600160a01b031660009081526068602052604090205490565b60009182526098602090815260408084206001600160a01b0393909316845291905290205460ff1690565b6060606680546104ed9061280c565b600081565b6108676109fd610ed9565b83836114f8565b610a15610a0f610ed9565b836111bf565b610a315760405162461bcd60e51b815260040161059790612517565b610a3d8484848461159b565b50505050565b6000610a5181610662610ed9565b60cd8054600081815260cc602090815260408083209390935560ca815282822080546001600160a01b0319166001600160a01b0389161790558354825260cb90522083905554610aa29085906115ce565b60d25415610ac75760cd5460d15460d254610ac792916001600160a01b0316906106ed565b60cd8054906000610ad783612847565b919050555050505050565b600081815260ca602090815260408083205460cb9092529182902054915163c87b56dd60e01b81526060926001600160a01b039092169163c87b56dd91610b2c91906004016120fc565b60006040518083038186803b158015610b4457600080fd5b505afa158015610b58573d6000803e3d6000fd5b505050506040513d6000823e601f3d908101601f191682016040526104d69190810190611d80565b606060976000838152602001908152602001600020805480602002602001604051908101604052809291908181526020016000905b82821015610c0457600084815260209081902060408051808201909152908401546001600160a01b0381168252600160a01b90046001600160601b031681830152825260019092019101610bb5565b505050509050919050565b610c18826107f1565b610c2481610662610ed9565b61064f83836113fe565b606060ce6040518060a0016040529081600082018054610c4d9061280c565b80601f0160208091040260200160405190810160405280929190818152602001828054610c799061280c565b8015610cc65780601f10610c9b57610100808354040283529160200191610cc6565b820191906000526020600020905b815481529060010190602001808311610ca957829003601f168201915b50505050508152602001600182018054610cdf9061280c565b80601f0160208091040260200160405190810160405280929190818152602001828054610d0b9061280c565b8015610d585780601f10610d2d57610100808354040283529160200191610d58565b820191906000526020600020905b815481529060010190602001808311610d3b57829003601f168201915b50505050508152602001600282018054610d719061280c565b80601f0160208091040260200160405190810160405280929190818152602001828054610d9d9061280c565b8015610dea5780601f10610dbf57610100808354040283529160200191610dea565b820191906000526020600020905b815481529060010190602001808311610dcd57829003601f168201915b505050918352505060038201546001600160a01b0316602082015260049091015460409091015273dD4F644d57805c8D610c62f074062d434341F74c906329e72aaa90610e356104de565b6040518363ffffffff1660e01b8152600401610e5292919061267e565b60006040518083038186803b158015610e6a57600080fd5b505af4158015610e7e573d6000803e3d6000fd5b505050506040513d6000823e601f3d908101601f19168201604052610ea69190810190611d80565b905090565b6001600160a01b039182166000908152606a6020908152604080832093909416825291909152205460ff1690565b3390565b60006001600160e01b03198216637965db0b60e01b14806104d657506104d6826116b5565b6000908152606760205260409020546001600160a01b0316151590565b600081815260696020526040902080546001600160a01b0319166001600160a01b0384169081179091558190610f548261088c565b6001600160a01b03167f8c5be1e5ebec7d5bd14f71427d1e84f3dd0314c0f7b2291e5b200ac8c7c3b92560405160405180910390a45050565b610f9782826109b3565b61086757610faf816001600160a01b031660146116f5565b610fba8360206116f5565b604051602001610fcb929190612018565b60408051601f198184030181529082905262461bcd60e51b825261059791600401612105565b6000805b82518110156111935760006001600160a01b031683828151811061102957634e487b7160e01b600052603260045260246000fd5b6020026020010151600001516001600160a01b0316141561105c5760405162461bcd60e51b8152600401610597906125f8565b82818151811061107c57634e487b7160e01b600052603260045260246000fd5b6020026020010151602001516001600160601b0316600014156110b15760405162461bcd60e51b8152600401610597906122e2565b8281815181106110d157634e487b7160e01b600052603260045260246000fd5b6020026020010151602001516001600160601b0316826110f1919061277b565b91506097600085815260200190815260200160002083828151811061112657634e487b7160e01b600052603260045260246000fd5b602090810291909101810151825460018101845560009384529282902081519301805491909201516001600160601b0316600160a01b026001600160a01b039384166001600160a01b0319909216919091179092169190911790558061118b81612847565b915050610ff5565b5061271081106111b55760405162461bcd60e51b815260040161059790612568565b61064f83836118ae565b60006111ca82610f02565b6111e65760405162461bcd60e51b815260040161059790612296565b60006111f18361088c565b9050806001600160a01b0316846001600160a01b0316148061122c5750836001600160a01b031661122184610570565b6001600160a01b0316145b8061123c575061123c8185610eab565b949350505050565b826001600160a01b03166112578261088c565b6001600160a01b03161461127d5760405162461bcd60e51b81526004016105979061219f565b6001600160a01b0382166112a35760405162461bcd60e51b81526004016105979061221b565b6112ae8383836118eb565b6112b9600082610f1f565b6001600160a01b03831660009081526068602052604081208054600192906112e29084906127b2565b90915550506001600160a01b038216600090815260686020526040812080546001929061131090849061277b565b909155505060008181526067602052604080822080546001600160a01b0319166001600160a01b0386811691821790925591518493918716917fddf252ad1be2c89b69c2b068fc378daa952ba7f163c4a11628f55a4df523b3ef91a461064f83838361064f565b61138182826109b3565b6108675760008281526098602090815260408083206001600160a01b03851684529091529020805460ff191660011790556113ba610ed9565b6001600160a01b0316816001600160a01b0316837f2f8788117e7eff1d82e926ec794901d17c78024a50270940304540a733656f0d60405160405180910390a45050565b61140882826109b3565b156108675760008281526098602090815260408083206001600160a01b03851684529091529020805460ff1916905561143f610ed9565b6001600160a01b0316816001600160a01b0316837ff6391f5c32d9c69d2a47ea670b442974b53935d1edc7fd64eb21e047a839171b60405160405180910390a45050565b600061148e306118f6565b15905090565b600054610100900460ff166114bb5760405162461bcd60e51b8152600401610597906125ad565b6108678282611905565b600054610100900460ff166114ec5760405162461bcd60e51b8152600401610597906125ad565b565b6108678282611377565b816001600160a01b0316836001600160a01b0316141561152a5760405162461bcd60e51b81526004016105979061225f565b6001600160a01b038381166000818152606a602090815260408083209487168084529490915290819020805460ff1916851515179055517f17307eab39ab6107e8899845ad3d59bd9653f200f220920489ca2b5937696c319061158e9085906120f1565b60405180910390a3505050565b6115a6848484611244565b6115b284848484611953565b610a3d5760405162461bcd60e51b81526004016105979061214d565b6001600160a01b0382166115f45760405162461bcd60e51b815260040161059790612455565b6115fd81610f02565b1561161a5760405162461bcd60e51b8152600401610597906121e4565b611626600083836118eb565b6001600160a01b038216600090815260686020526040812080546001929061164f90849061277b565b909155505060008181526067602052604080822080546001600160a01b0319166001600160a01b03861690811790915590518392907fddf252ad1be2c89b69c2b068fc378daa952ba7f163c4a11628f55a4df523b3ef908290a46108676000838361064f565b60006001600160e01b031982166380ac58cd60e01b14806116e657506001600160e01b03198216635b5e139f60e01b145b806104d657506104d682611a6e565b60606000611704836002612793565b61170f90600261277b565b67ffffffffffffffff81111561173557634e487b7160e01b600052604160045260246000fd5b6040519080825280601f01601f19166020018201604052801561175f576020820181803683370190505b509050600360fc1b8160008151811061178857634e487b7160e01b600052603260045260246000fd5b60200101906001600160f81b031916908160001a905350600f60fb1b816001815181106117c557634e487b7160e01b600052603260045260246000fd5b60200101906001600160f81b031916908160001a90535060006117e9846002612793565b6117f490600161277b565b90505b6001811115611888576f181899199a1a9b1b9c1cb0b131b232b360811b85600f166010811061183657634e487b7160e01b600052603260045260246000fd5b1a60f81b82828151811061185a57634e487b7160e01b600052603260045260246000fd5b60200101906001600160f81b031916908160001a90535060049490941c93611881816127f5565b90506117f7565b5083156118a75760405162461bcd60e51b815260040161059790612118565b9392505050565b7f3fa96d7b6bcbfe71ef171666d84db3cf52fa2d1c8afdb1cc8e486177f208b7df82826040516118df929190612709565b60405180910390a15050565b61064f83838361064f565b6001600160a01b03163b151590565b600054610100900460ff1661192c5760405162461bcd60e51b8152600401610597906125ad565b815161193f906065906020850190611a87565b50805161064f906066906020840190611a87565b6000611967846001600160a01b03166118f6565b15611a6357836001600160a01b031663150b7a02611983610ed9565b8786866040518563ffffffff1660e01b81526004016119a594939291906120a1565b602060405180830381600087803b1580156119bf57600080fd5b505af19250505080156119ef575060408051601f3d908101601f191682019092526119ec91810190611d64565b60015b611a49573d808015611a1d576040519150601f19603f3d011682016040523d82523d6000602084013e611a22565b606091505b508051611a415760405162461bcd60e51b81526004016105979061214d565b805181602001fd5b6001600160e01b031916630a85bd0160e11b14905061123c565b506001949350505050565b6001600160e01b031981166301ffc9a760e01b14919050565b828054611a939061280c565b90600052602060002090601f016020900481019282611ab55760008555611afb565b82601f10611ace57805160ff1916838001178555611afb565b82800160010185558215611afb579182015b82811115611afb578251825591602001919060010190611ae0565b50611b07929150611b22565b5090565b604080518082019091526000808252602082015290565b5b80821115611b075760008155600101611b23565b6000611b4a611b4584612753565b612722565b9050828152838383011115611b5e57600080fd5b828260208301376000602084830101529392505050565b80356104d98161288e565b600082601f830112611b90578081fd5b6118a783833560208501611b37565b600060208284031215611bb0578081fd5b81356118a78161288e565b60008060408385031215611bcd578081fd5b8235611bd88161288e565b91506020830135611be88161288e565b809150509250929050565b600080600060608486031215611c07578081fd5b8335611c128161288e565b92506020840135611c228161288e565b929592945050506040919091013590565b60008060008060808587031215611c48578081fd5b8435611c538161288e565b93506020850135611c638161288e565b925060408501359150606085013567ffffffffffffffff811115611c85578182fd5b8501601f81018713611c95578182fd5b611ca487823560208401611b37565b91505092959194509250565b60008060408385031215611cc2578182fd5b8235611ccd8161288e565b915060208301358015158114611be8578182fd5b60008060408385031215611cf3578182fd5b8235611cfe8161288e565b946020939093013593505050565b600060208284031215611d1d578081fd5b5035919050565b60008060408385031215611d36578182fd5b823591506020830135611be88161288e565b600060208284031215611d59578081fd5b81356118a7816128a6565b600060208284031215611d75578081fd5b81516118a7816128a6565b600060208284031215611d91578081fd5b815167ffffffffffffffff811115611da7578182fd5b8201601f81018413611db7578182fd5b8051611dc5611b4582612753565b818152856020838501011115611dd9578384fd5b611dea8260208301602086016127c9565b95945050505050565b60008060408385031215611e05578182fd5b823567ffffffffffffffff80821115611e1c578384fd5b611e2886838701611b80565b93506020850135915080821115611e3d578283fd5b50611e4a85828601611b80565b9150509250929050565b600060208284031215611e65578081fd5b813567ffffffffffffffff80821115611e7c578283fd5b9083019060a08286031215611e8f578283fd5b611e9960a0612722565b823582811115611ea7578485fd5b611eb387828601611b80565b825250602083013582811115611ec7578485fd5b611ed387828601611b80565b602083015250604083013582811115611eea578485fd5b611ef687828601611b80565b604083015250611f0860608401611b75565b60608201526080830135608082015280935050505092915050565b600080600060608486031215611f37578081fd5b833592506020840135611f498161288e565b915060408401356001600160601b0381168114611f64578182fd5b809150509250925092565b600080600060608486031215611f83578081fd5b833592506020840135611c228161288e565b6000815180845260208085019450808401835b83811015611fe157815180516001600160a01b031688528301516001600160601b03168388015260409096019590820190600101611fa8565b509495945050505050565b600081518084526120048160208601602086016127c9565b601f01601f19169290920160200192915050565b60007f416363657373436f6e74726f6c3a206163636f756e7420000000000000000000825283516120508160178501602088016127c9565b7001034b99036b4b9b9b4b733903937b6329607d1b60179184019182015283516120818160288401602088016127c9565b01602801949350505050565b6001600160a01b0391909116815260200190565b6001600160a01b03858116825284166020820152604081018390526080606082018190526000906120d490830184611fec565b9695505050505050565b6000602082526118a76020830184611f95565b901515815260200190565b90815260200190565b6000602082526118a76020830184611fec565b6020808252818101527f537472696e67733a20686578206c656e67746820696e73756666696369656e74604082015260600190565b60208082526032908201527f4552433732313a207472616e7366657220746f206e6f6e20455243373231526560408201527131b2b4bb32b91034b6b83632b6b2b73a32b960711b606082015260800190565b60208082526025908201527f4552433732313a207472616e736665722066726f6d20696e636f72726563742060408201526437bbb732b960d91b606082015260800190565b6020808252601c908201527f4552433732313a20746f6b656e20616c7265616479206d696e74656400000000604082015260600190565b60208082526024908201527f4552433732313a207472616e7366657220746f20746865207a65726f206164646040820152637265737360e01b606082015260800190565b60208082526019908201527f4552433732313a20617070726f766520746f2063616c6c657200000000000000604082015260600190565b6020808252602c908201527f4552433732313a206f70657261746f7220717565727920666f72206e6f6e657860408201526b34b9ba32b73a103a37b5b2b760a11b606082015260800190565b6020808252818101527f526f79616c74792076616c75652073686f756c6420626520706f736974697665604082015260600190565b60208082526038908201527f4552433732313a20617070726f76652063616c6c6572206973206e6f74206f7760408201527f6e6572206e6f7220617070726f76656420666f7220616c6c0000000000000000606082015260800190565b6020808252602a908201527f4552433732313a2062616c616e636520717565727920666f7220746865207a65604082015269726f206164647265737360b01b606082015260800190565b60208082526029908201527f4552433732313a206f776e657220717565727920666f72206e6f6e657869737460408201526832b73a103a37b5b2b760b91b606082015260800190565b6020808252602e908201527f496e697469616c697a61626c653a20636f6e747261637420697320616c72656160408201526d191e481a5b9a5d1a585b1a5e995960921b606082015260800190565b6020808252818101527f4552433732313a206d696e7420746f20746865207a65726f2061646472657373604082015260600190565b6020808252602c908201527f4552433732313a20617070726f76656420717565727920666f72206e6f6e657860408201526b34b9ba32b73a103a37b5b2b760a11b606082015260800190565b60208082526021908201527f4552433732313a20617070726f76616c20746f2063757272656e74206f776e656040820152603960f91b606082015260800190565b60208082526031908201527f4552433732313a207472616e736665722063616c6c6572206973206e6f74206f6040820152701ddb995c881b9bdc88185c1c1c9bdd9959607a1b606082015260800190565b60208082526025908201527f526f79616c747920746f74616c2076616c75652073686f756c64206265203c20604082015264031303030360dc1b606082015260800190565b6020808252602b908201527f496e697469616c697a61626c653a20636f6e7472616374206973206e6f74206960408201526a6e697469616c697a696e6760a81b606082015260800190565b6020808252601b908201527f526563697069656e742073686f756c642062652070726573656e740000000000604082015260600190565b6020808252602f908201527f416363657373436f6e74726f6c3a2063616e206f6e6c792072656e6f756e636560408201526e103937b632b9903337b91039b2b63360891b606082015260800190565b600060408252835160a0604084015261269a60e0840182611fec565b90506020850151603f19808584030160608601526126b88383611fec565b92506040870151915080858403016080860152506126d68282611fec565b60608701516001600160a01b031660a0860152608087015160c086015284810360208601529150611dea90508185611fec565b60008382526040602083015261123c6040830184611f95565b604051601f8201601f1916810167ffffffffffffffff8111828210171561274b5761274b612878565b604052919050565b600067ffffffffffffffff82111561276d5761276d612878565b50601f01601f191660200190565b6000821982111561278e5761278e612862565b500190565b60008160001904831182151516156127ad576127ad612862565b500290565b6000828210156127c4576127c4612862565b500390565b60005b838110156127e45781810151838201526020016127cc565b83811115610a3d5750506000910152565b60008161280457612804612862565b506000190190565b60028104600182168061282057607f821691505b6020821081141561284157634e487b7160e01b600052602260045260246000fd5b50919050565b600060001982141561285b5761285b612862565b5060010190565b634e487b7160e01b600052601160045260246000fd5b634e487b7160e01b600052604160045260246000fd5b6001600160a01b03811681146128a357600080fd5b50565b6001600160e01b0319811681146128a357600080fdfea2646970667358221220558fe4a8dc17563e9234155a3cfd0bdaf7e1a31d2902d5f97b70540643058f0c64736f6c63430008010033",
  "deployedBytecode": "0x608060405234801561001057600080fd5b50600436106101a85760003560e01c80636352211e116100f9578063b88d4fde11610097578063cad96cca11610071578063cad96cca14610375578063d547741f14610395578063e8a3d485146103a8578063e985e9c5146103b0576101a8565b8063b88d4fde1461033c578063c6c3bbe61461034f578063c87b56dd14610362576101a8565b806391d14854116100d357806391d148541461030657806395d89b4114610319578063a217fddf14610321578063a22cb46514610329576101a8565b80636352211e146102cd5780637029144c146102e057806370a08231146102f3576101a8565b8063143094db116101665780632f2ff15d116101405780632f2ff15d1461028c57806336568abe1461029f57806342842e0e146102b257806354fd4d50146102c5576101a8565b8063143094db1461024657806323b872dd14610259578063248a9ca31461026c576101a8565b8062817455146101ad57806301ffc9a7146101c257806306fdde03146101eb578063081812fc14610200578063095ea7b3146102205780630f8973dd14610233575b600080fd5b6101c06101bb366004611f6f565b6103c3565b005b6101d56101d0366004611d48565b6104aa565b6040516101e291906120f1565b60405180910390f35b6101f36104de565b6040516101e29190612105565b61021361020e366004611d0c565b610570565b6040516101e2919061208d565b6101c061022e366004611ce1565b6105bc565b6101c0610241366004611e54565b610654565b6101c0610254366004611f23565b6106ed565b6101c0610267366004611bf3565b6107b9565b61027f61027a366004611d0c565b6107f1565b6040516101e291906120fc565b6101c061029a366004611d24565b610806565b6101c06102ad366004611d24565b610825565b6101c06102c0366004611bf3565b61086b565b61027f610886565b6102136102db366004611d0c565b61088c565b6101c06102ee366004611df3565b6108c1565b61027f610301366004611b9f565b61096f565b6101d5610314366004611d24565b6109b3565b6101f36109de565b61027f6109ed565b6101c0610337366004611cb0565b6109f2565b6101c061034a366004611c33565b610a04565b6101c061035d366004611bf3565b610a43565b6101f3610370366004611d0c565b610ae2565b610388610383366004611d0c565b610b80565b6040516101e291906120de565b6101c06103a3366004611d24565b610c0f565b6101f3610c2e565b6101d56103be366004611bbb565b610eab565b6103d06000610314610ed9565b6103d957600080fd5b600083815260ca6020818152604080842080546001600160a01b0319166001600160a01b0388811691909117825560cb8452828620879055939092529054905163c87b56dd60e01b8152859392919091169063c87b56dd9061043f9086906004016120fc565b60006040518083038186803b15801561045757600080fd5b505afa15801561046b573d6000803e3d6000fd5b505050506040513d6000823e601f3d908101601f191682016040526104939190810190611d80565b905060008151116104a357600080fd5b5050505050565b60006001600160e01b0319821663656cb66560e11b14156104cd575060016104d9565b6104d682610edd565b90505b919050565b6060606580546104ed9061280c565b80601f01602080910402602001604051908101604052809291908181526020018280546105199061280c565b80156105665780601f1061053b57610100808354040283529160200191610566565b820191906000526020600020905b81548152906001019060200180831161054957829003601f168201915b5050505050905090565b600061057b82610f02565b6105a05760405162461bcd60e51b81526004016105979061248a565b60405180910390fd5b506000908152606960205260409020546001600160a01b031690565b60006105c78261088c565b9050806001600160a01b0316836001600160a01b031614156105fb5760405162461bcd60e51b8152600401610597906124d6565b806001600160a01b031661060d610ed9565b6001600160a01b031614806106295750610629816103be610ed9565b6106455760405162461bcd60e51b815260040161059790612317565b61064f8383610f1f565b505050565b600061066781610662610ed9565b610f8d565b81518051839160ce91610681918391602090910190611a87565b50602082810151805161069a9260018501920190611a87565b50604082015180516106b6916002840191602090910190611a87565b5060608201516003820180546001600160a01b0319166001600160a01b039092169190911790556080909101516004909101555050565b60006106fb81610662610ed9565b604080516001808252818301909252600091816020015b61071a611b0b565b815260200190600190039081610712579050509050828160008151811061075157634e487b7160e01b600052603260045260246000fd5b6020026020010151602001906001600160601b031690816001600160601b031681525050838160008151811061079757634e487b7160e01b600052603260045260246000fd5b60209081029190910101516001600160a01b0390911690526104a38582610ff1565b6107ca6107c4610ed9565b826111bf565b6107e65760405162461bcd60e51b815260040161059790612517565b61064f838383611244565b60009081526098602052604090206001015490565b61080f826107f1565b61081b81610662610ed9565b61064f8383611377565b61082d610ed9565b6001600160a01b0316816001600160a01b03161461085d5760405162461bcd60e51b81526004016105979061262f565b61086782826113fe565b5050565b61064f83838360405180602001604052806000815250610a04565b60d35481565b6000818152606760205260408120546001600160a01b0316806104d65760405162461bcd60e51b8152600401610597906123be565b600054610100900460ff166108dc5760005460ff16156108e4565b6108e4611483565b6109005760405162461bcd60e51b815260040161059790612407565b600054610100900460ff1615801561092b576000805460ff1961ff0019909116610100171660011790555b6109358383611494565b61093d6114c5565b61094f600061094a610ed9565b6114ee565b600060cd81905560d355801561064f576000805461ff0019169055505050565b60006001600160a01b0382166109975760405162461bcd60e51b815260040161059790612374565b506001600160a01b031660009081526068602052604090205490565b60009182526098602090815260408084206001600160a01b0393909316845291905290205460ff1690565b6060606680546104ed9061280c565b600081565b6108676109fd610ed9565b83836114f8565b610a15610a0f610ed9565b836111bf565b610a315760405162461bcd60e51b815260040161059790612517565b610a3d8484848461159b565b50505050565b6000610a5181610662610ed9565b60cd8054600081815260cc602090815260408083209390935560ca815282822080546001600160a01b0319166001600160a01b0389161790558354825260cb90522083905554610aa29085906115ce565b60d25415610ac75760cd5460d15460d254610ac792916001600160a01b0316906106ed565b60cd8054906000610ad783612847565b919050555050505050565b600081815260ca602090815260408083205460cb9092529182902054915163c87b56dd60e01b81526060926001600160a01b039092169163c87b56dd91610b2c91906004016120fc565b60006040518083038186803b158015610b4457600080fd5b505afa158015610b58573d6000803e3d6000fd5b505050506040513d6000823e601f3d908101601f191682016040526104d69190810190611d80565b606060976000838152602001908152602001600020805480602002602001604051908101604052809291908181526020016000905b82821015610c0457600084815260209081902060408051808201909152908401546001600160a01b0381168252600160a01b90046001600160601b031681830152825260019092019101610bb5565b505050509050919050565b610c18826107f1565b610c2481610662610ed9565b61064f83836113fe565b606060ce6040518060a0016040529081600082018054610c4d9061280c565b80601f0160208091040260200160405190810160405280929190818152602001828054610c799061280c565b8015610cc65780601f10610c9b57610100808354040283529160200191610cc6565b820191906000526020600020905b815481529060010190602001808311610ca957829003601f168201915b50505050508152602001600182018054610cdf9061280c565b80601f0160208091040260200160405190810160405280929190818152602001828054610d0b9061280c565b8015610d585780601f10610d2d57610100808354040283529160200191610d58565b820191906000526020600020905b815481529060010190602001808311610d3b57829003601f168201915b50505050508152602001600282018054610d719061280c565b80601f0160208091040260200160405190810160405280929190818152602001828054610d9d9061280c565b8015610dea5780601f10610dbf57610100808354040283529160200191610dea565b820191906000526020600020905b815481529060010190602001808311610dcd57829003601f168201915b505050918352505060038201546001600160a01b0316602082015260049091015460409091015273__$9185f4f4d5ccf565a43404fb3be44cd50b$__906329e72aaa90610e356104de565b6040518363ffffffff1660e01b8152600401610e5292919061267e565b60006040518083038186803b158015610e6a57600080fd5b505af4158015610e7e573d6000803e3d6000fd5b505050506040513d6000823e601f3d908101601f19168201604052610ea69190810190611d80565b905090565b6001600160a01b039182166000908152606a6020908152604080832093909416825291909152205460ff1690565b3390565b60006001600160e01b03198216637965db0b60e01b14806104d657506104d6826116b5565b6000908152606760205260409020546001600160a01b0316151590565b600081815260696020526040902080546001600160a01b0319166001600160a01b0384169081179091558190610f548261088c565b6001600160a01b03167f8c5be1e5ebec7d5bd14f71427d1e84f3dd0314c0f7b2291e5b200ac8c7c3b92560405160405180910390a45050565b610f9782826109b3565b61086757610faf816001600160a01b031660146116f5565b610fba8360206116f5565b604051602001610fcb929190612018565b60408051601f198184030181529082905262461bcd60e51b825261059791600401612105565b6000805b82518110156111935760006001600160a01b031683828151811061102957634e487b7160e01b600052603260045260246000fd5b6020026020010151600001516001600160a01b0316141561105c5760405162461bcd60e51b8152600401610597906125f8565b82818151811061107c57634e487b7160e01b600052603260045260246000fd5b6020026020010151602001516001600160601b0316600014156110b15760405162461bcd60e51b8152600401610597906122e2565b8281815181106110d157634e487b7160e01b600052603260045260246000fd5b6020026020010151602001516001600160601b0316826110f1919061277b565b91506097600085815260200190815260200160002083828151811061112657634e487b7160e01b600052603260045260246000fd5b602090810291909101810151825460018101845560009384529282902081519301805491909201516001600160601b0316600160a01b026001600160a01b039384166001600160a01b0319909216919091179092169190911790558061118b81612847565b915050610ff5565b5061271081106111b55760405162461bcd60e51b815260040161059790612568565b61064f83836118ae565b60006111ca82610f02565b6111e65760405162461bcd60e51b815260040161059790612296565b60006111f18361088c565b9050806001600160a01b0316846001600160a01b0316148061122c5750836001600160a01b031661122184610570565b6001600160a01b0316145b8061123c575061123c8185610eab565b949350505050565b826001600160a01b03166112578261088c565b6001600160a01b03161461127d5760405162461bcd60e51b81526004016105979061219f565b6001600160a01b0382166112a35760405162461bcd60e51b81526004016105979061221b565b6112ae8383836118eb565b6112b9600082610f1f565b6001600160a01b03831660009081526068602052604081208054600192906112e29084906127b2565b90915550506001600160a01b038216600090815260686020526040812080546001929061131090849061277b565b909155505060008181526067602052604080822080546001600160a01b0319166001600160a01b0386811691821790925591518493918716917fddf252ad1be2c89b69c2b068fc378daa952ba7f163c4a11628f55a4df523b3ef91a461064f83838361064f565b61138182826109b3565b6108675760008281526098602090815260408083206001600160a01b03851684529091529020805460ff191660011790556113ba610ed9565b6001600160a01b0316816001600160a01b0316837f2f8788117e7eff1d82e926ec794901d17c78024a50270940304540a733656f0d60405160405180910390a45050565b61140882826109b3565b156108675760008281526098602090815260408083206001600160a01b03851684529091529020805460ff1916905561143f610ed9565b6001600160a01b0316816001600160a01b0316837ff6391f5c32d9c69d2a47ea670b442974b53935d1edc7fd64eb21e047a839171b60405160405180910390a45050565b600061148e306118f6565b15905090565b600054610100900460ff166114bb5760405162461bcd60e51b8152600401610597906125ad565b6108678282611905565b600054610100900460ff166114ec5760405162461bcd60e51b8152600401610597906125ad565b565b6108678282611377565b816001600160a01b0316836001600160a01b0316141561152a5760405162461bcd60e51b81526004016105979061225f565b6001600160a01b038381166000818152606a602090815260408083209487168084529490915290819020805460ff1916851515179055517f17307eab39ab6107e8899845ad3d59bd9653f200f220920489ca2b5937696c319061158e9085906120f1565b60405180910390a3505050565b6115a6848484611244565b6115b284848484611953565b610a3d5760405162461bcd60e51b81526004016105979061214d565b6001600160a01b0382166115f45760405162461bcd60e51b815260040161059790612455565b6115fd81610f02565b1561161a5760405162461bcd60e51b8152600401610597906121e4565b611626600083836118eb565b6001600160a01b038216600090815260686020526040812080546001929061164f90849061277b565b909155505060008181526067602052604080822080546001600160a01b0319166001600160a01b03861690811790915590518392907fddf252ad1be2c89b69c2b068fc378daa952ba7f163c4a11628f55a4df523b3ef908290a46108676000838361064f565b60006001600160e01b031982166380ac58cd60e01b14806116e657506001600160e01b03198216635b5e139f60e01b145b806104d657506104d682611a6e565b60606000611704836002612793565b61170f90600261277b565b67ffffffffffffffff81111561173557634e487b7160e01b600052604160045260246000fd5b6040519080825280601f01601f19166020018201604052801561175f576020820181803683370190505b509050600360fc1b8160008151811061178857634e487b7160e01b600052603260045260246000fd5b60200101906001600160f81b031916908160001a905350600f60fb1b816001815181106117c557634e487b7160e01b600052603260045260246000fd5b60200101906001600160f81b031916908160001a90535060006117e9846002612793565b6117f490600161277b565b90505b6001811115611888576f181899199a1a9b1b9c1cb0b131b232b360811b85600f166010811061183657634e487b7160e01b600052603260045260246000fd5b1a60f81b82828151811061185a57634e487b7160e01b600052603260045260246000fd5b60200101906001600160f81b031916908160001a90535060049490941c93611881816127f5565b90506117f7565b5083156118a75760405162461bcd60e51b815260040161059790612118565b9392505050565b7f3fa96d7b6bcbfe71ef171666d84db3cf52fa2d1c8afdb1cc8e486177f208b7df82826040516118df929190612709565b60405180910390a15050565b61064f83838361064f565b6001600160a01b03163b151590565b600054610100900460ff1661192c5760405162461bcd60e51b8152600401610597906125ad565b815161193f906065906020850190611a87565b50805161064f906066906020840190611a87565b6000611967846001600160a01b03166118f6565b15611a6357836001600160a01b031663150b7a02611983610ed9565b8786866040518563ffffffff1660e01b81526004016119a594939291906120a1565b602060405180830381600087803b1580156119bf57600080fd5b505af19250505080156119ef575060408051601f3d908101601f191682019092526119ec91810190611d64565b60015b611a49573d808015611a1d576040519150601f19603f3d011682016040523d82523d6000602084013e611a22565b606091505b508051611a415760405162461bcd60e51b81526004016105979061214d565b805181602001fd5b6001600160e01b031916630a85bd0160e11b14905061123c565b506001949350505050565b6001600160e01b031981166301ffc9a760e01b14919050565b828054611a939061280c565b90600052602060002090601f016020900481019282611ab55760008555611afb565b82601f10611ace57805160ff1916838001178555611afb565b82800160010185558215611afb579182015b82811115611afb578251825591602001919060010190611ae0565b50611b07929150611b22565b5090565b604080518082019091526000808252602082015290565b5b80821115611b075760008155600101611b23565b6000611b4a611b4584612753565b612722565b9050828152838383011115611b5e57600080fd5b828260208301376000602084830101529392505050565b80356104d98161288e565b600082601f830112611b90578081fd5b6118a783833560208501611b37565b600060208284031215611bb0578081fd5b81356118a78161288e565b60008060408385031215611bcd578081fd5b8235611bd88161288e565b91506020830135611be88161288e565b809150509250929050565b600080600060608486031215611c07578081fd5b8335611c128161288e565b92506020840135611c228161288e565b929592945050506040919091013590565b60008060008060808587031215611c48578081fd5b8435611c538161288e565b93506020850135611c638161288e565b925060408501359150606085013567ffffffffffffffff811115611c85578182fd5b8501601f81018713611c95578182fd5b611ca487823560208401611b37565b91505092959194509250565b60008060408385031215611cc2578182fd5b8235611ccd8161288e565b915060208301358015158114611be8578182fd5b60008060408385031215611cf3578182fd5b8235611cfe8161288e565b946020939093013593505050565b600060208284031215611d1d578081fd5b5035919050565b60008060408385031215611d36578182fd5b823591506020830135611be88161288e565b600060208284031215611d59578081fd5b81356118a7816128a6565b600060208284031215611d75578081fd5b81516118a7816128a6565b600060208284031215611d91578081fd5b815167ffffffffffffffff811115611da7578182fd5b8201601f81018413611db7578182fd5b8051611dc5611b4582612753565b818152856020838501011115611dd9578384fd5b611dea8260208301602086016127c9565b95945050505050565b60008060408385031215611e05578182fd5b823567ffffffffffffffff80821115611e1c578384fd5b611e2886838701611b80565b93506020850135915080821115611e3d578283fd5b50611e4a85828601611b80565b9150509250929050565b600060208284031215611e65578081fd5b813567ffffffffffffffff80821115611e7c578283fd5b9083019060a08286031215611e8f578283fd5b611e9960a0612722565b823582811115611ea7578485fd5b611eb387828601611b80565b825250602083013582811115611ec7578485fd5b611ed387828601611b80565b602083015250604083013582811115611eea578485fd5b611ef687828601611b80565b604083015250611f0860608401611b75565b60608201526080830135608082015280935050505092915050565b600080600060608486031215611f37578081fd5b833592506020840135611f498161288e565b915060408401356001600160601b0381168114611f64578182fd5b809150509250925092565b600080600060608486031215611f83578081fd5b833592506020840135611c228161288e565b6000815180845260208085019450808401835b83811015611fe157815180516001600160a01b031688528301516001600160601b03168388015260409096019590820190600101611fa8565b509495945050505050565b600081518084526120048160208601602086016127c9565b601f01601f19169290920160200192915050565b60007f416363657373436f6e74726f6c3a206163636f756e7420000000000000000000825283516120508160178501602088016127c9565b7001034b99036b4b9b9b4b733903937b6329607d1b60179184019182015283516120818160288401602088016127c9565b01602801949350505050565b6001600160a01b0391909116815260200190565b6001600160a01b03858116825284166020820152604081018390526080606082018190526000906120d490830184611fec565b9695505050505050565b6000602082526118a76020830184611f95565b901515815260200190565b90815260200190565b6000602082526118a76020830184611fec565b6020808252818101527f537472696e67733a20686578206c656e67746820696e73756666696369656e74604082015260600190565b60208082526032908201527f4552433732313a207472616e7366657220746f206e6f6e20455243373231526560408201527131b2b4bb32b91034b6b83632b6b2b73a32b960711b606082015260800190565b60208082526025908201527f4552433732313a207472616e736665722066726f6d20696e636f72726563742060408201526437bbb732b960d91b606082015260800190565b6020808252601c908201527f4552433732313a20746f6b656e20616c7265616479206d696e74656400000000604082015260600190565b60208082526024908201527f4552433732313a207472616e7366657220746f20746865207a65726f206164646040820152637265737360e01b606082015260800190565b60208082526019908201527f4552433732313a20617070726f766520746f2063616c6c657200000000000000604082015260600190565b6020808252602c908201527f4552433732313a206f70657261746f7220717565727920666f72206e6f6e657860408201526b34b9ba32b73a103a37b5b2b760a11b606082015260800190565b6020808252818101527f526f79616c74792076616c75652073686f756c6420626520706f736974697665604082015260600190565b60208082526038908201527f4552433732313a20617070726f76652063616c6c6572206973206e6f74206f7760408201527f6e6572206e6f7220617070726f76656420666f7220616c6c0000000000000000606082015260800190565b6020808252602a908201527f4552433732313a2062616c616e636520717565727920666f7220746865207a65604082015269726f206164647265737360b01b606082015260800190565b60208082526029908201527f4552433732313a206f776e657220717565727920666f72206e6f6e657869737460408201526832b73a103a37b5b2b760b91b606082015260800190565b6020808252602e908201527f496e697469616c697a61626c653a20636f6e747261637420697320616c72656160408201526d191e481a5b9a5d1a585b1a5e995960921b606082015260800190565b6020808252818101527f4552433732313a206d696e7420746f20746865207a65726f2061646472657373604082015260600190565b6020808252602c908201527f4552433732313a20617070726f76656420717565727920666f72206e6f6e657860408201526b34b9ba32b73a103a37b5b2b760a11b606082015260800190565b60208082526021908201527f4552433732313a20617070726f76616c20746f2063757272656e74206f776e656040820152603960f91b606082015260800190565b60208082526031908201527f4552433732313a207472616e736665722063616c6c6572206973206e6f74206f6040820152701ddb995c881b9bdc88185c1c1c9bdd9959607a1b606082015260800190565b60208082526025908201527f526f79616c747920746f74616c2076616c75652073686f756c64206265203c20604082015264031303030360dc1b606082015260800190565b6020808252602b908201527f496e697469616c697a61626c653a20636f6e7472616374206973206e6f74206960408201526a6e697469616c697a696e6760a81b606082015260800190565b6020808252601b908201527f526563697069656e742073686f756c642062652070726573656e740000000000604082015260600190565b6020808252602f908201527f416363657373436f6e74726f6c3a2063616e206f6e6c792072656e6f756e636560408201526e103937b632b9903337b91039b2b63360891b606082015260800190565b600060408252835160a0604084015261269a60e0840182611fec565b90506020850151603f19808584030160608601526126b88383611fec565b92506040870151915080858403016080860152506126d68282611fec565b60608701516001600160a01b031660a0860152608087015160c086015284810360208601529150611dea90508185611fec565b60008382526040602083015261123c6040830184611f95565b604051601f8201601f1916810167ffffffffffffffff8111828210171561274b5761274b612878565b604052919050565b600067ffffffffffffffff82111561276d5761276d612878565b50601f01601f191660200190565b6000821982111561278e5761278e612862565b500190565b60008160001904831182151516156127ad576127ad612862565b500290565b6000828210156127c4576127c4612862565b500390565b60005b838110156127e45781810151838201526020016127cc565b83811115610a3d5750506000910152565b60008161280457612804612862565b506000190190565b60028104600182168061282057607f821691505b6020821081141561284157634e487b7160e01b600052602260045260246000fd5b50919050565b600060001982141561285b5761285b612862565b5060010190565b634e487b7160e01b600052601160045260246000fd5b634e487b7160e01b600052604160045260246000fd5b6001600160a01b03811681146128a357600080fd5b50565b6001600160e01b0319811681146128a357600080fdfea2646970667358221220558fe4a8dc17563e9234155a3cfd0bdaf7e1a31d2902d5f97b70540643058f0c64736f6c63430008010033",
  "libraries": {
    "NFTDescriptor": "0xdD4F644d57805c8D610c62f074062d434341F74c"
  },
  "devdoc": {
    "kind": "dev",
    "methods": {
      "approve(address,uint256)": {
        "details": "See {IERC721-approve}."
      },
      "balanceOf(address)": {
        "details": "See {IERC721-balanceOf}."
      },
      "getApproved(uint256)": {
        "details": "See {IERC721-getApproved}."
      },
      "getRoleAdmin(bytes32)": {
        "details": "Returns the admin role that controls `role`. See {grantRole} and {revokeRole}. To change a role's admin, use {_setRoleAdmin}."
      },
      "grantRole(bytes32,address)": {
        "details": "Grants `role` to `account`. If `account` had not been already granted `role`, emits a {RoleGranted} event. Requirements: - the caller must have ``role``'s admin role."
      },
      "hasRole(bytes32,address)": {
        "details": "Returns `true` if `account` has been granted `role`."
      },
      "isApprovedForAll(address,address)": {
        "details": "See {IERC721-isApprovedForAll}."
      },
      "name()": {
        "details": "See {IERC721Metadata-name}."
      },
      "ownerOf(uint256)": {
        "details": "See {IERC721-ownerOf}."
      },
      "renounceRole(bytes32,address)": {
        "details": "Revokes `role` from the calling account. Roles are often managed via {grantRole} and {revokeRole}: this function's purpose is to provide a mechanism for accounts to lose their privileges if they are compromised (such as when a trusted device is misplaced). If the calling account had been revoked `role`, emits a {RoleRevoked} event. Requirements: - the caller must be `account`."
      },
      "revokeRole(bytes32,address)": {
        "details": "Revokes `role` from `account`. If `account` had been granted `role`, emits a {RoleRevoked} event. Requirements: - the caller must have ``role``'s admin role."
      },
      "safeTransferFrom(address,address,uint256)": {
        "details": "See {IERC721-safeTransferFrom}."
      },
      "safeTransferFrom(address,address,uint256,bytes)": {
        "details": "See {IERC721-safeTransferFrom}."
      },
      "setApprovalForAll(address,bool)": {
        "details": "See {IERC721-setApprovalForAll}."
      },
      "symbol()": {
        "details": "See {IERC721Metadata-symbol}."
      },
      "tokenURI(uint256)": {
        "details": "See {IERC721Metadata-tokenURI}."
      },
      "transferFrom(address,address,uint256)": {
        "details": "See {IERC721-transferFrom}."
      }
    },
    "version": 1
  },
  "userdoc": {
    "kind": "user",
    "methods": {},
    "version": 1
  },
  "storageLayout": {
    "storage": [
      {
        "astId": 408,
        "contract": "src/sl.sol:MIRE",
        "label": "_initialized",
        "offset": 0,
        "slot": "0",
        "type": "t_bool"
      },
      {
        "astId": 411,
        "contract": "src/sl.sol:MIRE",
        "label": "_initializing",
        "offset": 1,
        "slot": "0",
        "type": "t_bool"
      },
      {
        "astId": 1811,
        "contract": "src/sl.sol:MIRE",
        "label": "__gap",
        "offset": 0,
        "slot": "1",
        "type": "t_array(t_uint256)50_storage"
      },
      {
        "astId": 2058,
        "contract": "src/sl.sol:MIRE",
        "label": "__gap",
        "offset": 0,
        "slot": "51",
        "type": "t_array(t_uint256)50_storage"
      },
      {
        "astId": 504,
        "contract": "src/sl.sol:MIRE",
        "label": "_name",
        "offset": 0,
        "slot": "101",
        "type": "t_string_storage"
      },
      {
        "astId": 506,
        "contract": "src/sl.sol:MIRE",
        "label": "_symbol",
        "offset": 0,
        "slot": "102",
        "type": "t_string_storage"
      },
      {
        "astId": 510,
        "contract": "src/sl.sol:MIRE",
        "label": "_owners",
        "offset": 0,
        "slot": "103",
        "type": "t_mapping(t_uint256,t_address)"
      },
      {
        "astId": 514,
        "contract": "src/sl.sol:MIRE",
        "label": "_balances",
        "offset": 0,
        "slot": "104",
        "type": "t_mapping(t_address,t_uint256)"
      },
      {
        "astId": 518,
        "contract": "src/sl.sol:MIRE",
        "label": "_tokenApprovals",
        "offset": 0,
        "slot": "105",
        "type": "t_mapping(t_uint256,t_address)"
      },
      {
        "astId": 524,
        "contract": "src/sl.sol:MIRE",
        "label": "_operatorApprovals",
        "offset": 0,
        "slot": "106",
        "type": "t_mapping(t_address,t_mapping(t_address,t_bool))"
      },
      {
        "astId": 1365,
        "contract": "src/sl.sol:MIRE",
        "label": "__gap",
        "offset": 0,
        "slot": "107",
        "type": "t_array(t_uint256)44_storage"
      },
      {
        "astId": 2459,
        "contract": "src/sl.sol:MIRE",
        "label": "royalties",
        "offset": 0,
        "slot": "151",
        "type": "t_mapping(t_uint256,t_array(t_struct(Part)2401_storage)dyn_storage)"
      },
      {
        "astId": 39,
        "contract": "src/sl.sol:MIRE",
        "label": "_roles",
        "offset": 0,
        "slot": "152",
        "type": "t_mapping(t_bytes32,t_struct(RoleData)34_storage)"
      },
      {
        "astId": 327,
        "contract": "src/sl.sol:MIRE",
        "label": "__gap",
        "offset": 0,
        "slot": "153",
        "type": "t_array(t_uint256)49_storage"
      },
      {
        "astId": 3140,
        "contract": "src/sl.sol:MIRE",
        "label": "cloneMappingAddress",
        "offset": 0,
        "slot": "202",
        "type": "t_mapping(t_uint256,t_contract(IERC721MetadataTokenURI)3121)"
      },
      {
        "astId": 3144,
        "contract": "src/sl.sol:MIRE",
        "label": "cloneMappingId",
        "offset": 0,
        "slot": "203",
        "type": "t_mapping(t_uint256,t_uint256)"
      },
      {
        "astId": 3148,
        "contract": "src/sl.sol:MIRE",
        "label": "cloneMappingValue",
        "offset": 0,
        "slot": "204",
        "type": "t_mapping(t_uint256,t_uint256)"
      },
      {
        "astId": 3150,
        "contract": "src/sl.sol:MIRE",
        "label": "mTokenId",
        "offset": 0,
        "slot": "205",
        "type": "t_uint256"
      },
      {
        "astId": 3153,
        "contract": "src/sl.sol:MIRE",
        "label": "contractMetadata",
        "offset": 0,
        "slot": "206",
        "type": "t_struct(ConstructContractURIParams)2671_storage"
      },
      {
        "astId": 3155,
        "contract": "src/sl.sol:MIRE",
        "label": "version",
        "offset": 0,
        "slot": "211",
        "type": "t_uint256"
      }
    ],
    "types": {
      "t_address": {
        "encoding": "inplace",
        "label": "address",
        "numberOfBytes": "20"
      },
      "t_address_payable": {
        "encoding": "inplace",
        "label": "address payable",
        "numberOfBytes": "20"
      },
      "t_array(t_struct(Part)2401_storage)dyn_storage": {
        "base": "t_struct(Part)2401_storage",
        "encoding": "dynamic_array",
        "label": "struct LibPart.Part[]",
        "numberOfBytes": "32"
      },
      "t_array(t_uint256)44_storage": {
        "base": "t_uint256",
        "encoding": "inplace",
        "label": "uint256[44]",
        "numberOfBytes": "1408"
      },
      "t_array(t_uint256)49_storage": {
        "base": "t_uint256",
        "encoding": "inplace",
        "label": "uint256[49]",
        "numberOfBytes": "1568"
      },
      "t_array(t_uint256)50_storage": {
        "base": "t_uint256",
        "encoding": "inplace",
        "label": "uint256[50]",
        "numberOfBytes": "1600"
      },
      "t_bool": {
        "encoding": "inplace",
        "label": "bool",
        "numberOfBytes": "1"
      },
      "t_bytes32": {
        "encoding": "inplace",
        "label": "bytes32",
        "numberOfBytes": "32"
      },
      "t_contract(IERC721MetadataTokenURI)3121": {
        "encoding": "inplace",
        "label": "contract IERC721MetadataTokenURI",
        "numberOfBytes": "20"
      },
      "t_mapping(t_address,t_bool)": {
        "encoding": "mapping",
        "key": "t_address",
        "label": "mapping(address => bool)",
        "numberOfBytes": "32",
        "value": "t_bool"
      },
      "t_mapping(t_address,t_mapping(t_address,t_bool))": {
        "encoding": "mapping",
        "key": "t_address",
        "label": "mapping(address => mapping(address => bool))",
        "numberOfBytes": "32",
        "value": "t_mapping(t_address,t_bool)"
      },
      "t_mapping(t_address,t_uint256)": {
        "encoding": "mapping",
        "key": "t_address",
        "label": "mapping(address => uint256)",
        "numberOfBytes": "32",
        "value": "t_uint256"
      },
      "t_mapping(t_bytes32,t_struct(RoleData)34_storage)": {
        "encoding": "mapping",
        "key": "t_bytes32",
        "label": "mapping(bytes32 => struct AccessControlUpgradeable.RoleData)",
        "numberOfBytes": "32",
        "value": "t_struct(RoleData)34_storage"
      },
      "t_mapping(t_uint256,t_address)": {
        "encoding": "mapping",
        "key": "t_uint256",
        "label": "mapping(uint256 => address)",
        "numberOfBytes": "32",
        "value": "t_address"
      },
      "t_mapping(t_uint256,t_array(t_struct(Part)2401_storage)dyn_storage)": {
        "encoding": "mapping",
        "key": "t_uint256",
        "label": "mapping(uint256 => struct LibPart.Part[])",
        "numberOfBytes": "32",
        "value": "t_array(t_struct(Part)2401_storage)dyn_storage"
      },
      "t_mapping(t_uint256,t_contract(IERC721MetadataTokenURI)3121)": {
        "encoding": "mapping",
        "key": "t_uint256",
        "label": "mapping(uint256 => contract IERC721MetadataTokenURI)",
        "numberOfBytes": "32",
        "value": "t_contract(IERC721MetadataTokenURI)3121"
      },
      "t_mapping(t_uint256,t_uint256)": {
        "encoding": "mapping",
        "key": "t_uint256",
        "label": "mapping(uint256 => uint256)",
        "numberOfBytes": "32",
        "value": "t_uint256"
      },
      "t_string_storage": {
        "encoding": "bytes",
        "label": "string",
        "numberOfBytes": "32"
      },
      "t_struct(ConstructContractURIParams)2671_storage": {
        "encoding": "inplace",
        "label": "struct NFTDescriptor.ConstructContractURIParams",
        "members": [
          {
            "astId": 2662,
            "contract": "src/sl.sol:MIRE",
            "label": "imageURL",
            "offset": 0,
            "slot": "0",
            "type": "t_string_storage"
          },
          {
            "astId": 2664,
            "contract": "src/sl.sol:MIRE",
            "label": "description",
            "offset": 0,
            "slot": "1",
            "type": "t_string_storage"
          },
          {
            "astId": 2666,
            "contract": "src/sl.sol:MIRE",
            "label": "externalURL",
            "offset": 0,
            "slot": "2",
            "type": "t_string_storage"
          },
          {
            "astId": 2668,
            "contract": "src/sl.sol:MIRE",
            "label": "royaltiesRecipient",
            "offset": 0,
            "slot": "3",
            "type": "t_address_payable"
          },
          {
            "astId": 2670,
            "contract": "src/sl.sol:MIRE",
            "label": "royaltiesFeeBasisPoints",
            "offset": 0,
            "slot": "4",
            "type": "t_uint256"
          }
        ],
        "numberOfBytes": "160"
      },
      "t_struct(Part)2401_storage": {
        "encoding": "inplace",
        "label": "struct LibPart.Part",
        "members": [
          {
            "astId": 2398,
            "contract": "src/sl.sol:MIRE",
            "label": "account",
            "offset": 0,
            "slot": "0",
            "type": "t_address_payable"
          },
          {
            "astId": 2400,
            "contract": "src/sl.sol:MIRE",
            "label": "value",
            "offset": 20,
            "slot": "0",
            "type": "t_uint96"
          }
        ],
        "numberOfBytes": "32"
      },
      "t_struct(RoleData)34_storage": {
        "encoding": "inplace",
        "label": "struct AccessControlUpgradeable.RoleData",
        "members": [
          {
            "astId": 31,
            "contract": "src/sl.sol:MIRE",
            "label": "members",
            "offset": 0,
            "slot": "0",
            "type": "t_mapping(t_address,t_bool)"
          },
          {
            "astId": 33,
            "contract": "src/sl.sol:MIRE",
            "label": "adminRole",
            "offset": 0,
            "slot": "1",
            "type": "t_bytes32"
          }
        ],
        "numberOfBytes": "64"
      },
      "t_uint256": {
        "encoding": "inplace",
        "label": "uint256",
        "numberOfBytes": "32"
      },
      "t_uint96": {
        "encoding": "inplace",
        "label": "uint96",
        "numberOfBytes": "12"
      }
    }
  }
}