{
  "address": "0x83d714520F291378AD25E54B8CDD79384405264a",
  "abi": [
    {
      "inputs": [],
      "stateMutability": "nonpayable",
      "type": "constructor"
    },
    {
      "anonymous": false,
      "inputs": [
        {
          "indexed": true,
          "internalType": "address",
          "name": "owner",
          "type": "address"
        },
        {
          "indexed": true,
          "internalType": "address",
          "name": "approved",
          "type": "address"
        },
        {
          "indexed": true,
          "internalType": "uint256",
          "name": "tokenId",
          "type": "uint256"
        }
      ],
      "name": "Approval",
      "type": "event"
    },
    {
      "anonymous": false,
      "inputs": [
        {
          "indexed": true,
          "internalType": "address",
          "name": "owner",
          "type": "address"
        },
        {
          "indexed": true,
          "internalType": "address",
          "name": "operator",
          "type": "address"
        },
        {
          "indexed": false,
          "internalType": "bool",
          "name": "approved",
          "type": "bool"
        }
      ],
      "name": "ApprovalForAll",
      "type": "event"
    },
    {
      "anonymous": false,
      "inputs": [
        {
          "indexed": true,
          "internalType": "address",
          "name": "previousOwner",
          "type": "address"
        },
        {
          "indexed": true,
          "internalType": "address",
          "name": "newOwner",
          "type": "address"
        }
      ],
      "name": "OwnershipTransferred",
      "type": "event"
    },
    {
      "anonymous": false,
      "inputs": [
        {
          "indexed": true,
          "internalType": "bytes32",
          "name": "role",
          "type": "bytes32"
        },
        {
          "indexed": true,
          "internalType": "bytes32",
          "name": "previousAdminRole",
          "type": "bytes32"
        },
        {
          "indexed": true,
          "internalType": "bytes32",
          "name": "newAdminRole",
          "type": "bytes32"
        }
      ],
      "name": "RoleAdminChanged",
      "type": "event"
    },
    {
      "anonymous": false,
      "inputs": [
        {
          "indexed": true,
          "internalType": "bytes32",
          "name": "role",
          "type": "bytes32"
        },
        {
          "indexed": true,
          "internalType": "address",
          "name": "account",
          "type": "address"
        },
        {
          "indexed": true,
          "internalType": "address",
          "name": "sender",
          "type": "address"
        }
      ],
      "name": "RoleGranted",
      "type": "event"
    },
    {
      "anonymous": false,
      "inputs": [
        {
          "indexed": true,
          "internalType": "bytes32",
          "name": "role",
          "type": "bytes32"
        },
        {
          "indexed": true,
          "internalType": "address",
          "name": "account",
          "type": "address"
        },
        {
          "indexed": true,
          "internalType": "address",
          "name": "sender",
          "type": "address"
        }
      ],
      "name": "RoleRevoked",
      "type": "event"
    },
    {
      "anonymous": false,
      "inputs": [
        {
          "indexed": false,
          "internalType": "uint256",
          "name": "tokenId",
          "type": "uint256"
        },
        {
          "components": [
            {
              "internalType": "address payable",
              "name": "account",
              "type": "address"
            },
            {
              "internalType": "uint96",
              "name": "value",
              "type": "uint96"
            }
          ],
          "indexed": false,
          "internalType": "struct LibPart.Part[]",
          "name": "royalties",
          "type": "tuple[]"
        }
      ],
      "name": "RoyaltiesSet",
      "type": "event"
    },
    {
      "anonymous": false,
      "inputs": [
        {
          "indexed": true,
          "internalType": "address",
          "name": "from",
          "type": "address"
        },
        {
          "indexed": true,
          "internalType": "address",
          "name": "to",
          "type": "address"
        },
        {
          "indexed": true,
          "internalType": "uint256",
          "name": "tokenId",
          "type": "uint256"
        }
      ],
      "name": "Transfer",
      "type": "event"
    },
    {
      "inputs": [],
      "name": "DEFAULT_ADMIN_ROLE",
      "outputs": [
        {
          "internalType": "bytes32",
          "name": "",
          "type": "bytes32"
        }
      ],
      "stateMutability": "view",
      "type": "function"
    },
    {
      "inputs": [
        {
          "internalType": "address",
          "name": "to",
          "type": "address"
        },
        {
          "internalType": "uint256",
          "name": "tokenId",
          "type": "uint256"
        }
      ],
      "name": "approve",
      "outputs": [],
      "stateMutability": "nonpayable",
      "type": "function"
    },
    {
      "inputs": [
        {
          "internalType": "address",
          "name": "owner",
          "type": "address"
        }
      ],
      "name": "balanceOf",
      "outputs": [
        {
          "internalType": "uint256",
          "name": "",
          "type": "uint256"
        }
      ],
      "stateMutability": "view",
      "type": "function"
    },
    {
      "inputs": [
        {
          "internalType": "uint256",
          "name": "tokenId",
          "type": "uint256"
        }
      ],
      "name": "getApproved",
      "outputs": [
        {
          "internalType": "address",
          "name": "",
          "type": "address"
        }
      ],
      "stateMutability": "view",
      "type": "function"
    },
    {
      "inputs": [
        {
          "internalType": "uint256",
          "name": "id",
          "type": "uint256"
        }
      ],
      "name": "getRaribleV2Royalties",
      "outputs": [
        {
          "components": [
            {
              "internalType": "address payable",
              "name": "account",
              "type": "address"
            },
            {
              "internalType": "uint96",
              "name": "value",
              "type": "uint96"
            }
          ],
          "internalType": "struct LibPart.Part[]",
          "name": "",
          "type": "tuple[]"
        }
      ],
      "stateMutability": "view",
      "type": "function"
    },
    {
      "inputs": [
        {
          "internalType": "bytes32",
          "name": "role",
          "type": "bytes32"
        }
      ],
      "name": "getRoleAdmin",
      "outputs": [
        {
          "internalType": "bytes32",
          "name": "",
          "type": "bytes32"
        }
      ],
      "stateMutability": "view",
      "type": "function"
    },
    {
      "inputs": [
        {
          "internalType": "bytes32",
          "name": "role",
          "type": "bytes32"
        },
        {
          "internalType": "uint256",
          "name": "index",
          "type": "uint256"
        }
      ],
      "name": "getRoleMember",
      "outputs": [
        {
          "internalType": "address",
          "name": "",
          "type": "address"
        }
      ],
      "stateMutability": "view",
      "type": "function"
    },
    {
      "inputs": [
        {
          "internalType": "bytes32",
          "name": "role",
          "type": "bytes32"
        }
      ],
      "name": "getRoleMemberCount",
      "outputs": [
        {
          "internalType": "uint256",
          "name": "",
          "type": "uint256"
        }
      ],
      "stateMutability": "view",
      "type": "function"
    },
    {
      "inputs": [
        {
          "internalType": "bytes32",
          "name": "role",
          "type": "bytes32"
        },
        {
          "internalType": "address",
          "name": "account",
          "type": "address"
        }
      ],
      "name": "grantRole",
      "outputs": [],
      "stateMutability": "nonpayable",
      "type": "function"
    },
    {
      "inputs": [
        {
          "internalType": "bytes32",
          "name": "role",
          "type": "bytes32"
        },
        {
          "internalType": "address",
          "name": "account",
          "type": "address"
        }
      ],
      "name": "hasRole",
      "outputs": [
        {
          "internalType": "bool",
          "name": "",
          "type": "bool"
        }
      ],
      "stateMutability": "view",
      "type": "function"
    },
    {
      "inputs": [
        {
          "internalType": "address",
          "name": "owner",
          "type": "address"
        },
        {
          "internalType": "address",
          "name": "operator",
          "type": "address"
        }
      ],
      "name": "isApprovedForAll",
      "outputs": [
        {
          "internalType": "bool",
          "name": "",
          "type": "bool"
        }
      ],
      "stateMutability": "view",
      "type": "function"
    },
    {
      "inputs": [
        {
          "internalType": "address",
          "name": "to",
          "type": "address"
        },
        {
          "components": [
            {
              "internalType": "uint256",
              "name": "tokenId",
              "type": "uint256"
            },
            {
              "internalType": "string",
              "name": "imageURL",
              "type": "string"
            },
            {
              "internalType": "string",
              "name": "animationURL",
              "type": "string"
            },
            {
              "internalType": "string",
              "name": "externalURL",
              "type": "string"
            }
          ],
          "internalType": "struct NFTDescriptor.ConstructTokenURIParams",
          "name": "params",
          "type": "tuple"
        }
      ],
      "name": "mint",
      "outputs": [],
      "stateMutability": "nonpayable",
      "type": "function"
    },
    {
      "inputs": [],
      "name": "name",
      "outputs": [
        {
          "internalType": "string",
          "name": "",
          "type": "string"
        }
      ],
      "stateMutability": "view",
      "type": "function"
    },
    {
      "inputs": [],
      "name": "owner",
      "outputs": [
        {
          "internalType": "address",
          "name": "",
          "type": "address"
        }
      ],
      "stateMutability": "view",
      "type": "function"
    },
    {
      "inputs": [
        {
          "internalType": "uint256",
          "name": "tokenId",
          "type": "uint256"
        }
      ],
      "name": "ownerOf",
      "outputs": [
        {
          "internalType": "address",
          "name": "",
          "type": "address"
        }
      ],
      "stateMutability": "view",
      "type": "function"
    },
    {
      "inputs": [],
      "name": "renounceOwnership",
      "outputs": [],
      "stateMutability": "nonpayable",
      "type": "function"
    },
    {
      "inputs": [
        {
          "internalType": "bytes32",
          "name": "role",
          "type": "bytes32"
        },
        {
          "internalType": "address",
          "name": "account",
          "type": "address"
        }
      ],
      "name": "renounceRole",
      "outputs": [],
      "stateMutability": "nonpayable",
      "type": "function"
    },
    {
      "inputs": [
        {
          "internalType": "bytes32",
          "name": "role",
          "type": "bytes32"
        },
        {
          "internalType": "address",
          "name": "account",
          "type": "address"
        }
      ],
      "name": "revokeRole",
      "outputs": [],
      "stateMutability": "nonpayable",
      "type": "function"
    },
    {
      "inputs": [
        {
          "internalType": "address",
          "name": "from",
          "type": "address"
        },
        {
          "internalType": "address",
          "name": "to",
          "type": "address"
        },
        {
          "internalType": "uint256",
          "name": "tokenId",
          "type": "uint256"
        }
      ],
      "name": "safeTransferFrom",
      "outputs": [],
      "stateMutability": "nonpayable",
      "type": "function"
    },
    {
      "inputs": [
        {
          "internalType": "address",
          "name": "from",
          "type": "address"
        },
        {
          "internalType": "address",
          "name": "to",
          "type": "address"
        },
        {
          "internalType": "uint256",
          "name": "tokenId",
          "type": "uint256"
        },
        {
          "internalType": "bytes",
          "name": "_data",
          "type": "bytes"
        }
      ],
      "name": "safeTransferFrom",
      "outputs": [],
      "stateMutability": "nonpayable",
      "type": "function"
    },
    {
      "inputs": [
        {
          "internalType": "address",
          "name": "operator",
          "type": "address"
        },
        {
          "internalType": "bool",
          "name": "approved",
          "type": "bool"
        }
      ],
      "name": "setApprovalForAll",
      "outputs": [],
      "stateMutability": "nonpayable",
      "type": "function"
    },
    {
      "inputs": [
        {
          "internalType": "uint256",
          "name": "_tokenId",
          "type": "uint256"
        },
        {
          "internalType": "address payable",
          "name": "_royaltiesReceipientAddress",
          "type": "address"
        },
        {
          "internalType": "uint96",
          "name": "_percentageBasisPoints",
          "type": "uint96"
        }
      ],
      "name": "setRoyalties",
      "outputs": [],
      "stateMutability": "nonpayable",
      "type": "function"
    },
    {
      "inputs": [
        {
          "internalType": "bytes4",
          "name": "interfaceId",
          "type": "bytes4"
        }
      ],
      "name": "supportsInterface",
      "outputs": [
        {
          "internalType": "bool",
          "name": "",
          "type": "bool"
        }
      ],
      "stateMutability": "view",
      "type": "function"
    },
    {
      "inputs": [],
      "name": "symbol",
      "outputs": [
        {
          "internalType": "string",
          "name": "",
          "type": "string"
        }
      ],
      "stateMutability": "view",
      "type": "function"
    },
    {
      "inputs": [
        {
          "internalType": "uint256",
          "name": "index",
          "type": "uint256"
        }
      ],
      "name": "tokenByIndex",
      "outputs": [
        {
          "internalType": "uint256",
          "name": "",
          "type": "uint256"
        }
      ],
      "stateMutability": "view",
      "type": "function"
    },
    {
      "inputs": [
        {
          "internalType": "address",
          "name": "owner",
          "type": "address"
        },
        {
          "internalType": "uint256",
          "name": "index",
          "type": "uint256"
        }
      ],
      "name": "tokenOfOwnerByIndex",
      "outputs": [
        {
          "internalType": "uint256",
          "name": "",
          "type": "uint256"
        }
      ],
      "stateMutability": "view",
      "type": "function"
    },
    {
      "inputs": [
        {
          "internalType": "uint256",
          "name": "tokenId",
          "type": "uint256"
        }
      ],
      "name": "tokenURI",
      "outputs": [
        {
          "internalType": "string",
          "name": "",
          "type": "string"
        }
      ],
      "stateMutability": "view",
      "type": "function"
    },
    {
      "inputs": [],
      "name": "totalSupply",
      "outputs": [
        {
          "internalType": "uint256",
          "name": "",
          "type": "uint256"
        }
      ],
      "stateMutability": "view",
      "type": "function"
    },
    {
      "inputs": [
        {
          "internalType": "address",
          "name": "from",
          "type": "address"
        },
        {
          "internalType": "address",
          "name": "to",
          "type": "address"
        },
        {
          "internalType": "uint256",
          "name": "tokenId",
          "type": "uint256"
        }
      ],
      "name": "transferFrom",
      "outputs": [],
      "stateMutability": "nonpayable",
      "type": "function"
    },
    {
      "inputs": [
        {
          "internalType": "address",
          "name": "newOwner",
          "type": "address"
        }
      ],
      "name": "transferOwnership",
      "outputs": [],
      "stateMutability": "nonpayable",
      "type": "function"
    }
  ],
  "transactionHash": "0xa5de99d829ee1dea32751060d48b805f365bf07e0aa140d7041ac3da5a18d1ff",
  "args": [],
  "solcInputHash": "564266a40003fd4b8fc39d6da63d719e",
  "bytecode": "0x60806040523480156200001157600080fd5b506040518060400160405280600481526020017f4d495245000000000000000000000000000000000000000000000000000000008152506040518060400160405280600681526020017f4de280a052450000000000000000000000000000000000000000000000000000815250816000908051906020019062000096929190620005c2565b508060019080519060200190620000af929190620005c2565b505050620000d2620000c66200012460201b60201c565b6200012c60201b60201c565b620000f2620000e66200012460201b60201c565b620001f260201b60201c565b620001166000801b6200010a6200012460201b60201c565b6200030860201b60201c565b6000600f81905550620007d6565b600033905090565b6000600a60009054906101000a900473ffffffffffffffffffffffffffffffffffffffff16905081600a60006101000a81548173ffffffffffffffffffffffffffffffffffffffff021916908373ffffffffffffffffffffffffffffffffffffffff1602179055508173ffffffffffffffffffffffffffffffffffffffff168173ffffffffffffffffffffffffffffffffffffffff167f8be0079c531659141344cd1fd0a4f28419497f9722a3daafe3b4186f6b6457e060405160405180910390a35050565b620002026200012460201b60201c565b73ffffffffffffffffffffffffffffffffffffffff16620002286200035060201b60201c565b73ffffffffffffffffffffffffffffffffffffffff161462000281576040517f08c379a000000000000000000000000000000000000000000000000000000000815260040162000278906200073e565b60405180910390fd5b600073ffffffffffffffffffffffffffffffffffffffff168173ffffffffffffffffffffffffffffffffffffffff161415620002f4576040517f08c379a0000000000000000000000000000000000000000000000000000000008152600401620002eb906200071c565b60405180910390fd5b62000305816200012c60201b60201c565b50565b6200031f82826200037a60201b620018951760201c565b6200034b81600d60008581526020019081526020016000206200039060201b620018a31790919060201c565b505050565b6000600a60009054906101000a900473ffffffffffffffffffffffffffffffffffffffff16905090565b6200038c8282620003c860201b60201c565b5050565b6000620003c0836000018373ffffffffffffffffffffffffffffffffffffffff1660001b620004ba60201b60201c565b905092915050565b620003da82826200053460201b60201c565b620004b6576001600c600084815260200190815260200160002060000160008373ffffffffffffffffffffffffffffffffffffffff1673ffffffffffffffffffffffffffffffffffffffff16815260200190815260200160002060006101000a81548160ff0219169083151502179055506200045b6200012460201b60201c565b73ffffffffffffffffffffffffffffffffffffffff168173ffffffffffffffffffffffffffffffffffffffff16837f2f8788117e7eff1d82e926ec794901d17c78024a50270940304540a733656f0d60405160405180910390a45b5050565b6000620004ce83836200059f60201b60201c565b620005295782600001829080600181540180825580915050600190039060005260206000200160009091909190915055826000018054905083600101600084815260200190815260200160002081905550600190506200052e565b600090505b92915050565b6000600c600084815260200190815260200160002060000160008373ffffffffffffffffffffffffffffffffffffffff1673ffffffffffffffffffffffffffffffffffffffff16815260200190815260200160002060009054906101000a900460ff16905092915050565b600080836001016000848152602001908152602001600020541415905092915050565b828054620005d09062000771565b90600052602060002090601f016020900481019282620005f4576000855562000640565b82601f106200060f57805160ff191683800117855562000640565b8280016001018555821562000640579182015b828111156200063f57825182559160200191906001019062000622565b5b5090506200064f919062000653565b5090565b5b808211156200066e57600081600090555060010162000654565b5090565b60006200068160268362000760565b91507f4f776e61626c653a206e6577206f776e657220697320746865207a65726f206160008301527f64647265737300000000000000000000000000000000000000000000000000006020830152604082019050919050565b6000620006e960208362000760565b91507f4f776e61626c653a2063616c6c6572206973206e6f7420746865206f776e65726000830152602082019050919050565b60006020820190508181036000830152620007378162000672565b9050919050565b600060208201905081810360008301526200075981620006da565b9050919050565b600082825260208201905092915050565b600060028204905060018216806200078a57607f821691505b60208210811415620007a157620007a0620007a7565b5b50919050565b7f4e487b7100000000000000000000000000000000000000000000000000000000600052602260045260246000fd5b61514b80620007e66000396000f3fe608060405234801561001057600080fd5b50600436106101da5760003560e01c806370a0823111610104578063a22cb465116100a2578063cad96cca11610071578063cad96cca1461058b578063d547741f146105bb578063e985e9c5146105d7578063f2fde38b14610607576101da565b8063a22cb465146104f3578063b88d4fde1461050f578063c87b56dd1461052b578063ca15c8731461055b576101da565b80639010d07c116100de5780639010d07c1461045757806391d148541461048757806395d89b41146104b7578063a217fddf146104d5576101da565b806370a08231146103ff578063715018a61461042f5780638da5cb5b14610439576101da565b8063248a9ca31161017c57806336568abe1161014b57806336568abe1461036757806342842e0e146103835780634f6ccce71461039f5780636352211e146103cf576101da565b8063248a9ca3146102cf5780632d4cec45146102ff5780632f2ff15d1461031b5780632f745c5914610337576101da565b8063095ea7b3116101b8578063095ea7b31461025d578063143094db1461027957806318160ddd1461029557806323b872dd146102b3576101da565b806301ffc9a7146101df57806306fdde031461020f578063081812fc1461022d575b600080fd5b6101f960048036038101906101f49190613bc4565b610623565b604051610206919061488d565b60405180910390f35b61021761068c565b60405161022491906148c3565b60405180910390f35b61024760048036038101906102429190613c57565b61071e565b6040516102549190614804565b60405180910390f35b61027760048036038101906102729190613ae7565b6107a3565b005b610293600480360381019061028e9190613c80565b6108bb565b005b61029d610aa8565b6040516102aa9190614be7565b60405180910390f35b6102cd60048036038101906102c8919061398d565b610ab5565b005b6102e960048036038101906102e49190613b23565b610b15565b6040516102f691906148a8565b60405180910390f35b61031960048036038101906103149190613a93565b610b35565b005b61033560048036038101906103309190613b4c565b610c45565b005b610351600480360381019061034c9190613ae7565b610c79565b60405161035e9190614be7565b60405180910390f35b610381600480360381019061037c9190613b4c565b610d1e565b005b61039d6004803603810190610398919061398d565b610d52565b005b6103b960048036038101906103b49190613c57565b610d72565b6040516103c69190614be7565b60405180910390f35b6103e960048036038101906103e49190613c57565b610e09565b6040516103f69190614804565b60405180910390f35b61041960048036038101906104149190613928565b610ebb565b6040516104269190614be7565b60405180910390f35b610437610f73565b005b610441610ffb565b60405161044e9190614804565b60405180910390f35b610471600480360381019061046c9190613b88565b611025565b60405161047e9190614804565b60405180910390f35b6104a1600480360381019061049c9190613b4c565b611054565b6040516104ae919061488d565b60405180910390f35b6104bf6110bf565b6040516104cc91906148c3565b60405180910390f35b6104dd611151565b6040516104ea91906148a8565b60405180910390f35b61050d60048036038101906105089190613a57565b611158565b005b610529600480360381019061052491906139dc565b6112d9565b005b61054560048036038101906105409190613c57565b61133b565b60405161055291906148c3565b60405180910390f35b61057560048036038101906105709190613b23565b6115af565b6040516105829190614be7565b60405180910390f35b6105a560048036038101906105a09190613c57565b6115d3565b6040516105b2919061486b565b60405180910390f35b6105d560048036038101906105d09190613b4c565b6116d5565b005b6105f160048036038101906105ec9190613951565b611709565b6040516105fe919061488d565b60405180910390f35b610621600480360381019061061c9190613928565b61179d565b005b600063cad96cca60e01b7bffffffffffffffffffffffffffffffffffffffffffffffffffffffff1916827bffffffffffffffffffffffffffffffffffffffffffffffffffffffff1916141561067b5760019050610687565b610684826118d3565b90505b919050565b60606000805461069b90614f5b565b80601f01602080910402602001604051908101604052809291908181526020018280546106c790614f5b565b80156107145780601f106106e957610100808354040283529160200191610714565b820191906000526020600020905b8154815290600101906020018083116106f757829003601f168201915b5050505050905090565b60006107298261194d565b610768576040517f08c379a000000000000000000000000000000000000000000000000000000000815260040161075f90614aa5565b60405180910390fd5b6004600083815260200190815260200160002060009054906101000a900473ffffffffffffffffffffffffffffffffffffffff169050919050565b60006107ae82610e09565b90508073ffffffffffffffffffffffffffffffffffffffff168373ffffffffffffffffffffffffffffffffffffffff16141561081f576040517f08c379a000000000000000000000000000000000000000000000000000000000815260040161081690614b05565b60405180910390fd5b8073ffffffffffffffffffffffffffffffffffffffff1661083e6119b9565b73ffffffffffffffffffffffffffffffffffffffff16148061086d575061086c816108676119b9565b611709565b5b6108ac576040517f08c379a00000000000000000000000000000000000000000000000000000000081526004016108a390614a25565b60405180910390fd5b6108b683836119c1565b505050565b6108c36119b9565b73ffffffffffffffffffffffffffffffffffffffff166108e1610ffb565b73ffffffffffffffffffffffffffffffffffffffff1614610937576040517f08c379a000000000000000000000000000000000000000000000000000000000815260040161092e90614ac5565b60405180910390fd5b6000600167ffffffffffffffff81111561097a577f4e487b7100000000000000000000000000000000000000000000000000000000600052604160045260246000fd5b6040519080825280602002602001820160405280156109b357816020015b6109a0613590565b8152602001906001900390816109985790505b50905081816000815181106109f1577f4e487b7100000000000000000000000000000000000000000000000000000000600052603260045260246000fd5b6020026020010151602001906bffffffffffffffffffffffff1690816bffffffffffffffffffffffff16815250508281600081518110610a5a577f4e487b7100000000000000000000000000000000000000000000000000000000600052603260045260246000fd5b60200260200101516000019073ffffffffffffffffffffffffffffffffffffffff16908173ffffffffffffffffffffffffffffffffffffffff1681525050610aa28482611a7a565b50505050565b6000600880549050905090565b610ac6610ac06119b9565b82611d95565b610b05576040517f08c379a0000000000000000000000000000000000000000000000000000000008152600401610afc90614b25565b60405180910390fd5b610b10838383611e73565b505050565b6000600c6000838152602001908152602001600020600101549050919050565b610b496000801b610b446119b9565b611054565b610b88576040517f08c379a0000000000000000000000000000000000000000000000000000000008152600401610b7f90614a05565b60405180910390fd5b600081610b9490614edc565b9050600f5481600001818152505080600e6000600f548152602001908152602001600020600082015181600001556020820151816001019080519060200190610bde9291906135ce565b506040820151816002019080519060200190610bfb9291906135ce565b506060820151816003019080519060200190610c189291906135ce565b50905050610c2883600f546120cf565b600f6000815480929190610c3b90614f8d565b9190505550505050565b610c4f828261229d565b610c7481600d60008581526020019081526020016000206118a390919063ffffffff16565b505050565b6000610c8483610ebb565b8210610cc5576040517f08c379a0000000000000000000000000000000000000000000000000000000008152600401610cbc90614905565b60405180910390fd5b600660008473ffffffffffffffffffffffffffffffffffffffff1673ffffffffffffffffffffffffffffffffffffffff168152602001908152602001600020600083815260200190815260200160002054905092915050565b610d2882826122c6565b610d4d81600d600085815260200190815260200160002061234990919063ffffffff16565b505050565b610d6d838383604051806020016040528060008152506112d9565b505050565b6000610d7c610aa8565b8210610dbd576040517f08c379a0000000000000000000000000000000000000000000000000000000008152600401610db490614b45565b60405180910390fd5b60088281548110610df7577f4e487b7100000000000000000000000000000000000000000000000000000000600052603260045260246000fd5b90600052602060002001549050919050565b6000806002600084815260200190815260200160002060009054906101000a900473ffffffffffffffffffffffffffffffffffffffff169050600073ffffffffffffffffffffffffffffffffffffffff168173ffffffffffffffffffffffffffffffffffffffff161415610eb2576040517f08c379a0000000000000000000000000000000000000000000000000000000008152600401610ea990614a65565b60405180910390fd5b80915050919050565b60008073ffffffffffffffffffffffffffffffffffffffff168273ffffffffffffffffffffffffffffffffffffffff161415610f2c576040517f08c379a0000000000000000000000000000000000000000000000000000000008152600401610f2390614a45565b60405180910390fd5b600360008373ffffffffffffffffffffffffffffffffffffffff1673ffffffffffffffffffffffffffffffffffffffff168152602001908152602001600020549050919050565b610f7b6119b9565b73ffffffffffffffffffffffffffffffffffffffff16610f99610ffb565b73ffffffffffffffffffffffffffffffffffffffff1614610fef576040517f08c379a0000000000000000000000000000000000000000000000000000000008152600401610fe690614ac5565b60405180910390fd5b610ff96000612379565b565b6000600a60009054906101000a900473ffffffffffffffffffffffffffffffffffffffff16905090565b600061104c82600d600086815260200190815260200160002061243f90919063ffffffff16565b905092915050565b6000600c600084815260200190815260200160002060000160008373ffffffffffffffffffffffffffffffffffffffff1673ffffffffffffffffffffffffffffffffffffffff16815260200190815260200160002060009054906101000a900460ff16905092915050565b6060600180546110ce90614f5b565b80601f01602080910402602001604051908101604052809291908181526020018280546110fa90614f5b565b80156111475780601f1061111c57610100808354040283529160200191611147565b820191906000526020600020905b81548152906001019060200180831161112a57829003601f168201915b5050505050905090565b6000801b81565b6111606119b9565b73ffffffffffffffffffffffffffffffffffffffff168273ffffffffffffffffffffffffffffffffffffffff1614156111ce576040517f08c379a00000000000000000000000000000000000000000000000000000000081526004016111c5906149a5565b60405180910390fd5b80600560006111db6119b9565b73ffffffffffffffffffffffffffffffffffffffff1673ffffffffffffffffffffffffffffffffffffffff16815260200190815260200160002060008473ffffffffffffffffffffffffffffffffffffffff1673ffffffffffffffffffffffffffffffffffffffff16815260200190815260200160002060006101000a81548160ff0219169083151502179055508173ffffffffffffffffffffffffffffffffffffffff166112886119b9565b73ffffffffffffffffffffffffffffffffffffffff167f17307eab39ab6107e8899845ad3d59bd9653f200f220920489ca2b5937696c31836040516112cd919061488d565b60405180910390a35050565b6112ea6112e46119b9565b83611d95565b611329576040517f08c379a000000000000000000000000000000000000000000000000000000000815260040161132090614b25565b60405180910390fd5b61133584848484612459565b50505050565b6060600e60008381526020019081526020016000206040518060800160405290816000820154815260200160018201805461137590614f5b565b80601f01602080910402602001604051908101604052809291908181526020018280546113a190614f5b565b80156113ee5780601f106113c3576101008083540402835291602001916113ee565b820191906000526020600020905b8154815290600101906020018083116113d157829003601f168201915b5050505050815260200160028201805461140790614f5b565b80601f016020809104026020016040519081016040528092919081815260200182805461143390614f5b565b80156114805780601f1061145557610100808354040283529160200191611480565b820191906000526020600020905b81548152906001019060200180831161146357829003601f168201915b5050505050815260200160038201805461149990614f5b565b80601f01602080910402602001604051908101604052809291908181526020018280546114c590614f5b565b80156115125780601f106114e757610100808354040283529160200191611512565b820191906000526020600020905b8154815290600101906020018083116114f557829003601f168201915b505050505081525050737Df058B22e614aCF49E2d687EC3BA2cCDD6DFBc763c49917d790916040518263ffffffff1660e01b81526004016115539190614bc5565b60006040518083038186803b15801561156b57600080fd5b505af415801561157f573d6000803e3d6000fd5b505050506040513d6000823e3d601f19601f820116820180604052508101906115a89190613c16565b9050919050565b60006115cc600d60008481526020019081526020016000206124b5565b9050919050565b6060600b6000838152602001908152602001600020805480602002602001604051908101604052809291908181526020016000905b828210156116ca578382906000526020600020016040518060400160405290816000820160009054906101000a900473ffffffffffffffffffffffffffffffffffffffff1673ffffffffffffffffffffffffffffffffffffffff1673ffffffffffffffffffffffffffffffffffffffff1681526020016000820160149054906101000a90046bffffffffffffffffffffffff166bffffffffffffffffffffffff166bffffffffffffffffffffffff168152505081526020019060010190611608565b505050509050919050565b6116df82826124ca565b61170481600d600085815260200190815260200160002061234990919063ffffffff16565b505050565b6000600560008473ffffffffffffffffffffffffffffffffffffffff1673ffffffffffffffffffffffffffffffffffffffff16815260200190815260200160002060008373ffffffffffffffffffffffffffffffffffffffff1673ffffffffffffffffffffffffffffffffffffffff16815260200190815260200160002060009054906101000a900460ff16905092915050565b6117a56119b9565b73ffffffffffffffffffffffffffffffffffffffff166117c3610ffb565b73ffffffffffffffffffffffffffffffffffffffff1614611819576040517f08c379a000000000000000000000000000000000000000000000000000000000815260040161181090614ac5565b60405180910390fd5b600073ffffffffffffffffffffffffffffffffffffffff168173ffffffffffffffffffffffffffffffffffffffff161415611889576040517f08c379a000000000000000000000000000000000000000000000000000000000815260040161188090614945565b60405180910390fd5b61189281612379565b50565b61189f82826124f3565b5050565b60006118cb836000018373ffffffffffffffffffffffffffffffffffffffff1660001b6125d4565b905092915050565b60007f5a05180f000000000000000000000000000000000000000000000000000000007bffffffffffffffffffffffffffffffffffffffffffffffffffffffff1916827bffffffffffffffffffffffffffffffffffffffffffffffffffffffff19161480611946575061194582612644565b5b9050919050565b60008073ffffffffffffffffffffffffffffffffffffffff166002600084815260200190815260200160002060009054906101000a900473ffffffffffffffffffffffffffffffffffffffff1673ffffffffffffffffffffffffffffffffffffffff1614159050919050565b600033905090565b816004600083815260200190815260200160002060006101000a81548173ffffffffffffffffffffffffffffffffffffffff021916908373ffffffffffffffffffffffffffffffffffffffff160217905550808273ffffffffffffffffffffffffffffffffffffffff16611a3483610e09565b73ffffffffffffffffffffffffffffffffffffffff167f8c5be1e5ebec7d5bd14f71427d1e84f3dd0314c0f7b2291e5b200ac8c7c3b92560405160405180910390a45050565b600080600090505b8251811015611d4157600073ffffffffffffffffffffffffffffffffffffffff16838281518110611adc577f4e487b7100000000000000000000000000000000000000000000000000000000600052603260045260246000fd5b60200260200101516000015173ffffffffffffffffffffffffffffffffffffffff161415611b3f576040517f08c379a0000000000000000000000000000000000000000000000000000000008152600401611b3690614b85565b60405180910390fd5b6000838281518110611b7a577f4e487b7100000000000000000000000000000000000000000000000000000000600052603260045260246000fd5b6020026020010151602001516bffffffffffffffffffffffff161415611bd5576040517f08c379a0000000000000000000000000000000000000000000000000000000008152600401611bcc906149e5565b60405180910390fd5b828181518110611c0e577f4e487b7100000000000000000000000000000000000000000000000000000000600052603260045260246000fd5b6020026020010151602001516bffffffffffffffffffffffff1682611c339190614d50565b9150600b6000858152602001908152602001600020838281518110611c81577f4e487b7100000000000000000000000000000000000000000000000000000000600052603260045260246000fd5b60200260200101519080600181540180825580915050600190039060005260206000200160009091909190915060008201518160000160006101000a81548173ffffffffffffffffffffffffffffffffffffffff021916908373ffffffffffffffffffffffffffffffffffffffff16021790555060208201518160000160146101000a8154816bffffffffffffffffffffffff02191690836bffffffffffffffffffffffff16021790555050508080611d3990614f8d565b915050611a82565b506127108110611d86576040517f08c379a0000000000000000000000000000000000000000000000000000000008152600401611d7d90614b65565b60405180910390fd5b611d9083836126be565b505050565b6000611da08261194d565b611ddf576040517f08c379a0000000000000000000000000000000000000000000000000000000008152600401611dd6906149c5565b60405180910390fd5b6000611dea83610e09565b90508073ffffffffffffffffffffffffffffffffffffffff168473ffffffffffffffffffffffffffffffffffffffff161480611e5957508373ffffffffffffffffffffffffffffffffffffffff16611e418461071e565b73ffffffffffffffffffffffffffffffffffffffff16145b80611e6a5750611e698185611709565b5b91505092915050565b8273ffffffffffffffffffffffffffffffffffffffff16611e9382610e09565b73ffffffffffffffffffffffffffffffffffffffff1614611ee9576040517f08c379a0000000000000000000000000000000000000000000000000000000008152600401611ee090614ae5565b60405180910390fd5b600073ffffffffffffffffffffffffffffffffffffffff168273ffffffffffffffffffffffffffffffffffffffff161415611f59576040517f08c379a0000000000000000000000000000000000000000000000000000000008152600401611f5090614985565b60405180910390fd5b611f648383836126fb565b611f6f6000826119c1565b6001600360008573ffffffffffffffffffffffffffffffffffffffff1673ffffffffffffffffffffffffffffffffffffffff1681526020019081526020016000206000828254611fbf9190614e00565b925050819055506001600360008473ffffffffffffffffffffffffffffffffffffffff1673ffffffffffffffffffffffffffffffffffffffff16815260200190815260200160002060008282546120169190614d50565b92505081905550816002600083815260200190815260200160002060006101000a81548173ffffffffffffffffffffffffffffffffffffffff021916908373ffffffffffffffffffffffffffffffffffffffff160217905550808273ffffffffffffffffffffffffffffffffffffffff168473ffffffffffffffffffffffffffffffffffffffff167fddf252ad1be2c89b69c2b068fc378daa952ba7f163c4a11628f55a4df523b3ef60405160405180910390a4505050565b600073ffffffffffffffffffffffffffffffffffffffff168273ffffffffffffffffffffffffffffffffffffffff16141561213f576040517f08c379a000000000000000000000000000000000000000000000000000000000815260040161213690614a85565b60405180910390fd5b6121488161194d565b15612188576040517f08c379a000000000000000000000000000000000000000000000000000000000815260040161217f90614965565b60405180910390fd5b612194600083836126fb565b6001600360008473ffffffffffffffffffffffffffffffffffffffff1673ffffffffffffffffffffffffffffffffffffffff16815260200190815260200160002060008282546121e49190614d50565b92505081905550816002600083815260200190815260200160002060006101000a81548173ffffffffffffffffffffffffffffffffffffffff021916908373ffffffffffffffffffffffffffffffffffffffff160217905550808273ffffffffffffffffffffffffffffffffffffffff16600073ffffffffffffffffffffffffffffffffffffffff167fddf252ad1be2c89b69c2b068fc378daa952ba7f163c4a11628f55a4df523b3ef60405160405180910390a45050565b6122a682610b15565b6122b7816122b26119b9565b61270b565b6122c183836124f3565b505050565b6122ce6119b9565b73ffffffffffffffffffffffffffffffffffffffff168173ffffffffffffffffffffffffffffffffffffffff161461233b576040517f08c379a000000000000000000000000000000000000000000000000000000000815260040161233290614ba5565b60405180910390fd5b61234582826127a8565b5050565b6000612371836000018373ffffffffffffffffffffffffffffffffffffffff1660001b61288a565b905092915050565b6000600a60009054906101000a900473ffffffffffffffffffffffffffffffffffffffff16905081600a60006101000a81548173ffffffffffffffffffffffffffffffffffffffff021916908373ffffffffffffffffffffffffffffffffffffffff1602179055508173ffffffffffffffffffffffffffffffffffffffff168173ffffffffffffffffffffffffffffffffffffffff167f8be0079c531659141344cd1fd0a4f28419497f9722a3daafe3b4186f6b6457e060405160405180910390a35050565b600061244e8360000183612a10565b60001c905092915050565b612464848484611e73565b61247084848484612a61565b6124af576040517f08c379a00000000000000000000000000000000000000000000000000000000081526004016124a690614925565b60405180910390fd5b50505050565b60006124c382600001612bf8565b9050919050565b6124d382610b15565b6124e4816124df6119b9565b61270b565b6124ee83836127a8565b505050565b6124fd8282611054565b6125d0576001600c600084815260200190815260200160002060000160008373ffffffffffffffffffffffffffffffffffffffff1673ffffffffffffffffffffffffffffffffffffffff16815260200190815260200160002060006101000a81548160ff0219169083151502179055506125756119b9565b73ffffffffffffffffffffffffffffffffffffffff168173ffffffffffffffffffffffffffffffffffffffff16837f2f8788117e7eff1d82e926ec794901d17c78024a50270940304540a733656f0d60405160405180910390a45b5050565b60006125e08383612c09565b61263957826000018290806001815401808255809150506001900390600052602060002001600090919091909150558260000180549050836001016000848152602001908152602001600020819055506001905061263e565b600090505b92915050565b60007f7965db0b000000000000000000000000000000000000000000000000000000007bffffffffffffffffffffffffffffffffffffffffffffffffffffffff1916827bffffffffffffffffffffffffffffffffffffffffffffffffffffffff191614806126b757506126b682612c2c565b5b9050919050565b7f3fa96d7b6bcbfe71ef171666d84db3cf52fa2d1c8afdb1cc8e486177f208b7df82826040516126ef929190614c02565b60405180910390a15050565b612706838383612ca6565b505050565b6127158282611054565b6127a45761273a8173ffffffffffffffffffffffffffffffffffffffff166014612dba565b6127488360001c6020612dba565b6040516020016127599291906147ca565b6040516020818303038152906040526040517f08c379a000000000000000000000000000000000000000000000000000000000815260040161279b91906148c3565b60405180910390fd5b5050565b6127b28282611054565b15612886576000600c600084815260200190815260200160002060000160008373ffffffffffffffffffffffffffffffffffffffff1673ffffffffffffffffffffffffffffffffffffffff16815260200190815260200160002060006101000a81548160ff02191690831515021790555061282b6119b9565b73ffffffffffffffffffffffffffffffffffffffff168173ffffffffffffffffffffffffffffffffffffffff16837ff6391f5c32d9c69d2a47ea670b442974b53935d1edc7fd64eb21e047a839171b60405160405180910390a45b5050565b60008083600101600084815260200190815260200160002054905060008114612a045760006001826128bc9190614e00565b90506000600186600001805490506128d49190614e00565b905081811461298f57600086600001828154811061291b577f4e487b7100000000000000000000000000000000000000000000000000000000600052603260045260246000fd5b9060005260206000200154905080876000018481548110612965577f4e487b7100000000000000000000000000000000000000000000000000000000600052603260045260246000fd5b90600052602060002001819055508387600101600083815260200190815260200160002081905550505b856000018054806129c9577f4e487b7100000000000000000000000000000000000000000000000000000000600052603160045260246000fd5b600190038181906000526020600020016000905590558560010160008681526020019081526020016000206000905560019350505050612a0a565b60009150505b92915050565b6000826000018281548110612a4e577f4e487b7100000000000000000000000000000000000000000000000000000000600052603260045260246000fd5b9060005260206000200154905092915050565b6000612a828473ffffffffffffffffffffffffffffffffffffffff166130b4565b15612beb578373ffffffffffffffffffffffffffffffffffffffff1663150b7a02612aab6119b9565b8786866040518563ffffffff1660e01b8152600401612acd949392919061481f565b602060405180830381600087803b158015612ae757600080fd5b505af1925050508015612b1857506040513d601f19601f82011682018060405250810190612b159190613bed565b60015b612b9b573d8060008114612b48576040519150601f19603f3d011682016040523d82523d6000602084013e612b4d565b606091505b50600081511415612b93576040517f08c379a0000000000000000000000000000000000000000000000000000000008152600401612b8a90614925565b60405180910390fd5b805181602001fd5b63150b7a0260e01b7bffffffffffffffffffffffffffffffffffffffffffffffffffffffff1916817bffffffffffffffffffffffffffffffffffffffffffffffffffffffff191614915050612bf0565b600190505b949350505050565b600081600001805490509050919050565b600080836001016000848152602001908152602001600020541415905092915050565b60007f780e9d63000000000000000000000000000000000000000000000000000000007bffffffffffffffffffffffffffffffffffffffffffffffffffffffff1916827bffffffffffffffffffffffffffffffffffffffffffffffffffffffff19161480612c9f5750612c9e826130c7565b5b9050919050565b612cb18383836131a9565b600073ffffffffffffffffffffffffffffffffffffffff168373ffffffffffffffffffffffffffffffffffffffff161415612cf457612cef816131ae565b612d33565b8173ffffffffffffffffffffffffffffffffffffffff168373ffffffffffffffffffffffffffffffffffffffff1614612d3257612d3183826131f7565b5b5b600073ffffffffffffffffffffffffffffffffffffffff168273ffffffffffffffffffffffffffffffffffffffff161415612d7657612d7181613364565b612db5565b8273ffffffffffffffffffffffffffffffffffffffff168273ffffffffffffffffffffffffffffffffffffffff1614612db457612db382826134a7565b5b5b505050565b606060006002836002612dcd9190614da6565b612dd79190614d50565b67ffffffffffffffff811115612e16577f4e487b7100000000000000000000000000000000000000000000000000000000600052604160045260246000fd5b6040519080825280601f01601f191660200182016040528015612e485781602001600182028036833780820191505090505b5090507f300000000000000000000000000000000000000000000000000000000000000081600081518110612ea6577f4e487b7100000000000000000000000000000000000000000000000000000000600052603260045260246000fd5b60200101907effffffffffffffffffffffffffffffffffffffffffffffffffffffffffffff1916908160001a9053507f780000000000000000000000000000000000000000000000000000000000000081600181518110612f30577f4e487b7100000000000000000000000000000000000000000000000000000000600052603260045260246000fd5b60200101907effffffffffffffffffffffffffffffffffffffffffffffffffffffffffffff1916908160001a90535060006001846002612f709190614da6565b612f7a9190614d50565b90505b6001811115613066577f3031323334353637383961626364656600000000000000000000000000000000600f861660108110612fe2577f4e487b7100000000000000000000000000000000000000000000000000000000600052603260045260246000fd5b1a60f81b82828151811061301f577f4e487b7100000000000000000000000000000000000000000000000000000000600052603260045260246000fd5b60200101907effffffffffffffffffffffffffffffffffffffffffffffffffffffffffffff1916908160001a905350600485901c94508061305f90614f31565b9050612f7d565b50600084146130aa576040517f08c379a00000000000000000000000000000000000000000000000000000000081526004016130a1906148e5565b60405180910390fd5b8091505092915050565b600080823b905060008111915050919050565b60007f80ac58cd000000000000000000000000000000000000000000000000000000007bffffffffffffffffffffffffffffffffffffffffffffffffffffffff1916827bffffffffffffffffffffffffffffffffffffffffffffffffffffffff1916148061319257507f5b5e139f000000000000000000000000000000000000000000000000000000007bffffffffffffffffffffffffffffffffffffffffffffffffffffffff1916827bffffffffffffffffffffffffffffffffffffffffffffffffffffffff1916145b806131a257506131a182613526565b5b9050919050565b505050565b6008805490506009600083815260200190815260200160002081905550600881908060018154018082558091505060019003906000526020600020016000909190919091505550565b6000600161320484610ebb565b61320e9190614e00565b90506000600760008481526020019081526020016000205490508181146132f3576000600660008673ffffffffffffffffffffffffffffffffffffffff1673ffffffffffffffffffffffffffffffffffffffff168152602001908152602001600020600084815260200190815260200160002054905080600660008773ffffffffffffffffffffffffffffffffffffffff1673ffffffffffffffffffffffffffffffffffffffff168152602001908152602001600020600084815260200190815260200160002081905550816007600083815260200190815260200160002081905550505b6007600084815260200190815260200160002060009055600660008573ffffffffffffffffffffffffffffffffffffffff1673ffffffffffffffffffffffffffffffffffffffff16815260200190815260200160002060008381526020019081526020016000206000905550505050565b600060016008805490506133789190614e00565b90506000600960008481526020019081526020016000205490506000600883815481106133ce577f4e487b7100000000000000000000000000000000000000000000000000000000600052603260045260246000fd5b906000526020600020015490508060088381548110613416577f4e487b7100000000000000000000000000000000000000000000000000000000600052603260045260246000fd5b90600052602060002001819055508160096000838152602001908152602001600020819055506009600085815260200190815260200160002060009055600880548061348b577f4e487b7100000000000000000000000000000000000000000000000000000000600052603160045260246000fd5b6001900381819060005260206000200160009055905550505050565b60006134b283610ebb565b905081600660008573ffffffffffffffffffffffffffffffffffffffff1673ffffffffffffffffffffffffffffffffffffffff168152602001908152602001600020600083815260200190815260200160002081905550806007600084815260200190815260200160002081905550505050565b60007f01ffc9a7000000000000000000000000000000000000000000000000000000007bffffffffffffffffffffffffffffffffffffffffffffffffffffffff1916827bffffffffffffffffffffffffffffffffffffffffffffffffffffffff1916149050919050565b6040518060400160405280600073ffffffffffffffffffffffffffffffffffffffff16815260200160006bffffffffffffffffffffffff1681525090565b8280546135da90614f5b565b90600052602060002090601f0160209004810192826135fc5760008555613643565b82601f1061361557805160ff1916838001178555613643565b82800160010185558215613643579182015b82811115613642578251825591602001919060010190613627565b5b5090506136509190613654565b5090565b5b8082111561366d576000816000905550600101613655565b5090565b600061368461367f84614c63565b614c32565b90508281526020810184848401111561369c57600080fd5b6136a7848285614eef565b509392505050565b60006136c26136bd84614c93565b614c32565b9050828152602081018484840111156136da57600080fd5b6136e5848285614eef565b509392505050565b60006137006136fb84614c93565b614c32565b90508281526020810184848401111561371857600080fd5b613723848285614efe565b509392505050565b60008135905061373a81615074565b92915050565b60008135905061374f8161508b565b92915050565b600081359050613764816150a2565b92915050565b600081359050613779816150b9565b92915050565b60008135905061378e816150d0565b92915050565b6000815190506137a3816150d0565b92915050565b600082601f8301126137ba57600080fd5b81356137ca848260208601613671565b91505092915050565b600082601f8301126137e457600080fd5b81356137f48482602086016136af565b91505092915050565b600082601f83011261380e57600080fd5b815161381e8482602086016136ed565b91505092915050565b60006080828403121561383957600080fd5b81905092915050565b60006080828403121561385457600080fd5b61385e6080614c32565b9050600061386e848285016138fe565b600083015250602082013567ffffffffffffffff81111561388e57600080fd5b61389a848285016137d3565b602083015250604082013567ffffffffffffffff8111156138ba57600080fd5b6138c6848285016137d3565b604083015250606082013567ffffffffffffffff8111156138e657600080fd5b6138f2848285016137d3565b60608301525092915050565b60008135905061390d816150e7565b92915050565b600081359050613922816150fe565b92915050565b60006020828403121561393a57600080fd5b60006139488482850161372b565b91505092915050565b6000806040838503121561396457600080fd5b60006139728582860161372b565b92505060206139838582860161372b565b9150509250929050565b6000806000606084860312156139a257600080fd5b60006139b08682870161372b565b93505060206139c18682870161372b565b92505060406139d2868287016138fe565b9150509250925092565b600080600080608085870312156139f257600080fd5b6000613a008782880161372b565b9450506020613a118782880161372b565b9350506040613a22878288016138fe565b925050606085013567ffffffffffffffff811115613a3f57600080fd5b613a4b878288016137a9565b91505092959194509250565b60008060408385031215613a6a57600080fd5b6000613a788582860161372b565b9250506020613a8985828601613755565b9150509250929050565b60008060408385031215613aa657600080fd5b6000613ab48582860161372b565b925050602083013567ffffffffffffffff811115613ad157600080fd5b613add85828601613827565b9150509250929050565b60008060408385031215613afa57600080fd5b6000613b088582860161372b565b9250506020613b19858286016138fe565b9150509250929050565b600060208284031215613b3557600080fd5b6000613b438482850161376a565b91505092915050565b60008060408385031215613b5f57600080fd5b6000613b6d8582860161376a565b9250506020613b7e8582860161372b565b9150509250929050565b60008060408385031215613b9b57600080fd5b6000613ba98582860161376a565b9250506020613bba858286016138fe565b9150509250929050565b600060208284031215613bd657600080fd5b6000613be48482850161377f565b91505092915050565b600060208284031215613bff57600080fd5b6000613c0d84828501613794565b91505092915050565b600060208284031215613c2857600080fd5b600082015167ffffffffffffffff811115613c4257600080fd5b613c4e848285016137fd565b91505092915050565b600060208284031215613c6957600080fd5b6000613c77848285016138fe565b91505092915050565b600080600060608486031215613c9557600080fd5b6000613ca3868287016138fe565b9350506020613cb486828701613740565b9250506040613cc586828701613913565b9150509250925092565b6000613cdb838361476e565b60408301905092915050565b613cf081614e46565b82525050565b613cff81614e34565b82525050565b6000613d1082614cd3565b613d1a8185614d01565b9350613d2583614cc3565b8060005b83811015613d56578151613d3d8882613ccf565b9750613d4883614cf4565b925050600181019050613d29565b5085935050505092915050565b613d6c81614e58565b82525050565b613d7b81614e64565b82525050565b6000613d8c82614cde565b613d968185614d12565b9350613da6818560208601614efe565b613daf81615063565b840191505092915050565b6000613dc582614ce9565b613dcf8185614d23565b9350613ddf818560208601614efe565b613de881615063565b840191505092915050565b6000613dfe82614ce9565b613e088185614d34565b9350613e18818560208601614efe565b613e2181615063565b840191505092915050565b6000613e3782614ce9565b613e418185614d45565b9350613e51818560208601614efe565b80840191505092915050565b6000613e6a602083614d23565b91507f537472696e67733a20686578206c656e67746820696e73756666696369656e746000830152602082019050919050565b6000613eaa602b83614d23565b91507f455243373231456e756d657261626c653a206f776e657220696e646578206f7560008301527f74206f6620626f756e64730000000000000000000000000000000000000000006020830152604082019050919050565b6000613f10603283614d23565b91507f4552433732313a207472616e7366657220746f206e6f6e20455243373231526560008301527f63656976657220696d706c656d656e74657200000000000000000000000000006020830152604082019050919050565b6000613f76602683614d23565b91507f4f776e61626c653a206e6577206f776e657220697320746865207a65726f206160008301527f64647265737300000000000000000000000000000000000000000000000000006020830152604082019050919050565b6000613fdc601c83614d23565b91507f4552433732313a20746f6b656e20616c7265616479206d696e746564000000006000830152602082019050919050565b600061401c602483614d23565b91507f4552433732313a207472616e7366657220746f20746865207a65726f2061646460008301527f72657373000000000000000000000000000000000000000000000000000000006020830152604082019050919050565b6000614082601983614d23565b91507f4552433732313a20617070726f766520746f2063616c6c6572000000000000006000830152602082019050919050565b60006140c2602c83614d23565b91507f4552433732313a206f70657261746f7220717565727920666f72206e6f6e657860008301527f697374656e7420746f6b656e00000000000000000000000000000000000000006020830152604082019050919050565b6000614128602083614d23565b91507f526f79616c74792076616c75652073686f756c6420626520706f7369746976656000830152602082019050919050565b6000614168602483614d23565b91507f4552433732313a206d75737420686176652061646d696e20726f6c6520746f2060008301527f6d696e74000000000000000000000000000000000000000000000000000000006020830152604082019050919050565b60006141ce603883614d23565b91507f4552433732313a20617070726f76652063616c6c6572206973206e6f74206f7760008301527f6e6572206e6f7220617070726f76656420666f7220616c6c00000000000000006020830152604082019050919050565b6000614234602a83614d23565b91507f4552433732313a2062616c616e636520717565727920666f7220746865207a6560008301527f726f2061646472657373000000000000000000000000000000000000000000006020830152604082019050919050565b600061429a602983614d23565b91507f4552433732313a206f776e657220717565727920666f72206e6f6e657869737460008301527f656e7420746f6b656e00000000000000000000000000000000000000000000006020830152604082019050919050565b6000614300602083614d23565b91507f4552433732313a206d696e7420746f20746865207a65726f20616464726573736000830152602082019050919050565b6000614340602c83614d23565b91507f4552433732313a20617070726f76656420717565727920666f72206e6f6e657860008301527f697374656e7420746f6b656e00000000000000000000000000000000000000006020830152604082019050919050565b60006143a6602083614d23565b91507f4f776e61626c653a2063616c6c6572206973206e6f7420746865206f776e65726000830152602082019050919050565b60006143e6602983614d23565b91507f4552433732313a207472616e73666572206f6620746f6b656e2074686174206960008301527f73206e6f74206f776e00000000000000000000000000000000000000000000006020830152604082019050919050565b600061444c602183614d23565b91507f4552433732313a20617070726f76616c20746f2063757272656e74206f776e6560008301527f72000000000000000000000000000000000000000000000000000000000000006020830152604082019050919050565b60006144b2603183614d23565b91507f4552433732313a207472616e736665722063616c6c6572206973206e6f74206f60008301527f776e6572206e6f7220617070726f7665640000000000000000000000000000006020830152604082019050919050565b6000614518602c83614d23565b91507f455243373231456e756d657261626c653a20676c6f62616c20696e646578206f60008301527f7574206f6620626f756e647300000000000000000000000000000000000000006020830152604082019050919050565b600061457e602583614d23565b91507f526f79616c747920746f74616c2076616c75652073686f756c64206265203c2060008301527f31303030300000000000000000000000000000000000000000000000000000006020830152604082019050919050565b60006145e4601783614d45565b91507f416363657373436f6e74726f6c3a206163636f756e74200000000000000000006000830152601782019050919050565b6000614624601b83614d23565b91507f526563697069656e742073686f756c642062652070726573656e7400000000006000830152602082019050919050565b6000614664601183614d45565b91507f206973206d697373696e6720726f6c65200000000000000000000000000000006000830152601182019050919050565b60006146a4602f83614d23565b91507f416363657373436f6e74726f6c3a2063616e206f6e6c792072656e6f756e636560008301527f20726f6c657320666f722073656c6600000000000000000000000000000000006020830152604082019050919050565b600060808301600083015161471560008601826147ac565b506020830151848203602086015261472d8282613df3565b915050604083015184820360408601526147478282613df3565b915050606083015184820360608601526147618282613df3565b9150508091505092915050565b6040820160008201516147846000850182613ce7565b50602082015161479760208501826147bb565b50505050565b6147a681614eba565b82525050565b6147b581614eba565b82525050565b6147c481614ec4565b82525050565b60006147d5826145d7565b91506147e18285613e2c565b91506147ec82614657565b91506147f88284613e2c565b91508190509392505050565b60006020820190506148196000830184613cf6565b92915050565b60006080820190506148346000830187613cf6565b6148416020830186613cf6565b61484e604083018561479d565b81810360608301526148608184613d81565b905095945050505050565b600060208201905081810360008301526148858184613d05565b905092915050565b60006020820190506148a26000830184613d63565b92915050565b60006020820190506148bd6000830184613d72565b92915050565b600060208201905081810360008301526148dd8184613dba565b905092915050565b600060208201905081810360008301526148fe81613e5d565b9050919050565b6000602082019050818103600083015261491e81613e9d565b9050919050565b6000602082019050818103600083015261493e81613f03565b9050919050565b6000602082019050818103600083015261495e81613f69565b9050919050565b6000602082019050818103600083015261497e81613fcf565b9050919050565b6000602082019050818103600083015261499e8161400f565b9050919050565b600060208201905081810360008301526149be81614075565b9050919050565b600060208201905081810360008301526149de816140b5565b9050919050565b600060208201905081810360008301526149fe8161411b565b9050919050565b60006020820190508181036000830152614a1e8161415b565b9050919050565b60006020820190508181036000830152614a3e816141c1565b9050919050565b60006020820190508181036000830152614a5e81614227565b9050919050565b60006020820190508181036000830152614a7e8161428d565b9050919050565b60006020820190508181036000830152614a9e816142f3565b9050919050565b60006020820190508181036000830152614abe81614333565b9050919050565b60006020820190508181036000830152614ade81614399565b9050919050565b60006020820190508181036000830152614afe816143d9565b9050919050565b60006020820190508181036000830152614b1e8161443f565b9050919050565b60006020820190508181036000830152614b3e816144a5565b9050919050565b60006020820190508181036000830152614b5e8161450b565b9050919050565b60006020820190508181036000830152614b7e81614571565b9050919050565b60006020820190508181036000830152614b9e81614617565b9050919050565b60006020820190508181036000830152614bbe81614697565b9050919050565b60006020820190508181036000830152614bdf81846146fd565b905092915050565b6000602082019050614bfc600083018461479d565b92915050565b6000604082019050614c17600083018561479d565b8181036020830152614c298184613d05565b90509392505050565b6000604051905081810181811067ffffffffffffffff82111715614c5957614c58615034565b5b8060405250919050565b600067ffffffffffffffff821115614c7e57614c7d615034565b5b601f19601f8301169050602081019050919050565b600067ffffffffffffffff821115614cae57614cad615034565b5b601f19601f8301169050602081019050919050565b6000819050602082019050919050565b600081519050919050565b600081519050919050565b600081519050919050565b6000602082019050919050565b600082825260208201905092915050565b600082825260208201905092915050565b600082825260208201905092915050565b600082825260208201905092915050565b600081905092915050565b6000614d5b82614eba565b9150614d6683614eba565b9250827fffffffffffffffffffffffffffffffffffffffffffffffffffffffffffffffff03821115614d9b57614d9a614fd6565b5b828201905092915050565b6000614db182614eba565b9150614dbc83614eba565b9250817fffffffffffffffffffffffffffffffffffffffffffffffffffffffffffffffff0483118215151615614df557614df4614fd6565b5b828202905092915050565b6000614e0b82614eba565b9150614e1683614eba565b925082821015614e2957614e28614fd6565b5b828203905092915050565b6000614e3f82614e9a565b9050919050565b6000614e5182614e9a565b9050919050565b60008115159050919050565b6000819050919050565b60007fffffffff0000000000000000000000000000000000000000000000000000000082169050919050565b600073ffffffffffffffffffffffffffffffffffffffff82169050919050565b6000819050919050565b60006bffffffffffffffffffffffff82169050919050565b6000614ee83683613842565b9050919050565b82818337600083830152505050565b60005b83811015614f1c578082015181840152602081019050614f01565b83811115614f2b576000848401525b50505050565b6000614f3c82614eba565b91506000821415614f5057614f4f614fd6565b5b600182039050919050565b60006002820490506001821680614f7357607f821691505b60208210811415614f8757614f86615005565b5b50919050565b6000614f9882614eba565b91507fffffffffffffffffffffffffffffffffffffffffffffffffffffffffffffffff821415614fcb57614fca614fd6565b5b600182019050919050565b7f4e487b7100000000000000000000000000000000000000000000000000000000600052601160045260246000fd5b7f4e487b7100000000000000000000000000000000000000000000000000000000600052602260045260246000fd5b7f4e487b7100000000000000000000000000000000000000000000000000000000600052604160045260246000fd5b6000601f19601f8301169050919050565b61507d81614e34565b811461508857600080fd5b50565b61509481614e46565b811461509f57600080fd5b50565b6150ab81614e58565b81146150b657600080fd5b50565b6150c281614e64565b81146150cd57600080fd5b50565b6150d981614e6e565b81146150e457600080fd5b50565b6150f081614eba565b81146150fb57600080fd5b50565b61510781614ec4565b811461511257600080fd5b5056fea2646970667358221220b094d8382116026f8d44178a7138eb91b778530d77e2de4a909332ea1536d01d64736f6c63430008000033",
  "deployedBytecode": "0x608060405234801561001057600080fd5b50600436106101da5760003560e01c806370a0823111610104578063a22cb465116100a2578063cad96cca11610071578063cad96cca1461058b578063d547741f146105bb578063e985e9c5146105d7578063f2fde38b14610607576101da565b8063a22cb465146104f3578063b88d4fde1461050f578063c87b56dd1461052b578063ca15c8731461055b576101da565b80639010d07c116100de5780639010d07c1461045757806391d148541461048757806395d89b41146104b7578063a217fddf146104d5576101da565b806370a08231146103ff578063715018a61461042f5780638da5cb5b14610439576101da565b8063248a9ca31161017c57806336568abe1161014b57806336568abe1461036757806342842e0e146103835780634f6ccce71461039f5780636352211e146103cf576101da565b8063248a9ca3146102cf5780632d4cec45146102ff5780632f2ff15d1461031b5780632f745c5914610337576101da565b8063095ea7b3116101b8578063095ea7b31461025d578063143094db1461027957806318160ddd1461029557806323b872dd146102b3576101da565b806301ffc9a7146101df57806306fdde031461020f578063081812fc1461022d575b600080fd5b6101f960048036038101906101f49190613bc4565b610623565b604051610206919061488d565b60405180910390f35b61021761068c565b60405161022491906148c3565b60405180910390f35b61024760048036038101906102429190613c57565b61071e565b6040516102549190614804565b60405180910390f35b61027760048036038101906102729190613ae7565b6107a3565b005b610293600480360381019061028e9190613c80565b6108bb565b005b61029d610aa8565b6040516102aa9190614be7565b60405180910390f35b6102cd60048036038101906102c8919061398d565b610ab5565b005b6102e960048036038101906102e49190613b23565b610b15565b6040516102f691906148a8565b60405180910390f35b61031960048036038101906103149190613a93565b610b35565b005b61033560048036038101906103309190613b4c565b610c45565b005b610351600480360381019061034c9190613ae7565b610c79565b60405161035e9190614be7565b60405180910390f35b610381600480360381019061037c9190613b4c565b610d1e565b005b61039d6004803603810190610398919061398d565b610d52565b005b6103b960048036038101906103b49190613c57565b610d72565b6040516103c69190614be7565b60405180910390f35b6103e960048036038101906103e49190613c57565b610e09565b6040516103f69190614804565b60405180910390f35b61041960048036038101906104149190613928565b610ebb565b6040516104269190614be7565b60405180910390f35b610437610f73565b005b610441610ffb565b60405161044e9190614804565b60405180910390f35b610471600480360381019061046c9190613b88565b611025565b60405161047e9190614804565b60405180910390f35b6104a1600480360381019061049c9190613b4c565b611054565b6040516104ae919061488d565b60405180910390f35b6104bf6110bf565b6040516104cc91906148c3565b60405180910390f35b6104dd611151565b6040516104ea91906148a8565b60405180910390f35b61050d60048036038101906105089190613a57565b611158565b005b610529600480360381019061052491906139dc565b6112d9565b005b61054560048036038101906105409190613c57565b61133b565b60405161055291906148c3565b60405180910390f35b61057560048036038101906105709190613b23565b6115af565b6040516105829190614be7565b60405180910390f35b6105a560048036038101906105a09190613c57565b6115d3565b6040516105b2919061486b565b60405180910390f35b6105d560048036038101906105d09190613b4c565b6116d5565b005b6105f160048036038101906105ec9190613951565b611709565b6040516105fe919061488d565b60405180910390f35b610621600480360381019061061c9190613928565b61179d565b005b600063cad96cca60e01b7bffffffffffffffffffffffffffffffffffffffffffffffffffffffff1916827bffffffffffffffffffffffffffffffffffffffffffffffffffffffff1916141561067b5760019050610687565b610684826118d3565b90505b919050565b60606000805461069b90614f5b565b80601f01602080910402602001604051908101604052809291908181526020018280546106c790614f5b565b80156107145780601f106106e957610100808354040283529160200191610714565b820191906000526020600020905b8154815290600101906020018083116106f757829003601f168201915b5050505050905090565b60006107298261194d565b610768576040517f08c379a000000000000000000000000000000000000000000000000000000000815260040161075f90614aa5565b60405180910390fd5b6004600083815260200190815260200160002060009054906101000a900473ffffffffffffffffffffffffffffffffffffffff169050919050565b60006107ae82610e09565b90508073ffffffffffffffffffffffffffffffffffffffff168373ffffffffffffffffffffffffffffffffffffffff16141561081f576040517f08c379a000000000000000000000000000000000000000000000000000000000815260040161081690614b05565b60405180910390fd5b8073ffffffffffffffffffffffffffffffffffffffff1661083e6119b9565b73ffffffffffffffffffffffffffffffffffffffff16148061086d575061086c816108676119b9565b611709565b5b6108ac576040517f08c379a00000000000000000000000000000000000000000000000000000000081526004016108a390614a25565b60405180910390fd5b6108b683836119c1565b505050565b6108c36119b9565b73ffffffffffffffffffffffffffffffffffffffff166108e1610ffb565b73ffffffffffffffffffffffffffffffffffffffff1614610937576040517f08c379a000000000000000000000000000000000000000000000000000000000815260040161092e90614ac5565b60405180910390fd5b6000600167ffffffffffffffff81111561097a577f4e487b7100000000000000000000000000000000000000000000000000000000600052604160045260246000fd5b6040519080825280602002602001820160405280156109b357816020015b6109a0613590565b8152602001906001900390816109985790505b50905081816000815181106109f1577f4e487b7100000000000000000000000000000000000000000000000000000000600052603260045260246000fd5b6020026020010151602001906bffffffffffffffffffffffff1690816bffffffffffffffffffffffff16815250508281600081518110610a5a577f4e487b7100000000000000000000000000000000000000000000000000000000600052603260045260246000fd5b60200260200101516000019073ffffffffffffffffffffffffffffffffffffffff16908173ffffffffffffffffffffffffffffffffffffffff1681525050610aa28482611a7a565b50505050565b6000600880549050905090565b610ac6610ac06119b9565b82611d95565b610b05576040517f08c379a0000000000000000000000000000000000000000000000000000000008152600401610afc90614b25565b60405180910390fd5b610b10838383611e73565b505050565b6000600c6000838152602001908152602001600020600101549050919050565b610b496000801b610b446119b9565b611054565b610b88576040517f08c379a0000000000000000000000000000000000000000000000000000000008152600401610b7f90614a05565b60405180910390fd5b600081610b9490614edc565b9050600f5481600001818152505080600e6000600f548152602001908152602001600020600082015181600001556020820151816001019080519060200190610bde9291906135ce565b506040820151816002019080519060200190610bfb9291906135ce565b506060820151816003019080519060200190610c189291906135ce565b50905050610c2883600f546120cf565b600f6000815480929190610c3b90614f8d565b9190505550505050565b610c4f828261229d565b610c7481600d60008581526020019081526020016000206118a390919063ffffffff16565b505050565b6000610c8483610ebb565b8210610cc5576040517f08c379a0000000000000000000000000000000000000000000000000000000008152600401610cbc90614905565b60405180910390fd5b600660008473ffffffffffffffffffffffffffffffffffffffff1673ffffffffffffffffffffffffffffffffffffffff168152602001908152602001600020600083815260200190815260200160002054905092915050565b610d2882826122c6565b610d4d81600d600085815260200190815260200160002061234990919063ffffffff16565b505050565b610d6d838383604051806020016040528060008152506112d9565b505050565b6000610d7c610aa8565b8210610dbd576040517f08c379a0000000000000000000000000000000000000000000000000000000008152600401610db490614b45565b60405180910390fd5b60088281548110610df7577f4e487b7100000000000000000000000000000000000000000000000000000000600052603260045260246000fd5b90600052602060002001549050919050565b6000806002600084815260200190815260200160002060009054906101000a900473ffffffffffffffffffffffffffffffffffffffff169050600073ffffffffffffffffffffffffffffffffffffffff168173ffffffffffffffffffffffffffffffffffffffff161415610eb2576040517f08c379a0000000000000000000000000000000000000000000000000000000008152600401610ea990614a65565b60405180910390fd5b80915050919050565b60008073ffffffffffffffffffffffffffffffffffffffff168273ffffffffffffffffffffffffffffffffffffffff161415610f2c576040517f08c379a0000000000000000000000000000000000000000000000000000000008152600401610f2390614a45565b60405180910390fd5b600360008373ffffffffffffffffffffffffffffffffffffffff1673ffffffffffffffffffffffffffffffffffffffff168152602001908152602001600020549050919050565b610f7b6119b9565b73ffffffffffffffffffffffffffffffffffffffff16610f99610ffb565b73ffffffffffffffffffffffffffffffffffffffff1614610fef576040517f08c379a0000000000000000000000000000000000000000000000000000000008152600401610fe690614ac5565b60405180910390fd5b610ff96000612379565b565b6000600a60009054906101000a900473ffffffffffffffffffffffffffffffffffffffff16905090565b600061104c82600d600086815260200190815260200160002061243f90919063ffffffff16565b905092915050565b6000600c600084815260200190815260200160002060000160008373ffffffffffffffffffffffffffffffffffffffff1673ffffffffffffffffffffffffffffffffffffffff16815260200190815260200160002060009054906101000a900460ff16905092915050565b6060600180546110ce90614f5b565b80601f01602080910402602001604051908101604052809291908181526020018280546110fa90614f5b565b80156111475780601f1061111c57610100808354040283529160200191611147565b820191906000526020600020905b81548152906001019060200180831161112a57829003601f168201915b5050505050905090565b6000801b81565b6111606119b9565b73ffffffffffffffffffffffffffffffffffffffff168273ffffffffffffffffffffffffffffffffffffffff1614156111ce576040517f08c379a00000000000000000000000000000000000000000000000000000000081526004016111c5906149a5565b60405180910390fd5b80600560006111db6119b9565b73ffffffffffffffffffffffffffffffffffffffff1673ffffffffffffffffffffffffffffffffffffffff16815260200190815260200160002060008473ffffffffffffffffffffffffffffffffffffffff1673ffffffffffffffffffffffffffffffffffffffff16815260200190815260200160002060006101000a81548160ff0219169083151502179055508173ffffffffffffffffffffffffffffffffffffffff166112886119b9565b73ffffffffffffffffffffffffffffffffffffffff167f17307eab39ab6107e8899845ad3d59bd9653f200f220920489ca2b5937696c31836040516112cd919061488d565b60405180910390a35050565b6112ea6112e46119b9565b83611d95565b611329576040517f08c379a000000000000000000000000000000000000000000000000000000000815260040161132090614b25565b60405180910390fd5b61133584848484612459565b50505050565b6060600e60008381526020019081526020016000206040518060800160405290816000820154815260200160018201805461137590614f5b565b80601f01602080910402602001604051908101604052809291908181526020018280546113a190614f5b565b80156113ee5780601f106113c3576101008083540402835291602001916113ee565b820191906000526020600020905b8154815290600101906020018083116113d157829003601f168201915b5050505050815260200160028201805461140790614f5b565b80601f016020809104026020016040519081016040528092919081815260200182805461143390614f5b565b80156114805780601f1061145557610100808354040283529160200191611480565b820191906000526020600020905b81548152906001019060200180831161146357829003601f168201915b5050505050815260200160038201805461149990614f5b565b80601f01602080910402602001604051908101604052809291908181526020018280546114c590614f5b565b80156115125780601f106114e757610100808354040283529160200191611512565b820191906000526020600020905b8154815290600101906020018083116114f557829003601f168201915b50505050508152505073__$9185f4f4d5ccf565a43404fb3be44cd50b$__63c49917d790916040518263ffffffff1660e01b81526004016115539190614bc5565b60006040518083038186803b15801561156b57600080fd5b505af415801561157f573d6000803e3d6000fd5b505050506040513d6000823e3d601f19601f820116820180604052508101906115a89190613c16565b9050919050565b60006115cc600d60008481526020019081526020016000206124b5565b9050919050565b6060600b6000838152602001908152602001600020805480602002602001604051908101604052809291908181526020016000905b828210156116ca578382906000526020600020016040518060400160405290816000820160009054906101000a900473ffffffffffffffffffffffffffffffffffffffff1673ffffffffffffffffffffffffffffffffffffffff1673ffffffffffffffffffffffffffffffffffffffff1681526020016000820160149054906101000a90046bffffffffffffffffffffffff166bffffffffffffffffffffffff166bffffffffffffffffffffffff168152505081526020019060010190611608565b505050509050919050565b6116df82826124ca565b61170481600d600085815260200190815260200160002061234990919063ffffffff16565b505050565b6000600560008473ffffffffffffffffffffffffffffffffffffffff1673ffffffffffffffffffffffffffffffffffffffff16815260200190815260200160002060008373ffffffffffffffffffffffffffffffffffffffff1673ffffffffffffffffffffffffffffffffffffffff16815260200190815260200160002060009054906101000a900460ff16905092915050565b6117a56119b9565b73ffffffffffffffffffffffffffffffffffffffff166117c3610ffb565b73ffffffffffffffffffffffffffffffffffffffff1614611819576040517f08c379a000000000000000000000000000000000000000000000000000000000815260040161181090614ac5565b60405180910390fd5b600073ffffffffffffffffffffffffffffffffffffffff168173ffffffffffffffffffffffffffffffffffffffff161415611889576040517f08c379a000000000000000000000000000000000000000000000000000000000815260040161188090614945565b60405180910390fd5b61189281612379565b50565b61189f82826124f3565b5050565b60006118cb836000018373ffffffffffffffffffffffffffffffffffffffff1660001b6125d4565b905092915050565b60007f5a05180f000000000000000000000000000000000000000000000000000000007bffffffffffffffffffffffffffffffffffffffffffffffffffffffff1916827bffffffffffffffffffffffffffffffffffffffffffffffffffffffff19161480611946575061194582612644565b5b9050919050565b60008073ffffffffffffffffffffffffffffffffffffffff166002600084815260200190815260200160002060009054906101000a900473ffffffffffffffffffffffffffffffffffffffff1673ffffffffffffffffffffffffffffffffffffffff1614159050919050565b600033905090565b816004600083815260200190815260200160002060006101000a81548173ffffffffffffffffffffffffffffffffffffffff021916908373ffffffffffffffffffffffffffffffffffffffff160217905550808273ffffffffffffffffffffffffffffffffffffffff16611a3483610e09565b73ffffffffffffffffffffffffffffffffffffffff167f8c5be1e5ebec7d5bd14f71427d1e84f3dd0314c0f7b2291e5b200ac8c7c3b92560405160405180910390a45050565b600080600090505b8251811015611d4157600073ffffffffffffffffffffffffffffffffffffffff16838281518110611adc577f4e487b7100000000000000000000000000000000000000000000000000000000600052603260045260246000fd5b60200260200101516000015173ffffffffffffffffffffffffffffffffffffffff161415611b3f576040517f08c379a0000000000000000000000000000000000000000000000000000000008152600401611b3690614b85565b60405180910390fd5b6000838281518110611b7a577f4e487b7100000000000000000000000000000000000000000000000000000000600052603260045260246000fd5b6020026020010151602001516bffffffffffffffffffffffff161415611bd5576040517f08c379a0000000000000000000000000000000000000000000000000000000008152600401611bcc906149e5565b60405180910390fd5b828181518110611c0e577f4e487b7100000000000000000000000000000000000000000000000000000000600052603260045260246000fd5b6020026020010151602001516bffffffffffffffffffffffff1682611c339190614d50565b9150600b6000858152602001908152602001600020838281518110611c81577f4e487b7100000000000000000000000000000000000000000000000000000000600052603260045260246000fd5b60200260200101519080600181540180825580915050600190039060005260206000200160009091909190915060008201518160000160006101000a81548173ffffffffffffffffffffffffffffffffffffffff021916908373ffffffffffffffffffffffffffffffffffffffff16021790555060208201518160000160146101000a8154816bffffffffffffffffffffffff02191690836bffffffffffffffffffffffff16021790555050508080611d3990614f8d565b915050611a82565b506127108110611d86576040517f08c379a0000000000000000000000000000000000000000000000000000000008152600401611d7d90614b65565b60405180910390fd5b611d9083836126be565b505050565b6000611da08261194d565b611ddf576040517f08c379a0000000000000000000000000000000000000000000000000000000008152600401611dd6906149c5565b60405180910390fd5b6000611dea83610e09565b90508073ffffffffffffffffffffffffffffffffffffffff168473ffffffffffffffffffffffffffffffffffffffff161480611e5957508373ffffffffffffffffffffffffffffffffffffffff16611e418461071e565b73ffffffffffffffffffffffffffffffffffffffff16145b80611e6a5750611e698185611709565b5b91505092915050565b8273ffffffffffffffffffffffffffffffffffffffff16611e9382610e09565b73ffffffffffffffffffffffffffffffffffffffff1614611ee9576040517f08c379a0000000000000000000000000000000000000000000000000000000008152600401611ee090614ae5565b60405180910390fd5b600073ffffffffffffffffffffffffffffffffffffffff168273ffffffffffffffffffffffffffffffffffffffff161415611f59576040517f08c379a0000000000000000000000000000000000000000000000000000000008152600401611f5090614985565b60405180910390fd5b611f648383836126fb565b611f6f6000826119c1565b6001600360008573ffffffffffffffffffffffffffffffffffffffff1673ffffffffffffffffffffffffffffffffffffffff1681526020019081526020016000206000828254611fbf9190614e00565b925050819055506001600360008473ffffffffffffffffffffffffffffffffffffffff1673ffffffffffffffffffffffffffffffffffffffff16815260200190815260200160002060008282546120169190614d50565b92505081905550816002600083815260200190815260200160002060006101000a81548173ffffffffffffffffffffffffffffffffffffffff021916908373ffffffffffffffffffffffffffffffffffffffff160217905550808273ffffffffffffffffffffffffffffffffffffffff168473ffffffffffffffffffffffffffffffffffffffff167fddf252ad1be2c89b69c2b068fc378daa952ba7f163c4a11628f55a4df523b3ef60405160405180910390a4505050565b600073ffffffffffffffffffffffffffffffffffffffff168273ffffffffffffffffffffffffffffffffffffffff16141561213f576040517f08c379a000000000000000000000000000000000000000000000000000000000815260040161213690614a85565b60405180910390fd5b6121488161194d565b15612188576040517f08c379a000000000000000000000000000000000000000000000000000000000815260040161217f90614965565b60405180910390fd5b612194600083836126fb565b6001600360008473ffffffffffffffffffffffffffffffffffffffff1673ffffffffffffffffffffffffffffffffffffffff16815260200190815260200160002060008282546121e49190614d50565b92505081905550816002600083815260200190815260200160002060006101000a81548173ffffffffffffffffffffffffffffffffffffffff021916908373ffffffffffffffffffffffffffffffffffffffff160217905550808273ffffffffffffffffffffffffffffffffffffffff16600073ffffffffffffffffffffffffffffffffffffffff167fddf252ad1be2c89b69c2b068fc378daa952ba7f163c4a11628f55a4df523b3ef60405160405180910390a45050565b6122a682610b15565b6122b7816122b26119b9565b61270b565b6122c183836124f3565b505050565b6122ce6119b9565b73ffffffffffffffffffffffffffffffffffffffff168173ffffffffffffffffffffffffffffffffffffffff161461233b576040517f08c379a000000000000000000000000000000000000000000000000000000000815260040161233290614ba5565b60405180910390fd5b61234582826127a8565b5050565b6000612371836000018373ffffffffffffffffffffffffffffffffffffffff1660001b61288a565b905092915050565b6000600a60009054906101000a900473ffffffffffffffffffffffffffffffffffffffff16905081600a60006101000a81548173ffffffffffffffffffffffffffffffffffffffff021916908373ffffffffffffffffffffffffffffffffffffffff1602179055508173ffffffffffffffffffffffffffffffffffffffff168173ffffffffffffffffffffffffffffffffffffffff167f8be0079c531659141344cd1fd0a4f28419497f9722a3daafe3b4186f6b6457e060405160405180910390a35050565b600061244e8360000183612a10565b60001c905092915050565b612464848484611e73565b61247084848484612a61565b6124af576040517f08c379a00000000000000000000000000000000000000000000000000000000081526004016124a690614925565b60405180910390fd5b50505050565b60006124c382600001612bf8565b9050919050565b6124d382610b15565b6124e4816124df6119b9565b61270b565b6124ee83836127a8565b505050565b6124fd8282611054565b6125d0576001600c600084815260200190815260200160002060000160008373ffffffffffffffffffffffffffffffffffffffff1673ffffffffffffffffffffffffffffffffffffffff16815260200190815260200160002060006101000a81548160ff0219169083151502179055506125756119b9565b73ffffffffffffffffffffffffffffffffffffffff168173ffffffffffffffffffffffffffffffffffffffff16837f2f8788117e7eff1d82e926ec794901d17c78024a50270940304540a733656f0d60405160405180910390a45b5050565b60006125e08383612c09565b61263957826000018290806001815401808255809150506001900390600052602060002001600090919091909150558260000180549050836001016000848152602001908152602001600020819055506001905061263e565b600090505b92915050565b60007f7965db0b000000000000000000000000000000000000000000000000000000007bffffffffffffffffffffffffffffffffffffffffffffffffffffffff1916827bffffffffffffffffffffffffffffffffffffffffffffffffffffffff191614806126b757506126b682612c2c565b5b9050919050565b7f3fa96d7b6bcbfe71ef171666d84db3cf52fa2d1c8afdb1cc8e486177f208b7df82826040516126ef929190614c02565b60405180910390a15050565b612706838383612ca6565b505050565b6127158282611054565b6127a45761273a8173ffffffffffffffffffffffffffffffffffffffff166014612dba565b6127488360001c6020612dba565b6040516020016127599291906147ca565b6040516020818303038152906040526040517f08c379a000000000000000000000000000000000000000000000000000000000815260040161279b91906148c3565b60405180910390fd5b5050565b6127b28282611054565b15612886576000600c600084815260200190815260200160002060000160008373ffffffffffffffffffffffffffffffffffffffff1673ffffffffffffffffffffffffffffffffffffffff16815260200190815260200160002060006101000a81548160ff02191690831515021790555061282b6119b9565b73ffffffffffffffffffffffffffffffffffffffff168173ffffffffffffffffffffffffffffffffffffffff16837ff6391f5c32d9c69d2a47ea670b442974b53935d1edc7fd64eb21e047a839171b60405160405180910390a45b5050565b60008083600101600084815260200190815260200160002054905060008114612a045760006001826128bc9190614e00565b90506000600186600001805490506128d49190614e00565b905081811461298f57600086600001828154811061291b577f4e487b7100000000000000000000000000000000000000000000000000000000600052603260045260246000fd5b9060005260206000200154905080876000018481548110612965577f4e487b7100000000000000000000000000000000000000000000000000000000600052603260045260246000fd5b90600052602060002001819055508387600101600083815260200190815260200160002081905550505b856000018054806129c9577f4e487b7100000000000000000000000000000000000000000000000000000000600052603160045260246000fd5b600190038181906000526020600020016000905590558560010160008681526020019081526020016000206000905560019350505050612a0a565b60009150505b92915050565b6000826000018281548110612a4e577f4e487b7100000000000000000000000000000000000000000000000000000000600052603260045260246000fd5b9060005260206000200154905092915050565b6000612a828473ffffffffffffffffffffffffffffffffffffffff166130b4565b15612beb578373ffffffffffffffffffffffffffffffffffffffff1663150b7a02612aab6119b9565b8786866040518563ffffffff1660e01b8152600401612acd949392919061481f565b602060405180830381600087803b158015612ae757600080fd5b505af1925050508015612b1857506040513d601f19601f82011682018060405250810190612b159190613bed565b60015b612b9b573d8060008114612b48576040519150601f19603f3d011682016040523d82523d6000602084013e612b4d565b606091505b50600081511415612b93576040517f08c379a0000000000000000000000000000000000000000000000000000000008152600401612b8a90614925565b60405180910390fd5b805181602001fd5b63150b7a0260e01b7bffffffffffffffffffffffffffffffffffffffffffffffffffffffff1916817bffffffffffffffffffffffffffffffffffffffffffffffffffffffff191614915050612bf0565b600190505b949350505050565b600081600001805490509050919050565b600080836001016000848152602001908152602001600020541415905092915050565b60007f780e9d63000000000000000000000000000000000000000000000000000000007bffffffffffffffffffffffffffffffffffffffffffffffffffffffff1916827bffffffffffffffffffffffffffffffffffffffffffffffffffffffff19161480612c9f5750612c9e826130c7565b5b9050919050565b612cb18383836131a9565b600073ffffffffffffffffffffffffffffffffffffffff168373ffffffffffffffffffffffffffffffffffffffff161415612cf457612cef816131ae565b612d33565b8173ffffffffffffffffffffffffffffffffffffffff168373ffffffffffffffffffffffffffffffffffffffff1614612d3257612d3183826131f7565b5b5b600073ffffffffffffffffffffffffffffffffffffffff168273ffffffffffffffffffffffffffffffffffffffff161415612d7657612d7181613364565b612db5565b8273ffffffffffffffffffffffffffffffffffffffff168273ffffffffffffffffffffffffffffffffffffffff1614612db457612db382826134a7565b5b5b505050565b606060006002836002612dcd9190614da6565b612dd79190614d50565b67ffffffffffffffff811115612e16577f4e487b7100000000000000000000000000000000000000000000000000000000600052604160045260246000fd5b6040519080825280601f01601f191660200182016040528015612e485781602001600182028036833780820191505090505b5090507f300000000000000000000000000000000000000000000000000000000000000081600081518110612ea6577f4e487b7100000000000000000000000000000000000000000000000000000000600052603260045260246000fd5b60200101907effffffffffffffffffffffffffffffffffffffffffffffffffffffffffffff1916908160001a9053507f780000000000000000000000000000000000000000000000000000000000000081600181518110612f30577f4e487b7100000000000000000000000000000000000000000000000000000000600052603260045260246000fd5b60200101907effffffffffffffffffffffffffffffffffffffffffffffffffffffffffffff1916908160001a90535060006001846002612f709190614da6565b612f7a9190614d50565b90505b6001811115613066577f3031323334353637383961626364656600000000000000000000000000000000600f861660108110612fe2577f4e487b7100000000000000000000000000000000000000000000000000000000600052603260045260246000fd5b1a60f81b82828151811061301f577f4e487b7100000000000000000000000000000000000000000000000000000000600052603260045260246000fd5b60200101907effffffffffffffffffffffffffffffffffffffffffffffffffffffffffffff1916908160001a905350600485901c94508061305f90614f31565b9050612f7d565b50600084146130aa576040517f08c379a00000000000000000000000000000000000000000000000000000000081526004016130a1906148e5565b60405180910390fd5b8091505092915050565b600080823b905060008111915050919050565b60007f80ac58cd000000000000000000000000000000000000000000000000000000007bffffffffffffffffffffffffffffffffffffffffffffffffffffffff1916827bffffffffffffffffffffffffffffffffffffffffffffffffffffffff1916148061319257507f5b5e139f000000000000000000000000000000000000000000000000000000007bffffffffffffffffffffffffffffffffffffffffffffffffffffffff1916827bffffffffffffffffffffffffffffffffffffffffffffffffffffffff1916145b806131a257506131a182613526565b5b9050919050565b505050565b6008805490506009600083815260200190815260200160002081905550600881908060018154018082558091505060019003906000526020600020016000909190919091505550565b6000600161320484610ebb565b61320e9190614e00565b90506000600760008481526020019081526020016000205490508181146132f3576000600660008673ffffffffffffffffffffffffffffffffffffffff1673ffffffffffffffffffffffffffffffffffffffff168152602001908152602001600020600084815260200190815260200160002054905080600660008773ffffffffffffffffffffffffffffffffffffffff1673ffffffffffffffffffffffffffffffffffffffff168152602001908152602001600020600084815260200190815260200160002081905550816007600083815260200190815260200160002081905550505b6007600084815260200190815260200160002060009055600660008573ffffffffffffffffffffffffffffffffffffffff1673ffffffffffffffffffffffffffffffffffffffff16815260200190815260200160002060008381526020019081526020016000206000905550505050565b600060016008805490506133789190614e00565b90506000600960008481526020019081526020016000205490506000600883815481106133ce577f4e487b7100000000000000000000000000000000000000000000000000000000600052603260045260246000fd5b906000526020600020015490508060088381548110613416577f4e487b7100000000000000000000000000000000000000000000000000000000600052603260045260246000fd5b90600052602060002001819055508160096000838152602001908152602001600020819055506009600085815260200190815260200160002060009055600880548061348b577f4e487b7100000000000000000000000000000000000000000000000000000000600052603160045260246000fd5b6001900381819060005260206000200160009055905550505050565b60006134b283610ebb565b905081600660008573ffffffffffffffffffffffffffffffffffffffff1673ffffffffffffffffffffffffffffffffffffffff168152602001908152602001600020600083815260200190815260200160002081905550806007600084815260200190815260200160002081905550505050565b60007f01ffc9a7000000000000000000000000000000000000000000000000000000007bffffffffffffffffffffffffffffffffffffffffffffffffffffffff1916827bffffffffffffffffffffffffffffffffffffffffffffffffffffffff1916149050919050565b6040518060400160405280600073ffffffffffffffffffffffffffffffffffffffff16815260200160006bffffffffffffffffffffffff1681525090565b8280546135da90614f5b565b90600052602060002090601f0160209004810192826135fc5760008555613643565b82601f1061361557805160ff1916838001178555613643565b82800160010185558215613643579182015b82811115613642578251825591602001919060010190613627565b5b5090506136509190613654565b5090565b5b8082111561366d576000816000905550600101613655565b5090565b600061368461367f84614c63565b614c32565b90508281526020810184848401111561369c57600080fd5b6136a7848285614eef565b509392505050565b60006136c26136bd84614c93565b614c32565b9050828152602081018484840111156136da57600080fd5b6136e5848285614eef565b509392505050565b60006137006136fb84614c93565b614c32565b90508281526020810184848401111561371857600080fd5b613723848285614efe565b509392505050565b60008135905061373a81615074565b92915050565b60008135905061374f8161508b565b92915050565b600081359050613764816150a2565b92915050565b600081359050613779816150b9565b92915050565b60008135905061378e816150d0565b92915050565b6000815190506137a3816150d0565b92915050565b600082601f8301126137ba57600080fd5b81356137ca848260208601613671565b91505092915050565b600082601f8301126137e457600080fd5b81356137f48482602086016136af565b91505092915050565b600082601f83011261380e57600080fd5b815161381e8482602086016136ed565b91505092915050565b60006080828403121561383957600080fd5b81905092915050565b60006080828403121561385457600080fd5b61385e6080614c32565b9050600061386e848285016138fe565b600083015250602082013567ffffffffffffffff81111561388e57600080fd5b61389a848285016137d3565b602083015250604082013567ffffffffffffffff8111156138ba57600080fd5b6138c6848285016137d3565b604083015250606082013567ffffffffffffffff8111156138e657600080fd5b6138f2848285016137d3565b60608301525092915050565b60008135905061390d816150e7565b92915050565b600081359050613922816150fe565b92915050565b60006020828403121561393a57600080fd5b60006139488482850161372b565b91505092915050565b6000806040838503121561396457600080fd5b60006139728582860161372b565b92505060206139838582860161372b565b9150509250929050565b6000806000606084860312156139a257600080fd5b60006139b08682870161372b565b93505060206139c18682870161372b565b92505060406139d2868287016138fe565b9150509250925092565b600080600080608085870312156139f257600080fd5b6000613a008782880161372b565b9450506020613a118782880161372b565b9350506040613a22878288016138fe565b925050606085013567ffffffffffffffff811115613a3f57600080fd5b613a4b878288016137a9565b91505092959194509250565b60008060408385031215613a6a57600080fd5b6000613a788582860161372b565b9250506020613a8985828601613755565b9150509250929050565b60008060408385031215613aa657600080fd5b6000613ab48582860161372b565b925050602083013567ffffffffffffffff811115613ad157600080fd5b613add85828601613827565b9150509250929050565b60008060408385031215613afa57600080fd5b6000613b088582860161372b565b9250506020613b19858286016138fe565b9150509250929050565b600060208284031215613b3557600080fd5b6000613b438482850161376a565b91505092915050565b60008060408385031215613b5f57600080fd5b6000613b6d8582860161376a565b9250506020613b7e8582860161372b565b9150509250929050565b60008060408385031215613b9b57600080fd5b6000613ba98582860161376a565b9250506020613bba858286016138fe565b9150509250929050565b600060208284031215613bd657600080fd5b6000613be48482850161377f565b91505092915050565b600060208284031215613bff57600080fd5b6000613c0d84828501613794565b91505092915050565b600060208284031215613c2857600080fd5b600082015167ffffffffffffffff811115613c4257600080fd5b613c4e848285016137fd565b91505092915050565b600060208284031215613c6957600080fd5b6000613c77848285016138fe565b91505092915050565b600080600060608486031215613c9557600080fd5b6000613ca3868287016138fe565b9350506020613cb486828701613740565b9250506040613cc586828701613913565b9150509250925092565b6000613cdb838361476e565b60408301905092915050565b613cf081614e46565b82525050565b613cff81614e34565b82525050565b6000613d1082614cd3565b613d1a8185614d01565b9350613d2583614cc3565b8060005b83811015613d56578151613d3d8882613ccf565b9750613d4883614cf4565b925050600181019050613d29565b5085935050505092915050565b613d6c81614e58565b82525050565b613d7b81614e64565b82525050565b6000613d8c82614cde565b613d968185614d12565b9350613da6818560208601614efe565b613daf81615063565b840191505092915050565b6000613dc582614ce9565b613dcf8185614d23565b9350613ddf818560208601614efe565b613de881615063565b840191505092915050565b6000613dfe82614ce9565b613e088185614d34565b9350613e18818560208601614efe565b613e2181615063565b840191505092915050565b6000613e3782614ce9565b613e418185614d45565b9350613e51818560208601614efe565b80840191505092915050565b6000613e6a602083614d23565b91507f537472696e67733a20686578206c656e67746820696e73756666696369656e746000830152602082019050919050565b6000613eaa602b83614d23565b91507f455243373231456e756d657261626c653a206f776e657220696e646578206f7560008301527f74206f6620626f756e64730000000000000000000000000000000000000000006020830152604082019050919050565b6000613f10603283614d23565b91507f4552433732313a207472616e7366657220746f206e6f6e20455243373231526560008301527f63656976657220696d706c656d656e74657200000000000000000000000000006020830152604082019050919050565b6000613f76602683614d23565b91507f4f776e61626c653a206e6577206f776e657220697320746865207a65726f206160008301527f64647265737300000000000000000000000000000000000000000000000000006020830152604082019050919050565b6000613fdc601c83614d23565b91507f4552433732313a20746f6b656e20616c7265616479206d696e746564000000006000830152602082019050919050565b600061401c602483614d23565b91507f4552433732313a207472616e7366657220746f20746865207a65726f2061646460008301527f72657373000000000000000000000000000000000000000000000000000000006020830152604082019050919050565b6000614082601983614d23565b91507f4552433732313a20617070726f766520746f2063616c6c6572000000000000006000830152602082019050919050565b60006140c2602c83614d23565b91507f4552433732313a206f70657261746f7220717565727920666f72206e6f6e657860008301527f697374656e7420746f6b656e00000000000000000000000000000000000000006020830152604082019050919050565b6000614128602083614d23565b91507f526f79616c74792076616c75652073686f756c6420626520706f7369746976656000830152602082019050919050565b6000614168602483614d23565b91507f4552433732313a206d75737420686176652061646d696e20726f6c6520746f2060008301527f6d696e74000000000000000000000000000000000000000000000000000000006020830152604082019050919050565b60006141ce603883614d23565b91507f4552433732313a20617070726f76652063616c6c6572206973206e6f74206f7760008301527f6e6572206e6f7220617070726f76656420666f7220616c6c00000000000000006020830152604082019050919050565b6000614234602a83614d23565b91507f4552433732313a2062616c616e636520717565727920666f7220746865207a6560008301527f726f2061646472657373000000000000000000000000000000000000000000006020830152604082019050919050565b600061429a602983614d23565b91507f4552433732313a206f776e657220717565727920666f72206e6f6e657869737460008301527f656e7420746f6b656e00000000000000000000000000000000000000000000006020830152604082019050919050565b6000614300602083614d23565b91507f4552433732313a206d696e7420746f20746865207a65726f20616464726573736000830152602082019050919050565b6000614340602c83614d23565b91507f4552433732313a20617070726f76656420717565727920666f72206e6f6e657860008301527f697374656e7420746f6b656e00000000000000000000000000000000000000006020830152604082019050919050565b60006143a6602083614d23565b91507f4f776e61626c653a2063616c6c6572206973206e6f7420746865206f776e65726000830152602082019050919050565b60006143e6602983614d23565b91507f4552433732313a207472616e73666572206f6620746f6b656e2074686174206960008301527f73206e6f74206f776e00000000000000000000000000000000000000000000006020830152604082019050919050565b600061444c602183614d23565b91507f4552433732313a20617070726f76616c20746f2063757272656e74206f776e6560008301527f72000000000000000000000000000000000000000000000000000000000000006020830152604082019050919050565b60006144b2603183614d23565b91507f4552433732313a207472616e736665722063616c6c6572206973206e6f74206f60008301527f776e6572206e6f7220617070726f7665640000000000000000000000000000006020830152604082019050919050565b6000614518602c83614d23565b91507f455243373231456e756d657261626c653a20676c6f62616c20696e646578206f60008301527f7574206f6620626f756e647300000000000000000000000000000000000000006020830152604082019050919050565b600061457e602583614d23565b91507f526f79616c747920746f74616c2076616c75652073686f756c64206265203c2060008301527f31303030300000000000000000000000000000000000000000000000000000006020830152604082019050919050565b60006145e4601783614d45565b91507f416363657373436f6e74726f6c3a206163636f756e74200000000000000000006000830152601782019050919050565b6000614624601b83614d23565b91507f526563697069656e742073686f756c642062652070726573656e7400000000006000830152602082019050919050565b6000614664601183614d45565b91507f206973206d697373696e6720726f6c65200000000000000000000000000000006000830152601182019050919050565b60006146a4602f83614d23565b91507f416363657373436f6e74726f6c3a2063616e206f6e6c792072656e6f756e636560008301527f20726f6c657320666f722073656c6600000000000000000000000000000000006020830152604082019050919050565b600060808301600083015161471560008601826147ac565b506020830151848203602086015261472d8282613df3565b915050604083015184820360408601526147478282613df3565b915050606083015184820360608601526147618282613df3565b9150508091505092915050565b6040820160008201516147846000850182613ce7565b50602082015161479760208501826147bb565b50505050565b6147a681614eba565b82525050565b6147b581614eba565b82525050565b6147c481614ec4565b82525050565b60006147d5826145d7565b91506147e18285613e2c565b91506147ec82614657565b91506147f88284613e2c565b91508190509392505050565b60006020820190506148196000830184613cf6565b92915050565b60006080820190506148346000830187613cf6565b6148416020830186613cf6565b61484e604083018561479d565b81810360608301526148608184613d81565b905095945050505050565b600060208201905081810360008301526148858184613d05565b905092915050565b60006020820190506148a26000830184613d63565b92915050565b60006020820190506148bd6000830184613d72565b92915050565b600060208201905081810360008301526148dd8184613dba565b905092915050565b600060208201905081810360008301526148fe81613e5d565b9050919050565b6000602082019050818103600083015261491e81613e9d565b9050919050565b6000602082019050818103600083015261493e81613f03565b9050919050565b6000602082019050818103600083015261495e81613f69565b9050919050565b6000602082019050818103600083015261497e81613fcf565b9050919050565b6000602082019050818103600083015261499e8161400f565b9050919050565b600060208201905081810360008301526149be81614075565b9050919050565b600060208201905081810360008301526149de816140b5565b9050919050565b600060208201905081810360008301526149fe8161411b565b9050919050565b60006020820190508181036000830152614a1e8161415b565b9050919050565b60006020820190508181036000830152614a3e816141c1565b9050919050565b60006020820190508181036000830152614a5e81614227565b9050919050565b60006020820190508181036000830152614a7e8161428d565b9050919050565b60006020820190508181036000830152614a9e816142f3565b9050919050565b60006020820190508181036000830152614abe81614333565b9050919050565b60006020820190508181036000830152614ade81614399565b9050919050565b60006020820190508181036000830152614afe816143d9565b9050919050565b60006020820190508181036000830152614b1e8161443f565b9050919050565b60006020820190508181036000830152614b3e816144a5565b9050919050565b60006020820190508181036000830152614b5e8161450b565b9050919050565b60006020820190508181036000830152614b7e81614571565b9050919050565b60006020820190508181036000830152614b9e81614617565b9050919050565b60006020820190508181036000830152614bbe81614697565b9050919050565b60006020820190508181036000830152614bdf81846146fd565b905092915050565b6000602082019050614bfc600083018461479d565b92915050565b6000604082019050614c17600083018561479d565b8181036020830152614c298184613d05565b90509392505050565b6000604051905081810181811067ffffffffffffffff82111715614c5957614c58615034565b5b8060405250919050565b600067ffffffffffffffff821115614c7e57614c7d615034565b5b601f19601f8301169050602081019050919050565b600067ffffffffffffffff821115614cae57614cad615034565b5b601f19601f8301169050602081019050919050565b6000819050602082019050919050565b600081519050919050565b600081519050919050565b600081519050919050565b6000602082019050919050565b600082825260208201905092915050565b600082825260208201905092915050565b600082825260208201905092915050565b600082825260208201905092915050565b600081905092915050565b6000614d5b82614eba565b9150614d6683614eba565b9250827fffffffffffffffffffffffffffffffffffffffffffffffffffffffffffffffff03821115614d9b57614d9a614fd6565b5b828201905092915050565b6000614db182614eba565b9150614dbc83614eba565b9250817fffffffffffffffffffffffffffffffffffffffffffffffffffffffffffffffff0483118215151615614df557614df4614fd6565b5b828202905092915050565b6000614e0b82614eba565b9150614e1683614eba565b925082821015614e2957614e28614fd6565b5b828203905092915050565b6000614e3f82614e9a565b9050919050565b6000614e5182614e9a565b9050919050565b60008115159050919050565b6000819050919050565b60007fffffffff0000000000000000000000000000000000000000000000000000000082169050919050565b600073ffffffffffffffffffffffffffffffffffffffff82169050919050565b6000819050919050565b60006bffffffffffffffffffffffff82169050919050565b6000614ee83683613842565b9050919050565b82818337600083830152505050565b60005b83811015614f1c578082015181840152602081019050614f01565b83811115614f2b576000848401525b50505050565b6000614f3c82614eba565b91506000821415614f5057614f4f614fd6565b5b600182039050919050565b60006002820490506001821680614f7357607f821691505b60208210811415614f8757614f86615005565b5b50919050565b6000614f9882614eba565b91507fffffffffffffffffffffffffffffffffffffffffffffffffffffffffffffffff821415614fcb57614fca614fd6565b5b600182019050919050565b7f4e487b7100000000000000000000000000000000000000000000000000000000600052601160045260246000fd5b7f4e487b7100000000000000000000000000000000000000000000000000000000600052602260045260246000fd5b7f4e487b7100000000000000000000000000000000000000000000000000000000600052604160045260246000fd5b6000601f19601f8301169050919050565b61507d81614e34565b811461508857600080fd5b50565b61509481614e46565b811461509f57600080fd5b50565b6150ab81614e58565b81146150b657600080fd5b50565b6150c281614e64565b81146150cd57600080fd5b50565b6150d981614e6e565b81146150e457600080fd5b50565b6150f081614eba565b81146150fb57600080fd5b50565b61510781614ec4565b811461511257600080fd5b5056fea2646970667358221220b094d8382116026f8d44178a7138eb91b778530d77e2de4a909332ea1536d01d64736f6c63430008000033",
  "libraries": {
    "NFTDescriptor": "0x7Df058B22e614aCF49E2d687EC3BA2cCDD6DFBc7"
  },
  "devdoc": {
    "kind": "dev",
    "methods": {
      "approve(address,uint256)": {
        "details": "See {IERC721-approve}."
      },
      "balanceOf(address)": {
        "details": "See {IERC721-balanceOf}."
      },
      "getApproved(uint256)": {
        "details": "See {IERC721-getApproved}."
      },
      "getRoleAdmin(bytes32)": {
        "details": "Returns the admin role that controls `role`. See {grantRole} and {revokeRole}. To change a role's admin, use {_setRoleAdmin}."
      },
      "getRoleMember(bytes32,uint256)": {
        "details": "Returns one of the accounts that have `role`. `index` must be a value between 0 and {getRoleMemberCount}, non-inclusive. Role bearers are not sorted in any particular way, and their ordering may change at any point. WARNING: When using {getRoleMember} and {getRoleMemberCount}, make sure you perform all queries on the same block. See the following https://forum.openzeppelin.com/t/iterating-over-elements-on-enumerableset-in-openzeppelin-contracts/2296[forum post] for more information."
      },
      "getRoleMemberCount(bytes32)": {
        "details": "Returns the number of accounts that have `role`. Can be used together with {getRoleMember} to enumerate all bearers of a role."
      },
      "grantRole(bytes32,address)": {
        "details": "Overload {grantRole} to track enumerable memberships"
      },
      "hasRole(bytes32,address)": {
        "details": "Returns `true` if `account` has been granted `role`."
      },
      "isApprovedForAll(address,address)": {
        "details": "See {IERC721-isApprovedForAll}."
      },
      "name()": {
        "details": "See {IERC721Metadata-name}."
      },
      "owner()": {
        "details": "Returns the address of the current owner."
      },
      "ownerOf(uint256)": {
        "details": "See {IERC721-ownerOf}."
      },
      "renounceOwnership()": {
        "details": "Leaves the contract without owner. It will not be possible to call `onlyOwner` functions anymore. Can only be called by the current owner. NOTE: Renouncing ownership will leave the contract without an owner, thereby removing any functionality that is only available to the owner."
      },
      "renounceRole(bytes32,address)": {
        "details": "Overload {renounceRole} to track enumerable memberships"
      },
      "revokeRole(bytes32,address)": {
        "details": "Overload {revokeRole} to track enumerable memberships"
      },
      "safeTransferFrom(address,address,uint256)": {
        "details": "See {IERC721-safeTransferFrom}."
      },
      "safeTransferFrom(address,address,uint256,bytes)": {
        "details": "See {IERC721-safeTransferFrom}."
      },
      "setApprovalForAll(address,bool)": {
        "details": "See {IERC721-setApprovalForAll}."
      },
      "symbol()": {
        "details": "See {IERC721Metadata-symbol}."
      },
      "tokenByIndex(uint256)": {
        "details": "See {IERC721Enumerable-tokenByIndex}."
      },
      "tokenOfOwnerByIndex(address,uint256)": {
        "details": "See {IERC721Enumerable-tokenOfOwnerByIndex}."
      },
      "tokenURI(uint256)": {
        "details": "See {IERC721Metadata-tokenURI}."
      },
      "totalSupply()": {
        "details": "See {IERC721Enumerable-totalSupply}."
      },
      "transferFrom(address,address,uint256)": {
        "details": "See {IERC721-transferFrom}."
      },
      "transferOwnership(address)": {
        "details": "Transfers ownership of the contract to a new account (`newOwner`). Can only be called by the current owner."
      }
    },
    "version": 1
  },
  "userdoc": {
    "kind": "user",
    "methods": {},
    "version": 1
  },
  "storageLayout": {
    "storage": [
      {
        "astId": 713,
        "contract": "src/sl.sol:MIRE",
        "label": "_name",
        "offset": 0,
        "slot": "0",
        "type": "t_string_storage"
      },
      {
        "astId": 715,
        "contract": "src/sl.sol:MIRE",
        "label": "_symbol",
        "offset": 0,
        "slot": "1",
        "type": "t_string_storage"
      },
      {
        "astId": 719,
        "contract": "src/sl.sol:MIRE",
        "label": "_owners",
        "offset": 0,
        "slot": "2",
        "type": "t_mapping(t_uint256,t_address)"
      },
      {
        "astId": 723,
        "contract": "src/sl.sol:MIRE",
        "label": "_balances",
        "offset": 0,
        "slot": "3",
        "type": "t_mapping(t_address,t_uint256)"
      },
      {
        "astId": 727,
        "contract": "src/sl.sol:MIRE",
        "label": "_tokenApprovals",
        "offset": 0,
        "slot": "4",
        "type": "t_mapping(t_uint256,t_address)"
      },
      {
        "astId": 733,
        "contract": "src/sl.sol:MIRE",
        "label": "_operatorApprovals",
        "offset": 0,
        "slot": "5",
        "type": "t_mapping(t_address,t_mapping(t_address,t_bool))"
      },
      {
        "astId": 1652,
        "contract": "src/sl.sol:MIRE",
        "label": "_ownedTokens",
        "offset": 0,
        "slot": "6",
        "type": "t_mapping(t_address,t_mapping(t_uint256,t_uint256))"
      },
      {
        "astId": 1656,
        "contract": "src/sl.sol:MIRE",
        "label": "_ownedTokensIndex",
        "offset": 0,
        "slot": "7",
        "type": "t_mapping(t_uint256,t_uint256)"
      },
      {
        "astId": 1659,
        "contract": "src/sl.sol:MIRE",
        "label": "_allTokens",
        "offset": 0,
        "slot": "8",
        "type": "t_array(t_uint256)dyn_storage"
      },
      {
        "astId": 1663,
        "contract": "src/sl.sol:MIRE",
        "label": "_allTokensIndex",
        "offset": 0,
        "slot": "9",
        "type": "t_mapping(t_uint256,t_uint256)"
      },
      {
        "astId": 591,
        "contract": "src/sl.sol:MIRE",
        "label": "_owner",
        "offset": 0,
        "slot": "10",
        "type": "t_address"
      },
      {
        "astId": 3375,
        "contract": "src/sl.sol:MIRE",
        "label": "royalties",
        "offset": 0,
        "slot": "11",
        "type": "t_mapping(t_uint256,t_array(t_struct(Part)3317_storage)dyn_storage)"
      },
      {
        "astId": 24,
        "contract": "src/sl.sol:MIRE",
        "label": "_roles",
        "offset": 0,
        "slot": "12",
        "type": "t_mapping(t_bytes32,t_struct(RoleData)19_storage)"
      },
      {
        "astId": 325,
        "contract": "src/sl.sol:MIRE",
        "label": "_roleMembers",
        "offset": 0,
        "slot": "13",
        "type": "t_mapping(t_bytes32,t_struct(AddressSet)2903_storage)"
      },
      {
        "astId": 3919,
        "contract": "src/sl.sol:MIRE",
        "label": "_metadatas",
        "offset": 0,
        "slot": "14",
        "type": "t_mapping(t_uint256,t_struct(ConstructTokenURIParams)3576_storage)"
      },
      {
        "astId": 3921,
        "contract": "src/sl.sol:MIRE",
        "label": "mTokenId",
        "offset": 0,
        "slot": "15",
        "type": "t_uint256"
      }
    ],
    "types": {
      "t_address": {
        "encoding": "inplace",
        "label": "address",
        "numberOfBytes": "20"
      },
      "t_address_payable": {
        "encoding": "inplace",
        "label": "address payable",
        "numberOfBytes": "20"
      },
      "t_array(t_bytes32)dyn_storage": {
        "base": "t_bytes32",
        "encoding": "dynamic_array",
        "label": "bytes32[]",
        "numberOfBytes": "32"
      },
      "t_array(t_struct(Part)3317_storage)dyn_storage": {
        "base": "t_struct(Part)3317_storage",
        "encoding": "dynamic_array",
        "label": "struct LibPart.Part[]",
        "numberOfBytes": "32"
      },
      "t_array(t_uint256)dyn_storage": {
        "base": "t_uint256",
        "encoding": "dynamic_array",
        "label": "uint256[]",
        "numberOfBytes": "32"
      },
      "t_bool": {
        "encoding": "inplace",
        "label": "bool",
        "numberOfBytes": "1"
      },
      "t_bytes32": {
        "encoding": "inplace",
        "label": "bytes32",
        "numberOfBytes": "32"
      },
      "t_mapping(t_address,t_bool)": {
        "encoding": "mapping",
        "key": "t_address",
        "label": "mapping(address => bool)",
        "numberOfBytes": "32",
        "value": "t_bool"
      },
      "t_mapping(t_address,t_mapping(t_address,t_bool))": {
        "encoding": "mapping",
        "key": "t_address",
        "label": "mapping(address => mapping(address => bool))",
        "numberOfBytes": "32",
        "value": "t_mapping(t_address,t_bool)"
      },
      "t_mapping(t_address,t_mapping(t_uint256,t_uint256))": {
        "encoding": "mapping",
        "key": "t_address",
        "label": "mapping(address => mapping(uint256 => uint256))",
        "numberOfBytes": "32",
        "value": "t_mapping(t_uint256,t_uint256)"
      },
      "t_mapping(t_address,t_uint256)": {
        "encoding": "mapping",
        "key": "t_address",
        "label": "mapping(address => uint256)",
        "numberOfBytes": "32",
        "value": "t_uint256"
      },
      "t_mapping(t_bytes32,t_struct(AddressSet)2903_storage)": {
        "encoding": "mapping",
        "key": "t_bytes32",
        "label": "mapping(bytes32 => struct EnumerableSet.AddressSet)",
        "numberOfBytes": "32",
        "value": "t_struct(AddressSet)2903_storage"
      },
      "t_mapping(t_bytes32,t_struct(RoleData)19_storage)": {
        "encoding": "mapping",
        "key": "t_bytes32",
        "label": "mapping(bytes32 => struct AccessControl.RoleData)",
        "numberOfBytes": "32",
        "value": "t_struct(RoleData)19_storage"
      },
      "t_mapping(t_bytes32,t_uint256)": {
        "encoding": "mapping",
        "key": "t_bytes32",
        "label": "mapping(bytes32 => uint256)",
        "numberOfBytes": "32",
        "value": "t_uint256"
      },
      "t_mapping(t_uint256,t_address)": {
        "encoding": "mapping",
        "key": "t_uint256",
        "label": "mapping(uint256 => address)",
        "numberOfBytes": "32",
        "value": "t_address"
      },
      "t_mapping(t_uint256,t_array(t_struct(Part)3317_storage)dyn_storage)": {
        "encoding": "mapping",
        "key": "t_uint256",
        "label": "mapping(uint256 => struct LibPart.Part[])",
        "numberOfBytes": "32",
        "value": "t_array(t_struct(Part)3317_storage)dyn_storage"
      },
      "t_mapping(t_uint256,t_struct(ConstructTokenURIParams)3576_storage)": {
        "encoding": "mapping",
        "key": "t_uint256",
        "label": "mapping(uint256 => struct NFTDescriptor.ConstructTokenURIParams)",
        "numberOfBytes": "32",
        "value": "t_struct(ConstructTokenURIParams)3576_storage"
      },
      "t_mapping(t_uint256,t_uint256)": {
        "encoding": "mapping",
        "key": "t_uint256",
        "label": "mapping(uint256 => uint256)",
        "numberOfBytes": "32",
        "value": "t_uint256"
      },
      "t_string_storage": {
        "encoding": "bytes",
        "label": "string",
        "numberOfBytes": "32"
      },
      "t_struct(AddressSet)2903_storage": {
        "encoding": "inplace",
        "label": "struct EnumerableSet.AddressSet",
        "members": [
          {
            "astId": 2902,
            "contract": "src/sl.sol:MIRE",
            "label": "_inner",
            "offset": 0,
            "slot": "0",
            "type": "t_struct(Set)2602_storage"
          }
        ],
        "numberOfBytes": "64"
      },
      "t_struct(ConstructTokenURIParams)3576_storage": {
        "encoding": "inplace",
        "label": "struct NFTDescriptor.ConstructTokenURIParams",
        "members": [
          {
            "astId": 3569,
            "contract": "src/sl.sol:MIRE",
            "label": "tokenId",
            "offset": 0,
            "slot": "0",
            "type": "t_uint256"
          },
          {
            "astId": 3571,
            "contract": "src/sl.sol:MIRE",
            "label": "imageURL",
            "offset": 0,
            "slot": "1",
            "type": "t_string_storage"
          },
          {
            "astId": 3573,
            "contract": "src/sl.sol:MIRE",
            "label": "animationURL",
            "offset": 0,
            "slot": "2",
            "type": "t_string_storage"
          },
          {
            "astId": 3575,
            "contract": "src/sl.sol:MIRE",
            "label": "externalURL",
            "offset": 0,
            "slot": "3",
            "type": "t_string_storage"
          }
        ],
        "numberOfBytes": "128"
      },
      "t_struct(Part)3317_storage": {
        "encoding": "inplace",
        "label": "struct LibPart.Part",
        "members": [
          {
            "astId": 3314,
            "contract": "src/sl.sol:MIRE",
            "label": "account",
            "offset": 0,
            "slot": "0",
            "type": "t_address_payable"
          },
          {
            "astId": 3316,
            "contract": "src/sl.sol:MIRE",
            "label": "value",
            "offset": 20,
            "slot": "0",
            "type": "t_uint96"
          }
        ],
        "numberOfBytes": "32"
      },
      "t_struct(RoleData)19_storage": {
        "encoding": "inplace",
        "label": "struct AccessControl.RoleData",
        "members": [
          {
            "astId": 16,
            "contract": "src/sl.sol:MIRE",
            "label": "members",
            "offset": 0,
            "slot": "0",
            "type": "t_mapping(t_address,t_bool)"
          },
          {
            "astId": 18,
            "contract": "src/sl.sol:MIRE",
            "label": "adminRole",
            "offset": 0,
            "slot": "1",
            "type": "t_bytes32"
          }
        ],
        "numberOfBytes": "64"
      },
      "t_struct(Set)2602_storage": {
        "encoding": "inplace",
        "label": "struct EnumerableSet.Set",
        "members": [
          {
            "astId": 2597,
            "contract": "src/sl.sol:MIRE",
            "label": "_values",
            "offset": 0,
            "slot": "0",
            "type": "t_array(t_bytes32)dyn_storage"
          },
          {
            "astId": 2601,
            "contract": "src/sl.sol:MIRE",
            "label": "_indexes",
            "offset": 0,
            "slot": "1",
            "type": "t_mapping(t_bytes32,t_uint256)"
          }
        ],
        "numberOfBytes": "64"
      },
      "t_uint256": {
        "encoding": "inplace",
        "label": "uint256",
        "numberOfBytes": "32"
      },
      "t_uint96": {
        "encoding": "inplace",
        "label": "uint96",
        "numberOfBytes": "12"
      }
    }
  }
}