{
  "address": "0x3BE39A8cFDEDcf72821816cd308231666b0efe6e",
  "abi": [
    {
      "anonymous": false,
      "inputs": [
        {
          "indexed": true,
          "internalType": "address",
          "name": "owner",
          "type": "address"
        },
        {
          "indexed": true,
          "internalType": "address",
          "name": "approved",
          "type": "address"
        },
        {
          "indexed": true,
          "internalType": "uint256",
          "name": "tokenId",
          "type": "uint256"
        }
      ],
      "name": "Approval",
      "type": "event"
    },
    {
      "anonymous": false,
      "inputs": [
        {
          "indexed": true,
          "internalType": "address",
          "name": "owner",
          "type": "address"
        },
        {
          "indexed": true,
          "internalType": "address",
          "name": "operator",
          "type": "address"
        },
        {
          "indexed": false,
          "internalType": "bool",
          "name": "approved",
          "type": "bool"
        }
      ],
      "name": "ApprovalForAll",
      "type": "event"
    },
    {
      "anonymous": false,
      "inputs": [
        {
          "indexed": true,
          "internalType": "bytes32",
          "name": "role",
          "type": "bytes32"
        },
        {
          "indexed": true,
          "internalType": "bytes32",
          "name": "previousAdminRole",
          "type": "bytes32"
        },
        {
          "indexed": true,
          "internalType": "bytes32",
          "name": "newAdminRole",
          "type": "bytes32"
        }
      ],
      "name": "RoleAdminChanged",
      "type": "event"
    },
    {
      "anonymous": false,
      "inputs": [
        {
          "indexed": true,
          "internalType": "bytes32",
          "name": "role",
          "type": "bytes32"
        },
        {
          "indexed": true,
          "internalType": "address",
          "name": "account",
          "type": "address"
        },
        {
          "indexed": true,
          "internalType": "address",
          "name": "sender",
          "type": "address"
        }
      ],
      "name": "RoleGranted",
      "type": "event"
    },
    {
      "anonymous": false,
      "inputs": [
        {
          "indexed": true,
          "internalType": "bytes32",
          "name": "role",
          "type": "bytes32"
        },
        {
          "indexed": true,
          "internalType": "address",
          "name": "account",
          "type": "address"
        },
        {
          "indexed": true,
          "internalType": "address",
          "name": "sender",
          "type": "address"
        }
      ],
      "name": "RoleRevoked",
      "type": "event"
    },
    {
      "anonymous": false,
      "inputs": [
        {
          "indexed": false,
          "internalType": "uint256",
          "name": "tokenId",
          "type": "uint256"
        },
        {
          "components": [
            {
              "internalType": "address payable",
              "name": "account",
              "type": "address"
            },
            {
              "internalType": "uint96",
              "name": "value",
              "type": "uint96"
            }
          ],
          "indexed": false,
          "internalType": "struct LibPart.Part[]",
          "name": "royalties",
          "type": "tuple[]"
        }
      ],
      "name": "RoyaltiesSet",
      "type": "event"
    },
    {
      "anonymous": false,
      "inputs": [
        {
          "indexed": true,
          "internalType": "address",
          "name": "from",
          "type": "address"
        },
        {
          "indexed": true,
          "internalType": "address",
          "name": "to",
          "type": "address"
        },
        {
          "indexed": true,
          "internalType": "uint256",
          "name": "tokenId",
          "type": "uint256"
        }
      ],
      "name": "Transfer",
      "type": "event"
    },
    {
      "inputs": [],
      "name": "DEFAULT_ADMIN_ROLE",
      "outputs": [
        {
          "internalType": "bytes32",
          "name": "",
          "type": "bytes32"
        }
      ],
      "stateMutability": "view",
      "type": "function"
    },
    {
      "inputs": [
        {
          "internalType": "address",
          "name": "to",
          "type": "address"
        },
        {
          "internalType": "uint256",
          "name": "tokenId",
          "type": "uint256"
        }
      ],
      "name": "approve",
      "outputs": [],
      "stateMutability": "nonpayable",
      "type": "function"
    },
    {
      "inputs": [
        {
          "internalType": "address",
          "name": "owner",
          "type": "address"
        }
      ],
      "name": "balanceOf",
      "outputs": [
        {
          "internalType": "uint256",
          "name": "",
          "type": "uint256"
        }
      ],
      "stateMutability": "view",
      "type": "function"
    },
    {
      "inputs": [
        {
          "internalType": "address[]",
          "name": "to",
          "type": "address[]"
        },
        {
          "internalType": "address",
          "name": "cloneContract",
          "type": "address"
        },
        {
          "internalType": "uint256",
          "name": "cloneId",
          "type": "uint256"
        }
      ],
      "name": "batchMint",
      "outputs": [],
      "stateMutability": "nonpayable",
      "type": "function"
    },
    {
      "inputs": [],
      "name": "contractURI",
      "outputs": [
        {
          "internalType": "string",
          "name": "",
          "type": "string"
        }
      ],
      "stateMutability": "view",
      "type": "function"
    },
    {
      "inputs": [
        {
          "internalType": "uint256",
          "name": "tokenId",
          "type": "uint256"
        }
      ],
      "name": "getApproved",
      "outputs": [
        {
          "internalType": "address",
          "name": "",
          "type": "address"
        }
      ],
      "stateMutability": "view",
      "type": "function"
    },
    {
      "inputs": [
        {
          "internalType": "uint256",
          "name": "id",
          "type": "uint256"
        }
      ],
      "name": "getRaribleV2Royalties",
      "outputs": [
        {
          "components": [
            {
              "internalType": "address payable",
              "name": "account",
              "type": "address"
            },
            {
              "internalType": "uint96",
              "name": "value",
              "type": "uint96"
            }
          ],
          "internalType": "struct LibPart.Part[]",
          "name": "",
          "type": "tuple[]"
        }
      ],
      "stateMutability": "view",
      "type": "function"
    },
    {
      "inputs": [
        {
          "internalType": "bytes32",
          "name": "role",
          "type": "bytes32"
        }
      ],
      "name": "getRoleAdmin",
      "outputs": [
        {
          "internalType": "bytes32",
          "name": "",
          "type": "bytes32"
        }
      ],
      "stateMutability": "view",
      "type": "function"
    },
    {
      "inputs": [
        {
          "internalType": "bytes32",
          "name": "role",
          "type": "bytes32"
        },
        {
          "internalType": "address",
          "name": "account",
          "type": "address"
        }
      ],
      "name": "grantRole",
      "outputs": [],
      "stateMutability": "nonpayable",
      "type": "function"
    },
    {
      "inputs": [
        {
          "internalType": "bytes32",
          "name": "role",
          "type": "bytes32"
        },
        {
          "internalType": "address",
          "name": "account",
          "type": "address"
        }
      ],
      "name": "hasRole",
      "outputs": [
        {
          "internalType": "bool",
          "name": "",
          "type": "bool"
        }
      ],
      "stateMutability": "view",
      "type": "function"
    },
    {
      "inputs": [
        {
          "internalType": "string",
          "name": "name",
          "type": "string"
        },
        {
          "internalType": "string",
          "name": "symbol",
          "type": "string"
        }
      ],
      "name": "init",
      "outputs": [],
      "stateMutability": "nonpayable",
      "type": "function"
    },
    {
      "inputs": [
        {
          "internalType": "address",
          "name": "owner",
          "type": "address"
        },
        {
          "internalType": "address",
          "name": "operator",
          "type": "address"
        }
      ],
      "name": "isApprovedForAll",
      "outputs": [
        {
          "internalType": "bool",
          "name": "",
          "type": "bool"
        }
      ],
      "stateMutability": "view",
      "type": "function"
    },
    {
      "inputs": [
        {
          "internalType": "address",
          "name": "to",
          "type": "address"
        },
        {
          "internalType": "address",
          "name": "cloneContract",
          "type": "address"
        },
        {
          "internalType": "uint256",
          "name": "cloneId",
          "type": "uint256"
        }
      ],
      "name": "mint",
      "outputs": [],
      "stateMutability": "nonpayable",
      "type": "function"
    },
    {
      "inputs": [],
      "name": "name",
      "outputs": [
        {
          "internalType": "string",
          "name": "",
          "type": "string"
        }
      ],
      "stateMutability": "view",
      "type": "function"
    },
    {
      "inputs": [
        {
          "internalType": "uint256",
          "name": "tokenId",
          "type": "uint256"
        }
      ],
      "name": "ownerOf",
      "outputs": [
        {
          "internalType": "address",
          "name": "",
          "type": "address"
        }
      ],
      "stateMutability": "view",
      "type": "function"
    },
    {
      "inputs": [
        {
          "internalType": "bytes32",
          "name": "role",
          "type": "bytes32"
        },
        {
          "internalType": "address",
          "name": "account",
          "type": "address"
        }
      ],
      "name": "renounceRole",
      "outputs": [],
      "stateMutability": "nonpayable",
      "type": "function"
    },
    {
      "inputs": [
        {
          "internalType": "bytes32",
          "name": "role",
          "type": "bytes32"
        },
        {
          "internalType": "address",
          "name": "account",
          "type": "address"
        }
      ],
      "name": "revokeRole",
      "outputs": [],
      "stateMutability": "nonpayable",
      "type": "function"
    },
    {
      "inputs": [
        {
          "internalType": "address",
          "name": "from",
          "type": "address"
        },
        {
          "internalType": "address",
          "name": "to",
          "type": "address"
        },
        {
          "internalType": "uint256",
          "name": "tokenId",
          "type": "uint256"
        }
      ],
      "name": "safeTransferFrom",
      "outputs": [],
      "stateMutability": "nonpayable",
      "type": "function"
    },
    {
      "inputs": [
        {
          "internalType": "address",
          "name": "from",
          "type": "address"
        },
        {
          "internalType": "address",
          "name": "to",
          "type": "address"
        },
        {
          "internalType": "uint256",
          "name": "tokenId",
          "type": "uint256"
        },
        {
          "internalType": "bytes",
          "name": "_data",
          "type": "bytes"
        }
      ],
      "name": "safeTransferFrom",
      "outputs": [],
      "stateMutability": "nonpayable",
      "type": "function"
    },
    {
      "inputs": [
        {
          "internalType": "address",
          "name": "operator",
          "type": "address"
        },
        {
          "internalType": "bool",
          "name": "approved",
          "type": "bool"
        }
      ],
      "name": "setApprovalForAll",
      "outputs": [],
      "stateMutability": "nonpayable",
      "type": "function"
    },
    {
      "inputs": [
        {
          "components": [
            {
              "internalType": "string",
              "name": "imageURL",
              "type": "string"
            },
            {
              "internalType": "string",
              "name": "description",
              "type": "string"
            },
            {
              "internalType": "string",
              "name": "externalURL",
              "type": "string"
            },
            {
              "internalType": "address payable",
              "name": "royaltiesRecipient",
              "type": "address"
            },
            {
              "internalType": "uint256",
              "name": "royaltiesFeeBasisPoints",
              "type": "uint256"
            }
          ],
          "internalType": "struct NFTDescriptor.ConstructContractURIParams",
          "name": "params",
          "type": "tuple"
        }
      ],
      "name": "setContractURI",
      "outputs": [],
      "stateMutability": "nonpayable",
      "type": "function"
    },
    {
      "inputs": [
        {
          "internalType": "string",
          "name": "name",
          "type": "string"
        },
        {
          "internalType": "string",
          "name": "symbol",
          "type": "string"
        }
      ],
      "name": "setContractsInfo",
      "outputs": [],
      "stateMutability": "nonpayable",
      "type": "function"
    },
    {
      "inputs": [
        {
          "internalType": "uint256",
          "name": "_tokenId",
          "type": "uint256"
        },
        {
          "internalType": "address payable",
          "name": "_royaltiesReceipientAddress",
          "type": "address"
        },
        {
          "internalType": "uint96",
          "name": "_percentageBasisPoints",
          "type": "uint96"
        }
      ],
      "name": "setRoyalties",
      "outputs": [],
      "stateMutability": "nonpayable",
      "type": "function"
    },
    {
      "inputs": [
        {
          "internalType": "bytes4",
          "name": "interfaceId",
          "type": "bytes4"
        }
      ],
      "name": "supportsInterface",
      "outputs": [
        {
          "internalType": "bool",
          "name": "",
          "type": "bool"
        }
      ],
      "stateMutability": "view",
      "type": "function"
    },
    {
      "inputs": [],
      "name": "symbol",
      "outputs": [
        {
          "internalType": "string",
          "name": "",
          "type": "string"
        }
      ],
      "stateMutability": "view",
      "type": "function"
    },
    {
      "inputs": [
        {
          "internalType": "uint256",
          "name": "tokenId",
          "type": "uint256"
        }
      ],
      "name": "tokenURI",
      "outputs": [
        {
          "internalType": "string",
          "name": "",
          "type": "string"
        }
      ],
      "stateMutability": "view",
      "type": "function"
    },
    {
      "inputs": [
        {
          "internalType": "address",
          "name": "from",
          "type": "address"
        },
        {
          "internalType": "address",
          "name": "to",
          "type": "address"
        },
        {
          "internalType": "uint256",
          "name": "tokenId",
          "type": "uint256"
        }
      ],
      "name": "transferFrom",
      "outputs": [],
      "stateMutability": "nonpayable",
      "type": "function"
    },
    {
      "inputs": [
        {
          "internalType": "uint256",
          "name": "tokenId",
          "type": "uint256"
        },
        {
          "internalType": "address",
          "name": "_cloneContract",
          "type": "address"
        },
        {
          "internalType": "uint256",
          "name": "cloneId",
          "type": "uint256"
        }
      ],
      "name": "updateClone",
      "outputs": [],
      "stateMutability": "nonpayable",
      "type": "function"
    },
    {
      "inputs": [],
      "name": "version",
      "outputs": [
        {
          "internalType": "uint256",
          "name": "",
          "type": "uint256"
        }
      ],
      "stateMutability": "view",
      "type": "function"
    }
  ],
  "transactionHash": "0x01039773d8c8548f607677680cd19e0f129f8d907c2f35dce252263dae453492",
  "args": [],
  "numDeployments": 1,
  "solcInputHash": "bf891ca89d2d914201c125342e1b62e7",
  "bytecode": "0x608060405234801561001057600080fd5b50612ad6806100206000396000f3fe608060405234801561001057600080fd5b50600436106101ce5760003560e01c80637029144c11610104578063b88d4fde116100a2578063d547741f11610071578063d547741f146103ce578063d73e2ab6146103e1578063e8a3d485146103f4578063e985e9c5146103fc576101ce565b8063b88d4fde14610375578063c6c3bbe614610388578063c87b56dd1461039b578063cad96cca146103ae576101ce565b806395d89b41116100de57806395d89b411461033f57806399e598fe14610347578063a217fddf1461035a578063a22cb46514610362576101ce565b80637029144c1461030657806370a082311461031957806391d148541461032c576101ce565b806323b872dd1161017157806336568abe1161014b57806336568abe146102c557806342842e0e146102d857806354fd4d50146102eb5780636352211e146102f3576101ce565b806323b872dd1461027f578063248a9ca3146102925780632f2ff15d146102b2576101ce565b8063081812fc116101ad578063081812fc14610226578063095ea7b3146102465780630f8973dd14610259578063143094db1461026c576101ce565b8062817455146101d357806301ffc9a7146101e857806306fdde0314610211575b600080fd5b6101e66101e1366004612153565b61040f565b005b6101fb6101f6366004611f2c565b6104f6565b60405161020891906122d5565b60405180910390f35b61021961052a565b60405161020891906122e9565b610239610234366004611ef0565b6105bc565b6040516102089190612271565b6101e6610254366004611df7565b610608565b6101e6610267366004612038565b6106a0565b6101e661027a366004612107565b610739565b6101e661028d366004611d09565b610805565b6102a56102a0366004611ef0565b61083d565b60405161020891906122e0565b6101e66102c0366004611f08565b610852565b6101e66102d3366004611f08565b610871565b6101e66102e6366004611d09565b6108b7565b6102a56108d2565b610239610301366004611ef0565b6108d8565b6101e6610314366004611fd7565b61090d565b6102a5610327366004611cb5565b6109e3565b6101fb61033a366004611f08565b610a27565b610219610a52565b6101e6610355366004611fd7565b610a61565b6102a5610aab565b6101e6610370366004611dc6565b610ab0565b6101e6610383366004611d49565b610ac2565b6101e6610396366004611d09565b610afb565b6102196103a9366004611ef0565b610b9a565b6103c16103bc366004611ef0565b610c38565b60405161020891906122c2565b6101e66103dc366004611f08565b610cc7565b6101e66103ef366004611e22565b610ce6565b610219610d44565b6101fb61040a366004611cd1565b610fc1565b61041c600061033a610fef565b61042557600080fd5b600083815260ca6020818152604080842080546001600160a01b0319166001600160a01b0388811691909117825560cb8452828620879055939092529054905163c87b56dd60e01b8152859392919091169063c87b56dd9061048b9086906004016122e0565b60006040518083038186803b1580156104a357600080fd5b505afa1580156104b7573d6000803e3d6000fd5b505050506040513d6000823e601f3d908101601f191682016040526104df9190810190611f64565b905060008151116104ef57600080fd5b5050505050565b60006001600160e01b0319821663656cb66560e11b141561051957506001610525565b61052282610ff3565b90505b919050565b606060cd8054610539906129f0565b80601f0160208091040260200160405190810160405280929190818152602001828054610565906129f0565b80156105b25780601f10610587576101008083540402835291602001916105b2565b820191906000526020600020905b81548152906001019060200180831161059557829003601f168201915b5050505050905090565b60006105c782611018565b6105ec5760405162461bcd60e51b81526004016105e39061266e565b60405180910390fd5b506000908152606960205260409020546001600160a01b031690565b6000610613826108d8565b9050806001600160a01b0316836001600160a01b031614156106475760405162461bcd60e51b81526004016105e3906126ba565b806001600160a01b0316610659610fef565b6001600160a01b0316148061067557506106758161040a610fef565b6106915760405162461bcd60e51b81526004016105e3906124fb565b61069b8383611035565b505050565b60006106b3816106ae610fef565b6110a3565b81518051839160d0916106cd918391602090910190611b9d565b5060208281015180516106e69260018501920190611b9d565b5060408201518051610702916002840191602090910190611b9d565b5060608201516003820180546001600160a01b0319166001600160a01b039092169190911790556080909101516004909101555050565b6000610747816106ae610fef565b604080516001808252818301909252600091816020015b610766611c21565b81526020019060019003908161075e579050509050828160008151811061079d57634e487b7160e01b600052603260045260246000fd5b6020026020010151602001906001600160601b031690816001600160601b03168152505083816000815181106107e357634e487b7160e01b600052603260045260246000fd5b60209081029190910101516001600160a01b0390911690526104ef8582611107565b610816610810610fef565b826112d5565b6108325760405162461bcd60e51b81526004016105e3906126fb565b61069b83838361135a565b60009081526098602052604090206001015490565b61085b8261083d565b610867816106ae610fef565b61069b838361148d565b610879610fef565b6001600160a01b0316816001600160a01b0316146108a95760405162461bcd60e51b81526004016105e390612813565b6108b38282611514565b5050565b61069b83838360405180602001604052806000815250610ac2565b60d55481565b6000818152606760205260408120546001600160a01b0316806105225760405162461bcd60e51b81526004016105e3906125a2565b600054610100900460ff166109285760005460ff1615610930565b610930611599565b61094c5760405162461bcd60e51b81526004016105e3906125eb565b600054610100900460ff16158015610977576000805460ff1961ff0019909116610100171660011790555b61098183836115aa565b6109896115db565b61099b6000610996610fef565b611604565b600060cf81905560d55582516109b89060cd906020860190611b9d565b5081516109cc9060ce906020850190611b9d565b50801561069b576000805461ff0019169055505050565b60006001600160a01b038216610a0b5760405162461bcd60e51b81526004016105e390612558565b506001600160a01b031660009081526068602052604090205490565b60009182526098602090815260408084206001600160a01b0393909316845291905290205460ff1690565b606060ce8054610539906129f0565b6000610a6f816106ae610fef565b825115610a8b578251610a899060cd906020860190611b9d565b505b81511561069b578151610aa59060ce906020850190611b9d565b50505050565b600081565b6108b3610abb610fef565b838361160e565b610ad3610acd610fef565b836112d5565b610aef5760405162461bcd60e51b81526004016105e3906126fb565b610aa5848484846116b1565b6000610b09816106ae610fef565b60cf8054600081815260cc602090815260408083209390935560ca815282822080546001600160a01b0319166001600160a01b0389161790558354825260cb90522083905554610b5a9085906116e4565b60d45415610b7f5760cf5460d35460d454610b7f92916001600160a01b031690610739565b60cf8054906000610b8f83612a2b565b919050555050505050565b600081815260ca602090815260408083205460cb9092529182902054915163c87b56dd60e01b81526060926001600160a01b039092169163c87b56dd91610be491906004016122e0565b60006040518083038186803b158015610bfc57600080fd5b505afa158015610c10573d6000803e3d6000fd5b505050506040513d6000823e601f3d908101601f191682016040526105229190810190611f64565b606060976000838152602001908152602001600020805480602002602001604051908101604052809291908181526020016000905b82821015610cbc57600084815260209081902060408051808201909152908401546001600160a01b0381168252600160a01b90046001600160601b031681830152825260019092019101610c6d565b505050509050919050565b610cd08261083d565b610cdc816106ae610fef565b61069b8383611514565b6000610cf4816106ae610fef565b60005b84518110156104ef57610d32858281518110610d2357634e487b7160e01b600052603260045260246000fd5b60200260200101518585610afb565b80610d3c81612a2b565b915050610cf7565b606060d06040518060a0016040529081600082018054610d63906129f0565b80601f0160208091040260200160405190810160405280929190818152602001828054610d8f906129f0565b8015610ddc5780601f10610db157610100808354040283529160200191610ddc565b820191906000526020600020905b815481529060010190602001808311610dbf57829003601f168201915b50505050508152602001600182018054610df5906129f0565b80601f0160208091040260200160405190810160405280929190818152602001828054610e21906129f0565b8015610e6e5780601f10610e4357610100808354040283529160200191610e6e565b820191906000526020600020905b815481529060010190602001808311610e5157829003601f168201915b50505050508152602001600282018054610e87906129f0565b80601f0160208091040260200160405190810160405280929190818152602001828054610eb3906129f0565b8015610f005780601f10610ed557610100808354040283529160200191610f00565b820191906000526020600020905b815481529060010190602001808311610ee357829003601f168201915b505050918352505060038201546001600160a01b0316602082015260049091015460409091015273C0D95e9D51A64afC1AEED4E3C1838710E6a0E46E906329e72aaa90610f4b61052a565b6040518363ffffffff1660e01b8152600401610f68929190612862565b60006040518083038186803b158015610f8057600080fd5b505af4158015610f94573d6000803e3d6000fd5b505050506040513d6000823e601f3d908101601f19168201604052610fbc9190810190611f64565b905090565b6001600160a01b039182166000908152606a6020908152604080832093909416825291909152205460ff1690565b3390565b60006001600160e01b03198216637965db0b60e01b14806105225750610522826117cb565b6000908152606760205260409020546001600160a01b0316151590565b600081815260696020526040902080546001600160a01b0319166001600160a01b038416908117909155819061106a826108d8565b6001600160a01b03167f8c5be1e5ebec7d5bd14f71427d1e84f3dd0314c0f7b2291e5b200ac8c7c3b92560405160405180910390a45050565b6110ad8282610a27565b6108b3576110c5816001600160a01b0316601461180b565b6110d083602061180b565b6040516020016110e19291906121fc565b60408051601f198184030181529082905262461bcd60e51b82526105e3916004016122e9565b6000805b82518110156112a95760006001600160a01b031683828151811061113f57634e487b7160e01b600052603260045260246000fd5b6020026020010151600001516001600160a01b031614156111725760405162461bcd60e51b81526004016105e3906127dc565b82818151811061119257634e487b7160e01b600052603260045260246000fd5b6020026020010151602001516001600160601b0316600014156111c75760405162461bcd60e51b81526004016105e3906124c6565b8281815181106111e757634e487b7160e01b600052603260045260246000fd5b6020026020010151602001516001600160601b031682611207919061295f565b91506097600085815260200190815260200160002083828151811061123c57634e487b7160e01b600052603260045260246000fd5b602090810291909101810151825460018101845560009384529282902081519301805491909201516001600160601b0316600160a01b026001600160a01b039384166001600160a01b031990921691909117909216919091179055806112a181612a2b565b91505061110b565b5061271081106112cb5760405162461bcd60e51b81526004016105e39061274c565b61069b83836119c4565b60006112e082611018565b6112fc5760405162461bcd60e51b81526004016105e39061247a565b6000611307836108d8565b9050806001600160a01b0316846001600160a01b031614806113425750836001600160a01b0316611337846105bc565b6001600160a01b0316145b8061135257506113528185610fc1565b949350505050565b826001600160a01b031661136d826108d8565b6001600160a01b0316146113935760405162461bcd60e51b81526004016105e390612383565b6001600160a01b0382166113b95760405162461bcd60e51b81526004016105e3906123ff565b6113c4838383611a01565b6113cf600082611035565b6001600160a01b03831660009081526068602052604081208054600192906113f8908490612996565b90915550506001600160a01b038216600090815260686020526040812080546001929061142690849061295f565b909155505060008181526067602052604080822080546001600160a01b0319166001600160a01b0386811691821790925591518493918716917fddf252ad1be2c89b69c2b068fc378daa952ba7f163c4a11628f55a4df523b3ef91a461069b83838361069b565b6114978282610a27565b6108b35760008281526098602090815260408083206001600160a01b03851684529091529020805460ff191660011790556114d0610fef565b6001600160a01b0316816001600160a01b0316837f2f8788117e7eff1d82e926ec794901d17c78024a50270940304540a733656f0d60405160405180910390a45050565b61151e8282610a27565b156108b35760008281526098602090815260408083206001600160a01b03851684529091529020805460ff19169055611555610fef565b6001600160a01b0316816001600160a01b0316837ff6391f5c32d9c69d2a47ea670b442974b53935d1edc7fd64eb21e047a839171b60405160405180910390a45050565b60006115a430611a0c565b15905090565b600054610100900460ff166115d15760405162461bcd60e51b81526004016105e390612791565b6108b38282611a1b565b600054610100900460ff166116025760405162461bcd60e51b81526004016105e390612791565b565b6108b3828261148d565b816001600160a01b0316836001600160a01b031614156116405760405162461bcd60e51b81526004016105e390612443565b6001600160a01b038381166000818152606a602090815260408083209487168084529490915290819020805460ff1916851515179055517f17307eab39ab6107e8899845ad3d59bd9653f200f220920489ca2b5937696c31906116a49085906122d5565b60405180910390a3505050565b6116bc84848461135a565b6116c884848484611a69565b610aa55760405162461bcd60e51b81526004016105e390612331565b6001600160a01b03821661170a5760405162461bcd60e51b81526004016105e390612639565b61171381611018565b156117305760405162461bcd60e51b81526004016105e3906123c8565b61173c60008383611a01565b6001600160a01b038216600090815260686020526040812080546001929061176590849061295f565b909155505060008181526067602052604080822080546001600160a01b0319166001600160a01b03861690811790915590518392907fddf252ad1be2c89b69c2b068fc378daa952ba7f163c4a11628f55a4df523b3ef908290a46108b36000838361069b565b60006001600160e01b031982166380ac58cd60e01b14806117fc57506001600160e01b03198216635b5e139f60e01b145b80610522575061052282611b84565b6060600061181a836002612977565b61182590600261295f565b67ffffffffffffffff81111561184b57634e487b7160e01b600052604160045260246000fd5b6040519080825280601f01601f191660200182016040528015611875576020820181803683370190505b509050600360fc1b8160008151811061189e57634e487b7160e01b600052603260045260246000fd5b60200101906001600160f81b031916908160001a905350600f60fb1b816001815181106118db57634e487b7160e01b600052603260045260246000fd5b60200101906001600160f81b031916908160001a90535060006118ff846002612977565b61190a90600161295f565b90505b600181111561199e576f181899199a1a9b1b9c1cb0b131b232b360811b85600f166010811061194c57634e487b7160e01b600052603260045260246000fd5b1a60f81b82828151811061197057634e487b7160e01b600052603260045260246000fd5b60200101906001600160f81b031916908160001a90535060049490941c93611997816129d9565b905061190d565b5083156119bd5760405162461bcd60e51b81526004016105e3906122fc565b9392505050565b7f3fa96d7b6bcbfe71ef171666d84db3cf52fa2d1c8afdb1cc8e486177f208b7df82826040516119f59291906128ed565b60405180910390a15050565b61069b83838361069b565b6001600160a01b03163b151590565b600054610100900460ff16611a425760405162461bcd60e51b81526004016105e390612791565b8151611a55906065906020850190611b9d565b50805161069b906066906020840190611b9d565b6000611a7d846001600160a01b0316611a0c565b15611b7957836001600160a01b031663150b7a02611a99610fef565b8786866040518563ffffffff1660e01b8152600401611abb9493929190612285565b602060405180830381600087803b158015611ad557600080fd5b505af1925050508015611b05575060408051601f3d908101601f19168201909252611b0291810190611f48565b60015b611b5f573d808015611b33576040519150601f19603f3d011682016040523d82523d6000602084013e611b38565b606091505b508051611b575760405162461bcd60e51b81526004016105e390612331565b805181602001fd5b6001600160e01b031916630a85bd0160e11b149050611352565b506001949350505050565b6001600160e01b031981166301ffc9a760e01b14919050565b828054611ba9906129f0565b90600052602060002090601f016020900481019282611bcb5760008555611c11565b82601f10611be457805160ff1916838001178555611c11565b82800160010185558215611c11579182015b82811115611c11578251825591602001919060010190611bf6565b50611c1d929150611c38565b5090565b604080518082019091526000808252602082015290565b5b80821115611c1d5760008155600101611c39565b6000611c60611c5b84612937565b612906565b9050828152838383011115611c7457600080fd5b828260208301376000602084830101529392505050565b803561052581612a72565b600082601f830112611ca6578081fd5b6119bd83833560208501611c4d565b600060208284031215611cc6578081fd5b81356119bd81612a72565b60008060408385031215611ce3578081fd5b8235611cee81612a72565b91506020830135611cfe81612a72565b809150509250929050565b600080600060608486031215611d1d578081fd5b8335611d2881612a72565b92506020840135611d3881612a72565b929592945050506040919091013590565b60008060008060808587031215611d5e578081fd5b8435611d6981612a72565b93506020850135611d7981612a72565b925060408501359150606085013567ffffffffffffffff811115611d9b578182fd5b8501601f81018713611dab578182fd5b611dba87823560208401611c4d565b91505092959194509250565b60008060408385031215611dd8578182fd5b8235611de381612a72565b915060208301358015158114611cfe578182fd5b60008060408385031215611e09578182fd5b8235611e1481612a72565b946020939093013593505050565b600080600060608486031215611e36578081fd5b833567ffffffffffffffff80821115611e4d578283fd5b818601915086601f830112611e60578283fd5b8135602082821115611e7457611e74612a5c565b8082029250611e84818401612906565b8281528181019085830185870184018c1015611e9e578788fd5b8796505b84871015611ecc5780359550611eb786612a72565b85835260019690960195918301918301611ea2565b509750611edc9050888201611c8b565b955050505050604084013590509250925092565b600060208284031215611f01578081fd5b5035919050565b60008060408385031215611f1a578182fd5b823591506020830135611cfe81612a72565b600060208284031215611f3d578081fd5b81356119bd81612a8a565b600060208284031215611f59578081fd5b81516119bd81612a8a565b600060208284031215611f75578081fd5b815167ffffffffffffffff811115611f8b578182fd5b8201601f81018413611f9b578182fd5b8051611fa9611c5b82612937565b818152856020838501011115611fbd578384fd5b611fce8260208301602086016129ad565b95945050505050565b60008060408385031215611fe9578182fd5b823567ffffffffffffffff80821115612000578384fd5b61200c86838701611c96565b93506020850135915080821115612021578283fd5b5061202e85828601611c96565b9150509250929050565b600060208284031215612049578081fd5b813567ffffffffffffffff80821115612060578283fd5b9083019060a08286031215612073578283fd5b61207d60a0612906565b82358281111561208b578485fd5b61209787828601611c96565b8252506020830135828111156120ab578485fd5b6120b787828601611c96565b6020830152506040830135828111156120ce578485fd5b6120da87828601611c96565b6040830152506120ec60608401611c8b565b60608201526080830135608082015280935050505092915050565b60008060006060848603121561211b578081fd5b83359250602084013561212d81612a72565b915060408401356001600160601b0381168114612148578182fd5b809150509250925092565b600080600060608486031215612167578081fd5b833592506020840135611d3881612a72565b6000815180845260208085019450808401835b838110156121c557815180516001600160a01b031688528301516001600160601b0316838801526040909601959082019060010161218c565b509495945050505050565b600081518084526121e88160208601602086016129ad565b601f01601f19169290920160200192915050565b60007f416363657373436f6e74726f6c3a206163636f756e7420000000000000000000825283516122348160178501602088016129ad565b7001034b99036b4b9b9b4b733903937b6329607d1b60179184019182015283516122658160288401602088016129ad565b01602801949350505050565b6001600160a01b0391909116815260200190565b6001600160a01b03858116825284166020820152604081018390526080606082018190526000906122b8908301846121d0565b9695505050505050565b6000602082526119bd6020830184612179565b901515815260200190565b90815260200190565b6000602082526119bd60208301846121d0565b6020808252818101527f537472696e67733a20686578206c656e67746820696e73756666696369656e74604082015260600190565b60208082526032908201527f4552433732313a207472616e7366657220746f206e6f6e20455243373231526560408201527131b2b4bb32b91034b6b83632b6b2b73a32b960711b606082015260800190565b60208082526025908201527f4552433732313a207472616e736665722066726f6d20696e636f72726563742060408201526437bbb732b960d91b606082015260800190565b6020808252601c908201527f4552433732313a20746f6b656e20616c7265616479206d696e74656400000000604082015260600190565b60208082526024908201527f4552433732313a207472616e7366657220746f20746865207a65726f206164646040820152637265737360e01b606082015260800190565b60208082526019908201527f4552433732313a20617070726f766520746f2063616c6c657200000000000000604082015260600190565b6020808252602c908201527f4552433732313a206f70657261746f7220717565727920666f72206e6f6e657860408201526b34b9ba32b73a103a37b5b2b760a11b606082015260800190565b6020808252818101527f526f79616c74792076616c75652073686f756c6420626520706f736974697665604082015260600190565b60208082526038908201527f4552433732313a20617070726f76652063616c6c6572206973206e6f74206f7760408201527f6e6572206e6f7220617070726f76656420666f7220616c6c0000000000000000606082015260800190565b6020808252602a908201527f4552433732313a2062616c616e636520717565727920666f7220746865207a65604082015269726f206164647265737360b01b606082015260800190565b60208082526029908201527f4552433732313a206f776e657220717565727920666f72206e6f6e657869737460408201526832b73a103a37b5b2b760b91b606082015260800190565b6020808252602e908201527f496e697469616c697a61626c653a20636f6e747261637420697320616c72656160408201526d191e481a5b9a5d1a585b1a5e995960921b606082015260800190565b6020808252818101527f4552433732313a206d696e7420746f20746865207a65726f2061646472657373604082015260600190565b6020808252602c908201527f4552433732313a20617070726f76656420717565727920666f72206e6f6e657860408201526b34b9ba32b73a103a37b5b2b760a11b606082015260800190565b60208082526021908201527f4552433732313a20617070726f76616c20746f2063757272656e74206f776e656040820152603960f91b606082015260800190565b60208082526031908201527f4552433732313a207472616e736665722063616c6c6572206973206e6f74206f6040820152701ddb995c881b9bdc88185c1c1c9bdd9959607a1b606082015260800190565b60208082526025908201527f526f79616c747920746f74616c2076616c75652073686f756c64206265203c20604082015264031303030360dc1b606082015260800190565b6020808252602b908201527f496e697469616c697a61626c653a20636f6e7472616374206973206e6f74206960408201526a6e697469616c697a696e6760a81b606082015260800190565b6020808252601b908201527f526563697069656e742073686f756c642062652070726573656e740000000000604082015260600190565b6020808252602f908201527f416363657373436f6e74726f6c3a2063616e206f6e6c792072656e6f756e636560408201526e103937b632b9903337b91039b2b63360891b606082015260800190565b600060408252835160a0604084015261287e60e08401826121d0565b90506020850151603f198085840301606086015261289c83836121d0565b92506040870151915080858403016080860152506128ba82826121d0565b60608701516001600160a01b031660a0860152608087015160c086015284810360208601529150611fce905081856121d0565b6000838252604060208301526113526040830184612179565b604051601f8201601f1916810167ffffffffffffffff8111828210171561292f5761292f612a5c565b604052919050565b600067ffffffffffffffff82111561295157612951612a5c565b50601f01601f191660200190565b6000821982111561297257612972612a46565b500190565b600081600019048311821515161561299157612991612a46565b500290565b6000828210156129a8576129a8612a46565b500390565b60005b838110156129c85781810151838201526020016129b0565b83811115610aa55750506000910152565b6000816129e8576129e8612a46565b506000190190565b600281046001821680612a0457607f821691505b60208210811415612a2557634e487b7160e01b600052602260045260246000fd5b50919050565b6000600019821415612a3f57612a3f612a46565b5060010190565b634e487b7160e01b600052601160045260246000fd5b634e487b7160e01b600052604160045260246000fd5b6001600160a01b0381168114612a8757600080fd5b50565b6001600160e01b031981168114612a8757600080fdfea2646970667358221220387d822b95808d5404ada8ad51ffd7f762917561f876f17d094fdb284b03fce964736f6c63430008010033",
  "deployedBytecode": "0x608060405234801561001057600080fd5b50600436106101ce5760003560e01c80637029144c11610104578063b88d4fde116100a2578063d547741f11610071578063d547741f146103ce578063d73e2ab6146103e1578063e8a3d485146103f4578063e985e9c5146103fc576101ce565b8063b88d4fde14610375578063c6c3bbe614610388578063c87b56dd1461039b578063cad96cca146103ae576101ce565b806395d89b41116100de57806395d89b411461033f57806399e598fe14610347578063a217fddf1461035a578063a22cb46514610362576101ce565b80637029144c1461030657806370a082311461031957806391d148541461032c576101ce565b806323b872dd1161017157806336568abe1161014b57806336568abe146102c557806342842e0e146102d857806354fd4d50146102eb5780636352211e146102f3576101ce565b806323b872dd1461027f578063248a9ca3146102925780632f2ff15d146102b2576101ce565b8063081812fc116101ad578063081812fc14610226578063095ea7b3146102465780630f8973dd14610259578063143094db1461026c576101ce565b8062817455146101d357806301ffc9a7146101e857806306fdde0314610211575b600080fd5b6101e66101e1366004612153565b61040f565b005b6101fb6101f6366004611f2c565b6104f6565b60405161020891906122d5565b60405180910390f35b61021961052a565b60405161020891906122e9565b610239610234366004611ef0565b6105bc565b6040516102089190612271565b6101e6610254366004611df7565b610608565b6101e6610267366004612038565b6106a0565b6101e661027a366004612107565b610739565b6101e661028d366004611d09565b610805565b6102a56102a0366004611ef0565b61083d565b60405161020891906122e0565b6101e66102c0366004611f08565b610852565b6101e66102d3366004611f08565b610871565b6101e66102e6366004611d09565b6108b7565b6102a56108d2565b610239610301366004611ef0565b6108d8565b6101e6610314366004611fd7565b61090d565b6102a5610327366004611cb5565b6109e3565b6101fb61033a366004611f08565b610a27565b610219610a52565b6101e6610355366004611fd7565b610a61565b6102a5610aab565b6101e6610370366004611dc6565b610ab0565b6101e6610383366004611d49565b610ac2565b6101e6610396366004611d09565b610afb565b6102196103a9366004611ef0565b610b9a565b6103c16103bc366004611ef0565b610c38565b60405161020891906122c2565b6101e66103dc366004611f08565b610cc7565b6101e66103ef366004611e22565b610ce6565b610219610d44565b6101fb61040a366004611cd1565b610fc1565b61041c600061033a610fef565b61042557600080fd5b600083815260ca6020818152604080842080546001600160a01b0319166001600160a01b0388811691909117825560cb8452828620879055939092529054905163c87b56dd60e01b8152859392919091169063c87b56dd9061048b9086906004016122e0565b60006040518083038186803b1580156104a357600080fd5b505afa1580156104b7573d6000803e3d6000fd5b505050506040513d6000823e601f3d908101601f191682016040526104df9190810190611f64565b905060008151116104ef57600080fd5b5050505050565b60006001600160e01b0319821663656cb66560e11b141561051957506001610525565b61052282610ff3565b90505b919050565b606060cd8054610539906129f0565b80601f0160208091040260200160405190810160405280929190818152602001828054610565906129f0565b80156105b25780601f10610587576101008083540402835291602001916105b2565b820191906000526020600020905b81548152906001019060200180831161059557829003601f168201915b5050505050905090565b60006105c782611018565b6105ec5760405162461bcd60e51b81526004016105e39061266e565b60405180910390fd5b506000908152606960205260409020546001600160a01b031690565b6000610613826108d8565b9050806001600160a01b0316836001600160a01b031614156106475760405162461bcd60e51b81526004016105e3906126ba565b806001600160a01b0316610659610fef565b6001600160a01b0316148061067557506106758161040a610fef565b6106915760405162461bcd60e51b81526004016105e3906124fb565b61069b8383611035565b505050565b60006106b3816106ae610fef565b6110a3565b81518051839160d0916106cd918391602090910190611b9d565b5060208281015180516106e69260018501920190611b9d565b5060408201518051610702916002840191602090910190611b9d565b5060608201516003820180546001600160a01b0319166001600160a01b039092169190911790556080909101516004909101555050565b6000610747816106ae610fef565b604080516001808252818301909252600091816020015b610766611c21565b81526020019060019003908161075e579050509050828160008151811061079d57634e487b7160e01b600052603260045260246000fd5b6020026020010151602001906001600160601b031690816001600160601b03168152505083816000815181106107e357634e487b7160e01b600052603260045260246000fd5b60209081029190910101516001600160a01b0390911690526104ef8582611107565b610816610810610fef565b826112d5565b6108325760405162461bcd60e51b81526004016105e3906126fb565b61069b83838361135a565b60009081526098602052604090206001015490565b61085b8261083d565b610867816106ae610fef565b61069b838361148d565b610879610fef565b6001600160a01b0316816001600160a01b0316146108a95760405162461bcd60e51b81526004016105e390612813565b6108b38282611514565b5050565b61069b83838360405180602001604052806000815250610ac2565b60d55481565b6000818152606760205260408120546001600160a01b0316806105225760405162461bcd60e51b81526004016105e3906125a2565b600054610100900460ff166109285760005460ff1615610930565b610930611599565b61094c5760405162461bcd60e51b81526004016105e3906125eb565b600054610100900460ff16158015610977576000805460ff1961ff0019909116610100171660011790555b61098183836115aa565b6109896115db565b61099b6000610996610fef565b611604565b600060cf81905560d55582516109b89060cd906020860190611b9d565b5081516109cc9060ce906020850190611b9d565b50801561069b576000805461ff0019169055505050565b60006001600160a01b038216610a0b5760405162461bcd60e51b81526004016105e390612558565b506001600160a01b031660009081526068602052604090205490565b60009182526098602090815260408084206001600160a01b0393909316845291905290205460ff1690565b606060ce8054610539906129f0565b6000610a6f816106ae610fef565b825115610a8b578251610a899060cd906020860190611b9d565b505b81511561069b578151610aa59060ce906020850190611b9d565b50505050565b600081565b6108b3610abb610fef565b838361160e565b610ad3610acd610fef565b836112d5565b610aef5760405162461bcd60e51b81526004016105e3906126fb565b610aa5848484846116b1565b6000610b09816106ae610fef565b60cf8054600081815260cc602090815260408083209390935560ca815282822080546001600160a01b0319166001600160a01b0389161790558354825260cb90522083905554610b5a9085906116e4565b60d45415610b7f5760cf5460d35460d454610b7f92916001600160a01b031690610739565b60cf8054906000610b8f83612a2b565b919050555050505050565b600081815260ca602090815260408083205460cb9092529182902054915163c87b56dd60e01b81526060926001600160a01b039092169163c87b56dd91610be491906004016122e0565b60006040518083038186803b158015610bfc57600080fd5b505afa158015610c10573d6000803e3d6000fd5b505050506040513d6000823e601f3d908101601f191682016040526105229190810190611f64565b606060976000838152602001908152602001600020805480602002602001604051908101604052809291908181526020016000905b82821015610cbc57600084815260209081902060408051808201909152908401546001600160a01b0381168252600160a01b90046001600160601b031681830152825260019092019101610c6d565b505050509050919050565b610cd08261083d565b610cdc816106ae610fef565b61069b8383611514565b6000610cf4816106ae610fef565b60005b84518110156104ef57610d32858281518110610d2357634e487b7160e01b600052603260045260246000fd5b60200260200101518585610afb565b80610d3c81612a2b565b915050610cf7565b606060d06040518060a0016040529081600082018054610d63906129f0565b80601f0160208091040260200160405190810160405280929190818152602001828054610d8f906129f0565b8015610ddc5780601f10610db157610100808354040283529160200191610ddc565b820191906000526020600020905b815481529060010190602001808311610dbf57829003601f168201915b50505050508152602001600182018054610df5906129f0565b80601f0160208091040260200160405190810160405280929190818152602001828054610e21906129f0565b8015610e6e5780601f10610e4357610100808354040283529160200191610e6e565b820191906000526020600020905b815481529060010190602001808311610e5157829003601f168201915b50505050508152602001600282018054610e87906129f0565b80601f0160208091040260200160405190810160405280929190818152602001828054610eb3906129f0565b8015610f005780601f10610ed557610100808354040283529160200191610f00565b820191906000526020600020905b815481529060010190602001808311610ee357829003601f168201915b505050918352505060038201546001600160a01b0316602082015260049091015460409091015273__$9185f4f4d5ccf565a43404fb3be44cd50b$__906329e72aaa90610f4b61052a565b6040518363ffffffff1660e01b8152600401610f68929190612862565b60006040518083038186803b158015610f8057600080fd5b505af4158015610f94573d6000803e3d6000fd5b505050506040513d6000823e601f3d908101601f19168201604052610fbc9190810190611f64565b905090565b6001600160a01b039182166000908152606a6020908152604080832093909416825291909152205460ff1690565b3390565b60006001600160e01b03198216637965db0b60e01b14806105225750610522826117cb565b6000908152606760205260409020546001600160a01b0316151590565b600081815260696020526040902080546001600160a01b0319166001600160a01b038416908117909155819061106a826108d8565b6001600160a01b03167f8c5be1e5ebec7d5bd14f71427d1e84f3dd0314c0f7b2291e5b200ac8c7c3b92560405160405180910390a45050565b6110ad8282610a27565b6108b3576110c5816001600160a01b0316601461180b565b6110d083602061180b565b6040516020016110e19291906121fc565b60408051601f198184030181529082905262461bcd60e51b82526105e3916004016122e9565b6000805b82518110156112a95760006001600160a01b031683828151811061113f57634e487b7160e01b600052603260045260246000fd5b6020026020010151600001516001600160a01b031614156111725760405162461bcd60e51b81526004016105e3906127dc565b82818151811061119257634e487b7160e01b600052603260045260246000fd5b6020026020010151602001516001600160601b0316600014156111c75760405162461bcd60e51b81526004016105e3906124c6565b8281815181106111e757634e487b7160e01b600052603260045260246000fd5b6020026020010151602001516001600160601b031682611207919061295f565b91506097600085815260200190815260200160002083828151811061123c57634e487b7160e01b600052603260045260246000fd5b602090810291909101810151825460018101845560009384529282902081519301805491909201516001600160601b0316600160a01b026001600160a01b039384166001600160a01b031990921691909117909216919091179055806112a181612a2b565b91505061110b565b5061271081106112cb5760405162461bcd60e51b81526004016105e39061274c565b61069b83836119c4565b60006112e082611018565b6112fc5760405162461bcd60e51b81526004016105e39061247a565b6000611307836108d8565b9050806001600160a01b0316846001600160a01b031614806113425750836001600160a01b0316611337846105bc565b6001600160a01b0316145b8061135257506113528185610fc1565b949350505050565b826001600160a01b031661136d826108d8565b6001600160a01b0316146113935760405162461bcd60e51b81526004016105e390612383565b6001600160a01b0382166113b95760405162461bcd60e51b81526004016105e3906123ff565b6113c4838383611a01565b6113cf600082611035565b6001600160a01b03831660009081526068602052604081208054600192906113f8908490612996565b90915550506001600160a01b038216600090815260686020526040812080546001929061142690849061295f565b909155505060008181526067602052604080822080546001600160a01b0319166001600160a01b0386811691821790925591518493918716917fddf252ad1be2c89b69c2b068fc378daa952ba7f163c4a11628f55a4df523b3ef91a461069b83838361069b565b6114978282610a27565b6108b35760008281526098602090815260408083206001600160a01b03851684529091529020805460ff191660011790556114d0610fef565b6001600160a01b0316816001600160a01b0316837f2f8788117e7eff1d82e926ec794901d17c78024a50270940304540a733656f0d60405160405180910390a45050565b61151e8282610a27565b156108b35760008281526098602090815260408083206001600160a01b03851684529091529020805460ff19169055611555610fef565b6001600160a01b0316816001600160a01b0316837ff6391f5c32d9c69d2a47ea670b442974b53935d1edc7fd64eb21e047a839171b60405160405180910390a45050565b60006115a430611a0c565b15905090565b600054610100900460ff166115d15760405162461bcd60e51b81526004016105e390612791565b6108b38282611a1b565b600054610100900460ff166116025760405162461bcd60e51b81526004016105e390612791565b565b6108b3828261148d565b816001600160a01b0316836001600160a01b031614156116405760405162461bcd60e51b81526004016105e390612443565b6001600160a01b038381166000818152606a602090815260408083209487168084529490915290819020805460ff1916851515179055517f17307eab39ab6107e8899845ad3d59bd9653f200f220920489ca2b5937696c31906116a49085906122d5565b60405180910390a3505050565b6116bc84848461135a565b6116c884848484611a69565b610aa55760405162461bcd60e51b81526004016105e390612331565b6001600160a01b03821661170a5760405162461bcd60e51b81526004016105e390612639565b61171381611018565b156117305760405162461bcd60e51b81526004016105e3906123c8565b61173c60008383611a01565b6001600160a01b038216600090815260686020526040812080546001929061176590849061295f565b909155505060008181526067602052604080822080546001600160a01b0319166001600160a01b03861690811790915590518392907fddf252ad1be2c89b69c2b068fc378daa952ba7f163c4a11628f55a4df523b3ef908290a46108b36000838361069b565b60006001600160e01b031982166380ac58cd60e01b14806117fc57506001600160e01b03198216635b5e139f60e01b145b80610522575061052282611b84565b6060600061181a836002612977565b61182590600261295f565b67ffffffffffffffff81111561184b57634e487b7160e01b600052604160045260246000fd5b6040519080825280601f01601f191660200182016040528015611875576020820181803683370190505b509050600360fc1b8160008151811061189e57634e487b7160e01b600052603260045260246000fd5b60200101906001600160f81b031916908160001a905350600f60fb1b816001815181106118db57634e487b7160e01b600052603260045260246000fd5b60200101906001600160f81b031916908160001a90535060006118ff846002612977565b61190a90600161295f565b90505b600181111561199e576f181899199a1a9b1b9c1cb0b131b232b360811b85600f166010811061194c57634e487b7160e01b600052603260045260246000fd5b1a60f81b82828151811061197057634e487b7160e01b600052603260045260246000fd5b60200101906001600160f81b031916908160001a90535060049490941c93611997816129d9565b905061190d565b5083156119bd5760405162461bcd60e51b81526004016105e3906122fc565b9392505050565b7f3fa96d7b6bcbfe71ef171666d84db3cf52fa2d1c8afdb1cc8e486177f208b7df82826040516119f59291906128ed565b60405180910390a15050565b61069b83838361069b565b6001600160a01b03163b151590565b600054610100900460ff16611a425760405162461bcd60e51b81526004016105e390612791565b8151611a55906065906020850190611b9d565b50805161069b906066906020840190611b9d565b6000611a7d846001600160a01b0316611a0c565b15611b7957836001600160a01b031663150b7a02611a99610fef565b8786866040518563ffffffff1660e01b8152600401611abb9493929190612285565b602060405180830381600087803b158015611ad557600080fd5b505af1925050508015611b05575060408051601f3d908101601f19168201909252611b0291810190611f48565b60015b611b5f573d808015611b33576040519150601f19603f3d011682016040523d82523d6000602084013e611b38565b606091505b508051611b575760405162461bcd60e51b81526004016105e390612331565b805181602001fd5b6001600160e01b031916630a85bd0160e11b149050611352565b506001949350505050565b6001600160e01b031981166301ffc9a760e01b14919050565b828054611ba9906129f0565b90600052602060002090601f016020900481019282611bcb5760008555611c11565b82601f10611be457805160ff1916838001178555611c11565b82800160010185558215611c11579182015b82811115611c11578251825591602001919060010190611bf6565b50611c1d929150611c38565b5090565b604080518082019091526000808252602082015290565b5b80821115611c1d5760008155600101611c39565b6000611c60611c5b84612937565b612906565b9050828152838383011115611c7457600080fd5b828260208301376000602084830101529392505050565b803561052581612a72565b600082601f830112611ca6578081fd5b6119bd83833560208501611c4d565b600060208284031215611cc6578081fd5b81356119bd81612a72565b60008060408385031215611ce3578081fd5b8235611cee81612a72565b91506020830135611cfe81612a72565b809150509250929050565b600080600060608486031215611d1d578081fd5b8335611d2881612a72565b92506020840135611d3881612a72565b929592945050506040919091013590565b60008060008060808587031215611d5e578081fd5b8435611d6981612a72565b93506020850135611d7981612a72565b925060408501359150606085013567ffffffffffffffff811115611d9b578182fd5b8501601f81018713611dab578182fd5b611dba87823560208401611c4d565b91505092959194509250565b60008060408385031215611dd8578182fd5b8235611de381612a72565b915060208301358015158114611cfe578182fd5b60008060408385031215611e09578182fd5b8235611e1481612a72565b946020939093013593505050565b600080600060608486031215611e36578081fd5b833567ffffffffffffffff80821115611e4d578283fd5b818601915086601f830112611e60578283fd5b8135602082821115611e7457611e74612a5c565b8082029250611e84818401612906565b8281528181019085830185870184018c1015611e9e578788fd5b8796505b84871015611ecc5780359550611eb786612a72565b85835260019690960195918301918301611ea2565b509750611edc9050888201611c8b565b955050505050604084013590509250925092565b600060208284031215611f01578081fd5b5035919050565b60008060408385031215611f1a578182fd5b823591506020830135611cfe81612a72565b600060208284031215611f3d578081fd5b81356119bd81612a8a565b600060208284031215611f59578081fd5b81516119bd81612a8a565b600060208284031215611f75578081fd5b815167ffffffffffffffff811115611f8b578182fd5b8201601f81018413611f9b578182fd5b8051611fa9611c5b82612937565b818152856020838501011115611fbd578384fd5b611fce8260208301602086016129ad565b95945050505050565b60008060408385031215611fe9578182fd5b823567ffffffffffffffff80821115612000578384fd5b61200c86838701611c96565b93506020850135915080821115612021578283fd5b5061202e85828601611c96565b9150509250929050565b600060208284031215612049578081fd5b813567ffffffffffffffff80821115612060578283fd5b9083019060a08286031215612073578283fd5b61207d60a0612906565b82358281111561208b578485fd5b61209787828601611c96565b8252506020830135828111156120ab578485fd5b6120b787828601611c96565b6020830152506040830135828111156120ce578485fd5b6120da87828601611c96565b6040830152506120ec60608401611c8b565b60608201526080830135608082015280935050505092915050565b60008060006060848603121561211b578081fd5b83359250602084013561212d81612a72565b915060408401356001600160601b0381168114612148578182fd5b809150509250925092565b600080600060608486031215612167578081fd5b833592506020840135611d3881612a72565b6000815180845260208085019450808401835b838110156121c557815180516001600160a01b031688528301516001600160601b0316838801526040909601959082019060010161218c565b509495945050505050565b600081518084526121e88160208601602086016129ad565b601f01601f19169290920160200192915050565b60007f416363657373436f6e74726f6c3a206163636f756e7420000000000000000000825283516122348160178501602088016129ad565b7001034b99036b4b9b9b4b733903937b6329607d1b60179184019182015283516122658160288401602088016129ad565b01602801949350505050565b6001600160a01b0391909116815260200190565b6001600160a01b03858116825284166020820152604081018390526080606082018190526000906122b8908301846121d0565b9695505050505050565b6000602082526119bd6020830184612179565b901515815260200190565b90815260200190565b6000602082526119bd60208301846121d0565b6020808252818101527f537472696e67733a20686578206c656e67746820696e73756666696369656e74604082015260600190565b60208082526032908201527f4552433732313a207472616e7366657220746f206e6f6e20455243373231526560408201527131b2b4bb32b91034b6b83632b6b2b73a32b960711b606082015260800190565b60208082526025908201527f4552433732313a207472616e736665722066726f6d20696e636f72726563742060408201526437bbb732b960d91b606082015260800190565b6020808252601c908201527f4552433732313a20746f6b656e20616c7265616479206d696e74656400000000604082015260600190565b60208082526024908201527f4552433732313a207472616e7366657220746f20746865207a65726f206164646040820152637265737360e01b606082015260800190565b60208082526019908201527f4552433732313a20617070726f766520746f2063616c6c657200000000000000604082015260600190565b6020808252602c908201527f4552433732313a206f70657261746f7220717565727920666f72206e6f6e657860408201526b34b9ba32b73a103a37b5b2b760a11b606082015260800190565b6020808252818101527f526f79616c74792076616c75652073686f756c6420626520706f736974697665604082015260600190565b60208082526038908201527f4552433732313a20617070726f76652063616c6c6572206973206e6f74206f7760408201527f6e6572206e6f7220617070726f76656420666f7220616c6c0000000000000000606082015260800190565b6020808252602a908201527f4552433732313a2062616c616e636520717565727920666f7220746865207a65604082015269726f206164647265737360b01b606082015260800190565b60208082526029908201527f4552433732313a206f776e657220717565727920666f72206e6f6e657869737460408201526832b73a103a37b5b2b760b91b606082015260800190565b6020808252602e908201527f496e697469616c697a61626c653a20636f6e747261637420697320616c72656160408201526d191e481a5b9a5d1a585b1a5e995960921b606082015260800190565b6020808252818101527f4552433732313a206d696e7420746f20746865207a65726f2061646472657373604082015260600190565b6020808252602c908201527f4552433732313a20617070726f76656420717565727920666f72206e6f6e657860408201526b34b9ba32b73a103a37b5b2b760a11b606082015260800190565b60208082526021908201527f4552433732313a20617070726f76616c20746f2063757272656e74206f776e656040820152603960f91b606082015260800190565b60208082526031908201527f4552433732313a207472616e736665722063616c6c6572206973206e6f74206f6040820152701ddb995c881b9bdc88185c1c1c9bdd9959607a1b606082015260800190565b60208082526025908201527f526f79616c747920746f74616c2076616c75652073686f756c64206265203c20604082015264031303030360dc1b606082015260800190565b6020808252602b908201527f496e697469616c697a61626c653a20636f6e7472616374206973206e6f74206960408201526a6e697469616c697a696e6760a81b606082015260800190565b6020808252601b908201527f526563697069656e742073686f756c642062652070726573656e740000000000604082015260600190565b6020808252602f908201527f416363657373436f6e74726f6c3a2063616e206f6e6c792072656e6f756e636560408201526e103937b632b9903337b91039b2b63360891b606082015260800190565b600060408252835160a0604084015261287e60e08401826121d0565b90506020850151603f198085840301606086015261289c83836121d0565b92506040870151915080858403016080860152506128ba82826121d0565b60608701516001600160a01b031660a0860152608087015160c086015284810360208601529150611fce905081856121d0565b6000838252604060208301526113526040830184612179565b604051601f8201601f1916810167ffffffffffffffff8111828210171561292f5761292f612a5c565b604052919050565b600067ffffffffffffffff82111561295157612951612a5c565b50601f01601f191660200190565b6000821982111561297257612972612a46565b500190565b600081600019048311821515161561299157612991612a46565b500290565b6000828210156129a8576129a8612a46565b500390565b60005b838110156129c85781810151838201526020016129b0565b83811115610aa55750506000910152565b6000816129e8576129e8612a46565b506000190190565b600281046001821680612a0457607f821691505b60208210811415612a2557634e487b7160e01b600052602260045260246000fd5b50919050565b6000600019821415612a3f57612a3f612a46565b5060010190565b634e487b7160e01b600052601160045260246000fd5b634e487b7160e01b600052604160045260246000fd5b6001600160a01b0381168114612a8757600080fd5b50565b6001600160e01b031981168114612a8757600080fdfea2646970667358221220387d822b95808d5404ada8ad51ffd7f762917561f876f17d094fdb284b03fce964736f6c63430008010033",
  "libraries": {
    "NFTDescriptor": "0xC0D95e9D51A64afC1AEED4E3C1838710E6a0E46E"
  },
  "devdoc": {
    "kind": "dev",
    "methods": {
      "approve(address,uint256)": {
        "details": "See {IERC721-approve}."
      },
      "balanceOf(address)": {
        "details": "See {IERC721-balanceOf}."
      },
      "getApproved(uint256)": {
        "details": "See {IERC721-getApproved}."
      },
      "getRoleAdmin(bytes32)": {
        "details": "Returns the admin role that controls `role`. See {grantRole} and {revokeRole}. To change a role's admin, use {_setRoleAdmin}."
      },
      "grantRole(bytes32,address)": {
        "details": "Grants `role` to `account`. If `account` had not been already granted `role`, emits a {RoleGranted} event. Requirements: - the caller must have ``role``'s admin role."
      },
      "hasRole(bytes32,address)": {
        "details": "Returns `true` if `account` has been granted `role`."
      },
      "isApprovedForAll(address,address)": {
        "details": "See {IERC721-isApprovedForAll}."
      },
      "name()": {
        "details": "See {IERC721Metadata-name}."
      },
      "ownerOf(uint256)": {
        "details": "See {IERC721-ownerOf}."
      },
      "renounceRole(bytes32,address)": {
        "details": "Revokes `role` from the calling account. Roles are often managed via {grantRole} and {revokeRole}: this function's purpose is to provide a mechanism for accounts to lose their privileges if they are compromised (such as when a trusted device is misplaced). If the calling account had been revoked `role`, emits a {RoleRevoked} event. Requirements: - the caller must be `account`."
      },
      "revokeRole(bytes32,address)": {
        "details": "Revokes `role` from `account`. If `account` had been granted `role`, emits a {RoleRevoked} event. Requirements: - the caller must have ``role``'s admin role."
      },
      "safeTransferFrom(address,address,uint256)": {
        "details": "See {IERC721-safeTransferFrom}."
      },
      "safeTransferFrom(address,address,uint256,bytes)": {
        "details": "See {IERC721-safeTransferFrom}."
      },
      "setApprovalForAll(address,bool)": {
        "details": "See {IERC721-setApprovalForAll}."
      },
      "symbol()": {
        "details": "See {IERC721Metadata-symbol}."
      },
      "tokenURI(uint256)": {
        "details": "See {IERC721Metadata-tokenURI}."
      },
      "transferFrom(address,address,uint256)": {
        "details": "See {IERC721-transferFrom}."
      }
    },
    "version": 1
  },
  "userdoc": {
    "kind": "user",
    "methods": {},
    "version": 1
  },
  "storageLayout": {
    "storage": [
      {
        "astId": 408,
        "contract": "src/sl.sol:MIRE",
        "label": "_initialized",
        "offset": 0,
        "slot": "0",
        "type": "t_bool"
      },
      {
        "astId": 411,
        "contract": "src/sl.sol:MIRE",
        "label": "_initializing",
        "offset": 1,
        "slot": "0",
        "type": "t_bool"
      },
      {
        "astId": 1811,
        "contract": "src/sl.sol:MIRE",
        "label": "__gap",
        "offset": 0,
        "slot": "1",
        "type": "t_array(t_uint256)50_storage"
      },
      {
        "astId": 2058,
        "contract": "src/sl.sol:MIRE",
        "label": "__gap",
        "offset": 0,
        "slot": "51",
        "type": "t_array(t_uint256)50_storage"
      },
      {
        "astId": 504,
        "contract": "src/sl.sol:MIRE",
        "label": "_name",
        "offset": 0,
        "slot": "101",
        "type": "t_string_storage"
      },
      {
        "astId": 506,
        "contract": "src/sl.sol:MIRE",
        "label": "_symbol",
        "offset": 0,
        "slot": "102",
        "type": "t_string_storage"
      },
      {
        "astId": 510,
        "contract": "src/sl.sol:MIRE",
        "label": "_owners",
        "offset": 0,
        "slot": "103",
        "type": "t_mapping(t_uint256,t_address)"
      },
      {
        "astId": 514,
        "contract": "src/sl.sol:MIRE",
        "label": "_balances",
        "offset": 0,
        "slot": "104",
        "type": "t_mapping(t_address,t_uint256)"
      },
      {
        "astId": 518,
        "contract": "src/sl.sol:MIRE",
        "label": "_tokenApprovals",
        "offset": 0,
        "slot": "105",
        "type": "t_mapping(t_uint256,t_address)"
      },
      {
        "astId": 524,
        "contract": "src/sl.sol:MIRE",
        "label": "_operatorApprovals",
        "offset": 0,
        "slot": "106",
        "type": "t_mapping(t_address,t_mapping(t_address,t_bool))"
      },
      {
        "astId": 1365,
        "contract": "src/sl.sol:MIRE",
        "label": "__gap",
        "offset": 0,
        "slot": "107",
        "type": "t_array(t_uint256)44_storage"
      },
      {
        "astId": 2459,
        "contract": "src/sl.sol:MIRE",
        "label": "royalties",
        "offset": 0,
        "slot": "151",
        "type": "t_mapping(t_uint256,t_array(t_struct(Part)2401_storage)dyn_storage)"
      },
      {
        "astId": 39,
        "contract": "src/sl.sol:MIRE",
        "label": "_roles",
        "offset": 0,
        "slot": "152",
        "type": "t_mapping(t_bytes32,t_struct(RoleData)34_storage)"
      },
      {
        "astId": 327,
        "contract": "src/sl.sol:MIRE",
        "label": "__gap",
        "offset": 0,
        "slot": "153",
        "type": "t_array(t_uint256)49_storage"
      },
      {
        "astId": 3130,
        "contract": "src/sl.sol:MIRE",
        "label": "cloneMappingAddress",
        "offset": 0,
        "slot": "202",
        "type": "t_mapping(t_uint256,t_contract(IERC721MetadataTokenURI)3111)"
      },
      {
        "astId": 3134,
        "contract": "src/sl.sol:MIRE",
        "label": "cloneMappingId",
        "offset": 0,
        "slot": "203",
        "type": "t_mapping(t_uint256,t_uint256)"
      },
      {
        "astId": 3138,
        "contract": "src/sl.sol:MIRE",
        "label": "cloneMappingValue",
        "offset": 0,
        "slot": "204",
        "type": "t_mapping(t_uint256,t_uint256)"
      },
      {
        "astId": 3140,
        "contract": "src/sl.sol:MIRE",
        "label": "_name",
        "offset": 0,
        "slot": "205",
        "type": "t_string_storage"
      },
      {
        "astId": 3142,
        "contract": "src/sl.sol:MIRE",
        "label": "_symbol",
        "offset": 0,
        "slot": "206",
        "type": "t_string_storage"
      },
      {
        "astId": 3144,
        "contract": "src/sl.sol:MIRE",
        "label": "mTokenId",
        "offset": 0,
        "slot": "207",
        "type": "t_uint256"
      },
      {
        "astId": 3147,
        "contract": "src/sl.sol:MIRE",
        "label": "contractMetadata",
        "offset": 0,
        "slot": "208",
        "type": "t_struct(ConstructContractURIParams)2671_storage"
      },
      {
        "astId": 3149,
        "contract": "src/sl.sol:MIRE",
        "label": "version",
        "offset": 0,
        "slot": "213",
        "type": "t_uint256"
      }
    ],
    "types": {
      "t_address": {
        "encoding": "inplace",
        "label": "address",
        "numberOfBytes": "20"
      },
      "t_address_payable": {
        "encoding": "inplace",
        "label": "address payable",
        "numberOfBytes": "20"
      },
      "t_array(t_struct(Part)2401_storage)dyn_storage": {
        "base": "t_struct(Part)2401_storage",
        "encoding": "dynamic_array",
        "label": "struct LibPart.Part[]",
        "numberOfBytes": "32"
      },
      "t_array(t_uint256)44_storage": {
        "base": "t_uint256",
        "encoding": "inplace",
        "label": "uint256[44]",
        "numberOfBytes": "1408"
      },
      "t_array(t_uint256)49_storage": {
        "base": "t_uint256",
        "encoding": "inplace",
        "label": "uint256[49]",
        "numberOfBytes": "1568"
      },
      "t_array(t_uint256)50_storage": {
        "base": "t_uint256",
        "encoding": "inplace",
        "label": "uint256[50]",
        "numberOfBytes": "1600"
      },
      "t_bool": {
        "encoding": "inplace",
        "label": "bool",
        "numberOfBytes": "1"
      },
      "t_bytes32": {
        "encoding": "inplace",
        "label": "bytes32",
        "numberOfBytes": "32"
      },
      "t_contract(IERC721MetadataTokenURI)3111": {
        "encoding": "inplace",
        "label": "contract IERC721MetadataTokenURI",
        "numberOfBytes": "20"
      },
      "t_mapping(t_address,t_bool)": {
        "encoding": "mapping",
        "key": "t_address",
        "label": "mapping(address => bool)",
        "numberOfBytes": "32",
        "value": "t_bool"
      },
      "t_mapping(t_address,t_mapping(t_address,t_bool))": {
        "encoding": "mapping",
        "key": "t_address",
        "label": "mapping(address => mapping(address => bool))",
        "numberOfBytes": "32",
        "value": "t_mapping(t_address,t_bool)"
      },
      "t_mapping(t_address,t_uint256)": {
        "encoding": "mapping",
        "key": "t_address",
        "label": "mapping(address => uint256)",
        "numberOfBytes": "32",
        "value": "t_uint256"
      },
      "t_mapping(t_bytes32,t_struct(RoleData)34_storage)": {
        "encoding": "mapping",
        "key": "t_bytes32",
        "label": "mapping(bytes32 => struct AccessControlUpgradeable.RoleData)",
        "numberOfBytes": "32",
        "value": "t_struct(RoleData)34_storage"
      },
      "t_mapping(t_uint256,t_address)": {
        "encoding": "mapping",
        "key": "t_uint256",
        "label": "mapping(uint256 => address)",
        "numberOfBytes": "32",
        "value": "t_address"
      },
      "t_mapping(t_uint256,t_array(t_struct(Part)2401_storage)dyn_storage)": {
        "encoding": "mapping",
        "key": "t_uint256",
        "label": "mapping(uint256 => struct LibPart.Part[])",
        "numberOfBytes": "32",
        "value": "t_array(t_struct(Part)2401_storage)dyn_storage"
      },
      "t_mapping(t_uint256,t_contract(IERC721MetadataTokenURI)3111)": {
        "encoding": "mapping",
        "key": "t_uint256",
        "label": "mapping(uint256 => contract IERC721MetadataTokenURI)",
        "numberOfBytes": "32",
        "value": "t_contract(IERC721MetadataTokenURI)3111"
      },
      "t_mapping(t_uint256,t_uint256)": {
        "encoding": "mapping",
        "key": "t_uint256",
        "label": "mapping(uint256 => uint256)",
        "numberOfBytes": "32",
        "value": "t_uint256"
      },
      "t_string_storage": {
        "encoding": "bytes",
        "label": "string",
        "numberOfBytes": "32"
      },
      "t_struct(ConstructContractURIParams)2671_storage": {
        "encoding": "inplace",
        "label": "struct NFTDescriptor.ConstructContractURIParams",
        "members": [
          {
            "astId": 2662,
            "contract": "src/sl.sol:MIRE",
            "label": "imageURL",
            "offset": 0,
            "slot": "0",
            "type": "t_string_storage"
          },
          {
            "astId": 2664,
            "contract": "src/sl.sol:MIRE",
            "label": "description",
            "offset": 0,
            "slot": "1",
            "type": "t_string_storage"
          },
          {
            "astId": 2666,
            "contract": "src/sl.sol:MIRE",
            "label": "externalURL",
            "offset": 0,
            "slot": "2",
            "type": "t_string_storage"
          },
          {
            "astId": 2668,
            "contract": "src/sl.sol:MIRE",
            "label": "royaltiesRecipient",
            "offset": 0,
            "slot": "3",
            "type": "t_address_payable"
          },
          {
            "astId": 2670,
            "contract": "src/sl.sol:MIRE",
            "label": "royaltiesFeeBasisPoints",
            "offset": 0,
            "slot": "4",
            "type": "t_uint256"
          }
        ],
        "numberOfBytes": "160"
      },
      "t_struct(Part)2401_storage": {
        "encoding": "inplace",
        "label": "struct LibPart.Part",
        "members": [
          {
            "astId": 2398,
            "contract": "src/sl.sol:MIRE",
            "label": "account",
            "offset": 0,
            "slot": "0",
            "type": "t_address_payable"
          },
          {
            "astId": 2400,
            "contract": "src/sl.sol:MIRE",
            "label": "value",
            "offset": 20,
            "slot": "0",
            "type": "t_uint96"
          }
        ],
        "numberOfBytes": "32"
      },
      "t_struct(RoleData)34_storage": {
        "encoding": "inplace",
        "label": "struct AccessControlUpgradeable.RoleData",
        "members": [
          {
            "astId": 31,
            "contract": "src/sl.sol:MIRE",
            "label": "members",
            "offset": 0,
            "slot": "0",
            "type": "t_mapping(t_address,t_bool)"
          },
          {
            "astId": 33,
            "contract": "src/sl.sol:MIRE",
            "label": "adminRole",
            "offset": 0,
            "slot": "1",
            "type": "t_bytes32"
          }
        ],
        "numberOfBytes": "64"
      },
      "t_uint256": {
        "encoding": "inplace",
        "label": "uint256",
        "numberOfBytes": "32"
      },
      "t_uint96": {
        "encoding": "inplace",
        "label": "uint96",
        "numberOfBytes": "12"
      }
    }
  }
}