{
  "address": "0xAbB7A86e08fA37D9E15B12C3827ee86ADc3716fb",
  "abi": [
    {
      "inputs": [],
      "stateMutability": "nonpayable",
      "type": "constructor"
    },
    {
      "inputs": [
        {
          "components": [
            {
              "internalType": "string",
              "name": "imageipfsURL",
              "type": "string"
            },
            {
              "internalType": "string",
              "name": "animationipfsURL",
              "type": "string"
            }
          ],
          "internalType": "struct ShowerLovers.AssetsipfsURL[]",
          "name": "_urls",
          "type": "tuple[]"
        }
      ],
      "name": "getURLS",
      "outputs": [
        {
          "components": [
            {
              "internalType": "string",
              "name": "imageipfsURL",
              "type": "string"
            },
            {
              "internalType": "string",
              "name": "animationipfsURL",
              "type": "string"
            }
          ],
          "internalType": "struct ShowerLovers.AssetsipfsURL[]",
          "name": "",
          "type": "tuple[]"
        }
      ],
      "stateMutability": "pure",
      "type": "function"
    },
    {
      "inputs": [
        {
          "internalType": "uint256",
          "name": "id",
          "type": "uint256"
        }
      ],
      "name": "metadata",
      "outputs": [
        {
          "internalType": "string",
          "name": "",
          "type": "string"
        }
      ],
      "stateMutability": "view",
      "type": "function"
    },
    {
      "inputs": [],
      "name": "name",
      "outputs": [
        {
          "internalType": "string",
          "name": "",
          "type": "string"
        }
      ],
      "stateMutability": "pure",
      "type": "function"
    },
    {
      "inputs": [
        {
          "internalType": "bytes4",
          "name": "interfaceID",
          "type": "bytes4"
        }
      ],
      "name": "supportsInterface",
      "outputs": [
        {
          "internalType": "bool",
          "name": "",
          "type": "bool"
        }
      ],
      "stateMutability": "view",
      "type": "function"
    },
    {
      "inputs": [],
      "name": "symbol",
      "outputs": [
        {
          "internalType": "string",
          "name": "",
          "type": "string"
        }
      ],
      "stateMutability": "pure",
      "type": "function"
    },
    {
      "inputs": [
        {
          "internalType": "uint256",
          "name": "id",
          "type": "uint256"
        }
      ],
      "name": "tokenURI",
      "outputs": [
        {
          "internalType": "string",
          "name": "",
          "type": "string"
        }
      ],
      "stateMutability": "view",
      "type": "function"
    },
    {
      "inputs": [],
      "name": "totalSupply",
      "outputs": [
        {
          "internalType": "uint256",
          "name": "",
          "type": "uint256"
        }
      ],
      "stateMutability": "view",
      "type": "function"
    }
  ],
  "transactionHash": "0x2e3bcc721b09af86b60a4e6914311b2749ca138104d4753e11544dbea11ce743",
  "args": [],
  "numDeployments": 1,
  "solcInputHash": "aae616e2dcb68ccfdb2ff51937a6ccc5",
  "bytecode": "0x60806040523480156200001157600080fd5b50620000386000604051806060016040528060408152602001620011e56040913962000276565b6200005e6001604051806060016040528060408152602001620012a56040913962000276565b620000846002604051806060016040528060408152602001620013256040913962000276565b620000aa6003604051806060016040528060408152602001620012256040913962000276565b620000d06004604051806060016040528060408152602001620014a56040913962000276565b620000f66005604051806060016040528060408152602001620013656040913962000276565b6200011c6006604051806060016040528060408152602001620014256040913962000276565b620001426007604051806060016040528060408152602001620012e56040913962000276565b620001686008604051806060016040528060408152602001620014656040913962000276565b6200018e6009604051806060016040528060408152602001620013e56040913962000276565b620001b4600a604051806060016040528060408152602001620012656040913962000276565b620001da600b604051806060016040528060408152602001620013a56040913962000276565b62000200600c604051806060016040528060408152602001620011a56040913962000276565b600d600255600060208190527ff7815fccbf112960a73756e185887fedcb9fc64ca0a16cc5923b7960ed7808008054600160ff199182168117909255635b5e139f60e01b9092527f9562381dfbc2d8b8b66e765249f330164b73e329e5f01670660643571d1974df8054909216179055620004e7565b806040516020016200028991906200044a565b60408051601f198184030181529181526000848152600160209081529190208251620002bb9391929091019062000308565b5080604051602001620002cf9190620003ea565b60408051601f1981840301815291815260008481526001602081815292909120835162000303949190920192019062000308565b505050565b8280546200031690620004aa565b90600052602060002090601f0160209004810192826200033a576000855562000385565b82601f106200035557805160ff191683800117855562000385565b8280016001018555821562000385579182015b828111156200038557825182559160200191906001019062000368565b506200039392915062000397565b5090565b5b8082111562000393576000815560010162000398565b60008151815b81811015620003d05760208185018101518683015201620003b4565b81811115620003df5782828601525b509290920192915050565b60007f516d516252727054446532734d5474485476325559564b72674c584b3670464682526e384850456652784a3676736153672f60881b602083015262000436602f830184620003ae565b630b9b5c0d60e21b81526004019392505050565b60007f516d5574714d4a6f7741717764426d714c6e48676f4e7852765679346d34457a82526e585a566e57707a6f7031426463622f60881b602083015262000496602f830184620003ae565b632e6a706760e01b81526004019392505050565b600281046001821680620004bf57607f821691505b60208210811415620004e157634e487b7160e01b600052602260045260246000fd5b50919050565b610cae80620004f76000396000f3fe608060405234801561001057600080fd5b506004361061007d5760003560e01c806318160ddd1161005b57806318160ddd146100e057806395d89b41146100f5578063c87b56dd146100fd578063e3684e39146101105761007d565b806301ffc9a71461008257806306fdde03146100ab578063176af76d146100c0575b600080fd5b610095610090366004610700565b610123565b6040516100a29190610a96565b60405180910390f35b6100b3610146565b6040516100a29190610aa1565b6100d36100ce366004610609565b61016f565b6040516100a29190610a14565b6100e8610172565b6040516100a29190610ab4565b6100b3610178565b6100b361010b36600461072f565b61019c565b6100b361011e36600461072f565b610225565b6001600160e01b0319811660009081526020819052604090205460ff165b919050565b60408051808201909152600f81526e532e686f776572204c2e6f7665727360881b602082015290565b90565b60025490565b60408051808201909152600a815269f09f9abfe29da4efb88f60b01b602082015290565b6000818152600160205260408120805460609291906101ba90610b8c565b9050116101c657600080fd5b600082815260016020819052604082200180546101e290610b8c565b9050116101ee57600080fd5b6101ff6101fa83610225565b610306565b60405160200161020f91906109cf565b6040516020818303038152906040529050919050565b606080610233600284610be2565b61026f5761023f610178565b6102488461047b565b60405160200161025992919061080b565b60405160208183030381529060405290506102a3565b610277610178565b6102808461047b565b604051602001610291929190610858565b60405160208183030381529060405290505b6102ab610146565b816040516020016102bb90610989565b60408051601f19818403018152828252600088815260016020818152939091206102ef9695949293909291830191016108a5565b604051602081830303815290604052915050919050565b60608151600014156103275750604080516020810190915260008152610141565b6000604051806060016040528060408152602001610c3960409139905060006003845160026103569190610afa565b6103609190610b12565b61036b906004610b26565b9050600061037a826020610afa565b67ffffffffffffffff8111156103a057634e487b7160e01b600052604160045260246000fd5b6040519080825280601f01601f1916602001820160405280156103ca576020820181803683370190505b509050818152600183018586518101602084015b81831015610436576003830192508251603f8160121c168501518253600182019150603f81600c1c168501518253600182019150603f8160061c168501518253600182019150603f81168501518253506001016103de565b60038951066001811461045057600281146104615761046d565b613d3d60f01b60011983015261046d565b603d60f81b6000198301525b509398975050505050505050565b6060816104a057506040805180820190915260018152600360fc1b6020820152610141565b8160005b81156104ca57806104b481610bc7565b91506104c39050600a83610b12565b91506104a4565b60008167ffffffffffffffff8111156104f357634e487b7160e01b600052604160045260246000fd5b6040519080825280601f01601f19166020018201604052801561051d576020820181803683370190505b5090505b841561059657610532600183610b45565b915061053f600a86610be2565b61054a906030610afa565b60f81b81838151811061056d57634e487b7160e01b600052603260045260246000fd5b60200101906001600160f81b031916908160001a90535061058f600a86610b12565b9450610521565b949350505050565b600082601f8301126105ae578081fd5b813567ffffffffffffffff8111156105c8576105c8610c22565b6105db601f8201601f1916602001610abd565b8181528460208386010111156105ef578283fd5b816020850160208301379081016020019190915292915050565b6000602080838503121561061b578182fd5b823567ffffffffffffffff80821115610632578384fd5b818501915085601f830112610645578384fd5b81358181111561065757610657610c22565b6106648485830201610abd565b81815284810190848601875b848110156106f15781358701604080601f19838f03011215610690578a8bfd5b61069981610abd565b8a830135898111156106a9578c8dfd5b6106b78f8d8387010161059e565b8252509082013590888211156106cb578b8cfd5b6106d98e8c8486010161059e565b818c0152865250509287019290870190600101610670565b50909998505050505050505050565b600060208284031215610711578081fd5b81356001600160e01b031981168114610728578182fd5b9392505050565b600060208284031215610740578081fd5b5035919050565b6000815180845261075f816020860160208601610b5c565b601f01601f19169290920160200192915050565b80546000906002810460018083168061078d57607f831692505b60208084108214156107ad57634e487b7160e01b86526022600452602486fd5b8180156107c157600181146107d2576107ff565b60ff198616895284890196506107ff565b6107db88610aee565b60005b868110156107f75781548b8201529085019083016107de565b505084890196505b50505050505092915050565b6000835161081d818460208801610b5c565b6201016960ed1b908301908152835161083d816003840160208801610b5c565b61615d60f11b60039290910191820152600501949350505050565b6000835161086a818460208801610b5c565b6201016960ed1b908301908152835161088a816003840160208801610b5c565b61615560f11b60039290910191820152600501949350505050565b683d913730b6b2911d1160b91b815285516000906108ca816009850160208b01610b5c565b71111610113232b9b1b934b83a34b7b7111d1160711b60099184019182015286516108fc81601b840160208b01610b5c565b865191019061091281601b840160208a01610b5c565b72222c2022696d616765223a22697066733a2f2f60681b601b9290910191820152610940602e820186610773565b90507f222c2022616e696d6174696f6e5f75726c223a2022697066733a2f2f000000008152610972601c820185610773565b61227d60f01b815260020198975050505050505050565b731116101132bc3a32b93730b62fbab936111d101160611b81527f68747470733a2f2f736b792d6c696768742d736c2e636f6d2f000000000000006014820152602d0190565b60007f646174613a6170706c69636174696f6e2f6a736f6e3b6261736536342c00000082528251610a0781601d850160208701610b5c565b91909101601d0192915050565b60208082528251828201819052600091906040908185019080840286018301878501865b83811015610a8857888303603f1901855281518051878552610a5c88860182610747565b91890151858303868b0152919050610a748183610747565b968901969450505090860190600101610a38565b509098975050505050505050565b901515815260200190565b6000602082526107286020830184610747565b90815260200190565b604051601f8201601f1916810167ffffffffffffffff81118282101715610ae657610ae6610c22565b604052919050565b60009081526020902090565b60008219821115610b0d57610b0d610bf6565b500190565b600082610b2157610b21610c0c565b500490565b6000816000190483118215151615610b4057610b40610bf6565b500290565b600082821015610b5757610b57610bf6565b500390565b60005b83811015610b77578181015183820152602001610b5f565b83811115610b86576000848401525b50505050565b600281046001821680610ba057607f821691505b60208210811415610bc157634e487b7160e01b600052602260045260246000fd5b50919050565b6000600019821415610bdb57610bdb610bf6565b5060010190565b600082610bf157610bf1610c0c565b500690565b634e487b7160e01b600052601160045260246000fd5b634e487b7160e01b600052601260045260246000fd5b634e487b7160e01b600052604160045260246000fdfe4142434445464748494a4b4c4d4e4f505152535455565758595a6162636465666768696a6b6c6d6e6f707172737475767778797a303132333435363738392b2fa264697066735822122024e66da23f3f8e7e88139502d8e2fa16bb6d57c4eb96c792c071b01f30b8cb0464736f6c6343000801003365316666383063343430323265643133353234366634373033633532633734323730393437303038336235383935383336646563306561316364386130663435303931656235376634353135633031663433653332663336383265663836393233326462396330313333386232303339646166376537626635373136386135333235636136353232633561383461333532313630653835346164383062663064353136653632623037376663393664626465646465343439653465343662636561613432346134333064633966303635663138656466333361396131663562646362383638616665623338393431623839613734643562663261313961356366313136316464303937633166663836306537393164643234636533316130643538623133343162636638666538376136646435626339653865343338633562306135656361646233656161646235343631623564613664343831653862633063323135353363636533663139316134616433623663353232636237383261616131353732646165663839626130653030373539633432346536306633616431643032343934643465613135633263316239333862643339326431373762303739346336323764353038626632663537356436373665623837613137353731396631613664363065363032303832346137623432646433356336346435626434656361336662336133646339306537633436353636383034383662303365646431626132323039623164656235633634663962303065323935313766306264623861396564356635613035653165356263316534393039353464646237383862656335386562373265623138346566386233396135656331646630373364656134353132306562383162623432373535313366636431363565386239616364316232643230636230316633303034656265343438636662303462616536313438376138373433353838346536386661353732623139333861316131373931633037656536626364393038646264663634356138643961623635343333633164343833393033656664633635636164393962666664623733633064653263306534636335313463636133663337666136323034356531663164366332396331656232",
  "devdoc": {
    "kind": "dev",
    "methods": {},
    "version": 1
  },
  "userdoc": {
    "kind": "user",
    "methods": {},
    "version": 1
  },
  "storageLayout": {
    "storage": [
      {
        "astId": 3108,
        "contract": "src/experiences.sol:ShowerLovers",
        "label": "supportedInterfaces",
        "offset": 0,
        "slot": "0",
        "type": "t_mapping(t_bytes4,t_bool)"
      },
      {
        "astId": 3113,
        "contract": "src/experiences.sol:ShowerLovers",
        "label": "urls",
        "offset": 0,
        "slot": "1",
        "type": "t_mapping(t_uint256,t_struct(AssetsipfsURL)3104_storage)"
      },
      {
        "astId": 3115,
        "contract": "src/experiences.sol:ShowerLovers",
        "label": "_totalSupply",
        "offset": 0,
        "slot": "2",
        "type": "t_uint256"
      }
    ],
    "types": {
      "t_bool": {
        "encoding": "inplace",
        "label": "bool",
        "numberOfBytes": "1"
      },
      "t_bytes4": {
        "encoding": "inplace",
        "label": "bytes4",
        "numberOfBytes": "4"
      },
      "t_mapping(t_bytes4,t_bool)": {
        "encoding": "mapping",
        "key": "t_bytes4",
        "label": "mapping(bytes4 => bool)",
        "numberOfBytes": "32",
        "value": "t_bool"
      },
      "t_mapping(t_uint256,t_struct(AssetsipfsURL)3104_storage)": {
        "encoding": "mapping",
        "key": "t_uint256",
        "label": "mapping(uint256 => struct ShowerLovers.AssetsipfsURL)",
        "numberOfBytes": "32",
        "value": "t_struct(AssetsipfsURL)3104_storage"
      },
      "t_string_storage": {
        "encoding": "bytes",
        "label": "string",
        "numberOfBytes": "32"
      },
      "t_struct(AssetsipfsURL)3104_storage": {
        "encoding": "inplace",
        "label": "struct ShowerLovers.AssetsipfsURL",
        "members": [
          {
            "astId": 3101,
            "contract": "src/experiences.sol:ShowerLovers",
            "label": "imageipfsURL",
            "offset": 0,
            "slot": "0",
            "type": "t_string_storage"
          },
          {
            "astId": 3103,
            "contract": "src/experiences.sol:ShowerLovers",
            "label": "animationipfsURL",
            "offset": 0,
            "slot": "1",
            "type": "t_string_storage"
          }
        ],
        "numberOfBytes": "64"
      },
      "t_uint256": {
        "encoding": "inplace",
        "label": "uint256",
        "numberOfBytes": "32"
      }
    }
  }
}