{
  "address": "0x5C61047c1dE99A17727f7E3D3AEFe08522B766D4",
  "abi": [
    {
      "anonymous": false,
      "inputs": [
        {
          "indexed": true,
          "internalType": "address",
          "name": "owner",
          "type": "address"
        },
        {
          "indexed": true,
          "internalType": "address",
          "name": "approved",
          "type": "address"
        },
        {
          "indexed": true,
          "internalType": "uint256",
          "name": "tokenId",
          "type": "uint256"
        }
      ],
      "name": "Approval",
      "type": "event"
    },
    {
      "anonymous": false,
      "inputs": [
        {
          "indexed": true,
          "internalType": "address",
          "name": "owner",
          "type": "address"
        },
        {
          "indexed": true,
          "internalType": "address",
          "name": "operator",
          "type": "address"
        },
        {
          "indexed": false,
          "internalType": "bool",
          "name": "approved",
          "type": "bool"
        }
      ],
      "name": "ApprovalForAll",
      "type": "event"
    },
    {
      "anonymous": false,
      "inputs": [
        {
          "indexed": true,
          "internalType": "bytes32",
          "name": "role",
          "type": "bytes32"
        },
        {
          "indexed": true,
          "internalType": "bytes32",
          "name": "previousAdminRole",
          "type": "bytes32"
        },
        {
          "indexed": true,
          "internalType": "bytes32",
          "name": "newAdminRole",
          "type": "bytes32"
        }
      ],
      "name": "RoleAdminChanged",
      "type": "event"
    },
    {
      "anonymous": false,
      "inputs": [
        {
          "indexed": true,
          "internalType": "bytes32",
          "name": "role",
          "type": "bytes32"
        },
        {
          "indexed": true,
          "internalType": "address",
          "name": "account",
          "type": "address"
        },
        {
          "indexed": true,
          "internalType": "address",
          "name": "sender",
          "type": "address"
        }
      ],
      "name": "RoleGranted",
      "type": "event"
    },
    {
      "anonymous": false,
      "inputs": [
        {
          "indexed": true,
          "internalType": "bytes32",
          "name": "role",
          "type": "bytes32"
        },
        {
          "indexed": true,
          "internalType": "address",
          "name": "account",
          "type": "address"
        },
        {
          "indexed": true,
          "internalType": "address",
          "name": "sender",
          "type": "address"
        }
      ],
      "name": "RoleRevoked",
      "type": "event"
    },
    {
      "anonymous": false,
      "inputs": [
        {
          "indexed": false,
          "internalType": "uint256",
          "name": "tokenId",
          "type": "uint256"
        },
        {
          "components": [
            {
              "internalType": "address payable",
              "name": "account",
              "type": "address"
            },
            {
              "internalType": "uint96",
              "name": "value",
              "type": "uint96"
            }
          ],
          "indexed": false,
          "internalType": "struct LibPart.Part[]",
          "name": "royalties",
          "type": "tuple[]"
        }
      ],
      "name": "RoyaltiesSet",
      "type": "event"
    },
    {
      "anonymous": false,
      "inputs": [
        {
          "indexed": true,
          "internalType": "address",
          "name": "from",
          "type": "address"
        },
        {
          "indexed": true,
          "internalType": "address",
          "name": "to",
          "type": "address"
        },
        {
          "indexed": true,
          "internalType": "uint256",
          "name": "tokenId",
          "type": "uint256"
        }
      ],
      "name": "Transfer",
      "type": "event"
    },
    {
      "inputs": [],
      "name": "DEFAULT_ADMIN_ROLE",
      "outputs": [
        {
          "internalType": "bytes32",
          "name": "",
          "type": "bytes32"
        }
      ],
      "stateMutability": "view",
      "type": "function"
    },
    {
      "inputs": [
        {
          "internalType": "address",
          "name": "to",
          "type": "address"
        },
        {
          "internalType": "uint256",
          "name": "tokenId",
          "type": "uint256"
        }
      ],
      "name": "approve",
      "outputs": [],
      "stateMutability": "nonpayable",
      "type": "function"
    },
    {
      "inputs": [
        {
          "internalType": "address",
          "name": "owner",
          "type": "address"
        }
      ],
      "name": "balanceOf",
      "outputs": [
        {
          "internalType": "uint256",
          "name": "",
          "type": "uint256"
        }
      ],
      "stateMutability": "view",
      "type": "function"
    },
    {
      "inputs": [
        {
          "internalType": "address[]",
          "name": "to",
          "type": "address[]"
        },
        {
          "internalType": "address",
          "name": "cloneContract",
          "type": "address"
        },
        {
          "internalType": "uint256",
          "name": "cloneId",
          "type": "uint256"
        }
      ],
      "name": "batchMint",
      "outputs": [],
      "stateMutability": "nonpayable",
      "type": "function"
    },
    {
      "inputs": [
        {
          "internalType": "uint256[]",
          "name": "tokenId",
          "type": "uint256[]"
        },
        {
          "internalType": "address[]",
          "name": "cloneContract",
          "type": "address[]"
        },
        {
          "internalType": "uint256[]",
          "name": "cloneId",
          "type": "uint256[]"
        }
      ],
      "name": "batchUpdateClone",
      "outputs": [],
      "stateMutability": "nonpayable",
      "type": "function"
    },
    {
      "inputs": [],
      "name": "contractURI",
      "outputs": [
        {
          "internalType": "string",
          "name": "",
          "type": "string"
        }
      ],
      "stateMutability": "view",
      "type": "function"
    },
    {
      "inputs": [
        {
          "internalType": "uint256",
          "name": "tokenId",
          "type": "uint256"
        }
      ],
      "name": "getApproved",
      "outputs": [
        {
          "internalType": "address",
          "name": "",
          "type": "address"
        }
      ],
      "stateMutability": "view",
      "type": "function"
    },
    {
      "inputs": [
        {
          "internalType": "uint256",
          "name": "id",
          "type": "uint256"
        }
      ],
      "name": "getRaribleV2Royalties",
      "outputs": [
        {
          "components": [
            {
              "internalType": "address payable",
              "name": "account",
              "type": "address"
            },
            {
              "internalType": "uint96",
              "name": "value",
              "type": "uint96"
            }
          ],
          "internalType": "struct LibPart.Part[]",
          "name": "",
          "type": "tuple[]"
        }
      ],
      "stateMutability": "view",
      "type": "function"
    },
    {
      "inputs": [
        {
          "internalType": "bytes32",
          "name": "role",
          "type": "bytes32"
        }
      ],
      "name": "getRoleAdmin",
      "outputs": [
        {
          "internalType": "bytes32",
          "name": "",
          "type": "bytes32"
        }
      ],
      "stateMutability": "view",
      "type": "function"
    },
    {
      "inputs": [
        {
          "internalType": "bytes32",
          "name": "role",
          "type": "bytes32"
        },
        {
          "internalType": "address",
          "name": "account",
          "type": "address"
        }
      ],
      "name": "grantRole",
      "outputs": [],
      "stateMutability": "nonpayable",
      "type": "function"
    },
    {
      "inputs": [
        {
          "internalType": "bytes32",
          "name": "role",
          "type": "bytes32"
        },
        {
          "internalType": "address",
          "name": "account",
          "type": "address"
        }
      ],
      "name": "hasRole",
      "outputs": [
        {
          "internalType": "bool",
          "name": "",
          "type": "bool"
        }
      ],
      "stateMutability": "view",
      "type": "function"
    },
    {
      "inputs": [
        {
          "internalType": "string",
          "name": "name",
          "type": "string"
        },
        {
          "internalType": "string",
          "name": "symbol",
          "type": "string"
        }
      ],
      "name": "init",
      "outputs": [],
      "stateMutability": "nonpayable",
      "type": "function"
    },
    {
      "inputs": [
        {
          "internalType": "address",
          "name": "owner",
          "type": "address"
        },
        {
          "internalType": "address",
          "name": "operator",
          "type": "address"
        }
      ],
      "name": "isApprovedForAll",
      "outputs": [
        {
          "internalType": "bool",
          "name": "",
          "type": "bool"
        }
      ],
      "stateMutability": "view",
      "type": "function"
    },
    {
      "inputs": [
        {
          "internalType": "address",
          "name": "showerlovers",
          "type": "address"
        }
      ],
      "name": "migrate",
      "outputs": [],
      "stateMutability": "nonpayable",
      "type": "function"
    },
    {
      "inputs": [
        {
          "internalType": "address",
          "name": "to",
          "type": "address"
        },
        {
          "internalType": "address",
          "name": "cloneContract",
          "type": "address"
        },
        {
          "internalType": "uint256",
          "name": "cloneId",
          "type": "uint256"
        }
      ],
      "name": "mint",
      "outputs": [],
      "stateMutability": "nonpayable",
      "type": "function"
    },
    {
      "inputs": [],
      "name": "name",
      "outputs": [
        {
          "internalType": "string",
          "name": "",
          "type": "string"
        }
      ],
      "stateMutability": "view",
      "type": "function"
    },
    {
      "inputs": [
        {
          "internalType": "uint256",
          "name": "tokenId",
          "type": "uint256"
        }
      ],
      "name": "ownerOf",
      "outputs": [
        {
          "internalType": "address",
          "name": "",
          "type": "address"
        }
      ],
      "stateMutability": "view",
      "type": "function"
    },
    {
      "inputs": [
        {
          "internalType": "bytes32",
          "name": "role",
          "type": "bytes32"
        },
        {
          "internalType": "address",
          "name": "account",
          "type": "address"
        }
      ],
      "name": "renounceRole",
      "outputs": [],
      "stateMutability": "nonpayable",
      "type": "function"
    },
    {
      "inputs": [
        {
          "internalType": "bytes32",
          "name": "role",
          "type": "bytes32"
        },
        {
          "internalType": "address",
          "name": "account",
          "type": "address"
        }
      ],
      "name": "revokeRole",
      "outputs": [],
      "stateMutability": "nonpayable",
      "type": "function"
    },
    {
      "inputs": [
        {
          "internalType": "address",
          "name": "from",
          "type": "address"
        },
        {
          "internalType": "address",
          "name": "to",
          "type": "address"
        },
        {
          "internalType": "uint256",
          "name": "tokenId",
          "type": "uint256"
        }
      ],
      "name": "safeTransferFrom",
      "outputs": [],
      "stateMutability": "nonpayable",
      "type": "function"
    },
    {
      "inputs": [
        {
          "internalType": "address",
          "name": "from",
          "type": "address"
        },
        {
          "internalType": "address",
          "name": "to",
          "type": "address"
        },
        {
          "internalType": "uint256",
          "name": "tokenId",
          "type": "uint256"
        },
        {
          "internalType": "bytes",
          "name": "_data",
          "type": "bytes"
        }
      ],
      "name": "safeTransferFrom",
      "outputs": [],
      "stateMutability": "nonpayable",
      "type": "function"
    },
    {
      "inputs": [
        {
          "internalType": "address",
          "name": "operator",
          "type": "address"
        },
        {
          "internalType": "bool",
          "name": "approved",
          "type": "bool"
        }
      ],
      "name": "setApprovalForAll",
      "outputs": [],
      "stateMutability": "nonpayable",
      "type": "function"
    },
    {
      "inputs": [
        {
          "components": [
            {
              "internalType": "string",
              "name": "imageURL",
              "type": "string"
            },
            {
              "internalType": "string",
              "name": "description",
              "type": "string"
            },
            {
              "internalType": "string",
              "name": "externalURL",
              "type": "string"
            },
            {
              "internalType": "address payable",
              "name": "royaltiesRecipient",
              "type": "address"
            },
            {
              "internalType": "uint256",
              "name": "royaltiesFeeBasisPoints",
              "type": "uint256"
            }
          ],
          "internalType": "struct NFTDescriptor.ConstructContractURIParams",
          "name": "params",
          "type": "tuple"
        }
      ],
      "name": "setContractURI",
      "outputs": [],
      "stateMutability": "nonpayable",
      "type": "function"
    },
    {
      "inputs": [
        {
          "internalType": "string",
          "name": "name",
          "type": "string"
        },
        {
          "internalType": "string",
          "name": "symbol",
          "type": "string"
        }
      ],
      "name": "setContractsInfo",
      "outputs": [],
      "stateMutability": "nonpayable",
      "type": "function"
    },
    {
      "inputs": [
        {
          "internalType": "uint256",
          "name": "_tokenId",
          "type": "uint256"
        },
        {
          "internalType": "address payable",
          "name": "_royaltiesReceipientAddress",
          "type": "address"
        },
        {
          "internalType": "uint96",
          "name": "_percentageBasisPoints",
          "type": "uint96"
        }
      ],
      "name": "setRoyalties",
      "outputs": [],
      "stateMutability": "nonpayable",
      "type": "function"
    },
    {
      "inputs": [
        {
          "internalType": "bytes4",
          "name": "interfaceId",
          "type": "bytes4"
        }
      ],
      "name": "supportsInterface",
      "outputs": [
        {
          "internalType": "bool",
          "name": "",
          "type": "bool"
        }
      ],
      "stateMutability": "view",
      "type": "function"
    },
    {
      "inputs": [],
      "name": "symbol",
      "outputs": [
        {
          "internalType": "string",
          "name": "",
          "type": "string"
        }
      ],
      "stateMutability": "view",
      "type": "function"
    },
    {
      "inputs": [
        {
          "internalType": "uint256",
          "name": "tokenId",
          "type": "uint256"
        }
      ],
      "name": "tokenURI",
      "outputs": [
        {
          "internalType": "string",
          "name": "",
          "type": "string"
        }
      ],
      "stateMutability": "view",
      "type": "function"
    },
    {
      "inputs": [
        {
          "internalType": "address",
          "name": "from",
          "type": "address"
        },
        {
          "internalType": "address",
          "name": "to",
          "type": "address"
        },
        {
          "internalType": "uint256",
          "name": "tokenId",
          "type": "uint256"
        }
      ],
      "name": "transferFrom",
      "outputs": [],
      "stateMutability": "nonpayable",
      "type": "function"
    },
    {
      "inputs": [
        {
          "internalType": "uint256",
          "name": "tokenId",
          "type": "uint256"
        },
        {
          "internalType": "address",
          "name": "_cloneContract",
          "type": "address"
        },
        {
          "internalType": "uint256",
          "name": "cloneId",
          "type": "uint256"
        }
      ],
      "name": "updateClone",
      "outputs": [],
      "stateMutability": "nonpayable",
      "type": "function"
    },
    {
      "inputs": [],
      "name": "version",
      "outputs": [
        {
          "internalType": "uint256",
          "name": "",
          "type": "uint256"
        }
      ],
      "stateMutability": "view",
      "type": "function"
    }
  ],
  "transactionHash": "0x67a92cd3b05ed712542db3a0cec0514ed2703211541a6be6e655fdffb7a489a6",
  "args": [],
  "numDeployments": 2,
  "solcInputHash": "aae616e2dcb68ccfdb2ff51937a6ccc5",
  "bytecode": "0x608060405234801561001057600080fd5b50612f6b806100206000396000f3fe608060405234801561001057600080fd5b50600436106101e45760003560e01c806370a082311161010f578063c6c3bbe6116100a2578063d547741f11610071578063d547741f1461040a578063d73e2ab61461041d578063e8a3d48514610430578063e985e9c514610438576101e4565b8063c6c3bbe6146103b1578063c87b56dd146103c4578063cad96cca146103d7578063ce5494bb146103f7576101e4565b8063a217fddf116100de578063a217fddf14610370578063a22cb46514610378578063b7e7fcd71461038b578063b88d4fde1461039e576101e4565b806370a082311461032f57806391d148541461034257806395d89b411461035557806399e598fe1461035d576101e4565b806323b872dd1161018757806342842e0e1161015657806342842e0e146102ee57806354fd4d50146103015780636352211e146103095780637029144c1461031c576101e4565b806323b872dd14610295578063248a9ca3146102a85780632f2ff15d146102c857806336568abe146102db576101e4565b8063081812fc116101c3578063081812fc1461023c578063095ea7b31461025c5780630f8973dd1461026f578063143094db14610282576101e4565b8062817455146101e957806301ffc9a7146101fe57806306fdde0314610227575b600080fd5b6101fc6101f73660046125eb565b61044b565b005b61021161020c3660046123c4565b610532565b60405161021e919061276d565b60405180910390f35b61022f610566565b60405161021e9190612781565b61024f61024a366004612388565b6105f8565b60405161021e9190612709565b6101fc61026a3660046121f9565b610644565b6101fc61027d3660046124d0565b6106dc565b6101fc61029036600461259f565b610775565b6101fc6102a336600461210b565b610841565b6102bb6102b6366004612388565b610879565b60405161021e9190612778565b6101fc6102d63660046123a0565b61088e565b6101fc6102e93660046123a0565b6108ad565b6101fc6102fc36600461210b565b6108f3565b6102bb61090e565b61024f610317366004612388565b610914565b6101fc61032a36600461246f565b610949565b6102bb61033d3660046120b7565b610a1f565b6102116103503660046123a0565b610a63565b61022f610a8e565b6101fc61036b36600461246f565b610a9d565b6102bb610ae7565b6101fc6103863660046121c8565b610aec565b6101fc6103993660046122f2565b610afe565b6101fc6103ac36600461214b565b610c31565b6101fc6103bf36600461210b565b610c6a565b61022f6103d2366004612388565b610d09565b6103ea6103e5366004612388565b610da7565b60405161021e919061275a565b6101fc6104053660046120b7565b610e36565b6101fc6104183660046123a0565b61108e565b6101fc61042b366004612224565b6110ad565b61022f6110fd565b6102116104463660046120d3565b61137a565b61045860006103506113a8565b61046157600080fd5b600083815260ca6020818152604080842080546001600160a01b0319166001600160a01b0388811691909117825560cb8452828620879055939092529054905163c87b56dd60e01b8152859392919091169063c87b56dd906104c7908690600401612778565b60006040518083038186803b1580156104df57600080fd5b505afa1580156104f3573d6000803e3d6000fd5b505050506040513d6000823e601f3d908101601f1916820160405261051b91908101906123fc565b9050600081511161052b57600080fd5b5050505050565b60006001600160e01b0319821663656cb66560e11b141561055557506001610561565b61055e826113ac565b90505b919050565b606060cd805461057590612e88565b80601f01602080910402602001604051908101604052809291908181526020018280546105a190612e88565b80156105ee5780601f106105c3576101008083540402835291602001916105ee565b820191906000526020600020905b8154815290600101906020018083116105d157829003601f168201915b5050505050905090565b6000610603826113d1565b6106285760405162461bcd60e51b815260040161061f90612b06565b60405180910390fd5b506000908152606960205260409020546001600160a01b031690565b600061064f82610914565b9050806001600160a01b0316836001600160a01b031614156106835760405162461bcd60e51b815260040161061f90612b52565b806001600160a01b03166106956113a8565b6001600160a01b031614806106b157506106b1816104466113a8565b6106cd5760405162461bcd60e51b815260040161061f90612993565b6106d783836113ee565b505050565b60006106ef816106ea6113a8565b61145c565b81518051839160d091610709918391602090910190611f56565b5060208281015180516107229260018501920190611f56565b506040820151805161073e916002840191602090910190611f56565b5060608201516003820180546001600160a01b0319166001600160a01b039092169190911790556080909101516004909101555050565b6000610783816106ea6113a8565b604080516001808252818301909252600091816020015b6107a2611fda565b81526020019060019003908161079a57905050905082816000815181106107d957634e487b7160e01b600052603260045260246000fd5b6020026020010151602001906001600160601b031690816001600160601b031681525050838160008151811061081f57634e487b7160e01b600052603260045260246000fd5b60209081029190910101516001600160a01b03909116905261052b85826114c0565b61085261084c6113a8565b8261168e565b61086e5760405162461bcd60e51b815260040161061f90612b93565b6106d7838383611713565b60009081526098602052604090206001015490565b61089782610879565b6108a3816106ea6113a8565b6106d78383611846565b6108b56113a8565b6001600160a01b0316816001600160a01b0316146108e55760405162461bcd60e51b815260040161061f90612cab565b6108ef82826118cd565b5050565b6106d783838360405180602001604052806000815250610c31565b60d55481565b6000818152606760205260408120546001600160a01b03168061055e5760405162461bcd60e51b815260040161061f90612a3a565b600054610100900460ff166109645760005460ff161561096c565b61096c611952565b6109885760405162461bcd60e51b815260040161061f90612a83565b600054610100900460ff161580156109b3576000805460ff1961ff0019909116610100171660011790555b6109bd8383611963565b6109c5611994565b6109d760006109d26113a8565b6119bd565b600060cf81905560d55582516109f49060cd906020860190611f56565b508151610a089060ce906020850190611f56565b5080156106d7576000805461ff0019169055505050565b60006001600160a01b038216610a475760405162461bcd60e51b815260040161061f906129f0565b506001600160a01b031660009081526068602052604090205490565b60009182526098602090815260408084206001600160a01b0393909316845291905290205460ff1690565b606060ce805461057590612e88565b6000610aab816106ea6113a8565b825115610ac7578251610ac59060cd906020860190611f56565b505b8151156106d7578151610ae19060ce906020850190611f56565b50505050565b600081565b6108ef610af76113a8565b83836119c7565b610b0b60006103506113a8565b610b1457600080fd5b60005b85811015610c2857848482818110610b3f57634e487b7160e01b600052603260045260246000fd5b9050602002016020810190610b5491906120b7565b60ca6000898985818110610b7857634e487b7160e01b600052603260045260246000fd5b90506020020135815260200190815260200160002060006101000a8154816001600160a01b0302191690836001600160a01b03160217905550828282818110610bd157634e487b7160e01b600052603260045260246000fd5b9050602002013560cb6000898985818110610bfc57634e487b7160e01b600052603260045260246000fd5b905060200201358152602001908152602001600020819055508080610c2090612ec3565b915050610b17565b50505050505050565b610c42610c3c6113a8565b8361168e565b610c5e5760405162461bcd60e51b815260040161061f90612b93565b610ae184848484611a6a565b6000610c78816106ea6113a8565b60cf8054600081815260cc602090815260408083209390935560ca815282822080546001600160a01b0319166001600160a01b0389161790558354825260cb90522083905554610cc9908590611a9d565b60d45415610cee5760cf5460d35460d454610cee92916001600160a01b031690610775565b60cf8054906000610cfe83612ec3565b919050555050505050565b600081815260ca602090815260408083205460cb9092529182902054915163c87b56dd60e01b81526060926001600160a01b039092169163c87b56dd91610d539190600401612778565b60006040518083038186803b158015610d6b57600080fd5b505afa158015610d7f573d6000803e3d6000fd5b505050506040513d6000823e601f3d908101601f1916820160405261055e91908101906123fc565b606060976000838152602001908152602001600020805480602002602001604051908101604052809291908181526020016000905b82821015610e2b57600084815260209081902060408051808201909152908401546001600160a01b0381168252600160a01b90046001600160601b031681830152825260019092019101610ddc565b505050509050919050565b60d55415610e4357600080fd5b600160d58190557f836809a9a1d92e47630736a0eff3cf7db3f517f89d73d8eb4e24cb5bc94a4fb480546001600160a01b0384166001600160a01b031991821681179092557f3cb08e0198dd2c78e3fcd4789c6d528ab55f482b453e6724440a0ff8dfa784aa80548216831790557f5b7646a6db03b87b9d4aa3a43bf0d95244ac4dd0ccad01a658e934c15d17266580548216831790557fe0b86fdc737c0cfd301a36ced403fb76310e3742e00d1a38c7c46a1f09f3411b80548216831790557f992e0e3e7050db88ec37ec33505f46a9813ea5551fe17ef58dc201344bcbaf938054909116909117905560cb60205260027f4239c2c8c3d9b94feb214b0f54d7c869ce1ceb63517be57644336cda4967a46855600a7f2c278fda8778553b7b7a8cff03a9beadbef1773abb49c1f69c87347759480d595560007f3f771ad337758d100996e4f4ea4b0371b93c9bfb5e077c0267534f8d2606ee4081905560057f322b60245ba380edff02ea0cd22c8f465b6af4c34230f7ec556b48e58b4dbdde55600790527f3e42edbfd6234f6af5f08f54b91b5ee6e57b7871c8f584e01ab126b94df64c5c5561100b7338f1dfdcaf2f0d70c29d4af6a4aa9e920efe8b18826003610c6a565b61102b735ab731b442d168a53f5f82696ebe99a990fbe1cf82600b610c6a565b61104b734fafa51539460f378ff9c2bce4eaf7c62882481382600c610c6a565b61106b730dc2da31ba19a1213c4f839a0cd3637d80642817826008610c6a565b61108b7399a7cf01fd9ad58f224c9675f3a9e45f294231d9826007610c6a565b50565b61109782610879565b6110a3816106ea6113a8565b6106d783836118cd565b60005b8351811015610ae1576110eb8482815181106110dc57634e487b7160e01b600052603260045260246000fd5b60200260200101518484610c6a565b806110f581612ec3565b9150506110b0565b606060d06040518060a001604052908160008201805461111c90612e88565b80601f016020809104026020016040519081016040528092919081815260200182805461114890612e88565b80156111955780601f1061116a57610100808354040283529160200191611195565b820191906000526020600020905b81548152906001019060200180831161117857829003601f168201915b505050505081526020016001820180546111ae90612e88565b80601f01602080910402602001604051908101604052809291908181526020018280546111da90612e88565b80156112275780601f106111fc57610100808354040283529160200191611227565b820191906000526020600020905b81548152906001019060200180831161120a57829003601f168201915b5050505050815260200160028201805461124090612e88565b80601f016020809104026020016040519081016040528092919081815260200182805461126c90612e88565b80156112b95780601f1061128e576101008083540402835291602001916112b9565b820191906000526020600020905b81548152906001019060200180831161129c57829003601f168201915b505050918352505060038201546001600160a01b031660208201526004909101546040909101527309a6CB3B1a6651bc2aFA8248e1513B12211bDA7B906329e72aaa90611304610566565b6040518363ffffffff1660e01b8152600401611321929190612cfa565b60006040518083038186803b15801561133957600080fd5b505af415801561134d573d6000803e3d6000fd5b505050506040513d6000823e601f3d908101601f1916820160405261137591908101906123fc565b905090565b6001600160a01b039182166000908152606a6020908152604080832093909416825291909152205460ff1690565b3390565b60006001600160e01b03198216637965db0b60e01b148061055e575061055e82611b84565b6000908152606760205260409020546001600160a01b0316151590565b600081815260696020526040902080546001600160a01b0319166001600160a01b038416908117909155819061142382610914565b6001600160a01b03167f8c5be1e5ebec7d5bd14f71427d1e84f3dd0314c0f7b2291e5b200ac8c7c3b92560405160405180910390a45050565b6114668282610a63565b6108ef5761147e816001600160a01b03166014611bc4565b611489836020611bc4565b60405160200161149a929190612694565b60408051601f198184030181529082905262461bcd60e51b825261061f91600401612781565b6000805b82518110156116625760006001600160a01b03168382815181106114f857634e487b7160e01b600052603260045260246000fd5b6020026020010151600001516001600160a01b0316141561152b5760405162461bcd60e51b815260040161061f90612c74565b82818151811061154b57634e487b7160e01b600052603260045260246000fd5b6020026020010151602001516001600160601b0316600014156115805760405162461bcd60e51b815260040161061f9061295e565b8281815181106115a057634e487b7160e01b600052603260045260246000fd5b6020026020010151602001516001600160601b0316826115c09190612df7565b9150609760008581526020019081526020016000208382815181106115f557634e487b7160e01b600052603260045260246000fd5b602090810291909101810151825460018101845560009384529282902081519301805491909201516001600160601b0316600160a01b026001600160a01b039384166001600160a01b0319909216919091179092169190911790558061165a81612ec3565b9150506114c4565b5061271081106116845760405162461bcd60e51b815260040161061f90612be4565b6106d78383611d7d565b6000611699826113d1565b6116b55760405162461bcd60e51b815260040161061f90612912565b60006116c083610914565b9050806001600160a01b0316846001600160a01b031614806116fb5750836001600160a01b03166116f0846105f8565b6001600160a01b0316145b8061170b575061170b818561137a565b949350505050565b826001600160a01b031661172682610914565b6001600160a01b03161461174c5760405162461bcd60e51b815260040161061f9061281b565b6001600160a01b0382166117725760405162461bcd60e51b815260040161061f90612897565b61177d838383611dba565b6117886000826113ee565b6001600160a01b03831660009081526068602052604081208054600192906117b1908490612e2e565b90915550506001600160a01b03821660009081526068602052604081208054600192906117df908490612df7565b909155505060008181526067602052604080822080546001600160a01b0319166001600160a01b0386811691821790925591518493918716917fddf252ad1be2c89b69c2b068fc378daa952ba7f163c4a11628f55a4df523b3ef91a46106d78383836106d7565b6118508282610a63565b6108ef5760008281526098602090815260408083206001600160a01b03851684529091529020805460ff191660011790556118896113a8565b6001600160a01b0316816001600160a01b0316837f2f8788117e7eff1d82e926ec794901d17c78024a50270940304540a733656f0d60405160405180910390a45050565b6118d78282610a63565b156108ef5760008281526098602090815260408083206001600160a01b03851684529091529020805460ff1916905561190e6113a8565b6001600160a01b0316816001600160a01b0316837ff6391f5c32d9c69d2a47ea670b442974b53935d1edc7fd64eb21e047a839171b60405160405180910390a45050565b600061195d30611dc5565b15905090565b600054610100900460ff1661198a5760405162461bcd60e51b815260040161061f90612c29565b6108ef8282611dd4565b600054610100900460ff166119bb5760405162461bcd60e51b815260040161061f90612c29565b565b6108ef8282611846565b816001600160a01b0316836001600160a01b031614156119f95760405162461bcd60e51b815260040161061f906128db565b6001600160a01b038381166000818152606a602090815260408083209487168084529490915290819020805460ff1916851515179055517f17307eab39ab6107e8899845ad3d59bd9653f200f220920489ca2b5937696c3190611a5d90859061276d565b60405180910390a3505050565b611a75848484611713565b611a8184848484611e22565b610ae15760405162461bcd60e51b815260040161061f906127c9565b6001600160a01b038216611ac35760405162461bcd60e51b815260040161061f90612ad1565b611acc816113d1565b15611ae95760405162461bcd60e51b815260040161061f90612860565b611af560008383611dba565b6001600160a01b0382166000908152606860205260408120805460019290611b1e908490612df7565b909155505060008181526067602052604080822080546001600160a01b0319166001600160a01b03861690811790915590518392907fddf252ad1be2c89b69c2b068fc378daa952ba7f163c4a11628f55a4df523b3ef908290a46108ef600083836106d7565b60006001600160e01b031982166380ac58cd60e01b1480611bb557506001600160e01b03198216635b5e139f60e01b145b8061055e575061055e82611f3d565b60606000611bd3836002612e0f565b611bde906002612df7565b67ffffffffffffffff811115611c0457634e487b7160e01b600052604160045260246000fd5b6040519080825280601f01601f191660200182016040528015611c2e576020820181803683370190505b509050600360fc1b81600081518110611c5757634e487b7160e01b600052603260045260246000fd5b60200101906001600160f81b031916908160001a905350600f60fb1b81600181518110611c9457634e487b7160e01b600052603260045260246000fd5b60200101906001600160f81b031916908160001a9053506000611cb8846002612e0f565b611cc3906001612df7565b90505b6001811115611d57576f181899199a1a9b1b9c1cb0b131b232b360811b85600f1660108110611d0557634e487b7160e01b600052603260045260246000fd5b1a60f81b828281518110611d2957634e487b7160e01b600052603260045260246000fd5b60200101906001600160f81b031916908160001a90535060049490941c93611d5081612e71565b9050611cc6565b508315611d765760405162461bcd60e51b815260040161061f90612794565b9392505050565b7f3fa96d7b6bcbfe71ef171666d84db3cf52fa2d1c8afdb1cc8e486177f208b7df8282604051611dae929190612d85565b60405180910390a15050565b6106d78383836106d7565b6001600160a01b03163b151590565b600054610100900460ff16611dfb5760405162461bcd60e51b815260040161061f90612c29565b8151611e0e906065906020850190611f56565b5080516106d7906066906020840190611f56565b6000611e36846001600160a01b0316611dc5565b15611f3257836001600160a01b031663150b7a02611e526113a8565b8786866040518563ffffffff1660e01b8152600401611e74949392919061271d565b602060405180830381600087803b158015611e8e57600080fd5b505af1925050508015611ebe575060408051601f3d908101601f19168201909252611ebb918101906123e0565b60015b611f18573d808015611eec576040519150601f19603f3d011682016040523d82523d6000602084013e611ef1565b606091505b508051611f105760405162461bcd60e51b815260040161061f906127c9565b805181602001fd5b6001600160e01b031916630a85bd0160e11b14905061170b565b506001949350505050565b6001600160e01b031981166301ffc9a760e01b14919050565b828054611f6290612e88565b90600052602060002090601f016020900481019282611f845760008555611fca565b82601f10611f9d57805160ff1916838001178555611fca565b82800160010185558215611fca579182015b82811115611fca578251825591602001919060010190611faf565b50611fd6929150611ff1565b5090565b604080518082019091526000808252602082015290565b5b80821115611fd65760008155600101611ff2565b600061201961201484612dcf565b612d9e565b905082815283838301111561202d57600080fd5b828260208301376000602084830101529392505050565b803561056181612f0a565b60008083601f840112612060578182fd5b50813567ffffffffffffffff811115612077578182fd5b602083019150836020808302850101111561209157600080fd5b9250929050565b600082601f8301126120a8578081fd5b611d7683833560208501612006565b6000602082840312156120c8578081fd5b8135611d7681612f0a565b600080604083850312156120e5578081fd5b82356120f081612f0a565b9150602083013561210081612f0a565b809150509250929050565b60008060006060848603121561211f578081fd5b833561212a81612f0a565b9250602084013561213a81612f0a565b929592945050506040919091013590565b60008060008060808587031215612160578081fd5b843561216b81612f0a565b9350602085013561217b81612f0a565b925060408501359150606085013567ffffffffffffffff81111561219d578182fd5b8501601f810187136121ad578182fd5b6121bc87823560208401612006565b91505092959194509250565b600080604083850312156121da578182fd5b82356121e581612f0a565b915060208301358015158114612100578182fd5b6000806040838503121561220b578182fd5b823561221681612f0a565b946020939093013593505050565b600080600060608486031215612238578081fd5b833567ffffffffffffffff8082111561224f578283fd5b818601915086601f830112612262578283fd5b813560208282111561227657612276612ef4565b8082029250612286818401612d9e565b8281528181019085830185870184018c10156122a0578788fd5b8796505b848710156122ce57803595506122b986612f0a565b858352600196909601959183019183016122a4565b5097506122de9050888201612044565b955050505050604084013590509250925092565b6000806000806000806060878903121561230a578384fd5b863567ffffffffffffffff80821115612321578586fd5b61232d8a838b0161204f565b90985096506020890135915080821115612345578586fd5b6123518a838b0161204f565b90965094506040890135915080821115612369578384fd5b5061237689828a0161204f565b979a9699509497509295939492505050565b600060208284031215612399578081fd5b5035919050565b600080604083850312156123b2578182fd5b82359150602083013561210081612f0a565b6000602082840312156123d5578081fd5b8135611d7681612f1f565b6000602082840312156123f1578081fd5b8151611d7681612f1f565b60006020828403121561240d578081fd5b815167ffffffffffffffff811115612423578182fd5b8201601f81018413612433578182fd5b805161244161201482612dcf565b818152856020838501011115612455578384fd5b612466826020830160208601612e45565b95945050505050565b60008060408385031215612481578182fd5b823567ffffffffffffffff80821115612498578384fd5b6124a486838701612098565b935060208501359150808211156124b9578283fd5b506124c685828601612098565b9150509250929050565b6000602082840312156124e1578081fd5b813567ffffffffffffffff808211156124f8578283fd5b9083019060a0828603121561250b578283fd5b61251560a0612d9e565b823582811115612523578485fd5b61252f87828601612098565b825250602083013582811115612543578485fd5b61254f87828601612098565b602083015250604083013582811115612566578485fd5b61257287828601612098565b60408301525061258460608401612044565b60608201526080830135608082015280935050505092915050565b6000806000606084860312156125b3578081fd5b8335925060208401356125c581612f0a565b915060408401356001600160601b03811681146125e0578182fd5b809150509250925092565b6000806000606084860312156125ff578081fd5b83359250602084013561213a81612f0a565b6000815180845260208085019450808401835b8381101561265d57815180516001600160a01b031688528301516001600160601b03168388015260409096019590820190600101612624565b509495945050505050565b60008151808452612680816020860160208601612e45565b601f01601f19169290920160200192915050565b60007f416363657373436f6e74726f6c3a206163636f756e7420000000000000000000825283516126cc816017850160208801612e45565b7001034b99036b4b9b9b4b733903937b6329607d1b60179184019182015283516126fd816028840160208801612e45565b01602801949350505050565b6001600160a01b0391909116815260200190565b6001600160a01b038581168252841660208201526040810183905260806060820181905260009061275090830184612668565b9695505050505050565b600060208252611d766020830184612611565b901515815260200190565b90815260200190565b600060208252611d766020830184612668565b6020808252818101527f537472696e67733a20686578206c656e67746820696e73756666696369656e74604082015260600190565b60208082526032908201527f4552433732313a207472616e7366657220746f206e6f6e20455243373231526560408201527131b2b4bb32b91034b6b83632b6b2b73a32b960711b606082015260800190565b60208082526025908201527f4552433732313a207472616e736665722066726f6d20696e636f72726563742060408201526437bbb732b960d91b606082015260800190565b6020808252601c908201527f4552433732313a20746f6b656e20616c7265616479206d696e74656400000000604082015260600190565b60208082526024908201527f4552433732313a207472616e7366657220746f20746865207a65726f206164646040820152637265737360e01b606082015260800190565b60208082526019908201527f4552433732313a20617070726f766520746f2063616c6c657200000000000000604082015260600190565b6020808252602c908201527f4552433732313a206f70657261746f7220717565727920666f72206e6f6e657860408201526b34b9ba32b73a103a37b5b2b760a11b606082015260800190565b6020808252818101527f526f79616c74792076616c75652073686f756c6420626520706f736974697665604082015260600190565b60208082526038908201527f4552433732313a20617070726f76652063616c6c6572206973206e6f74206f7760408201527f6e6572206e6f7220617070726f76656420666f7220616c6c0000000000000000606082015260800190565b6020808252602a908201527f4552433732313a2062616c616e636520717565727920666f7220746865207a65604082015269726f206164647265737360b01b606082015260800190565b60208082526029908201527f4552433732313a206f776e657220717565727920666f72206e6f6e657869737460408201526832b73a103a37b5b2b760b91b606082015260800190565b6020808252602e908201527f496e697469616c697a61626c653a20636f6e747261637420697320616c72656160408201526d191e481a5b9a5d1a585b1a5e995960921b606082015260800190565b6020808252818101527f4552433732313a206d696e7420746f20746865207a65726f2061646472657373604082015260600190565b6020808252602c908201527f4552433732313a20617070726f76656420717565727920666f72206e6f6e657860408201526b34b9ba32b73a103a37b5b2b760a11b606082015260800190565b60208082526021908201527f4552433732313a20617070726f76616c20746f2063757272656e74206f776e656040820152603960f91b606082015260800190565b60208082526031908201527f4552433732313a207472616e736665722063616c6c6572206973206e6f74206f6040820152701ddb995c881b9bdc88185c1c1c9bdd9959607a1b606082015260800190565b60208082526025908201527f526f79616c747920746f74616c2076616c75652073686f756c64206265203c20604082015264031303030360dc1b606082015260800190565b6020808252602b908201527f496e697469616c697a61626c653a20636f6e7472616374206973206e6f74206960408201526a6e697469616c697a696e6760a81b606082015260800190565b6020808252601b908201527f526563697069656e742073686f756c642062652070726573656e740000000000604082015260600190565b6020808252602f908201527f416363657373436f6e74726f6c3a2063616e206f6e6c792072656e6f756e636560408201526e103937b632b9903337b91039b2b63360891b606082015260800190565b600060408252835160a06040840152612d1660e0840182612668565b90506020850151603f1980858403016060860152612d348383612668565b9250604087015191508085840301608086015250612d528282612668565b60608701516001600160a01b031660a0860152608087015160c08601528481036020860152915061246690508185612668565b60008382526040602083015261170b6040830184612611565b604051601f8201601f1916810167ffffffffffffffff81118282101715612dc757612dc7612ef4565b604052919050565b600067ffffffffffffffff821115612de957612de9612ef4565b50601f01601f191660200190565b60008219821115612e0a57612e0a612ede565b500190565b6000816000190483118215151615612e2957612e29612ede565b500290565b600082821015612e4057612e40612ede565b500390565b60005b83811015612e60578181015183820152602001612e48565b83811115610ae15750506000910152565b600081612e8057612e80612ede565b506000190190565b600281046001821680612e9c57607f821691505b60208210811415612ebd57634e487b7160e01b600052602260045260246000fd5b50919050565b6000600019821415612ed757612ed7612ede565b5060010190565b634e487b7160e01b600052601160045260246000fd5b634e487b7160e01b600052604160045260246000fd5b6001600160a01b038116811461108b57600080fd5b6001600160e01b03198116811461108b57600080fdfea264697066735822122088b3185c165b01109b54fc188503d7f934ed71b90ff26162b5190acdfa9477f364736f6c63430008010033",
  "deployedBytecode": "0x608060405234801561001057600080fd5b50600436106101e45760003560e01c806370a082311161010f578063c6c3bbe6116100a2578063d547741f11610071578063d547741f1461040a578063d73e2ab61461041d578063e8a3d48514610430578063e985e9c514610438576101e4565b8063c6c3bbe6146103b1578063c87b56dd146103c4578063cad96cca146103d7578063ce5494bb146103f7576101e4565b8063a217fddf116100de578063a217fddf14610370578063a22cb46514610378578063b7e7fcd71461038b578063b88d4fde1461039e576101e4565b806370a082311461032f57806391d148541461034257806395d89b411461035557806399e598fe1461035d576101e4565b806323b872dd1161018757806342842e0e1161015657806342842e0e146102ee57806354fd4d50146103015780636352211e146103095780637029144c1461031c576101e4565b806323b872dd14610295578063248a9ca3146102a85780632f2ff15d146102c857806336568abe146102db576101e4565b8063081812fc116101c3578063081812fc1461023c578063095ea7b31461025c5780630f8973dd1461026f578063143094db14610282576101e4565b8062817455146101e957806301ffc9a7146101fe57806306fdde0314610227575b600080fd5b6101fc6101f73660046125eb565b61044b565b005b61021161020c3660046123c4565b610532565b60405161021e919061276d565b60405180910390f35b61022f610566565b60405161021e9190612781565b61024f61024a366004612388565b6105f8565b60405161021e9190612709565b6101fc61026a3660046121f9565b610644565b6101fc61027d3660046124d0565b6106dc565b6101fc61029036600461259f565b610775565b6101fc6102a336600461210b565b610841565b6102bb6102b6366004612388565b610879565b60405161021e9190612778565b6101fc6102d63660046123a0565b61088e565b6101fc6102e93660046123a0565b6108ad565b6101fc6102fc36600461210b565b6108f3565b6102bb61090e565b61024f610317366004612388565b610914565b6101fc61032a36600461246f565b610949565b6102bb61033d3660046120b7565b610a1f565b6102116103503660046123a0565b610a63565b61022f610a8e565b6101fc61036b36600461246f565b610a9d565b6102bb610ae7565b6101fc6103863660046121c8565b610aec565b6101fc6103993660046122f2565b610afe565b6101fc6103ac36600461214b565b610c31565b6101fc6103bf36600461210b565b610c6a565b61022f6103d2366004612388565b610d09565b6103ea6103e5366004612388565b610da7565b60405161021e919061275a565b6101fc6104053660046120b7565b610e36565b6101fc6104183660046123a0565b61108e565b6101fc61042b366004612224565b6110ad565b61022f6110fd565b6102116104463660046120d3565b61137a565b61045860006103506113a8565b61046157600080fd5b600083815260ca6020818152604080842080546001600160a01b0319166001600160a01b0388811691909117825560cb8452828620879055939092529054905163c87b56dd60e01b8152859392919091169063c87b56dd906104c7908690600401612778565b60006040518083038186803b1580156104df57600080fd5b505afa1580156104f3573d6000803e3d6000fd5b505050506040513d6000823e601f3d908101601f1916820160405261051b91908101906123fc565b9050600081511161052b57600080fd5b5050505050565b60006001600160e01b0319821663656cb66560e11b141561055557506001610561565b61055e826113ac565b90505b919050565b606060cd805461057590612e88565b80601f01602080910402602001604051908101604052809291908181526020018280546105a190612e88565b80156105ee5780601f106105c3576101008083540402835291602001916105ee565b820191906000526020600020905b8154815290600101906020018083116105d157829003601f168201915b5050505050905090565b6000610603826113d1565b6106285760405162461bcd60e51b815260040161061f90612b06565b60405180910390fd5b506000908152606960205260409020546001600160a01b031690565b600061064f82610914565b9050806001600160a01b0316836001600160a01b031614156106835760405162461bcd60e51b815260040161061f90612b52565b806001600160a01b03166106956113a8565b6001600160a01b031614806106b157506106b1816104466113a8565b6106cd5760405162461bcd60e51b815260040161061f90612993565b6106d783836113ee565b505050565b60006106ef816106ea6113a8565b61145c565b81518051839160d091610709918391602090910190611f56565b5060208281015180516107229260018501920190611f56565b506040820151805161073e916002840191602090910190611f56565b5060608201516003820180546001600160a01b0319166001600160a01b039092169190911790556080909101516004909101555050565b6000610783816106ea6113a8565b604080516001808252818301909252600091816020015b6107a2611fda565b81526020019060019003908161079a57905050905082816000815181106107d957634e487b7160e01b600052603260045260246000fd5b6020026020010151602001906001600160601b031690816001600160601b031681525050838160008151811061081f57634e487b7160e01b600052603260045260246000fd5b60209081029190910101516001600160a01b03909116905261052b85826114c0565b61085261084c6113a8565b8261168e565b61086e5760405162461bcd60e51b815260040161061f90612b93565b6106d7838383611713565b60009081526098602052604090206001015490565b61089782610879565b6108a3816106ea6113a8565b6106d78383611846565b6108b56113a8565b6001600160a01b0316816001600160a01b0316146108e55760405162461bcd60e51b815260040161061f90612cab565b6108ef82826118cd565b5050565b6106d783838360405180602001604052806000815250610c31565b60d55481565b6000818152606760205260408120546001600160a01b03168061055e5760405162461bcd60e51b815260040161061f90612a3a565b600054610100900460ff166109645760005460ff161561096c565b61096c611952565b6109885760405162461bcd60e51b815260040161061f90612a83565b600054610100900460ff161580156109b3576000805460ff1961ff0019909116610100171660011790555b6109bd8383611963565b6109c5611994565b6109d760006109d26113a8565b6119bd565b600060cf81905560d55582516109f49060cd906020860190611f56565b508151610a089060ce906020850190611f56565b5080156106d7576000805461ff0019169055505050565b60006001600160a01b038216610a475760405162461bcd60e51b815260040161061f906129f0565b506001600160a01b031660009081526068602052604090205490565b60009182526098602090815260408084206001600160a01b0393909316845291905290205460ff1690565b606060ce805461057590612e88565b6000610aab816106ea6113a8565b825115610ac7578251610ac59060cd906020860190611f56565b505b8151156106d7578151610ae19060ce906020850190611f56565b50505050565b600081565b6108ef610af76113a8565b83836119c7565b610b0b60006103506113a8565b610b1457600080fd5b60005b85811015610c2857848482818110610b3f57634e487b7160e01b600052603260045260246000fd5b9050602002016020810190610b5491906120b7565b60ca6000898985818110610b7857634e487b7160e01b600052603260045260246000fd5b90506020020135815260200190815260200160002060006101000a8154816001600160a01b0302191690836001600160a01b03160217905550828282818110610bd157634e487b7160e01b600052603260045260246000fd5b9050602002013560cb6000898985818110610bfc57634e487b7160e01b600052603260045260246000fd5b905060200201358152602001908152602001600020819055508080610c2090612ec3565b915050610b17565b50505050505050565b610c42610c3c6113a8565b8361168e565b610c5e5760405162461bcd60e51b815260040161061f90612b93565b610ae184848484611a6a565b6000610c78816106ea6113a8565b60cf8054600081815260cc602090815260408083209390935560ca815282822080546001600160a01b0319166001600160a01b0389161790558354825260cb90522083905554610cc9908590611a9d565b60d45415610cee5760cf5460d35460d454610cee92916001600160a01b031690610775565b60cf8054906000610cfe83612ec3565b919050555050505050565b600081815260ca602090815260408083205460cb9092529182902054915163c87b56dd60e01b81526060926001600160a01b039092169163c87b56dd91610d539190600401612778565b60006040518083038186803b158015610d6b57600080fd5b505afa158015610d7f573d6000803e3d6000fd5b505050506040513d6000823e601f3d908101601f1916820160405261055e91908101906123fc565b606060976000838152602001908152602001600020805480602002602001604051908101604052809291908181526020016000905b82821015610e2b57600084815260209081902060408051808201909152908401546001600160a01b0381168252600160a01b90046001600160601b031681830152825260019092019101610ddc565b505050509050919050565b60d55415610e4357600080fd5b600160d58190557f836809a9a1d92e47630736a0eff3cf7db3f517f89d73d8eb4e24cb5bc94a4fb480546001600160a01b0384166001600160a01b031991821681179092557f3cb08e0198dd2c78e3fcd4789c6d528ab55f482b453e6724440a0ff8dfa784aa80548216831790557f5b7646a6db03b87b9d4aa3a43bf0d95244ac4dd0ccad01a658e934c15d17266580548216831790557fe0b86fdc737c0cfd301a36ced403fb76310e3742e00d1a38c7c46a1f09f3411b80548216831790557f992e0e3e7050db88ec37ec33505f46a9813ea5551fe17ef58dc201344bcbaf938054909116909117905560cb60205260027f4239c2c8c3d9b94feb214b0f54d7c869ce1ceb63517be57644336cda4967a46855600a7f2c278fda8778553b7b7a8cff03a9beadbef1773abb49c1f69c87347759480d595560007f3f771ad337758d100996e4f4ea4b0371b93c9bfb5e077c0267534f8d2606ee4081905560057f322b60245ba380edff02ea0cd22c8f465b6af4c34230f7ec556b48e58b4dbdde55600790527f3e42edbfd6234f6af5f08f54b91b5ee6e57b7871c8f584e01ab126b94df64c5c5561100b7338f1dfdcaf2f0d70c29d4af6a4aa9e920efe8b18826003610c6a565b61102b735ab731b442d168a53f5f82696ebe99a990fbe1cf82600b610c6a565b61104b734fafa51539460f378ff9c2bce4eaf7c62882481382600c610c6a565b61106b730dc2da31ba19a1213c4f839a0cd3637d80642817826008610c6a565b61108b7399a7cf01fd9ad58f224c9675f3a9e45f294231d9826007610c6a565b50565b61109782610879565b6110a3816106ea6113a8565b6106d783836118cd565b60005b8351811015610ae1576110eb8482815181106110dc57634e487b7160e01b600052603260045260246000fd5b60200260200101518484610c6a565b806110f581612ec3565b9150506110b0565b606060d06040518060a001604052908160008201805461111c90612e88565b80601f016020809104026020016040519081016040528092919081815260200182805461114890612e88565b80156111955780601f1061116a57610100808354040283529160200191611195565b820191906000526020600020905b81548152906001019060200180831161117857829003601f168201915b505050505081526020016001820180546111ae90612e88565b80601f01602080910402602001604051908101604052809291908181526020018280546111da90612e88565b80156112275780601f106111fc57610100808354040283529160200191611227565b820191906000526020600020905b81548152906001019060200180831161120a57829003601f168201915b5050505050815260200160028201805461124090612e88565b80601f016020809104026020016040519081016040528092919081815260200182805461126c90612e88565b80156112b95780601f1061128e576101008083540402835291602001916112b9565b820191906000526020600020905b81548152906001019060200180831161129c57829003601f168201915b505050918352505060038201546001600160a01b0316602082015260049091015460409091015273__$9185f4f4d5ccf565a43404fb3be44cd50b$__906329e72aaa90611304610566565b6040518363ffffffff1660e01b8152600401611321929190612cfa565b60006040518083038186803b15801561133957600080fd5b505af415801561134d573d6000803e3d6000fd5b505050506040513d6000823e601f3d908101601f1916820160405261137591908101906123fc565b905090565b6001600160a01b039182166000908152606a6020908152604080832093909416825291909152205460ff1690565b3390565b60006001600160e01b03198216637965db0b60e01b148061055e575061055e82611b84565b6000908152606760205260409020546001600160a01b0316151590565b600081815260696020526040902080546001600160a01b0319166001600160a01b038416908117909155819061142382610914565b6001600160a01b03167f8c5be1e5ebec7d5bd14f71427d1e84f3dd0314c0f7b2291e5b200ac8c7c3b92560405160405180910390a45050565b6114668282610a63565b6108ef5761147e816001600160a01b03166014611bc4565b611489836020611bc4565b60405160200161149a929190612694565b60408051601f198184030181529082905262461bcd60e51b825261061f91600401612781565b6000805b82518110156116625760006001600160a01b03168382815181106114f857634e487b7160e01b600052603260045260246000fd5b6020026020010151600001516001600160a01b0316141561152b5760405162461bcd60e51b815260040161061f90612c74565b82818151811061154b57634e487b7160e01b600052603260045260246000fd5b6020026020010151602001516001600160601b0316600014156115805760405162461bcd60e51b815260040161061f9061295e565b8281815181106115a057634e487b7160e01b600052603260045260246000fd5b6020026020010151602001516001600160601b0316826115c09190612df7565b9150609760008581526020019081526020016000208382815181106115f557634e487b7160e01b600052603260045260246000fd5b602090810291909101810151825460018101845560009384529282902081519301805491909201516001600160601b0316600160a01b026001600160a01b039384166001600160a01b0319909216919091179092169190911790558061165a81612ec3565b9150506114c4565b5061271081106116845760405162461bcd60e51b815260040161061f90612be4565b6106d78383611d7d565b6000611699826113d1565b6116b55760405162461bcd60e51b815260040161061f90612912565b60006116c083610914565b9050806001600160a01b0316846001600160a01b031614806116fb5750836001600160a01b03166116f0846105f8565b6001600160a01b0316145b8061170b575061170b818561137a565b949350505050565b826001600160a01b031661172682610914565b6001600160a01b03161461174c5760405162461bcd60e51b815260040161061f9061281b565b6001600160a01b0382166117725760405162461bcd60e51b815260040161061f90612897565b61177d838383611dba565b6117886000826113ee565b6001600160a01b03831660009081526068602052604081208054600192906117b1908490612e2e565b90915550506001600160a01b03821660009081526068602052604081208054600192906117df908490612df7565b909155505060008181526067602052604080822080546001600160a01b0319166001600160a01b0386811691821790925591518493918716917fddf252ad1be2c89b69c2b068fc378daa952ba7f163c4a11628f55a4df523b3ef91a46106d78383836106d7565b6118508282610a63565b6108ef5760008281526098602090815260408083206001600160a01b03851684529091529020805460ff191660011790556118896113a8565b6001600160a01b0316816001600160a01b0316837f2f8788117e7eff1d82e926ec794901d17c78024a50270940304540a733656f0d60405160405180910390a45050565b6118d78282610a63565b156108ef5760008281526098602090815260408083206001600160a01b03851684529091529020805460ff1916905561190e6113a8565b6001600160a01b0316816001600160a01b0316837ff6391f5c32d9c69d2a47ea670b442974b53935d1edc7fd64eb21e047a839171b60405160405180910390a45050565b600061195d30611dc5565b15905090565b600054610100900460ff1661198a5760405162461bcd60e51b815260040161061f90612c29565b6108ef8282611dd4565b600054610100900460ff166119bb5760405162461bcd60e51b815260040161061f90612c29565b565b6108ef8282611846565b816001600160a01b0316836001600160a01b031614156119f95760405162461bcd60e51b815260040161061f906128db565b6001600160a01b038381166000818152606a602090815260408083209487168084529490915290819020805460ff1916851515179055517f17307eab39ab6107e8899845ad3d59bd9653f200f220920489ca2b5937696c3190611a5d90859061276d565b60405180910390a3505050565b611a75848484611713565b611a8184848484611e22565b610ae15760405162461bcd60e51b815260040161061f906127c9565b6001600160a01b038216611ac35760405162461bcd60e51b815260040161061f90612ad1565b611acc816113d1565b15611ae95760405162461bcd60e51b815260040161061f90612860565b611af560008383611dba565b6001600160a01b0382166000908152606860205260408120805460019290611b1e908490612df7565b909155505060008181526067602052604080822080546001600160a01b0319166001600160a01b03861690811790915590518392907fddf252ad1be2c89b69c2b068fc378daa952ba7f163c4a11628f55a4df523b3ef908290a46108ef600083836106d7565b60006001600160e01b031982166380ac58cd60e01b1480611bb557506001600160e01b03198216635b5e139f60e01b145b8061055e575061055e82611f3d565b60606000611bd3836002612e0f565b611bde906002612df7565b67ffffffffffffffff811115611c0457634e487b7160e01b600052604160045260246000fd5b6040519080825280601f01601f191660200182016040528015611c2e576020820181803683370190505b509050600360fc1b81600081518110611c5757634e487b7160e01b600052603260045260246000fd5b60200101906001600160f81b031916908160001a905350600f60fb1b81600181518110611c9457634e487b7160e01b600052603260045260246000fd5b60200101906001600160f81b031916908160001a9053506000611cb8846002612e0f565b611cc3906001612df7565b90505b6001811115611d57576f181899199a1a9b1b9c1cb0b131b232b360811b85600f1660108110611d0557634e487b7160e01b600052603260045260246000fd5b1a60f81b828281518110611d2957634e487b7160e01b600052603260045260246000fd5b60200101906001600160f81b031916908160001a90535060049490941c93611d5081612e71565b9050611cc6565b508315611d765760405162461bcd60e51b815260040161061f90612794565b9392505050565b7f3fa96d7b6bcbfe71ef171666d84db3cf52fa2d1c8afdb1cc8e486177f208b7df8282604051611dae929190612d85565b60405180910390a15050565b6106d78383836106d7565b6001600160a01b03163b151590565b600054610100900460ff16611dfb5760405162461bcd60e51b815260040161061f90612c29565b8151611e0e906065906020850190611f56565b5080516106d7906066906020840190611f56565b6000611e36846001600160a01b0316611dc5565b15611f3257836001600160a01b031663150b7a02611e526113a8565b8786866040518563ffffffff1660e01b8152600401611e74949392919061271d565b602060405180830381600087803b158015611e8e57600080fd5b505af1925050508015611ebe575060408051601f3d908101601f19168201909252611ebb918101906123e0565b60015b611f18573d808015611eec576040519150601f19603f3d011682016040523d82523d6000602084013e611ef1565b606091505b508051611f105760405162461bcd60e51b815260040161061f906127c9565b805181602001fd5b6001600160e01b031916630a85bd0160e11b14905061170b565b506001949350505050565b6001600160e01b031981166301ffc9a760e01b14919050565b828054611f6290612e88565b90600052602060002090601f016020900481019282611f845760008555611fca565b82601f10611f9d57805160ff1916838001178555611fca565b82800160010185558215611fca579182015b82811115611fca578251825591602001919060010190611faf565b50611fd6929150611ff1565b5090565b604080518082019091526000808252602082015290565b5b80821115611fd65760008155600101611ff2565b600061201961201484612dcf565b612d9e565b905082815283838301111561202d57600080fd5b828260208301376000602084830101529392505050565b803561056181612f0a565b60008083601f840112612060578182fd5b50813567ffffffffffffffff811115612077578182fd5b602083019150836020808302850101111561209157600080fd5b9250929050565b600082601f8301126120a8578081fd5b611d7683833560208501612006565b6000602082840312156120c8578081fd5b8135611d7681612f0a565b600080604083850312156120e5578081fd5b82356120f081612f0a565b9150602083013561210081612f0a565b809150509250929050565b60008060006060848603121561211f578081fd5b833561212a81612f0a565b9250602084013561213a81612f0a565b929592945050506040919091013590565b60008060008060808587031215612160578081fd5b843561216b81612f0a565b9350602085013561217b81612f0a565b925060408501359150606085013567ffffffffffffffff81111561219d578182fd5b8501601f810187136121ad578182fd5b6121bc87823560208401612006565b91505092959194509250565b600080604083850312156121da578182fd5b82356121e581612f0a565b915060208301358015158114612100578182fd5b6000806040838503121561220b578182fd5b823561221681612f0a565b946020939093013593505050565b600080600060608486031215612238578081fd5b833567ffffffffffffffff8082111561224f578283fd5b818601915086601f830112612262578283fd5b813560208282111561227657612276612ef4565b8082029250612286818401612d9e565b8281528181019085830185870184018c10156122a0578788fd5b8796505b848710156122ce57803595506122b986612f0a565b858352600196909601959183019183016122a4565b5097506122de9050888201612044565b955050505050604084013590509250925092565b6000806000806000806060878903121561230a578384fd5b863567ffffffffffffffff80821115612321578586fd5b61232d8a838b0161204f565b90985096506020890135915080821115612345578586fd5b6123518a838b0161204f565b90965094506040890135915080821115612369578384fd5b5061237689828a0161204f565b979a9699509497509295939492505050565b600060208284031215612399578081fd5b5035919050565b600080604083850312156123b2578182fd5b82359150602083013561210081612f0a565b6000602082840312156123d5578081fd5b8135611d7681612f1f565b6000602082840312156123f1578081fd5b8151611d7681612f1f565b60006020828403121561240d578081fd5b815167ffffffffffffffff811115612423578182fd5b8201601f81018413612433578182fd5b805161244161201482612dcf565b818152856020838501011115612455578384fd5b612466826020830160208601612e45565b95945050505050565b60008060408385031215612481578182fd5b823567ffffffffffffffff80821115612498578384fd5b6124a486838701612098565b935060208501359150808211156124b9578283fd5b506124c685828601612098565b9150509250929050565b6000602082840312156124e1578081fd5b813567ffffffffffffffff808211156124f8578283fd5b9083019060a0828603121561250b578283fd5b61251560a0612d9e565b823582811115612523578485fd5b61252f87828601612098565b825250602083013582811115612543578485fd5b61254f87828601612098565b602083015250604083013582811115612566578485fd5b61257287828601612098565b60408301525061258460608401612044565b60608201526080830135608082015280935050505092915050565b6000806000606084860312156125b3578081fd5b8335925060208401356125c581612f0a565b915060408401356001600160601b03811681146125e0578182fd5b809150509250925092565b6000806000606084860312156125ff578081fd5b83359250602084013561213a81612f0a565b6000815180845260208085019450808401835b8381101561265d57815180516001600160a01b031688528301516001600160601b03168388015260409096019590820190600101612624565b509495945050505050565b60008151808452612680816020860160208601612e45565b601f01601f19169290920160200192915050565b60007f416363657373436f6e74726f6c3a206163636f756e7420000000000000000000825283516126cc816017850160208801612e45565b7001034b99036b4b9b9b4b733903937b6329607d1b60179184019182015283516126fd816028840160208801612e45565b01602801949350505050565b6001600160a01b0391909116815260200190565b6001600160a01b038581168252841660208201526040810183905260806060820181905260009061275090830184612668565b9695505050505050565b600060208252611d766020830184612611565b901515815260200190565b90815260200190565b600060208252611d766020830184612668565b6020808252818101527f537472696e67733a20686578206c656e67746820696e73756666696369656e74604082015260600190565b60208082526032908201527f4552433732313a207472616e7366657220746f206e6f6e20455243373231526560408201527131b2b4bb32b91034b6b83632b6b2b73a32b960711b606082015260800190565b60208082526025908201527f4552433732313a207472616e736665722066726f6d20696e636f72726563742060408201526437bbb732b960d91b606082015260800190565b6020808252601c908201527f4552433732313a20746f6b656e20616c7265616479206d696e74656400000000604082015260600190565b60208082526024908201527f4552433732313a207472616e7366657220746f20746865207a65726f206164646040820152637265737360e01b606082015260800190565b60208082526019908201527f4552433732313a20617070726f766520746f2063616c6c657200000000000000604082015260600190565b6020808252602c908201527f4552433732313a206f70657261746f7220717565727920666f72206e6f6e657860408201526b34b9ba32b73a103a37b5b2b760a11b606082015260800190565b6020808252818101527f526f79616c74792076616c75652073686f756c6420626520706f736974697665604082015260600190565b60208082526038908201527f4552433732313a20617070726f76652063616c6c6572206973206e6f74206f7760408201527f6e6572206e6f7220617070726f76656420666f7220616c6c0000000000000000606082015260800190565b6020808252602a908201527f4552433732313a2062616c616e636520717565727920666f7220746865207a65604082015269726f206164647265737360b01b606082015260800190565b60208082526029908201527f4552433732313a206f776e657220717565727920666f72206e6f6e657869737460408201526832b73a103a37b5b2b760b91b606082015260800190565b6020808252602e908201527f496e697469616c697a61626c653a20636f6e747261637420697320616c72656160408201526d191e481a5b9a5d1a585b1a5e995960921b606082015260800190565b6020808252818101527f4552433732313a206d696e7420746f20746865207a65726f2061646472657373604082015260600190565b6020808252602c908201527f4552433732313a20617070726f76656420717565727920666f72206e6f6e657860408201526b34b9ba32b73a103a37b5b2b760a11b606082015260800190565b60208082526021908201527f4552433732313a20617070726f76616c20746f2063757272656e74206f776e656040820152603960f91b606082015260800190565b60208082526031908201527f4552433732313a207472616e736665722063616c6c6572206973206e6f74206f6040820152701ddb995c881b9bdc88185c1c1c9bdd9959607a1b606082015260800190565b60208082526025908201527f526f79616c747920746f74616c2076616c75652073686f756c64206265203c20604082015264031303030360dc1b606082015260800190565b6020808252602b908201527f496e697469616c697a61626c653a20636f6e7472616374206973206e6f74206960408201526a6e697469616c697a696e6760a81b606082015260800190565b6020808252601b908201527f526563697069656e742073686f756c642062652070726573656e740000000000604082015260600190565b6020808252602f908201527f416363657373436f6e74726f6c3a2063616e206f6e6c792072656e6f756e636560408201526e103937b632b9903337b91039b2b63360891b606082015260800190565b600060408252835160a06040840152612d1660e0840182612668565b90506020850151603f1980858403016060860152612d348383612668565b9250604087015191508085840301608086015250612d528282612668565b60608701516001600160a01b031660a0860152608087015160c08601528481036020860152915061246690508185612668565b60008382526040602083015261170b6040830184612611565b604051601f8201601f1916810167ffffffffffffffff81118282101715612dc757612dc7612ef4565b604052919050565b600067ffffffffffffffff821115612de957612de9612ef4565b50601f01601f191660200190565b60008219821115612e0a57612e0a612ede565b500190565b6000816000190483118215151615612e2957612e29612ede565b500290565b600082821015612e4057612e40612ede565b500390565b60005b83811015612e60578181015183820152602001612e48565b83811115610ae15750506000910152565b600081612e8057612e80612ede565b506000190190565b600281046001821680612e9c57607f821691505b60208210811415612ebd57634e487b7160e01b600052602260045260246000fd5b50919050565b6000600019821415612ed757612ed7612ede565b5060010190565b634e487b7160e01b600052601160045260246000fd5b634e487b7160e01b600052604160045260246000fd5b6001600160a01b038116811461108b57600080fd5b6001600160e01b03198116811461108b57600080fdfea264697066735822122088b3185c165b01109b54fc188503d7f934ed71b90ff26162b5190acdfa9477f364736f6c63430008010033",
  "libraries": {
    "NFTDescriptor": "0x09a6CB3B1a6651bc2aFA8248e1513B12211bDA7B"
  },
  "devdoc": {
    "kind": "dev",
    "methods": {
      "approve(address,uint256)": {
        "details": "See {IERC721-approve}."
      },
      "balanceOf(address)": {
        "details": "See {IERC721-balanceOf}."
      },
      "getApproved(uint256)": {
        "details": "See {IERC721-getApproved}."
      },
      "getRoleAdmin(bytes32)": {
        "details": "Returns the admin role that controls `role`. See {grantRole} and {revokeRole}. To change a role's admin, use {_setRoleAdmin}."
      },
      "grantRole(bytes32,address)": {
        "details": "Grants `role` to `account`. If `account` had not been already granted `role`, emits a {RoleGranted} event. Requirements: - the caller must have ``role``'s admin role."
      },
      "hasRole(bytes32,address)": {
        "details": "Returns `true` if `account` has been granted `role`."
      },
      "isApprovedForAll(address,address)": {
        "details": "See {IERC721-isApprovedForAll}."
      },
      "name()": {
        "details": "See {IERC721Metadata-name}."
      },
      "ownerOf(uint256)": {
        "details": "See {IERC721-ownerOf}."
      },
      "renounceRole(bytes32,address)": {
        "details": "Revokes `role` from the calling account. Roles are often managed via {grantRole} and {revokeRole}: this function's purpose is to provide a mechanism for accounts to lose their privileges if they are compromised (such as when a trusted device is misplaced). If the calling account had been revoked `role`, emits a {RoleRevoked} event. Requirements: - the caller must be `account`."
      },
      "revokeRole(bytes32,address)": {
        "details": "Revokes `role` from `account`. If `account` had been granted `role`, emits a {RoleRevoked} event. Requirements: - the caller must have ``role``'s admin role."
      },
      "safeTransferFrom(address,address,uint256)": {
        "details": "See {IERC721-safeTransferFrom}."
      },
      "safeTransferFrom(address,address,uint256,bytes)": {
        "details": "See {IERC721-safeTransferFrom}."
      },
      "setApprovalForAll(address,bool)": {
        "details": "See {IERC721-setApprovalForAll}."
      },
      "symbol()": {
        "details": "See {IERC721Metadata-symbol}."
      },
      "tokenURI(uint256)": {
        "details": "See {IERC721Metadata-tokenURI}."
      },
      "transferFrom(address,address,uint256)": {
        "details": "See {IERC721-transferFrom}."
      }
    },
    "version": 1
  },
  "userdoc": {
    "kind": "user",
    "methods": {},
    "version": 1
  },
  "storageLayout": {
    "storage": [
      {
        "astId": 408,
        "contract": "src/sl.sol:MIRE",
        "label": "_initialized",
        "offset": 0,
        "slot": "0",
        "type": "t_bool"
      },
      {
        "astId": 411,
        "contract": "src/sl.sol:MIRE",
        "label": "_initializing",
        "offset": 1,
        "slot": "0",
        "type": "t_bool"
      },
      {
        "astId": 1811,
        "contract": "src/sl.sol:MIRE",
        "label": "__gap",
        "offset": 0,
        "slot": "1",
        "type": "t_array(t_uint256)50_storage"
      },
      {
        "astId": 2058,
        "contract": "src/sl.sol:MIRE",
        "label": "__gap",
        "offset": 0,
        "slot": "51",
        "type": "t_array(t_uint256)50_storage"
      },
      {
        "astId": 504,
        "contract": "src/sl.sol:MIRE",
        "label": "_name",
        "offset": 0,
        "slot": "101",
        "type": "t_string_storage"
      },
      {
        "astId": 506,
        "contract": "src/sl.sol:MIRE",
        "label": "_symbol",
        "offset": 0,
        "slot": "102",
        "type": "t_string_storage"
      },
      {
        "astId": 510,
        "contract": "src/sl.sol:MIRE",
        "label": "_owners",
        "offset": 0,
        "slot": "103",
        "type": "t_mapping(t_uint256,t_address)"
      },
      {
        "astId": 514,
        "contract": "src/sl.sol:MIRE",
        "label": "_balances",
        "offset": 0,
        "slot": "104",
        "type": "t_mapping(t_address,t_uint256)"
      },
      {
        "astId": 518,
        "contract": "src/sl.sol:MIRE",
        "label": "_tokenApprovals",
        "offset": 0,
        "slot": "105",
        "type": "t_mapping(t_uint256,t_address)"
      },
      {
        "astId": 524,
        "contract": "src/sl.sol:MIRE",
        "label": "_operatorApprovals",
        "offset": 0,
        "slot": "106",
        "type": "t_mapping(t_address,t_mapping(t_address,t_bool))"
      },
      {
        "astId": 1365,
        "contract": "src/sl.sol:MIRE",
        "label": "__gap",
        "offset": 0,
        "slot": "107",
        "type": "t_array(t_uint256)44_storage"
      },
      {
        "astId": 2459,
        "contract": "src/sl.sol:MIRE",
        "label": "royalties",
        "offset": 0,
        "slot": "151",
        "type": "t_mapping(t_uint256,t_array(t_struct(Part)2401_storage)dyn_storage)"
      },
      {
        "astId": 39,
        "contract": "src/sl.sol:MIRE",
        "label": "_roles",
        "offset": 0,
        "slot": "152",
        "type": "t_mapping(t_bytes32,t_struct(RoleData)34_storage)"
      },
      {
        "astId": 327,
        "contract": "src/sl.sol:MIRE",
        "label": "__gap",
        "offset": 0,
        "slot": "153",
        "type": "t_array(t_uint256)49_storage"
      },
      {
        "astId": 3458,
        "contract": "src/sl.sol:MIRE",
        "label": "cloneMappingAddress",
        "offset": 0,
        "slot": "202",
        "type": "t_mapping(t_uint256,t_contract(IERC721MetadataTokenURI)3439)"
      },
      {
        "astId": 3462,
        "contract": "src/sl.sol:MIRE",
        "label": "cloneMappingId",
        "offset": 0,
        "slot": "203",
        "type": "t_mapping(t_uint256,t_uint256)"
      },
      {
        "astId": 3466,
        "contract": "src/sl.sol:MIRE",
        "label": "cloneMappingValue",
        "offset": 0,
        "slot": "204",
        "type": "t_mapping(t_uint256,t_uint256)"
      },
      {
        "astId": 3468,
        "contract": "src/sl.sol:MIRE",
        "label": "_name",
        "offset": 0,
        "slot": "205",
        "type": "t_string_storage"
      },
      {
        "astId": 3470,
        "contract": "src/sl.sol:MIRE",
        "label": "_symbol",
        "offset": 0,
        "slot": "206",
        "type": "t_string_storage"
      },
      {
        "astId": 3472,
        "contract": "src/sl.sol:MIRE",
        "label": "mTokenId",
        "offset": 0,
        "slot": "207",
        "type": "t_uint256"
      },
      {
        "astId": 3475,
        "contract": "src/sl.sol:MIRE",
        "label": "contractMetadata",
        "offset": 0,
        "slot": "208",
        "type": "t_struct(ConstructContractURIParams)2671_storage"
      },
      {
        "astId": 3477,
        "contract": "src/sl.sol:MIRE",
        "label": "version",
        "offset": 0,
        "slot": "213",
        "type": "t_uint256"
      }
    ],
    "types": {
      "t_address": {
        "encoding": "inplace",
        "label": "address",
        "numberOfBytes": "20"
      },
      "t_address_payable": {
        "encoding": "inplace",
        "label": "address payable",
        "numberOfBytes": "20"
      },
      "t_array(t_struct(Part)2401_storage)dyn_storage": {
        "base": "t_struct(Part)2401_storage",
        "encoding": "dynamic_array",
        "label": "struct LibPart.Part[]",
        "numberOfBytes": "32"
      },
      "t_array(t_uint256)44_storage": {
        "base": "t_uint256",
        "encoding": "inplace",
        "label": "uint256[44]",
        "numberOfBytes": "1408"
      },
      "t_array(t_uint256)49_storage": {
        "base": "t_uint256",
        "encoding": "inplace",
        "label": "uint256[49]",
        "numberOfBytes": "1568"
      },
      "t_array(t_uint256)50_storage": {
        "base": "t_uint256",
        "encoding": "inplace",
        "label": "uint256[50]",
        "numberOfBytes": "1600"
      },
      "t_bool": {
        "encoding": "inplace",
        "label": "bool",
        "numberOfBytes": "1"
      },
      "t_bytes32": {
        "encoding": "inplace",
        "label": "bytes32",
        "numberOfBytes": "32"
      },
      "t_contract(IERC721MetadataTokenURI)3439": {
        "encoding": "inplace",
        "label": "contract IERC721MetadataTokenURI",
        "numberOfBytes": "20"
      },
      "t_mapping(t_address,t_bool)": {
        "encoding": "mapping",
        "key": "t_address",
        "label": "mapping(address => bool)",
        "numberOfBytes": "32",
        "value": "t_bool"
      },
      "t_mapping(t_address,t_mapping(t_address,t_bool))": {
        "encoding": "mapping",
        "key": "t_address",
        "label": "mapping(address => mapping(address => bool))",
        "numberOfBytes": "32",
        "value": "t_mapping(t_address,t_bool)"
      },
      "t_mapping(t_address,t_uint256)": {
        "encoding": "mapping",
        "key": "t_address",
        "label": "mapping(address => uint256)",
        "numberOfBytes": "32",
        "value": "t_uint256"
      },
      "t_mapping(t_bytes32,t_struct(RoleData)34_storage)": {
        "encoding": "mapping",
        "key": "t_bytes32",
        "label": "mapping(bytes32 => struct AccessControlUpgradeable.RoleData)",
        "numberOfBytes": "32",
        "value": "t_struct(RoleData)34_storage"
      },
      "t_mapping(t_uint256,t_address)": {
        "encoding": "mapping",
        "key": "t_uint256",
        "label": "mapping(uint256 => address)",
        "numberOfBytes": "32",
        "value": "t_address"
      },
      "t_mapping(t_uint256,t_array(t_struct(Part)2401_storage)dyn_storage)": {
        "encoding": "mapping",
        "key": "t_uint256",
        "label": "mapping(uint256 => struct LibPart.Part[])",
        "numberOfBytes": "32",
        "value": "t_array(t_struct(Part)2401_storage)dyn_storage"
      },
      "t_mapping(t_uint256,t_contract(IERC721MetadataTokenURI)3439)": {
        "encoding": "mapping",
        "key": "t_uint256",
        "label": "mapping(uint256 => contract IERC721MetadataTokenURI)",
        "numberOfBytes": "32",
        "value": "t_contract(IERC721MetadataTokenURI)3439"
      },
      "t_mapping(t_uint256,t_uint256)": {
        "encoding": "mapping",
        "key": "t_uint256",
        "label": "mapping(uint256 => uint256)",
        "numberOfBytes": "32",
        "value": "t_uint256"
      },
      "t_string_storage": {
        "encoding": "bytes",
        "label": "string",
        "numberOfBytes": "32"
      },
      "t_struct(ConstructContractURIParams)2671_storage": {
        "encoding": "inplace",
        "label": "struct NFTDescriptor.ConstructContractURIParams",
        "members": [
          {
            "astId": 2662,
            "contract": "src/sl.sol:MIRE",
            "label": "imageURL",
            "offset": 0,
            "slot": "0",
            "type": "t_string_storage"
          },
          {
            "astId": 2664,
            "contract": "src/sl.sol:MIRE",
            "label": "description",
            "offset": 0,
            "slot": "1",
            "type": "t_string_storage"
          },
          {
            "astId": 2666,
            "contract": "src/sl.sol:MIRE",
            "label": "externalURL",
            "offset": 0,
            "slot": "2",
            "type": "t_string_storage"
          },
          {
            "astId": 2668,
            "contract": "src/sl.sol:MIRE",
            "label": "royaltiesRecipient",
            "offset": 0,
            "slot": "3",
            "type": "t_address_payable"
          },
          {
            "astId": 2670,
            "contract": "src/sl.sol:MIRE",
            "label": "royaltiesFeeBasisPoints",
            "offset": 0,
            "slot": "4",
            "type": "t_uint256"
          }
        ],
        "numberOfBytes": "160"
      },
      "t_struct(Part)2401_storage": {
        "encoding": "inplace",
        "label": "struct LibPart.Part",
        "members": [
          {
            "astId": 2398,
            "contract": "src/sl.sol:MIRE",
            "label": "account",
            "offset": 0,
            "slot": "0",
            "type": "t_address_payable"
          },
          {
            "astId": 2400,
            "contract": "src/sl.sol:MIRE",
            "label": "value",
            "offset": 20,
            "slot": "0",
            "type": "t_uint96"
          }
        ],
        "numberOfBytes": "32"
      },
      "t_struct(RoleData)34_storage": {
        "encoding": "inplace",
        "label": "struct AccessControlUpgradeable.RoleData",
        "members": [
          {
            "astId": 31,
            "contract": "src/sl.sol:MIRE",
            "label": "members",
            "offset": 0,
            "slot": "0",
            "type": "t_mapping(t_address,t_bool)"
          },
          {
            "astId": 33,
            "contract": "src/sl.sol:MIRE",
            "label": "adminRole",
            "offset": 0,
            "slot": "1",
            "type": "t_bytes32"
          }
        ],
        "numberOfBytes": "64"
      },
      "t_uint256": {
        "encoding": "inplace",
        "label": "uint256",
        "numberOfBytes": "32"
      },
      "t_uint96": {
        "encoding": "inplace",
        "label": "uint96",
        "numberOfBytes": "12"
      }
    }
  }
}