{
  "address": "0x9EE92de47395F7c06EE6cf2772C4EC4a83469Ac1",
  "abi": [
    {
      "inputs": [],
      "stateMutability": "nonpayable",
      "type": "constructor"
    },
    {
      "inputs": [],
      "name": "genSLSVG",
      "outputs": [
        {
          "internalType": "string",
          "name": "",
          "type": "string"
        }
      ],
      "stateMutability": "pure",
      "type": "function"
    },
    {
      "inputs": [],
      "name": "name",
      "outputs": [
        {
          "internalType": "string",
          "name": "",
          "type": "string"
        }
      ],
      "stateMutability": "pure",
      "type": "function"
    },
    {
      "inputs": [
        {
          "internalType": "bytes4",
          "name": "interfaceID",
          "type": "bytes4"
        }
      ],
      "name": "supportsInterface",
      "outputs": [
        {
          "internalType": "bool",
          "name": "",
          "type": "bool"
        }
      ],
      "stateMutability": "view",
      "type": "function"
    },
    {
      "inputs": [],
      "name": "symbol",
      "outputs": [
        {
          "internalType": "string",
          "name": "",
          "type": "string"
        }
      ],
      "stateMutability": "pure",
      "type": "function"
    },
    {
      "inputs": [
        {
          "internalType": "uint256",
          "name": "",
          "type": "uint256"
        }
      ],
      "name": "tokenURI",
      "outputs": [
        {
          "internalType": "string",
          "name": "",
          "type": "string"
        }
      ],
      "stateMutability": "pure",
      "type": "function"
    },
    {
      "inputs": [],
      "name": "totalSupply",
      "outputs": [
        {
          "internalType": "uint256",
          "name": "",
          "type": "uint256"
        }
      ],
      "stateMutability": "pure",
      "type": "function"
    }
  ],
  "transactionHash": "0xa38bc124e09905bb280d6740ba5cd10baf8e7206e3ac37899263026dadc71b44",
  "args": [],
  "numDeployments": 1,
  "solcInputHash": "bf891ca89d2d914201c125342e1b62e7",
  "bytecode": "0x608060405234801561001057600080fd5b50600060208190527f67be87c3ff9960ca1e9cfac5cab2ff4747269cf9ed20c9b7306235ac35a491c5805460ff1990811660019081179092557ff7815fccbf112960a73756e185887fedcb9fc64ca0a16cc5923b7960ed78080080548216831790557f9562381dfbc2d8b8b66e765249f330164b73e329e5f01670660643571d1974df80548216831790557f77b7bbe0e49b76487c9476b5db3354cf5270619d0037ccb899c2a4c4a75b431880548216831790556340a9c8b560e11b9092527f74746b44439ef58d8144f70c36c96cdf2ad4ecaa67857807d6ce753e0ac2e27180549092161790556130be806101076000396000f3fe608060405234801561001057600080fd5b50600436106100625760003560e01c806301bdb19a1461006757806301ffc9a71461008557806306fdde03146100a557806318160ddd146100ad57806395d89b41146100c2578063c87b56dd146100ca575b600080fd5b61006f6100dd565b60405161007c91906105b1565b60405180910390f35b61009861009336600461037f565b610100565b60405161007c91906105a6565b61006f610123565b6100b5610143565b60405161007c91906105e4565b61006f610148565b61006f6100d83660046103ae565b610165565b6060604051806129e001604052806129be815260200161068b6129be9139905090565b6001600160e01b0319811660009081526020819052604090205460ff165b919050565b604080518082019091526006815265532d4c494e4560d01b602082015290565b600290565b60408051808201909152600381526207140560ed1b602082015290565b60606101e4610172610123565b61017a610148565b6040516020016101899061051b565b6040516020818303038152906040526101a06100dd565b6040516020016101b091906103c6565b60408051601f19818403018152908290526101d094939291602001610464565b60405160208183030381529060405261020a565b6040516020016101f49190610561565b6040516020818303038152906040529050919050565b606081516000141561022b575060408051602081019091526000815261011e565b6000604051806060016040528060408152602001613049604091399050600060038451600261025a91906105ed565b6102649190610605565b61026f906004610625565b9050600061027e8260206105ed565b67ffffffffffffffff8111156102a457634e487b7160e01b600052604160045260246000fd5b6040519080825280601f01601f1916602001820160405280156102ce576020820181803683370190505b509050818152600183018586518101602084015b8183101561033a576003830192508251603f8160121c168501518253600182019150603f81600c1c168501518253600182019150603f8160061c168501518253600182019150603f81168501518253506001016102e2565b600389510660018114610354576002811461036557610371565b613d3d60f01b600119830152610371565b603d60f81b6000198301525b509398975050505050505050565b600060208284031215610390578081fd5b81356001600160e01b0319811681146103a7578182fd5b9392505050565b6000602082840312156103bf578081fd5b5035919050565b600082516103d8818460208701610644565b7f222c2022616e696d6174696f6e5f75726c223a2022697066733a2f2f516d53469201918252507f734a453266766d3950786155567a53415a79534a716d414c5a4c4b344574443660208201527f3750426d7635774238742f736b796c696768742d6368726f6d652d32303030786040820152670c8c0c0c0b9b5c0d60c21b6060820152606801919050565b683d913730b6b2911d1160b91b81528451600090610489816009850160208a01610644565b71111610113232b9b1b934b83a34b7b7111d1160711b60099184019182015285516104bb81601b840160208a01610644565b85519101906104d181601b840160208901610644565b6b1116101134b6b0b3b2911d1160a11b601b929091019182015283516104fe816027840160208801610644565b61227d60f01b602792909101918201526029019695505050505050565b731116101132bc3a32b93730b62fbab936111d101160611b81527f68747470733a2f2f736b792d6c696768742d736c2e636f6d2f000000000000006014820152602d0190565b60007f646174613a6170706c69636174696f6e2f6a736f6e3b6261736536342c0000008252825161059981601d850160208701610644565b91909101601d0192915050565b901515815260200190565b60006020825282518060208401526105d0816040850160208701610644565b601f01601f19169190910160400192915050565b90815260200190565b6000821982111561060057610600610674565b500190565b60008261062057634e487b7160e01b81526012600452602481fd5b500490565b600081600019048311821515161561063f5761063f610674565b500290565b60005b8381101561065f578181015183820152602001610647565b8381111561066e576000848401525b50505050565b634e487b7160e01b600052601160045260246000fdfe3c3f786d6c2076657273696f6e3d5c22312e305c2220656e636f64696e673d5c2269736f2d383835392d315c223f3e3c7376672076657273696f6e3d5c22312e315c222069643d5c224c617965725f315c2220786d6c6e733d5c22687474703a2f2f7777772e77332e6f72672f323030302f7376675c2220786d6c6e733a786c696e6b3d5c22687474703a2f2f7777772e77332e6f72672f313939392f786c696e6b5c2220783d5c223070785c2220793d5c223070785c22202077696474683d5c22343137302e32353270785c22206865696768743d5c22323932362e39343470785c222076696577426f783d5c2230203020343137302e32353220323932362e3934345c2220656e61626c652d6261636b67726f756e643d5c226e65772030203020343137302e32353220323932362e3934345c222020786d6c3a73706163653d5c2270726573657276655c223e3c7265637420783d5c22302e355c2220793d5c22302e355c22207374726f6b653d5c22233030303030305c22207374726f6b652d6d697465726c696d69743d5c2231305c222077696474683d5c22343136392e3235325c22206865696768743d5c22323932352e3934345c222f3e3c673e203c706174682066696c6c3d5c22234632463246325c2220643d5c224d323039382e3036362c3930322e3932356332352e3631322d392e3839372c33312e3331392d31352e3630342c36352e3632322d32332e373433632d362e3936352d32322e37342d31312e3233372d34352e3732332d31332e3230352d36382e373935202076302e303031632d352e3036362d34382e3331352c372e3034352d3133362e3930392c32362e3838352d3138342e30343363302e3030322c302e3030312c3132332e3833382d3135392e3339312c3132332e3833382d3135392e333931732d38352e3637382c39342e3238362d3134322e3333322c3135322e3532372020632d31352e3234392c31352e3637372d33342e3931392c32352e3833392d35362e3131332c32392e30333543323130312e3833342c3635352e3532312c323130352e3632352c3830372e3530392c323039382e3036362c3930322e3932357a5c222f3e203c706174682066696c6c3d5c22234632463246325c2220643d5c224d323138332e3738392c3838302e363632632d33332e3131342c32372e3238382d35312e3334352c35332e352d38392e3236362c35312e3135632d34352e3833352d34342e3034382d392e3030322d3236362e3338352d31312e3635362d3238332e3436362020632d35302e3932382d32322e3735362d33302e3031372d3239352e3034332d32382e3331332d3332392e363533632d31312e3232312c39312e3239342d33332e3033382c3535362e3036312d35312e3539322c3538372e383239202063302e3730312c302e3036312c38312e3236332d36342e3439322c37362e3934362c3336342e36343843323038392e3037312c313032342e3838332c323036342e36362c313032342e3235332c323138332e3738392c3838302e3636327a5c222f3e203c706174682066696c6c3d5c22234632463246325c2220643d5c224d323239382e3338382c3935382e3636346331362e3932342d31372e3339392c33382e3735352d32382e3637382c36322e3237372d33322e323234632d322e32372d31312e3532312d342e3033342d36392e3534372d342e3332312d37342e3231202063302e3535342d3130312e3632352c322e3333352d3131332e3835382c31302e3233382d3231372e393031632d312e3435312d33312e3532342c3134302e3936342d3139342e3231372c3135372e3532362d3232302e38303263302c302d39372e37342c3130372e35362d3136322e3336392c3137342020632d31372e3339362c31372e3838342d33392e3833342c32392e3437372d36342e3031322c33332e31323263302e3637382c362e3532332c322e3037352c32312e3238332c332e3636332c33382e363033632d31312e3737372d362e3636362d33332e3530362d31372e3333392d39322e33342d36332e38363120206332352e3934352c33312e3134312c32362e3835312c39372e3630342d33352e3932382c39372e31323863382e3934382c35332e3434382c352e3532372c3130382e3434382d322e3835342c3136312e3830326334312e3935342c31322e3830322c34382e3037362c32332e3235362c36392e3739362c36302e33353320206331312e3039372d33372e38312c33342e3539322d33382e3137332c36302e3730382d34362e393037632d342e3337392c33362e38352d31312e3930312c36392e3130362d32322e3931312c38332e3237386c2d3133372e3433392c3137362e393031202043323134302e3432312c313132372e3934362c323233352e3531312c313032332e3330332c323239382e3338382c3935382e3636347a204d323233352e392c3639322e3939356333382e3634322d302e3334312c36302e3337362c33342e3131372c36362e3333342c36362e343133202063312e3937362c31312e3138352d302e3531352c39392e3834392d302e3539392c3130302e36343343323139392e3236352c3836302e30352c323232352e3833342c3735382e3930392c323233352e392c3639322e3939357a5c222f3e203c706174682066696c6c3d5c22234632463246325c2220643d5c224d313939382e3730332c3635382e333936632d32372e3438352d342e3134342d34392e3337342d31372e3332332d36392e3134392d33372e3635332020632d37332e3436392d37352e3532392d3138342e3537392d3139372e3830322d3138342e3537392d3139372e3830326331392e3639342c33312e3839362c3138302e3535362c3231332e36312c3137382e3335372c3235312e32353820206331322e3837352c34382e3631342c372e3032312c3130382e3937312c362e3234382c3135352e373631632d302e3938372c382e3936362d322e3132362c31372e3731352d332e3431392c32362e313131632d36312e3637382d342e3931372d36372e3233372d34352e3936392d36342e3232312d3130332e323539202063312e3930332d33322e3037312c362e3531362d3132372e3735352c362e3937342d3133322e313634632d32342e3137372d332e3634352d34362e3631362d31352e3233382d36342e3031322d33332e313232632d36342e3632392d36362e34342d3136322e3336392d3137342d3136322e3336392d31373420206c3134312e3236392c3138312e38336331322e3334312c31352e3838342c32302e3432312c35332e3836392c32342e3639342c39352e39383163302e3037392c302e3030392c302e3135392c302e3031392c302e3233382c302e303238202063372e3039382c37322e3634332c332e3237342c3135372e3536352d392e32392c3136322e3539396333342e3636312c31302e3030322c34302e3430382c31362e3234332c36322e3931332c35322e31343963312e3437342d31312e3437362c32352e3638322d33362e3338332c36322e3433372d34312e3634342020632d352e3033372c32392e3331382d31322e3039362c35332e3432342d32312e3333392c36352e3737346c2d3135342e372c3230362e37303363302c302c3130372e3033332d3132322e3237332c3137372e3830372d3139372e38303220206331392e30352d32302e33332c33382e3139332d33332e3530392c36342e36372d33372e36353343313938372e3535382c3736312e3736332c313939332e3236362c3731322e3533382c313939382e3730332c3635382e3339367a5c222f3e203c706174682066696c6c3d5c22234632463246325c2220643d5c224d313733312e3334382c3935362e3733366331372e3339362d31372e3838332c33392e3833342d32392e3437372c36342e3031322d33332e313232632d342e3630392d34342e3334392d372e3634382d39362e32382d382e3035392d3134372e30383320206c2d32332e3734352d32372e3035336c32332e3937382d31322e32343663302e3331342d32362e35332c322e3538372d35362e3535332c342e3532392d37392e393738632d35342e3635332c34392e3531332d38302e3839332d39322e3237342d38372e3939382d3131372e3338322020632d302e3233342c32342e3134332c32322e3537342c3139352e3639332c32322e3537342c3139352e36393563302c302d36392e3832312d32302e37322d37322e3536342d38302e333836632d332e3430332d37342e3033352d34382e3538362d3238302e3536342d34382e3738392d3238302e353936202063312e3830372c33362e3237362c32372e3038382c3232382e3233382d31312e3837392c3234302e363039632d3137322e3439322d3133392e3433372d3336332e3239332d3431322e3438322d3336332e3239342d3431322e3438336c3137302e31312c3235342e3334322020633139302e3033372c3236332e3139382d3131392e3836352c31322e3636362d3131392e38362c31322e363732632d302e3030322d302e3030322c3231312e332c3233322e3737362c36332e3432372c3231312e39373320206334302e3538332c31322e3435362c39322e3335382c32362e3539362c3132362e35332c35322e3737316331382e3632332c31322e3830392c33312e3838332c33322e3639372c33362e3335362c35352e34383720206331382e3734332c39352e3439352d3136302e3830332d34302e3633362d3136302e3830352d34302e363337632d302e3932352c302e3031312c3134312e3337382c3134392e3230362c3238352e3935322c3330302e3533316c2d36322e3834332c38302e383836202063302c302c33302e3439392d33332e3536332c36382e3638362d37342e3737633134362e3835352c3135332e3730352c3239342e3039342c3330372e3536332c3239342e3039342c3330372e3536336c2d3237372e3236312d3332352e363834202043313638302e3332342c313031302e3131352c313730372e3939372c3938302e3734322c313733312e3334382c3935362e3733367a204d313532302e3138322c3634322e3037336331332e3434342c31382e3633352c32312e3331372c35342e3739392c32322e3335382c37372e333838202063352e3233392d31382e3835342c31312e3233312d38322e3132352c35322e3135342d37312e30323963332e3436392c33312e3233332c31372e3030352c3131352e3033332c31382e3038382c3134362e352020632d38342e3138322d33342e3234332d3233302e3937392d3136352e33342d3132332e3639312d3139312e373639763043313437382e3731362c3539312e3438322c313530322e34322c3631372e3435332c313532302e3138322c3634322e3037337a204d313539322e3839322c3936352e3437372020632d36372e3438372d38392e3037372d33312e3636312d3133302e3036382d33312e3636312d3133302e3036376334322e3334332c32332e3938352c3131372e3034312c36332e3637372c3132342e3336322c3130352e3235366c2d32322e3435312d3230372e37393220206333382e3437372d392e3330332c37392e3039332c33352e3333332c37392e3532332c3131322e32343663362e3539332c36362e3434372d35372e3731312c3133362e3835372d39352e3134352c3138342e3532354c313539322e3839322c3936352e3437377a5c222f3e203c706174682066696c6c3d5c22234632463246325c2220643d5c224d323531352e3735332c313033372e3834346c2d3237372e32362c3332352e36383463302c302c3134372e3233392d3135332e3835382c3239342e3039342d3330372e35363320206333382e3138372c34312e3230372c36382e3638362c37342e37372c36382e3638362c37342e37376c2d36322e3834332d38302e383836633134342e3537342d3135312e3332352c3238362e3837372d3330302e35322c3238352e3935322d3330302e3533312020632d302e3030322c302e3030312d3137392e3534382c3133362e3133322d3136302e3830352c34302e36333763342e3437332d32322e37392c31372e3733332d34322e3637372c33362e3335352d35352e3438386333342e3031382d32362e3130392c38362e3133362d34302e3430352c3132362e35332d35322e37372020632d3134372e3837332c32302e3830322c36332e3432392d3231312e3937362c36332e3432372d3231312e39373363302e3030352d302e3030362d3330392e3839372c3235302e3532362d3131392e38362d31322e3637326c3137302e31312d3235342e3334322020632d302e3030312c302e3030312d3139302e3830322c3237332e3034362d3336332e3239342c3431322e343833632d33382e3936362d31322e3337312d31332e3638362d3230342e3333332d31312e3837392d3234302e3630392020632d302e3230332c302e3033312d34352e3338362c3230362e3536312d34382e3738392c3238302e353936632d322e3734332c35392e3636352d37322e3536342c38302e3338362d37322e3536342c38302e33383663302d302e3030312c32322e3830382d3137312e3535322c32322e3537342d3139352e3639352020632d372e3130352c32352e3130382d33332e3334352c3136362e3839342d38372e3939382c3131372e33383263382e30312c38332e3532382c352e3136352c3138352e3437342d332e3239382c3236362e3336202043323433382e3433322c3933342e3237332c323436392e36352c3939342e3935352c323531352e3735332c313033372e3834347a204d323638312e3137342c3630332e3136324c323638312e3137342c3630332e3136322020633130372e3234362c32362e3437352d33392e3434332c3135372e3436342d3132332e3639312c3139312e373763312e3038332d33312e3436372c31342e3631392d3131352e3236372c31382e3038382d3134362e3520206334302e3932332d31312e3039362c34362e3931352c35322e3137352c35322e3135342c37312e30323943323632372e3231332c3636322e3933372c323636372e3432352c3631372e3431372c323638312e3137342c3630332e3136327a204d323532322e3734372c313032392e3634362020632d33372e3533392d34372e3932332d3130312e3635362d3131372e3839312d39352e3134342d3138342e35323963302e3234332d37362e3631322c34312e3335362d3132312e3739372c37392e3532322d3131322e3234326c2d32322e3435312c3230372e373932202063372e3334332d34312e3630312c38322e3030332d38312e3235352c3132342e3336322d3130352e32353643323634332e3435362c3837362e3839322c323538352e3436362c3936342e3532352c323532322e3734372c313032392e3634367a5c222f3e3c2f673e3c7265637420783d5c22302e32355c2220793d5c22313532312e3136345c222066696c6c3d5c22234632463246325c222077696474683d5c22343136392e3735325c22206865696768743d5c22313430352e37385c222f3e3c673e203c70617468207374726f6b653d5c22233030303030305c22207374726f6b652d6d697465726c696d69743d5c2231305c2220643d5c224d323039382e3036362c323237322e3937366332352e3631322d392e3839372c33312e3331392d31352e3630342c36352e3632322d32332e3734332020632d362e3936352d32322e37342d31312e3233372d34352e3732332d31332e3230352d36382e37393576302e303031632d352e3036362d34382e3331352c372e3034352d3133362e3930392c32362e3838352d3138342e303433202063302e3030322c302e3030312c3132332e3833382d3135392e3339312c3132332e3833382d3135392e333931732d38352e3637382c39342e3238362d3134322e3333322c3135322e353237632d31352e3234392c31352e3637372d33342e3931392c32352e3833392d35362e3131332c32392e303335202043323130312e3833342c323032352e3537322c323130352e3632352c323137372e3535392c323039382e3036362c323237322e3937367a5c222f3e203c70617468207374726f6b653d5c22233030303030305c22207374726f6b652d6d697465726c696d69743d5c2231305c2220643d5c224d323138332e3738392c323235302e373133632d33332e3131342c32372e3238382d35312e3334352c35332e352d38392e3236362c35312e31352020632d34352e3833352d34342e3034382d392e3030322d3236362e3338352d31312e3635362d3238332e343636632d35302e3932382d32322e3735362d33302e3031372d3239352e3034332d32382e3331332d3332392e3635332020632d31312e3232312c39312e3239342d33332e3033382c3535362e3036312d35312e3539322c3538372e38323963302e3730312c302e3036312c38312e3236332d36342e3439322c37362e3934362c3336342e363438202043323038392e3037312c323339342e3933332c323036342e36362c323339342e3330342c323138332e3738392c323235302e3731337a5c222f3e203c70617468207374726f6b653d5c22233030303030305c22207374726f6b652d6d697465726c696d69743d5c2231305c2220643d5c224d323239382e3338382c323332382e3731346331362e3932342d31372e3339392c33382e3735352d32382e3637382c36322e3237372d33322e3232342020632d322e32372d31312e3532312d342e3033342d36392e3534372d342e3332312d37342e323163302e3535342d3130312e3632352c322e3333352d3131332e3835382c31302e3233382d3231372e3930312020632d312e3435312d33312e3532342c3134302e3936342d3139342e3231372c3135372e3532362d3232302e38303263302c302d39372e37342c3130372e35362d3136322e3336392c313734632d31372e3339362c31372e3838342d33392e3833342c32392e3437372d36342e3031322c33332e313232202063302e3637382c362e3532322c322e3037352c32312e3238332c332e3636332c33382e363033632d31312e3737372d362e3636362d33332e3530362d31372e3333392d39322e33342d36332e3836316332352e3934352c33312e3134312c32362e3835312c39372e3630342d33352e3932382c39372e313238202063382e3934382c35332e3434382c352e3532372c3130382e3434382d322e3835342c3136312e3830326334312e3935342c31322e3830322c34382e3037362c32332e3235362c36392e3739362c36302e3335336331312e3039372d33372e38312c33342e3539322d33382e3137332c36302e3730382d34362e3930372020632d342e3337392c33362e38352d31312e3930312c36392e3130362d32322e3931312c38332e3237386c2d3133372e3433392c3137362e39303143323134302e3432312c323439372e3939372c323233352e3531312c323339332e3335332c323239382e3338382c323332382e3731347a2020204d323233352e392c323036332e3034356333382e3634322d302e3334312c36302e3337362c33342e3131372c36362e3333342c36362e34313363312e3937362c31312e3138352d302e3531352c39392e3834392d302e3539392c3130302e363433202043323139392e3236352c323233302e3130312c323232352e3833342c323132382e39362c323233352e392c323036332e3034357a5c222f3e203c70617468207374726f6b653d5c22233030303030305c22207374726f6b652d6d697465726c696d69743d5c2231305c2220643d5c224d313939382e3730332c323032382e343437632d32372e3438352d342e3134342d34392e3337342d31372e3332332d36392e3134392d33372e3635332020632d37332e3436392d37352e3532392d3138342e3537392d3139372e3830322d3138342e3537392d3139372e3830326331392e3639342c33312e3839362c3138302e3535362c3231332e36312c3137382e3335372c3235312e32353820206331322e3837352c34382e3631342c372e3032312c3130382e3937312c362e3234382c3135352e373631632d302e3938372c382e3936362d322e3132362c31372e3731352d332e3431392c32362e313131632d36312e3637382d342e3931372d36372e3233372d34352e3936392d36342e3232312d3130332e323539202063312e3930332d33322e3037312c362e3531362d3132372e3735352c362e3937342d3133322e313634632d32342e3137372d332e3634352d34362e3631362d31352e3233392d36342e3031322d33332e313232632d36342e3632392d36362e34342d3136322e3336392d3137342d3136322e3336392d31373420206c3134312e3236392c3138312e38336331322e3334312c31352e3838342c32302e3432312c35332e3836392c32342e3639342c39352e39383163302e3037392c302e3030392c302e3135392c302e3031392c302e3233382c302e303238202063372e3039382c37322e3634332c332e3237342c3135372e3536352d392e32392c3136322e3539396333342e3636312c31302e3030322c34302e3430382c31362e3234332c36322e3931332c35322e31343963312e3437342d31312e3437362c32352e3638322d33362e3338342c36322e3433372d34312e3634342020632d352e3033372c32392e3331382d31322e3039362c35332e3432342d32312e3333392c36352e3737336c2d3135342e372c3230362e37303363302c302c3130372e3033332d3132322e3237332c3137372e3830372d3139372e38303220206331392e30352d32302e33332c33382e3139332d33332e3530392c36342e36372d33372e36353343313938372e3535382c323133312e3831332c313939332e3236362c323038322e3538392c313939382e3730332c323032382e3434377a5c222f3e203c70617468207374726f6b653d5c22233030303030305c22207374726f6b652d6d697465726c696d69743d5c2231305c2220643d5c224d313733312e3334382c323332362e3738366331372e3339362d31372e3838332c33392e3833342d32392e3437372c36342e3031322d33332e3132322020632d342e3630392d34342e3334392d372e3634382d39362e32382d382e3035392d3134372e3038336c2d32332e3734352d32372e3035336c32332e3937382d31322e32343663302e3331342d32362e35332c322e3538372d35362e3535332c342e3532392d37392e3937382020632d35342e3635332c34392e3531332d38302e3839332d39322e3237342d38372e3939382d3131372e333831632d302e3233342c32342e3134332c32322e3537342c3139352e3639332c32322e3537342c3139352e36393563302c302d36392e3832312d32302e37322d37322e3536342d38302e3338362020632d332e3430332d37342e3033352d34382e3538362d3238302e3536342d34382e3738392d3238302e35393663312e3830372c33362e3237362c32372e3038382c3232382e3233382d31312e3837392c3234302e3630392020632d3137322e3439322d3133392e3433372d3336332e3239332d3431322e3438322d3336332e3239342d3431322e3438336c3137302e31312c3235342e333432633139302e3033372c3236332e3139382d3131392e3836352c31322e3636362d3131392e38362c31322e3637322020632d302e3030322d302e3030322c3231312e332c3233322e3737362c36332e3432372c3231312e3937336334302e3538332c31322e3435372c39322e3335382c32362e3539362c3132362e35332c35322e3737316331382e3632332c31322e3830392c33312e3838332c33322e3639372c33362e3335362c35352e34383720206331382e3734332c39352e3439352d3136302e3830332d34302e3633362d3136302e3830352d34302e363337632d302e3932352c302e3031312c3134312e3337382c3134392e3230362c3238352e3935322c3330302e3533316c2d36322e3834332c38302e383836202063302c302c33302e3439392d33332e3536332c36382e3638362d37342e373731633134362e3835352c3135332e3730352c3239342e3039342c3330372e3536332c3239342e3039342c3330372e3536336c2d3237372e3236312d3332352e363834202043313638302e3332342c323338302e3136362c313730372e3939372c323335302e3739322c313733312e3334382c323332362e3738367a204d313532302e3138322c323031322e3132346331332e3434342c31382e3633352c32312e3331372c35342e3739392c32322e3335382c37372e333838202063352e3233392d31382e3835342c31312e3233312d38322e3132352c35322e3135342d37312e30323963332e3436392c33312e3233332c31372e3030352c3131352e3033332c31382e3038382c3134362e352020632d38342e3138322d33342e3234332d3233302e3937392d3136352e33342d3132332e3639312d3139312e373639763043313437382e3731362c313936312e3533332c313530322e34322c313938372e3530342c313532302e3138322c323031322e3132347a204d313539322e3839322c323333352e3532382020632d36372e3438372d38392e3037372d33312e3636312d3133302e3036382d33312e3636312d3133302e3036376334322e3334332c32332e3938352c3131372e3034312c36332e3637372c3132342e3336322c3130352e3235366c2d32322e3435312d3230372e37393220206333382e3437372d392e3330332c37392e3039332c33352e3333332c37392e3532332c3131322e32343663362e3539332c36362e3434372d35372e3731312c3133362e3835372d39352e3134352c3138342e3532354c313539322e3839322c323333352e3532387a5c222f3e203c70617468207374726f6b653d5c22233030303030305c22207374726f6b652d6d697465726c696d69743d5c2231305c2220643d5c224d323531352e3735332c323430372e3839356c2d3237372e32362c3332352e36383463302c302c3134372e3233392d3135332e3835382c3239342e3039342d3330372e35363320206333382e3138372c34312e3230372c36382e3638362c37342e3737312c36382e3638362c37342e3737316c2d36322e3834332d38302e383836633134342e3537342d3135312e3332342c3238362e3837372d3330302e35322c3238352e3935322d3330302e3533312020632d302e3030322c302e3030312d3137392e3534382c3133362e3133322d3136302e3830352c34302e36333763342e3437332d32322e37392c31372e3733332d34322e3637372c33362e3335352d35352e3438386333342e3031382d32362e3130392c38362e3133362d34302e3430352c3132362e35332d35322e37372020632d3134372e3837332c32302e3830322c36332e3432392d3231312e3937362c36332e3432372d3231312e39373363302e3030352d302e3030362d3330392e3839372c3235302e3532362d3131392e38362d31322e3637326c3137302e31312d3235342e3334322020632d302e3030312c302e3030312d3139302e3830322c3237332e3034362d3336332e3239342c3431322e343833632d33382e3936362d31322e3337312d31332e3638362d3230342e3333332d31312e3837392d3234302e3630392020632d302e3230332c302e3033312d34352e3338362c3230362e3536312d34382e3738392c3238302e353936632d322e3734332c35392e3636352d37322e3536342c38302e3338362d37322e3536342c38302e33383663302d302e3030312c32322e3830382d3137312e3535322c32322e3537342d3139352e3639352020632d372e3130352c32352e3130382d33332e3334352c3136362e3839342d38372e3939382c3131372e33383163382e30312c38332e3532382c352e3136352c3138352e3437342d332e3239382c3236362e3336202043323433382e3433322c323330342e3332342c323436392e36352c323336352e3030352c323531352e3735332c323430372e3839357a204d323638312e3137342c313937332e3231334c323638312e3137342c313937332e3231332020633130372e3234362c32362e3437352d33392e3434332c3135372e3436342d3132332e3639312c3139312e373763312e3038332d33312e3436372c31342e3631392d3131352e3236372c31382e3038382d3134362e3520206334302e3932332d31312e3039362c34362e3931352c35322e3137352c35322e3135342c37312e30323943323632372e3231332c323033322e3938372c323636372e3432352c313938372e3436382c323638312e3137342c313937332e3231337a204d323532322e3734372c323339392e3639362020632d33372e3533392d34372e3932332d3130312e3635362d3131372e3839312d39352e3134342d3138342e35323963302e3234332d37362e3631322c34312e3335362d3132312e3739372c37392e3532322d3131322e3234326c2d32322e3435312c3230372e373932202063372e3334332d34312e3630312c38322e3030332d38312e3235352c3132342e3336322d3130352e32353643323634332e3435362c323234362e3934332c323538352e3436362c323333342e3537362c323532322e3734372c323339392e3639367a5c222f3e3c2f673e3c673e3c2f673e3c673e3c2f673e3c673e3c2f673e3c673e3c2f673e3c673e3c2f673e3c673e3c2f673e3c2f7376673e4142434445464748494a4b4c4d4e4f505152535455565758595a6162636465666768696a6b6c6d6e6f707172737475767778797a303132333435363738392b2fa26469706673582212203d6d72a9150afcd1ad51f51d3189cbeed76ba6b7ae949a5a169f7a42cbd1e90664736f6c63430008010033",
  "devdoc": {
    "kind": "dev",
    "methods": {},
    "version": 1
  },
  "userdoc": {
    "kind": "user",
    "methods": {},
    "version": 1
  },
  "storageLayout": {
    "storage": [
      {
        "astId": 3534,
        "contract": "src/wait.sol:WAIT",
        "label": "supportedInterfaces",
        "offset": 0,
        "slot": "0",
        "type": "t_mapping(t_bytes4,t_bool)"
      }
    ],
    "types": {
      "t_bool": {
        "encoding": "inplace",
        "label": "bool",
        "numberOfBytes": "1"
      },
      "t_bytes4": {
        "encoding": "inplace",
        "label": "bytes4",
        "numberOfBytes": "4"
      },
      "t_mapping(t_bytes4,t_bool)": {
        "encoding": "mapping",
        "key": "t_bytes4",
        "label": "mapping(bytes4 => bool)",
        "numberOfBytes": "32",
        "value": "t_bool"
      }
    }
  }
}